:020000041000EA
:1000000000B5324B212058609868022188439860DF
:10001000D860186158612E4B002199600221596106
:100020000121F02299502B49196001219960352056
:1000300000F044F80222904214D00621196600F024
:1000400034F8196E01211966002018661A6600F04E
:100050002CF8196E196E196E052000F02FF8012189
:100060000842F9D1002199601B49196000215960AB
:100070001A491B48016001219960EB211966A021F2
:10008000196600F012F800219960164914480160C1
:100090000121996001BC002800D000471248134993
:1000A000086003C880F30888084703B5996A0420EC
:1000B0000142FBD001200142F8D103BD02B5186610
:1000C0001866FFF7F2FF186E186E02BD00000240BE
:1000D000000000180000070000035F00212200005C
:1000E000F4000018222000A00001001008ED00E03C
:1000F00000000000000000000000000074B24E7A12
:1001000000200420F7010010C3010010C5010010F9
:10011000C1010010C1010010C1010010C101001097
:10012000C1010010C1010010C1010010C701001081
:10013000C1010010C1010010C9010010CB01001065
:10014000CD010010CD010010CD010010CD01001037
:10015000CD010010CD010010CD010010CD01001027
:10016000CD010010CD010010CD010010CD01001017
:10017000CD010010CD010010CD010010CD01001007
:10018000CD010010CD010010CD010010CD010010F7
:10019000CD010010CD010010CD010010CD010010E7
:1001A000CD010010CD010010CD010010CD010010D7
:1001B000CD010010CD010010CD010010CD010010C7
:1001C00000BE00BE00BE00BE00BE00BEEFF3058054
:1001D000103800BEF2EB88713CA3001068A3001039
:1001E0003402001090A31AE700201F49086006C8D7
:1001F00081F3088810471D48006800282FD10DA4FE
:100200000ECC002902D000F012F8F9E71849194A7B
:10021000002000E001C19142FCD1174988471749ED
:1002200088471749884700BEFDE701C901C29A42C5
:10023000FBD3704768A30010C0000020E80C00202A
:1002400090AF0010000004200000042090AF0010C8
:10025000001004200010042000000000704709482E
:1002600004F0D4FA0047000008ED00E0000000D0E0
:10027000E80C00200C2500209535001055030010D7
:10028000513500105756000006005250ABB3605372
:10029000D09C001006005250861C0302E09C001007
:1002A000060052505422A29DF49C001005005250AA
:1002B000DE65F46890AF0010F8B5C04610B5064C86
:1002C0002378002B07D1054B002B02D0044800E017
:1002D00000BF0123237010BDE80D002000000000C6
:1002E000A0810010044B10B5002B03D00349044833
:1002F00000E000BF10BDC04600000000EC0D002073
:10030000A081001070B504000D00034804F07EFACF
:1003100003002900200098475542000010B50B202B
:1003200001F006FA002201210B2001F0E7F9D024A8
:10033000240680231B01A3620C2001F0F9F900229E
:1003400001210C2001F0DAF980235B01A36200F0A7
:100350000FF910BD10B505F077FB1D4805F038FB0F
:10036000FFF7DCFFD0231B065B681B0503D40021CD
:100370000800FFF7C7FFFF20000200F0EDF800F0D3
:10038000E5F8012000F0BCF904E0002000F09CFB3F
:10039000002816D10F4B986A00F084F90120002143
:1003A000404206F0CBFCD0231B065B681B05ECD457
:1003B000D0231B065B68DB04E7D400210800FFF7AD
:1003C000A1FF054A0549002001F0C0F8E2E7C04658
:1003D000A081001000400540801C0020A81C0020C7
:1003E00000220AE0930006495958064B5B68DB037C
:1003F000FBD4044B19610132D2B2032AF2D97047FF
:10040000FC12002000002050F8B5DE4657464E464C
:100410004546E0B506000D00141C807805F0CCF8C8
:100420008046F07805F0C8F8071C707805F0C4F82D
:10043000061CA87805F0C0F88346E87805F0BCF8FB
:100440008246687805F0B8F881464146584605F07E
:100450008AF8211C05F0A7F8414605F089F8804686
:10046000391C504605F07FF8211C05F09CF8391C1A
:1004700005F07EF8051C311C484605F074F8211C77
:1004800005F091F8311C05F073F805F0BDF8C4B221
:100490002402404605F0B8F8C3B21B041C43281CD4
:1004A00005F0B2F800062043F0BCBB46B246A946B0
:1004B000A046F8BDF8B51F4B1B78002B18D01E4A7C
:1004C0001E4B13CB13C21B68136000231C4A13700E
:1004D000184A137000221A4B1D78152D1ED82800BB
:1004E00005F06AF8174905F05EF8061C00240DE0D7
:1004F0000122F0E7A7001449C9190F48C019321C9E
:10050000FFF782FF0D4BD8510134E4B2032CF1D92F
:1005100001350B4B1D70FFF763FFF8BD002AFCD1BE
:10052000064A094B13CB13C21B681360FFF758FF31
:10053000F3E7C046FF2400200C130020FC1200202B
:10054000B80B0020310C433D1C130020014B01224D
:100550001A707047FF240020002304E09900034A2A
:1005600088500133DBB2032BF8D970471C130020ED
:1005700070B58CB0434D4449280005F039FC0400A7
:1005800006210A2001F0A2F8012300930A2200218B
:10059000280005F049FC1022002108A805F0DCF82D
:1005A00080235B020893F8235B0209938023DB021C
:1005B0000A93C0231B030A93102208A904A805F07C
:1005C000D1F8E21C059B0393304B03990B40E101EA
:1005D0000B43120313430593079A0392D200D208E8
:1005E000802189050A430792294A13400593102266
:1005F00004A908A805F0B6F80B9B0393254A1A40F6
:10060000A0239B0113430B930A9B0393224A1A4096
:10061000224B13430A939B009B088022D20513436D
:100620000A93052002F0DEFE1D4904F043F904F0B0
:10063000C3FF061C04F0E8FF85B2002D1FD0280080
:1006400004F0BAFF011C301C04F08DFF8721C9059E
:1006500004F0A9FF04F0D8FFC0B200022D04054346
:100660000895084D08AB22000021280005F02EFC5B
:100670002B680122934313432B600CB070BD002004
:10068000EBE7C04600002050B48100107F00FEFF61
:10069000FFFFFF9FFF83FFFFFFFFF5C10000023058
:1006A0000050C30010B50E4B18600E4B1B689842EB
:1006B00008D2C31A013B0C4A934207D80023002BEF
:1006C0000AD110BD984205D9C31AF4E7054B18604A
:1006D0000123F4E70023F2E7FFF7ECFEF1E7C04661
:1006E000F0240020A4220020194100000048704797
:1006F000C4810010014B18607047C046C813002029
:1007000010B5040001280AD00848FFF7F3FF084B92
:10071000084A1A60084B1C7007F0B6F810BD034871
:10072000FFF7E8FF024B054A1A60F3E7B01D00002F
:10073000C4130020C1110010B90B00204D1500108A
:10074000034B1B78012B01D0024870470248FCE79D
:10075000B90B0020E4890010E0830010034B1B78E4
:10076000012B01D0024870470248FCE7B90B00207A
:10077000848900103883001000207047014B01224B
:100780001A7070470525002070B504AC25880A4C06
:100790002478012C0AD0002908D1002A06D1187823
:1007A000102804D02A00190000F012FC70BD981C1B
:1007B00000F00AFAFAE7C046B90B0020004870477B
:1007C000F889001003780133037001487047C04670
:1007D0002083001070B58200114BD558002808D036
:1007E000280007F04BFCC0B21F2800D91F200023AF
:1007F0000CE0196802220B4804F0B4FF012007E066
:100800005A1CEC5C5100084BCC52D3B29842F7D83A
:1008100001304000C0239B0003430348038070BDA8
:10082000C00B00201E0E00201C0E002010B590B042
:1008300004000A4805F0CCF8002300933C22002174
:1008400001A804F089FF40226946200006F0BEFEA0
:10085000684600F0B1FD10B010BDC046B482001073
:10086000014B01221A70704706250020014B01221E
:100870001A707047002500200120704710B58822AB
:1008800092000021014804F067FF10BD601A0020AB
:1008900010B50020FFF7F2FF10BD0000F8B5CE46FE
:1008A000474680B580460D004B79FF2B2ED10B7942
:1008B000DF00FF1ABFB21937BBB2994693422CD85A
:1008C0000C780C19002609E03B01DB19DB00164906
:1008D000CB185A700136F6B22378E4182B79B3425C
:1008E00016D9AF786378052BF6D12100404605F084
:1008F00055FF002814D0A278D309012BE4D03B0186
:10090000DB19DB000849CB189A70E3E7002399460E
:100910004846C0BCB946B046F8BD00239946F7E743
:1009200000239946F4E7C046601A0020F0B5C64699
:1009300000B582B004000020032809D80201121873
:10094000D200224D525D914203D00130C0B2F3E794
:10095000FF20050002011218D2001C4EB218527876
:100960008A420CD002011218D200184EB2189278A6
:100970008A4211D0012002B080BCB846F0BD144AB2
:10098000002A21D001010918C900083189199AB239
:10099000FFF7F4FE0120EEE707013E18F6004836A7
:1009A0000A4A904646449BB200933300002200213D
:1009B000FFF7EAFE7F19FF004744B9784023320071
:1009C000200005F05FFFD6E70120D4E7601A002081
:1009D0007D070010F8B5040005F044FE002803D19F
:1009E0000023002B08D1F8BD05F044FE002801D1FA
:1009F0000123F6E70023F4E723011B19DB000F4A6C
:100A0000D3189978002005F079FF0028EBD10B4E20
:100A100025012F19FF00F719B97805F00BFF2A19E6
:100A2000D20048329219B9784023002005F02AFFFD
:100A3000B978002005F012FFD5E7C046601A002003
:100A4000F0B5CE4600B582B004000191150005F066
:100A500011FE00280ED123011B19DB00194AD318FF
:100A60005978002005F0E6FE002806D102B080BCCF
:100A7000B946F0BD05F006FEEDE72B1C402D00D970
:100A800040239BB2994627013D19ED0008350D4ED4
:100A9000AD191A000199280004F064FE3919C90043
:100AA000711849784B462A00002005F0EBFE3F19EB
:100AB000FF00F7197978002005F0D0FE2000FFF73D
:100AC00089FFD3E7601A002010B503000001C018A9
:100AD000C000114B1818447805F0C4FD002806D159
:100AE0000023002B13D0002C09D1002010E005F0CA
:100AF000C1FD002801D10123F3E70023F1E7210024
:100B0000002005F0FBFE002803D1013000E00020AA
:100B100010BD0020FCE7C046601A002010B540223E
:100B20000021024804F018FE10BDC0462C1300201E
:100B3000014B18707047C04602250020014B187306
:100B40007047C0462C130020014B58737047C046B5
:100B50002C130020074A0021535E107806490870C4
:100B6000033399B21BB21380FF2B01DDFF391180D3
:100B70007047C046FC2400202C130020014B0122AA
:100B80005A7070472C130020054B03229A7348219A
:100B9000D9731A74013A5A74473919765A767047DC
:100BA0002C13002010B5C4B2000A002307E019007E
:100BB0000E31044A5454013150540233DBB20D2B30
:100BC000F5D910BD2C1300207047000010B5074860
:100BD00001230370002343700333837003300449FF
:100BE0000622033104F0BEFD10BDC0462C130020C8
:100BF000881E002010B50400FFF790FF8120FFF74A
:100C000097FF012C0DD02100094804F011FF094B7A
:100C10001C70094B19784023064A002006F070FA30
:100C200010BD064804F004FFFFF7D0FFF1E7C0460F
:100C30000C8400102C13002002250020F4830010E7
:100C400030B587B06946194B0A0032CB32C232CB7D
:100C500032C2022816D0032820D08120FFF76EFF71
:100C6000134C0123A37320000F30124906220331D5
:100C700004F078FD200015301822694604F072FD5A
:100C800007B030BD8120FFF759FF09480223837365
:100C90000F301022084904F065FDF1E78120FFF7CD
:100CA0004DFF034B03229A73EAE7C046908600107B
:100CB0002C130020881E0020AC13002070B5040007
:100CC0000D001600FFF72AFF2120FFF731FFFFF785
:100CD00041FFFFF753FF2000FFF736FF644804F0A1
:100CE000A7FE482C00D99AE0A300624AD3589F4639
:100CF000614804F06DFE8020FFF720FF5F4804F09C
:100D000097FE0024A7E0E97A5D4804F091FE802078
:100D1000FFF714FFF2E75B4804F05AFEE87AFFF7AA
:100D20008FFFEBE7E97A584804F082FE8020FFF756
:100D300005FFEA7A554B1A70E0E7554804F048FE83
:100D40008220FFF7FBFEFFF71FFFD7E7E97A514844
:100D500004F06EFE8020FFF7F1FECFE7297BEA7AF0
:100D6000EB7B4D4804F064FE9020FFF7E7FEEA7B42
:100D7000E97A287B00F0FCF9C0E7297BEA7AEB7B73
:100D8000464804F055FE8020FFF7D8FE2B7B802BD1
:100D9000B4D1EB7A262BB1D10024192C0BD8230027
:100DA0001033E95C3E4804F043FE0A2004F0DCFD09
:100DB0000134A4B2F1E70020FFF758FD9EE739485F
:100DC00004F006FE8320FFF7B9FE6420FFF7EAFE79
:100DD00094E7354804F0FCFD8020FFF7AFFE8DE777
:100DE000324804F025FE8020FFF7A8FEEA7A0F23A0
:100DF0001340072B0BD00F2B0DD0032B03D02C4807
:100E000004F0E6FD7AE72B4804F0E2FD76E72A4895
:100E100004F0DEFD72E7294804F0DAFD6EE72100F8
:100E2000274804F005FE002405E0295D254804F06C
:100E3000FFFD0134A4B2B442F7D30A2004F094FDBC
:100E40008020FFF77BFE59E71F4B195D1D4804F01A
:100E5000EFFD0134E4B21F2CF6D90A2004F084FD22
:100E60004023194A2121002006F04AF970BDC046EE
:100E70002884001058850010308400105085001020
:100E8000408400105084001060840010DE0B0020AD
:100E9000788400108C840010A0840010C884001096
:100EA000F0840010F8840010088500101C850010E4
:100EB000D49C00102C850010308500103485001063
:100EC00038850010488500102C13002010B510281C
:100ED0000BD080280AD0012804D00100054804F076
:100EE000A7FD02E0887AFFF7E9FE10BD4878FFF71A
:100EF00081FEFAE77C860010094B1B780A2B07D08D
:100F00000B2B09D0064B0A221A70054B1878704734
:100F1000034B0B221A70F8E7014B0C221A70F4E70E
:100F2000DF0B002070B50400224B1B78002B04D18E
:100F3000214B1B78302B0BD070BD204B1A88204BD7
:100F400018782049FFF7C2FF1A4B00221A70F3E706
:100F5000FFF7E4FD3020FFF7EBFDFFF7FBFDFFF7A8
:100F60000DFE2378184DAB706378EB70A3782B716E
:100F7000E3786B7123790F210B40AB716079A37912
:100F80001B0203431B11EB71E3792B72237A194087
:100F90006972617AA37A1B020B431B11AB72FFF7D4
:100FA000ABFFE872094B197840232A00002006F0B5
:100FB000A7F8C1E703250020DE0B0020DC0B002092
:100FC000042500206C1300202C1300200225002093
:100FD00010B5054B01241C70044B1870044B1A808B
:100FE000044804F0BFFB10BD0325002004250020A9
:100FF000DC0B00206C13002010B5024B181804F015
:10100000B1FB10BD2C130020502800D19FE003D964
:1010100060281ED0FF2013E0402800D999E0202846
:1010200008D3242900D198E00BD8012900D096E0FC
:10103000222005E0002803D0102800D08BE00020FB
:1010400070472639C9B2252901D8FF20F8E70020CA
:10105000F6E7A92979D88B00434AD3589F46FF2049
:10106000EEE70220ECE70120EAE72320E8E7002092
:10107000E6E7B920E4E71A20E2E70120E0E70020F4
:10108000DEE74020DCE70020DAE74020D8E7002058
:10109000D6E74020D4E70120D2E70020D0E70120A6
:1010A000CEE70020CCE70120CAE70020C8E73B20BC
:1010B000C6E73420C4E73B20C2E73420C0E73B202A
:1010C000BEE73420BCE73D39284B585CB8E73D39D2
:1010D000264B585CB4E71A20B2E71A20B0E71A2072
:1010E000AEE75E20ACE70120AAE75020A8E7FD208C
:1010F000A6E70020A4E70020A2E7C620A0E70F2073
:101100009EE70F209CE730209AE7612098E7AE2009
:1011100096E7902094E7D92092E7D42090E7142016
:101120008EE754208CE741208AE7152088E7542079
:1011300086E7C72084E7792082E79C2080E7332078
:101140007EE736207CE763207AE7002078E70020FE
:1011500076E7FF2074E7FF2072E7682070E7002041
:101160006EE703206CE7C046A8860010CC24002060
:10117000F0B58BB006000F00150008A90F7048707D
:1011800000248C70CC700A7105220E20FFF734FF0A
:1011900000941A22002101A804F0DEFA07E03919B0
:1011A000C9B23000FFF730FF6B4618550134A54235
:1011B000F5DC2A0069461320FFF71EFF0BB0F0BDD7
:1011C000F8B5CE46474680B5030002789207D20FA5
:1011D000554801278478BC43224382701A7812074D
:1011E000D20F920084780425AC43224382701A788F
:1011F0005207D20FD20086780824A046A643324375
:1012000082701A78D207920F944682780226B243EF
:101210006446224382701A78D2090478BC43224380
:1012200002701A785206D20F52000478B443224357
:1012300002701A78D206D20FD20091460478424644
:1012400094434A46224302701A789206D20F9200C3
:101250000478AC43224302705A789206D20F447845
:10126000BC43224342705A78D206D20F52004778CC
:10127000B7433A4342709A789207D20F12014678E8
:101280001027BE43324342709A78D207960E4278B6
:101290001037BA43324342705A78D20996004278E6
:1012A000AA43324342705A785206D20FD200457890
:1012B0004446A5432A4342705A785207D20F9201FE
:1012C00004784025AC43224302705A78D207540E6A
:1012D0008278AA43224382705A789207D20FD201B1
:1012E00085787F2425402A4382705B781B07DB0FBB
:1012F000DB0102781440234303700B88C3701B0A80
:1013000003718B8843711B0A83710B89C3711B0A9C
:1013100003728B8943721B0A8372FFF703FEC0BC02
:10132000B946B046F8BDC046E01D0020F0B583B018
:1013300005001400012934D113785B069B0F012BA3
:1013400026D0022B30D15378012B03D0022B07D0AB
:10135000002027E01D23154A210005F013FE21E09F
:10136000117953791B020B43072B01D0002019E0A0
:101370006B469F1D0E4E02223100380004F0F2F938
:101380003B883200083A2100280005F0FBFD09E007
:101390005178084804F04CFB2100280005F0D6FDE8
:1013A00000E0012003B0F0BD0020FBE764890010DD
:1013B000088200105089001010B503780F2B07D851
:1013C000002B2FD00F2B2DD89B00474AD3589F4678
:1013D000AF2B09D8A12B25D35F33DAB20E2A21D83F
:1013E0009300424AD3589F46F12B1BD1404804F04A
:1013F000EFFAFFF735FAFFF739FA13E03D4803F04B
:1014000005FA03000021080098473B49AF230B7001
:1014100000234B708B704022002006F0EDF8002076
:1014200006F008F910BD354804F0D2FA324903231A
:101430000B704022002006F0DFF8002006F0FAF8DA
:10144000F0E72F4804F0C4FA2B49A3230B70402285
:10145000002006F0D1F8002006F0ECF8E2E7294879
:1014600004F0B6FADEE7284804F0B2FAFFF76EF8A7
:10147000D8E7264804F0ACFA1F4C40220021200097
:1014800004F06AF9A123237040222100002006F015
:10149000B3F8002006F0CEF8C4E71D4804F098FA2F
:1014A000C0E71C4804F094FA1349A2230B700023F0
:1014B0004B708B70CB700B714022002006F09CF8B3
:1014C000002006F0B7F8ADE7134804F081FAA9E769
:1014D000124804F07DFAA5E7114804F079FAA1E773
:1014E000104804F075FA9DE7708C0010B08C001065
:1014F000548C001055420000201A0020C48A0010AD
:10150000EC8A0010148B0010388B0010588B0010E0
:10151000788B00109C8B0010CC8B0010EC8B001093
:101520000C8C00102C8C001000117F380002054B31
:10153000984204DC044B984202DA180000E00148AB
:1015400000B27047FD7F00000380FFFFF8B5CE4674
:10155000474680B506000D0017001068FFF7E4FF4E
:10156000B400A419A400584B1C19E0807868FFF758
:10157000DBFF2081B868FFF7D7FF6081F868FFF7CD
:10158000D3FFA0812A78D207D20F0123A1789943F3
:101590000A43A2702A789207D20F5200A178022043
:1015A000804681430A43A2702A785207D20F9200E4
:1015B000A178023081430A43A2702A781207D20F21
:1015C000D200A178043081430A43A2706A7892065F
:1015D000D20F5201A078202188430243A2706A787A
:1015E000D206D20F1201A0788446102067468743A6
:1015F0003A43A2706A785207D20F52009146E778B8
:10160000424697434A463A43E2706A78D207D20F7D
:10161000E7789F433A43E270D02212065268120BD9
:1016200013405A4253411B01E27882431343E37053
:101630002B789B06DB0F5B01E2788A431343E37050
:101640002B785B06DB0F9B01E2783030824313433B
:10165000E3702B78DB09D901E3787F2213400B4339
:10166000E3706B785B06DB0F9B01A17881430B4332
:10167000A3706B78DB09DB01A1780A401A43A270E2
:101680006B780222110019401A4200D0FF21B300EA
:101690009B199B000C4AD31819716B780822110012
:1016A00019401A4200D0FF210748B3009A1992004E
:1016B00082185171110014223000FFF7C1F9C0BC2B
:1016C000B946B046F8BDC046EC1D002010B58300F9
:1016D000084A944663441C6840226240C024144077
:1016E0008022520113431C60C000034B9C4660449F
:1016F000416010BD04C001400040014080000B4B20
:101700009C46604400290DD00823002A0CD00422F6
:101710001343026853400C221340802252011043AD
:10172000036070470023F0E70022F1E704C00140A6
:1017300010B501238340D0221206936293610521E4
:10174000FFF7C4FF10BD0000034B1B6802201840C8
:10175000431E9841C0B2704700C00640EFF31080AE
:1017600072B6034B1B68002BFBD0BFF35F8F704733
:101770002C0100D0BFF35F8F024B00221A6080F370
:10178000108870472C0100D0F8B506000C00150039
:10179000FFF7E4FFE308F718F15C0722224001237A
:1017A00093400B4205D1DBB20B433B70FFF7E2FFE6
:1017B000F8BD2100280001F069FFF0B583B00600F4
:1017C000019114001F00FFF7C9FF00E00134BC4283
:1017D0000CD8E308F518F35C0721214001228A4068
:1017E0001A42F3D1D2B21A432A7001E001246442B2
:1017F000FFF7C0FF002C02DB200003B0F0BD019B0F
:10180000002BF9D0089801F041FF0000002307E009
:10181000054A9A189200BFF35F8F002111600133CF
:101820001F2BF5D97047C04640000034054A107898
:10183000431CDBB21370172B02D9130010221A704D
:101840007047C046E00B002000B583B00100044B98
:1018500000931F2318220348FFF7AFFF03B000BD1A
:10186000EC8C0010B41D0020074B9B6810308000EA
:101870001950BFF35F8FBFF35F8F044B00211960D6
:1018800082F310887047C04600ED00E0240100D0CC
:1018900010B5091A081F0A4B9C466144094A914237
:1018A00008D8C30706D440104005400D064B184326
:1018B00080B210BD054B064AA321064801F04CFE3C
:1018C000FC070000FE0F000000E0FFFF088D001085
:1018D000788F0010388D001010B5091A04394C08A3
:1018E000090B08D14905490D064A11430180064BF1
:1018F0002343438010BD054B054AAB21054801F049
:101900002BFEC04600F0FFFF00F8FFFF948D001093
:101910004C8F0010388D001001238340034A10685B
:101920001840431E9841C0B27047C04600E100E035
:10193000002904D0034B1860034B18607047034B19
:101940001860FBE780E200E000E100E080E100E0F9
:1019500010B5012383401800FFF7EAFF10BD000017
:10196000024B9B6810308000C058704700ED00E0CB
:1019700070B504000D00EFF3108672B60C4B1B68B7
:10198000002BFBD0BFF35F8F2000FFF7E9FF094B6F
:10199000984201D0A84205D1320029002000FFF76B
:1019A00063FF70BD044B054A8621054801F0D4FD54
:1019B000240100D0CD010010A48D0010AC8F0010C8
:1019C000388D0010F0B5DE4657464E464546E0B528
:1019D00089B0814601911500EFF3108A72B6744BFD
:1019E0001B68002BFBD0BFF35F8F724B0027DF57C4
:1019F000002F40DB7C00E419A4006F482418062265
:101A0000A2566C4B1A706D4B9A684B4610339B0074
:101A1000D35898461E001B1A2F2B38D9684B98456F
:101A20002FD105AE674B33807B009B46D8198000D1
:101A3000614B9846404402306349FFF729FF7080AC
:101A4000624BB380FF23B371F571019B07935F4431
:101A5000BF0047440ECE0EC701231C43A04652468A
:101A600041464846FFF700FF09B0F0BCBB46B2460E
:101A7000A946A046F0BD564B564AD721564801F01C
:101A80006BFD564B534ADE21534801F065FDC043C0
:101A900040440C2102F00EFF002912D101239E4385
:101AA000B34633000026DA79AA4211D906215956E5
:101AB00000290CDB4A00521892001E003E4B9B1876
:101AC000F1E7474B434AEA21434801F045FD1E0038
:101AD000002E3AD005AB434A1A80813A5A80062339
:101AE000F3560293002B17DA3F4805AB9B469880CC
:101AF000029A9A71DD71019A0792301D2100FFF759
:101B0000C7FEB080B7717B00DB199B002A4FFF181E
:101B10005B4607CB07C7A2E77800C0198000264BB9
:101B2000C0180430321DB388D90A1C2907D15B05BF
:101B30005915023149005118FFF7AAFED5E72B4B82
:101B40002B4AB121244801F007FD05AE1D4B33801F
:101B50007B000293D8198000174A90460200424445
:101B60000392901C1849FFF793FE7080039A101D92
:101B70005946FFF78DFEB0801E4B5A464146521A19
:101B8000524153431B0DB371F571019A0792029BA9
:101B90009C466744BF0047440ECE0EC7114B5A46C1
:101BA0001380813B538001231C43A04657E7C04666
:101BB000240100D009250020E40B002000ED00E006
:101BC000CD01001000A1FFFF140C002001BDFFFF9C
:101BD000DC8D0010948F0010388D0010048E0010E2
:101BE0002C8E00100148000001BD0000A08E0010E6
:101BF000848F0010AAAA0000F0B5CE46474680B5F3
:101C000083B006000D00EFF3108872B6564B1B68C8
:101C1000002BFBD0BFF35F8F544B9A683400103415
:101C2000A300D758524B9F4207D0AF4200D198E053
:101C30000197504BFB1A2F2B09D94246390030002F
:101C4000FFF712FE03B0C0BCB946B046F0BD30008D
:101C5000FFF762FE814600213000FFF779FEBFF3F7
:101C60005F8FEFF30581002901D08C4211D1012350
:101C7000019C9C430022A368AB4212D00622A256CC
:101C8000002A0DDB53009B189B002200394CE418FE
:101C9000F1E73621384B394AFF31394801F05CFC15
:101CA0002200AB4256D106256557002D38DB6B006C
:101CB0005B199A002F4B9B189A68A260DA79E2713F
:101CC00006229A56A2719B795BB2002B0FDA2D483F
:101CD000A0806B005B199B00264AD3182A4A117812
:101CE0009971157049463000FFF732FEA5E7201DB7
:101CF0006B005B199B001F4A9B181A1D9B88D90A11
:101D00001C2907D15B055B15023359005118FFF7F9
:101D1000BFFDDDE71D4B1E4AB121194801F01CFC37
:101D2000002912D1002A0ED0FF239371194B938002
:101D3000154A1378A371184B0E49641A6441634322
:101D40001B0D1370CEE70A4FF2E7201D1349FFF772
:101D5000C3FDC7E76A21124B084AFF31084801F06A
:101D6000FBFB034F69E7C046240100D000ED00E013
:101D7000CD010010E40B0020B88E0010648F00101D
:101D8000388D001001BD000009250020A08E001034
:101D9000848F001001BDFFFFAAAA00001E0C0020C6
:101DA000EC8E001070B5012101432E4BCB1A2F2B66
:101DB00028D8EFF30583002B2BD0EFF3108C72B6ED
:101DC000294A1268002AFBD0BFF35F8F274A04001C
:101DD000244D641B64416243120D54B2244A92683C
:101DE0009B00D2588A421BD00022032A32D85300CB
:101DF0009B189B001B49CB189B795BB2A3421FD059
:101E00000132F2E7C7211B4B1B4A49001B4801F076
:101E1000A3FB92211A4B184AFF31184801F09CFB92
:101E2000134A92681749D150174B1A7882711C7067
:101E3000BFF35F8F0C4B00221A608CF3108870BDCB
:101E40000D005300991889006918FF268E710F4AFA
:101E50008A80E9E7D1210E4B074A4900074801F083
:101E60007BFBC046E40B0020240100D0AAAA00009E
:101E700000ED00E0F48E0010308F0010388D00105F
:101E80001C8F0010CD0100100925002001BDFFFFAF
:101E9000288F00100022044B02E0044902C30132E3
:101EA000072AFAD97047C04600E400E080808080AD
:101EB000024B9C4661448900016070474000003439
:101EC00010B50400FFF7B2FC01002000FFF7F0FF9F
:101ED000FF232371BFF35F8F10BD10B50400FFF720
:101EE000A5FC01002000FFF7E3FFFF23237100237F
:101EF0006371BFF35F8F10BD034B9C466144890043
:101F00000160BFF35F8F70474000003410B50400DC
:101F10000120FFF799FC01002000FFF7EDFF10BD45
:101F200070B505000C00080000F04AFE09492000C9
:101F300000F08AFDFFF77AFC074B9C466044800066
:101F400068602C75D0231B061B786B75A400034BAF
:101F5000E55070BD6522001040000034AC22002026
:101F60000A4B1A68EFF3108172B61368002BFCD08D
:101F7000BFF35F8F054B1B68BFF35F8F00221A60B2
:101F800081F3108840BF002000217047C824002042
:101F900010B5002922D003681B7B99421ED8174B2D
:101FA0009C466144090183689C4661440C68496809
:101FB000002A19D003681B7B9A4215D883680F4802
:101FC0008446624412019A18106853680200012086
:101FD0008B4201D80ED00020C0B210BD084B094A78
:101FE0003C21094801F0B8FA054B064A3C21064855
:101FF00001F0B2FAA242EFD8EDE7C046FFFFFF0FB3
:1020000094910010C49300104091001010B5002965
:102010001ED0037B99421BD84B005B18033B04681E
:10202000A4466344002919D0002A1DD0914221D032
:10203000002A25D0047BA24222D8046850008018D0
:10204000033820188170197800291FD11A7010BD2B
:10205000104B114A6821114801F07EFA104B114AC9
:102060006F310E4801F078FA0F4B0E4A70210B4881
:1020700001F072FA0D4B0B4A7121084801F06CFA1D
:10208000044B054A6821054801F066FA41701A7050
:10209000DDE7C046B891001030940010D4910010D4
:1020A0003C9200100C9400104892001054920010C2
:1020B00070B506000D001400002914D0002A14D0B9
:1020C000806873689847002806D0220029003000F5
:1020D000FFF79CFF280007E02A0021003000FFF7EF
:1020E00095FF200000E0100070BD0800FCE7000034
:1020F000F0B583B00500009201930AAB1C780BABDE
:102100001F78002C26D003685A7B944207D1012304
:10211000002B19D1002C3BD1200003B0F0BD002CC6
:102120000CD01A7B944209D81A6863001B19033B30
:10213000D3189B78002BEBD00123E9E73E4B3F4AB5
:1021400068213F4801F008FA3E4B3F4A67213F486B
:1021500001F002FA03689C7B002CDBD012D01A7BC2
:1021600094420FD862001219033A19688C466244EF
:1021700051789973002900D1D9730023937053705B
:102180001370C7E72C4B2D4A68212D4801F0E4F964
:10219000002C3AD02B681B7B9C4236D82C4BE31882
:1021A0001B01AA6894466344009A1A60019A5A6017
:1021B000089A9A60099ADA602E68002C2BD030D0E9
:1021C000337B9C422DD863001B19033B3268944635
:1021D000634400229A705A701A70717B220030009A
:1021E000FFF766FF7073844200D095E7287D009A60
:1021F000019B00F071FC061E01D0002F17D00C9B34
:10220000002B00D188E71E7086E7124B124A3C2152
:102210000E4801F0A1F9114B114AA521084801F01F
:102220009BF9054B054A6821054801F095F9286896
:10223000210000F089FEE2E7B89100103094001010
:10224000D49100106C9200103C940010409100104A
:10225000FFFFFF0F94910010C49300103C910010F9
:1022600020940010F0B5DE4657464E464546E0B590
:102270008BB00990002308938200B54BD6583700E5
:1022800052E0B44BB44A3F21B44801F065F9B44B75
:10229000B44A3C21B44801F05FF9002901D100287B
:1022A00069D10021404600F045FEA04219D12A68BC
:1022B0006B6806920793AB689846EB689A4643466C
:1022C000002B14D0002C18D03B681B7B9C4214D8E8
:1022D000631EFA68D35C08931B0218433861002020
:1022E00015E0A24BA24A8E219F4801F035F9A14B7F
:1022F0009F4A92219C4801F02FF9994B9E4A412117
:10230000994801F029F900239A46984600207B68F5
:10231000BFF35F8F00221A6086F310884346002BBC
:1023200032D1002800D10CE100F04AFB02000B1E64
:10233000A7DB00200021069007917868EFF3108654
:1023400072B601680029FCD0BFF35F8F39688846F8
:102350004C7B002CD7D09AD0097B8C4297D88749E8
:1023600065182D01B9688C46654428686968801A2B
:102370009941002991DD2A686B68099800F0ACFB4F
:1023800000239A469846C2E7089B1B0223439946BE
:1023900051461800C04705000E007A68EFF3108B15
:1023A00072B6136859424B41D9B2002BF9D1BFF331
:1023B0005F8F002E1EDB002E46DD3B69002B47D0D1
:1023C0004B456DD100F0FCFA02000B1E6EDB52197A
:1023D0007341002B70DB002B72DB00210491013173
:1023E0000391029451460191414600913800FFF754
:1023F0007FFE4CE03B69002BDDD04B4514D1069AA3
:10240000079B521BB341002B14DB002B16DB002172
:10241000049101310391029451460191414600918A
:102420003800FFF765FE32E0554B514AA1214E4876
:1024300001F092F801225242524BE6E7454B464AE0
:102440003F21464801F088F8002E01D1002DB4D17B
:102450003B68002C50D05A7B944237D1012100298F
:102460004AD1DA7B002A4DD19A7B002A03D1DA7B4C
:10247000002A5AD19C73DC73002C5CD03B681B7B18
:102480009C4258D8FA68013C135D01331355002370
:102490003B617A68BFF35F8F13608BF3108843E76B
:1024A000374B334AA421304801F056F8294B2A4AC9
:1024B0003F212A4801F050F801225242314B8AE76D
:1024C000244B254A3F21254801F046F8002C0DD029
:1024D0001A7B94420AD862001219033A186884469B
:1024E00062449278002ABAD00121B8E7264B274AE5
:1024F0006821274801F030F8264B274AF621244866
:1025000001F02AF8002A0AD0197B8A4207D8510024
:102510008A18033A19688C4662445470A4E71A4B2F
:102520001A4A68211A4801F017F81C4B1A4AFB2175
:10253000174801F011F80A4B0F4A41210A4801F0EF
:102540000BF80BB0F0BCBB46B246A946A046F0BDA6
:10255000AC2200203890001090930010549000108E
:1025600094910010C49300104091001094920010B8
:10257000A8930010AC920010E8930010FFFFFF0F2B
:10258000B8920010FFFFFF7FB89100103094001048
:10259000D4910010F4920010FC93001018930010D6
:1025A00010B50C4B5B68002B04D00A210A48FFF7DA
:1025B0007FFC10BD074C2300084A1021206800F062
:1025C000C9FB032000F0F0F903212000FFF7A8FC6D
:1025D000EBE7C0462C0C0020C8240020911F0010FF
:1025E00010B5064B5B68002B01D0044810BD044BAE
:1025F000044A5E21044800F0AFFFC0462C0C0020C6
:102600002C930010D093001040910010F0B5DE46DE
:1026100057464E464546E0B58BB0804616001F0033
:10262000149B9A46159B994616AB1B789B461F2315
:1026300002AA9446634400221A702BE0002809D0B5
:1026400042461268127B904204D8421E4146C96835
:102650008A5C41E0404B414A4121414800F07CFF07
:1026600007984CE0361BAF41002F07DB002F11DA33
:102670003C4B3D4A3F213D4800F06EFF012676422B
:102680003B4FF3E7374B384A3F21384800F064FFAF
:10269000002F4FDB43465A68EFF3108472B613687D
:1026A00059424B41D9B20791002BF8D1BFF35F8F4C
:1026B0001F3302AA944663440493002303930293B6
:1026C0004B4601935346009332003B004046FFF7D0
:1026D0000FFD031EB2D1020041464968BFF35F8F70
:1026E00000250D6084F31088002B29D01F2302A938
:1026F0008C4663441B78002BB2D112021043002B8E
:1027000020D05B46002B1DD04946D04704000D0069
:1027100003000B431DD00029A4DB00F051F9060093
:102720000F1EAFDB36196F41002FB1DA012676425A
:102730000F4FADE70B4B0C4A3F210C4800F00CFF4C
:10274000012040420BB0F0BCBB46B246A946A046B1
:10275000F0BD0798F6E7C04694910010E89300108A
:102760004091001038900010909300105490001089
:10277000FFFFFF7FF8B50400002900D162E0426846
:10278000EFF3108572B6136858424341D8B2002B5C
:10279000F9D1BFF35F8FCBB22268567BB3421BD116
:1027A0000120002848D0206988422BD0090AC9B2EC
:1027B000002B2ED02068007B83422AD8581EE66862
:1027C000305C88422BD000206368BFF35F8F00220B
:1027D0001A6085F31088F8BD002B0DD0167BB3422C
:1027E0000AD85E00F618033E1768BC466644B67801
:1027F000002ED6D00120D4E7134B144A6821144888
:1028000000F0AAFE2C21134B134AFF31134800F0AD
:10281000A3FE134B134A4121104800F09DFE1900FE
:10282000100000F091FB0028CED199210E4B0A4AEE
:1028300049000A4800F090FE23698B42C4D100236E
:102840002361C1E70020C6E7B89100103094001062
:10285000D491001050930010789300104091001014
:1028600094910010E89300107493001070B584B038
:1028700005000C00EFF30583002B1ED1FFF7B0FE1F
:10288000002302930193224B00932A002300FFF7B9
:10289000BDFE061E23DD20BFFFF7A2FE3100FFF7BD
:1028A00069FF1C4B5B6A9C422DD81A4A926AAA4265
:1028B0002CD29C4225D0012026E0164B5B6A99421F
:1028C00009D8144A926A824207D2994201D0012063
:1028D0001AE0002018E0002016E0012014E00D4B63
:1028E0005B6A9C4209D80B4A926AAA4207D29C4270
:1028F00001D0012008E0002006E0002004E00120D3
:1029000002E0002000E0002004B070BD0120FBE7E1
:10291000611F00100040054070B5EFF305801038CE
:10292000EFF3108C72B61A4B1B68002BFBD0BFF371
:102930005F8F01221300834016494B6316490B60D9
:10294000164909780C00C440224214D0114A546A36
:102950008200134D5259944206D38200114C1259F1
:1029600099430E4B197007E00A4A031D9B009958C2
:102970009950002200E00022BFF35F8F044B00213A
:1029800019608CF31088002A00D0904770BDC046B3
:10299000280100D0004005403C7005400A25002079
:1029A000E0240020981C002010B50100024A0348D2
:1029B000FEF7EAFE10BDC046549400100825002022
:1029C000044B5B6A034A906A1900536A9942F9D131
:1029D0007047C04600400540084B5B6A01E0074B6A
:1029E0005B6A8B42FBD301E0044B5B6A8B4203D1F1
:1029F000024B9B6A8342F7D37047C04600400540B4
:102A000070B504000D00FFF7DBFF02000B00200093
:102A10002900801859418B4202D804D1824202D940
:102A200001204042C117002902DBFFF7D5FF70BD2E
:102A3000024B034A3F21034800F08EFD38900010FE
:102A4000189500105490001070B504000D00EFF3BD
:102A5000108672B61B4B1B68002BFBD0BFF35F8F39
:102A6000002D1CD02000FEF77BFF174B83420BD0BC
:102A700019002000FEF77CFF01212000FEF768FF0F
:102A80000123A340114A1360A400114BE550BFF38A
:102A90005F8F0C4B00221A6086F3108870BDA20075
:102AA0000B4B0021D1500122A2400A490B789343DD
:102AB0000B7005492000FFF79FF800212000FEF76A
:102AC00047FFE4E7280100D01929001038600540CD
:102AD000981C00200A250020F0B5DE4600B584B021
:102AE0000400150001921E000293FFF769FF039591
:102AF0008E4202D84ED185424CD9EFF3108B72B67C
:102B0000274B1B68002BFBD0BFF35F8F254A17783C
:102B10000125A540EBB23B431370234B5D63221D9F
:102B200092000199D150A2002049029850501B6A8E
:102B30002B4212D11C4B1B6C2B4208D00020BFF340
:102B40005F8F174B00221A608BF3108823E0184B1D
:102B5000184AC521184800F0FFFCFFF731FF8E42EC
:102B600014D802D1039B834210D80E4B1B78BB4272
:102B70000ED00D4B1D625D631F2004400123A34056
:102B80000E4A1360074B1F701E38D8E70020D6E7A7
:102B90000120D4E7012004B080BCBB46F0BDC04694
:102BA000280100D00A25002000400540E024002034
:102BB00078940010FC9400109C94001080E200E0D7
:102BC000EFF3108C72B60B4B1B68002BFBD0BFF3DE
:102BD0005F8F01238340084A136208490A789A43A9
:102BE0000A70BFF35F8F034B00221A608CF31088CA
:102BF0007047C046280100D0004005400A2500204B
:102C000010B500291ED0037B99421BD84B005B18DE
:102C1000033B0468A4466344002919D0002A1DD050
:102C2000914221D0002A25D0047BA24222D80468F8
:102C300050008018033820188170197800291FD19E
:102C40001A7010BD104B114A6821114800F084FC25
:102C5000104B114A6F310E4800F07EFC0F4B0E4AAC
:102C600070210B4800F078FC0D4B0B4A712108488D
:102C700000F072FC044B054A6821054800F06CFC2A
:102C800041701A70DDE7C046B89100103896001008
:102C9000D49100103C92001024960010489200102D
:102CA0005492001070B506000D001400002914D0D5
:102CB000002A14D0806873689847002806D0220044
:102CC00029003000FFF79CFF280007E02A002100C0
:102CD0003000FFF795FF200000E0100070BD0800F5
:102CE000FCE7000010B50023437301338373037BBB
:102CF000C3730123027B9A4214D9002B0CD0027BB0
:102D0000934209D85A00D218033A01688C466244AB
:102D10000133DBB25370EDE70B4B0C4A68210C48D2
:102D200000F01AFC002A09D0924207D8016853002B
:102D30009A18033A8A180023537010BD024B034AB5
:102D40006821034800F008FCB89100103896001084
:102D5000D491001010B5017342608360FFF7C2FF89
:102D600010BD000070B50400081E00D170BD002920
:102D700034D0237B994231D84B005B18033B226847
:102D8000944663445A78002AF0D02DD0237B9A428F
:102D90002AD853009B18033B21688C4663445D7816
:102DA00000215970002825D0237B984222D8430067
:102DB0001B18033B21688C466344002159700100B5
:102DC0002000FFF76FFF060029002000FFF7CAFF71
:102DD000020031002000FFF765FFC7E7084B094AF2
:102DE0006821094800F0B8FB054B064A68210648EF
:102DF00000F0B2FB024B034A6821034800F0ACFB31
:102E0000B891001038960010D491001070B50500EC
:102E10000C00160000292FD034D0037B994231D802
:102E20004B005B18033B0268944663445A78002ABF
:102E30002ED19A78002A31D11978FFF793FF030039
:102E4000002E0AD0EA7B002A2ED1AA7B002A03D1C9
:102E5000EA7B002A3BD1AC73EC73002B3DD1002CF4
:102E60004FD02B7B9C424CD82B6861000C19033C43
:102E70001C190023637070BD254B264A3821264853
:102E800000F06AFB254B264A6821264800F064FBC7
:102E9000254B204A3A21204800F05EFB234B1D4A77
:102EA0003B211D4800F058FB002A0AD0297B8A42AA
:102EB00007D851008A18033A29688C466244547036
:102EC000C3E7164B164A6821164800F045FB184B1D
:102ED000104A4221104800F03FFB002B0BD02A7B08
:102EE000934208D843001B18033B2A689446634466
:102EF00000229A70B3E7094B094A6821094800F09B
:102F00002BFB064B064A6821064800F025FBC0460D
:102F1000309500101096001038950010B8910010F0
:102F200038960010D49100108C950010B4950010C4
:102F30001893001070B504000A00457B2900FFF7C4
:102F400065FF6073280070BD70B50400002967D06C
:102F5000437B8B420ED0002911D0037B99420ED8BF
:102F60004B005B18033B0268D0188378002B0CD110
:102F7000002056E00121FFF7DDFF012051E0294B41
:102F8000294A6821294800F0E7FA002B20D0227B4B
:102F900093421DD85A00D318033B2268D2182568E3
:102FA000EB5C8B421AD0002B1BD0227B934218D8AB
:102FB0005A00D318033B2268D21853788B4216D09C
:102FC000002BF0D11A4B1B4A6B211B4800F0C4FAAE
:102FD000144B154A6821154800F0BEFA4378137067
:102FE00007E0104B104A6821104800F0B5FA43780A
:102FF000537000238370437001222000FFF706FF07
:103000000200617B814205D02000FFF74BFE607318
:10301000012006E0094B074A7121074800F09CFA9D
:10302000002070BDB891001038960010D4910010A7
:10303000288F0010F895001038950010D8950010D2
:1030400070B5046BE30701D4200070BD020030327C
:10305000C0239B0113430A4A1A60456A826AAD0184
:10306000AD18AD02062000F0BDF9064901F022FCC2
:103070000100280001F01EFC0021FFF7C1FCE3E77E
:10308000010300004E0E000070B504000E00150094
:10309000FFF7D6FF22002C32E16A4E4035408023F4
:1030A0005B0113431D60206370BD000070B5050017
:1030B0000C00062000F096F9C000210001F0FAFB98
:1030C000C60908D00E4B9E4216D87F231840013007
:1030D0003400460800E001246C62AE620022002148
:1030E0002800FFF7D1FF062000F07CF98000A10145
:1030F000891901F0DFFB70BD0026024CECE7C046E9
:10310000FEFF0000FFFF000010B505394901013A3C
:10311000D2001143002B09D002220A43012B07D011
:10312000002111436E22FFF7AFFF10BD0022F4E72C
:103130000421F6E7002909D00A22064B9C46604488
:10314000434258414000044BC25270478022520013
:10315000F3E7C0460080FCBFF424002070B50500F2
:103160000C00062000F03EF9061E27D0164B9D42AB
:1031700026D08022D203154B1A60154B1A60154BCE
:103180009B6811009943FAD100212800FFF7D2FF74
:1031900021002800FFF78AFF0600002301220821F2
:1031A0002800FFF7B1FF2A002C3280239B01134334
:1031B00010221A60084B2B630323AB64300070BDF0
:1031C00080221204D7E7C0460080034000E00040A0
:1031D00000F0004000C0004001030000F8B5DE46EA
:1031E00057464E464546E0B505000F0092460A9AFE
:1031F000934250D31A0E91461E020A9A00233000C1
:10320000494601F095FB80466C006419A400304BE0
:103210009C4664446368834200D260602B1FDBB22B
:103220009B46012B3DD9C0239B01234380221201E1
:103230001A60AB00274A9958002907D0506901F05D
:1032400039FB431C5800C0180338FDD253465A01BD
:1032500023685A40E0231A4080235B0123431A600D
:103260005A46012A28D980239B0123438022120138
:103270001A6043466360424600233000494601F02D
:1032800057FBAD00134B58510120F0BCBB46B24672
:10329000A946A046F8BD104B104A3321104800F053
:1032A0005BF9012FBFD1C0239B01234303221A6086
:1032B000A368DB07FCD5C9E72168794003220A40EF
:1032C0001A60A2680123BB401342FAD0CBE7C04684
:1032D00000800040B81D002044960010B8960010F1
:1032E0005896001030B583B00C2000F011F9FEF7AD
:1032F0002BFA00280DD0002304E099002D4A2E4817
:1033000088500133092BF8D92A4B2C4A5A6203B052
:1033100030BD2B4B00229A6700F002F9294B0122A5
:103320001A60274B5B6C012BFBD1274B03221A60E1
:10333000234B9B6B012BFBD1013300930433234AB6
:103340000121234800F054F805230093214A01216C
:10335000214800F04DF8214B009300220221042067
:10336000FFF73CFF1E4D00952B0000220121052098
:10337000FFF734FF104C00942300002200210720A7
:10338000FFF72CFF00942300002200210820FFF704
:1033900025FF0A4B00932300002200210920FFF79C
:1033A0001DFF00952B00002200210620FFF716FFCD
:1033B000ADE7C046B81D0020006CDC021BB7000062
:1033C000008000403CB0004030B00040002F685901
:1033D00000800240008C864700C00240001BB700FE
:1033E000405973078000014BC0587047B81D00203A
:1033F000F0B5C64600B504000E0017001D003748A2
:1034000001F058FA8046364BFA18364B9A4239D8B2
:103410000100380001F04EFA0200103A98235B00D8
:103420009A4235D86B1E062B38D8069B013B062BDB
:1034300034D83F09474537D32D04069B1A0315435B
:103440002368002B36DB284B9C4244D0802252015B
:10345000264B1A60264B1A60264B9B681100994335
:10346000FAD12660A060231DC02292011A432123B5
:1034700013602368002BFCDAE5600823136080BC2E
:10348000B846F0BD1C4B1D4A11211D4800F064F8E0
:103490001C4B1A4A19211A4800F05EF81A4B174AB9
:1034A0001C21174800F058F8184B144A23211448DF
:1034B00000F052F822683F231340B342C3D1A368FF
:1034C0001B051B0D8342BED1E368EE22D2021340DE
:1034D000AB42B8D1D3E780229201B9E7001BB70015
:1034E00080E84BD380F8A93200C0024000E00040E1
:1034F00000F0004000C00040C8960010089800107E
:103500002897001084970010A0970010EC970010E7
:1035100080239B000343014AD3627047008005402B
:10352000074BAA2212011A602132FF32DA60054BE2
:10353000054A1A60024B5B68002BFBDA7047C046F5
:10354000004002400060024000B0FA0000BEFDE70B
:1035500010B5FFF7FBFF000010B582B00C0019009A
:10356000002A0CD0084B002A0BD0019200932300B4
:103570000200064802F05CFA0120FFF7E7FF044B67
:10358000F1E7034AF1E7C0461498001024980010B0
:10359000C484001070B52B4B2B4A1A602B4B2C4A5D
:1035A0001A602C4B9A682A4B9343FAD12A4C01E0BB
:1035B00008CC9847294B9C42FAD3FFF793FE234B44
:1035C000274A1A60234B9B68DB43DB01FAD1254B6A
:1035D00040229A675A671A67DA66234C09E0234B40
:1035E000234A87212348FFF7B7FF2000FEF768FC36
:1035F0000834214B9C4209D22368002BF5D0012BC3
:10360000EDD12000FEF769FC0834F2E71B4CA168FD
:103610001B4DC022280002F0A5F8A560EFF305833A
:10362000002B00D000BEFEF7F1F8FEF733FCFEF7EA
:10363000B7FF144C01E008CC9847134B9C42FAD3D7
:1036400070BDC04600E00040BFCDFBFE00F0004072
:10365000FE7F3C0000C00040D00C0020E00C0020A9
:10366000FFFFFF0100F00140C00C00205498001043
:10367000E498001074980010D00C002000ED00E0D9
:1036800000000020E00C0020E80C00200FB400B582
:1036900083B0084802F09CF9049B002B07D005A9D1
:1036A0000191180002F0A4F9034802F091F90120F9
:1036B000FFF74CFFD4980010EC840010704710B551
:1036C000002802D00B684968984710BD010000200F
:1036D00007E083001B185B00501C08601078C018BE
:1036E00030380A681378303BDBB2092BF1D97047C8
:1036F000F0B5DE4657464E464546E0B583B09346A4
:103700001F000C9B9A460D9C0E9B99460F9B9B0796
:1037100003D0B8460F00060022E00192A346884677
:103720004E46B9460700B44207D2551C4B464146A7
:103730002020B84701342A00F5E73D004F465C469B
:10374000019B9B46B1464646B84637002E0007E02F
:10375000013C551C5346185D43463900B0472A00CA
:10376000002CF5D135003E0047460F9B9B0707D440
:10377000100003B0F0BCBB46B246A946A046F0BD5F
:10378000B0464E46B9462F005D46531BB342EFD2BA
:10379000541C4B4641462020B8472200F5E7F0B5BF
:1037A000CE46474680B585B0944698460C9D0D9C04
:1037B0000EAB1B789946109A119B129EB7071CD42A
:1037C000002B0CD0F7070AD54F46002F02D10C373B
:1037D000374204D0013B02E030272F550134944298
:1037E00001D21F2CF8D9F70707D59C4205D21F2C10
:1037F00003D830272F550134F5E7F70615D577059F
:1038000005D4002C03D0944224D09C4222D00F9A9D
:10381000102A2BD00F9A102A30D00F9A022A35D0B6
:103820001F2C02D830222A5501341F2C05D84A46B5
:10383000002A31D02D222A55013403960293019497
:10384000009543466246FFF753FF05B0C0BCB9463A
:10385000B046F0BD621E012C06D00F9F102F01D084
:103860001400D4E7023CD2E71400D0E7B206D1D46A
:103870001F2CCFD878222A550134D1E7B206CCD5F7
:103880001F2CCAD858222A550134C9E71F2CC7D883
:1038900060322A550134C3E7720703D52B222A551B
:1038A0000134CAE73207C8D520222A550134C4E7BB
:1038B000F0B5DE4657464E464546E0B593B08146E4
:1038C0008A46089209931CAB10CB1B789B461E9D21
:1038D000219B9846002C03D1102342469A439046E0
:1038E0008023DB0046461E4042461A4212D0002C7E
:1038F00022D000260EE03033D9B2771C0AAB99559E
:103900002900200000F0D6FFAC4216D31F2F14D898
:103910003E0004002900200000F0CCFFCBB2092BB0
:10392000E9D94246920605D54121C918C9B20A39DA
:10393000C9B2E2E76121F8E7270043460693209BDE
:1039400005931F9B049303955B46029301970AAB73
:103950000093099B089A51464846FFF720FF13B091
:10396000F0BCBB46B246A946A046F0BDF0B5DE4667
:1039700057464E464546E0B595B0089009910A92E3
:103980000B931E9E1F9C20AB1B789B46229B994647
:10399000239D269B9A463300234303D1103352467E
:1039A0009A4392468023DB0057461F4052461A42F4
:1039B00019D0330023432DD0002714E03033DAB27E
:1039C0007B1C98460CABDA554A462B003000210090
:1039D00000F0AEFFA5421FD819D043461F2B1BD8BD
:1039E000474606000C004A462B003000210000F03C
:1039F0009FFFD3B2092BE1D95246920605D5412249
:103A0000D218D2B20A3AD2B2DAE76122F8E7B14567
:103A1000E3D901E00023984653460693259B05937E
:103A2000249B04934B4603935B46029343460193C6
:103A30000CAB00930B9B0A9A09990898FFF7AFFE0D
:103A400015B0F0BCBB46B246A946A046F0BD00008A
:103A5000F0B5DE4657464E464546E0B591B0834642
:103A60008A460C9298461A9C08941B9D0995220040
:103A70002B002000290001F0E6F9002800D0E5E045
:103A800001225242D74B2000290001F0D7F900282B
:103A900000D0DBE001225242D34B2000290001F08C
:103AA000B7F9002800D0D1E000220023089E3000A2
:103AB000099D290001F0ACF9002800D0DDE008984C
:103AC0000999069007918023DB001E9A1A400D92F7
:103AD0001E9A1A4201D106231C93069807990400E6
:103AE0000D000A000600024300D1D1E0080D400598
:103AF000400DBE4CA44660440A03120BBC4B13435A
:103B00001F0001F0B3F9BB4ABB4B01F03EF9BB4AC1
:103B1000BB4B01F013F904000D000022B94B30003B
:103B2000390001F002F9B84AB84B01F02EF9020051
:103B30000B002000290001F001F901F0AFF98146E6
:103B400001F094F904000D00B14AB24B01F01DF9E7
:103B50000022B14B01F0F2F801F0A0F90600AF4AE3
:103B6000AF4B2000290001F010F904000D003000D7
:103B700001F07CF9AB4AAC4B01F007F902000B00F5
:103B80002000290001F0D1F804000D0002000B0014
:103B900001F0FBF80A900B91A44BF31800261F05C7
:103BA00022002B002000290001F0C8F80E900F9190
:103BB00022002B0000208021C90501F0B6F8040086
:103BC0000D0000229A4B0A980B9901F0C0F80022D0
:103BD000984B01F0B3F802000B000A980B9901F022
:103BE000B6F80022944B01F0A9F802000B000A98E5
:103BF0000B9901F0ACF802000B002000290001F045
:103C00009DF802000B000E980F9901F0A0F8002219
:103C1000774B01F093F832003B0001F0B6F8060054
:103C20000F0004000D00069A079B01F007F9002819
:103C300030D001235B429C46E14400227D4B3000A2
:103C4000390001F084F804000D0023E01E9B04936A
:103C50001D9B03931C9B0293089A099B009201935E
:103C600043460C9A5146584600F0FCF811B0F0BC9F
:103C7000BB46B246A946A046F0BD002300240693E9
:103C80000794069680231B069C46654407951AE711
:103C9000002399464B466333C62B1ED804261E9B31
:103CA0001B0526D52B0023430FD0644A644B06988E
:103CB000079901F0BBF8002879D00022614B0698E3
:103CC000079901F0A5F8002871D01C9B4B4506DD33
:103CD0004A46981A431E1C9303E00526DFE700239B
:103CE0001C938023DB001E9A1A431E920026002399
:103CF00099461D9B9E4264D29F1B02231E9A1A4026
:103D00000A921E9A134202D0002E00D000274B4682
:103D1000002B07D022002B000698079901F017F816
:103D200006900791002200230898099901F070F885
:103D3000002848D1444B1E9A1340049303971C9BC0
:103D40000293069B079C0093019443460C9A5146AC
:103D5000584600F087F8002E00D187E71E9B9B068F
:103D60003DD54525441C4346020051462800D8470E
:103D70004B46DA179B18534005220592013E0496E4
:103D8000002203920A3202924A46D00F0190009319
:103D90004346220051465846FFF78AFD0A9B002BF6
:103DA00000D163E702005F460C9E1D9D54E01C9B02
:103DB000002B9ED00D9B002B9BD01C9B013B1C938A
:103DC00097E7002799E7069C079D2200290080209D
:103DD0000006844661440B0006920793AAE7652516
:103DE000C0E7C046FFFFEF7FFFFFEFFF01FCFFFFD3
:103DF0000000F03FFB799F501344D33FB3C8608B62
:103E0000288AC63F0000F83F61436F63A787D23F0F
:103E100071A379094F930A400000E03F1655B5BBE6
:103E2000B16B0240EF39FAFE422EE63FFF0300007D
:103E300000002C4000002440000018402D431CEBE3
:103E4000E2361A3F80842E41FFF7FFFF541C4346A1
:103E500051462020B8472200931BAB42F6D31000F6
:103E600004E7C046F0B5DE4657464E464546E0B547
:103E700095B00690079193469946209F1E9A1F9BE6
:103E80001000190000F0DFFF002831D1012252425A
:103E9000BF4B1E981F9900F0BBFF002837D10122AD
:103EA0005242BC4B1E981F9900F0C8FF00283DD11C
:103EB0000022B94B1E981F9900F0C0FF002850D176
:103EC0000022B64B1E981F9900F0A2FF002848D18F
:103ED000002200231E981F9900F09AFF002850D15D
:103EE00000239846229B5B0500D4B6E0002458E0EE
:103EF000229B0393219B029303230193A84B0093DE
:103F00004B465A4607990698FFF7F2FB0EE1229BB3
:103F10000393219B029304230193A24B00934B46EE
:103F20005A4607990698FFF7E3FBFFE00423229A1D
:103F30001A4022990B4210D09B4B002A0FD004222A
:103F40002299039121990291019200934B465A467E
:103F500007990698FFF7CCFBE8E0944BEDE70322C6
:103F6000EEE7229B0493219B039302971E9B1F9CC9
:103F7000009301944B465A4607990698FFF768FD4F
:103F8000D4E01E9A1F9B0020002100F0CEFE1E9060
:103F90001F9101239846A5E70CAB30221A55013F2B
:103FA00001341F2C01D8092FF6D81E981F9900F054
:103FB00075FF050000F05AFF02000B001E981F99C4
:103FC00000F0B3FEFA007A4B9B181A685B680A92FD
:103FD0000B9300F0DAFE0890099100F083FF0600D1
:103FE00000F040FF02000B000898099900F09DFEC8
:103FF0000890099100226F4B00F020FF00282ED07E
:104000000136300000F02EFF02000B000A980B99D9
:1040100000F004FF002801D001350026002F2CD12C
:10402000280000F023FF02000B001E981F9900F0EB
:104030007CFE06000F0000225E4B00F0E9FE002827
:1040400046D100225B4B3000390000F0F7FE00281B
:104050003ED1EB073CD501353AE0062746E7002282
:10406000544B0898099900F0D3FE0028D6D1002EB1
:1040700001D0F307D2D50136D0E7AA461F2C11D8BC
:10408000013F0A21300000F015FC651C30310CABFB
:1040900019550A21300000F00DFC092E0ED906003A
:1040A0002C00EBE755461F2C0CD87B1E002F09D0A7
:1040B0000CAA302111551F000134F4E72B0055469E
:1040C0001C00F0E71F2C03D80CAB2E221A5501342C
:1040D0001F2C10D80A21280000F0C4FB661C3031C8
:1040E0000CAB19550A21280000F0BCFB051E01D0BD
:1040F0003400EDE734000323229A1340012B1CD037
:104100001F2C06D84346002B32D00CAB2D221A555B
:104110000134229B0393219B029301940CAB0093E7
:104120004B465A4607990698FFF7E2FA15B0F0BCDD
:10413000BB46B246A946A046F0BD219B002B13D03A
:104140004346002B02D10C3313420FD0219B013B7D
:104150002193190003E00CAB30221A5501348C4234
:10416000CED21F2CF7D9CBE72199F8E72199F6E7B2
:10417000229B5B0704D50CAB2B221A550134C8E7F0
:10418000229B1B07C5D50CAB20221A550134C0E772
:10419000FFFFEFFFFFFFEF7F65CDCD4165CDCDC1C7
:1041A0000099001004990010F8980010F49800107D
:1041B000F09A00100000E03FF0B5DE4657464E464C
:1041C0004546E0B593B082468B4690461193002950
:1041D00000D1EBE200275546119B1878002800D14A
:1041E000E7E2252809D07C1C43463A005946A847F7
:1041F000119B013311932700EEE701331193002443
:10420000119A11780B00203BD8B2102803D88300F4
:10421000D048C3589F460B00303BDBB2092B2CD94A
:104220002A292FD000230A93119B1A782E2A39D0DD
:1042300000239A46119A1378683BD9B2122976D88E
:104240008B00C549CB589F4601231C430132119274
:10425000D6E702231C4301321192D1E704231C4309
:1042600001321192CCE708231C4301321192C7E7B7
:1042700010231C4301321192C2E711A8FFF726FA5E
:104280000A90D1E71C9B1A1D1C921868002804DBB9
:104290000A90119B01331193C6E702231C4343424A
:1042A0000A93F6E78022D20014435A1C11925A78DE
:1042B0001300303BDBB2092B04D92A2A07D0002394
:1042C0009A46B7E711A8FFF701FA8246B2E71C9BAE
:1042D0001A1D1C921868002804DB8246119B0133CA
:1042E0001193A7E70020F8E780235B002343511CCC
:1042F000119152786C2A01D01C0018E0C0239B0059
:104300001C430131119112E080232343511C119170
:104310005278682A01D01C0009E0C0231C430131F7
:10432000119104E080235B001C4301321192119B28
:1043300018780300253BDAB2532A00D92CE2930007
:10434000864AD3589F4680239B001C43013211921A
:10435000EDE780235B001C4301321192E7E77828E8
:1043600009D0582838D06F2838D0622838D0102388
:104370009C430A2600E01026582833D0692803D031
:10438000642801D00C229443630501D50122944393
:1043900069282AD0642828D0A30500D59FE0E3052A
:1043A00000D5B8E0630600D4CAE01C9A111D1C9128
:1043B0001168FF220A4005940A9B04935346039315
:1043C000029600230193009243463A005946280082
:1043D000FFF76EFA070027E01026CDE70826CBE7A7
:1043E0000226C9E720221443C8E7A30520D4E30529
:1043F00050D4630666D51C9A111D1C911168FF22CA
:104400000A40D317D118594005940A9B0493534688
:1044100003930296D20F0192009143463A00594607
:104420002800FFF745FA0700119B01331193D3E6EB
:104430001C9BDA1D07218A43110008311C91116869
:1044400053689C46DB170C930D930C9A0D9B100040
:1044500048400E90624653400F930E980F990C9A65
:104460000D9B801A99410E900F9108940A9B079317
:10447000534606930496002305936346DA0F02928F
:104480000090019143463A0059462800FFF76EFA22
:104490000700C9E71C9A111D1C911268D317D11887
:1044A000594005940A9B0493534603930296D20FF6
:1044B0000192009143463A0059462800FFF7F8F967
:1044C0000700B1E7230605D51C9A111D1C91002396
:1044D000D25E96E71C9A111D1C91126891E71C9BF5
:1044E000DA1D07218A43110008311C9108940A9BA8
:1044F000079353460693049600230593029313688B
:1045000054680093019443463A0059462800FFF747
:104510002DFA070088E71C9A111D1C9105940A9B2F
:104520000493534603930296002301931368009368
:1045300043463A0059462800FFF7BAF9070073E7E7
:1045400023060DD51C9A111D1C9112681204120C21
:1045500031E7C0460C990010509900109C9900104A
:104560001C9A111D1C91126825E746281AD01C9B25
:104570000733072293431A0008321C9204940A9AC4
:104580000392524602925C681B6800930194434672
:104590003A0059462800FFF765FC0700119B0133DC
:1045A000119319E620231C43E1E7672801D047282F
:1045B00002D180231B011C43452801D0472801D18B
:1045C00020231C431C9B0733072293431A00083205
:1045D0001C9204940A9A0392524602925C681B68E9
:1045E0000093019443463A0059462800FFF730FAF9
:1045F0000700119B01331193EEE502231A002240BC
:10460000924623421FD001241C9B1A1D1C927A1C27
:104610009146187843463A005946A8475346002B1E
:1046200016D1119B013311934F46D5E5561C4346D5
:1046300059462020B847230032005C1C9D42F5D823
:104640003D001700E0E701233A002F000A9DF4E740
:104650004A46A9460A9D06E0571C43465946202073
:10466000C84734003A00661CA542F5D84D4691462D
:10467000D7E71C9B1A1D1C921B6899465346002BBA
:1046800000D1013B4E4601E0013613003278002A8A
:1046900002D05A1E002BF7D14B46F21A10928023FB
:1046A000DB0026001E401C4203D0524501D9534670
:1046B000109302231A0022400B92234205D03A00A5
:1046C00037004C46A946554620E03A00109B5F460D
:1046D000B3462E0006E0551C434639002020B04763
:1046E00023002A005C1C0A999942F4D835005E46E2
:1046F000BB46109437004C46A946554606E01D00BF
:104700000134561C43465946C847320020780028D9
:1047100004D0002FF4D06B1E002DF0D117004D46B1
:104720000B9B002B03D1119B0133119354E50A9F7E
:10473000109B06E0561C434659462020A8472300FC
:1047400032005C1C9F42F5D81700ECE721231C4384
:104750001C9B1A1D1C921B6800930594082304934C
:1047600053460393102302930023019343463A00D8
:1047700059462800FFF79CF80700119B013311935D
:104780002AE57C1C43463A0059462520A847119B40
:104790000133119327001FE57C1C43463A0059461C
:1047A000A847119B01331193270015E50A4B9A4640
:1047B00010E5AA46474502D343465A1E00E03A0098
:1047C000434659460020D047380013B0F0BCBB46E2
:1047D000B246A946A046F0BDBD36001000B585B072
:1047E000029003910121009313004A4202A902485A
:1047F000FFF7E2FC05B000BDBF3600100148042100
:10480000014B1847600C00202D48001010B5010026
:1048100018231B8814221088984710BD10B501007A
:1048200018231B8816221088984710BDF0B5C6467D
:1048300000B507000E0000250123984600E0013571
:10484000B5420AD2AC003C192068FFF7DFFF2060B8
:104850000028F4D100239846F1E7404680BCB846D2
:10486000F0BD0000124A936F9B0815D29066D16686
:10487000002905D0FFE7FFE7FFE7516F106F704792
:1048800004B580210906C2175140002800D0C84352
:1048900003F04EFC002104BDF0B5146E556E576F49
:1048A000166FFFF7E3FF1466556657671667F0BD8E
:1048B000000000D0114A936F9B0813D21066516616
:1048C000002905D0FFE7FFE7FFE7516F106F704742
:1048D00004B5002801D00020C04303F029FC0021CA
:1048E00004BDC046F0B5146E556E576F166FFFF7D6
:1048F000E5FF1466556657671667F0BD000000D0E7
:1049000094464A4A926F9208624601D228E0C04615
:10491000F0B5464E346E756E776F366F00F020F846
:104920009446424A14665566576716676246F0BD5C
:1049300094463E4A926F9208624601D254E0C046C5
:10494000F0B53A4E346E756E776F366F00F04CF8F6
:104950009446364A14665566576716676246F0BD38
:10496000002B24DB11D000293EDA00B5C9434042B8
:1049700000D1013100F038F8C943404200D1013183
:10498000DB43524200D1013300BD002AEBD10028A5
:1049900001D1002905D00020C90FC90701D1C043AA
:1049A000410800B503F0ACFB0022002300BD00B5B8
:1049B00000290ADBDB43524200D1013300F014F836
:1049C000C943404200D1013100BDC943404200D13A
:1049D0000131DB43524200D1013300F005F8DB43E3
:1049E000524200D1013300BD002923D1002B18D140
:1049F000002A0CD0BC460D4F38667A660021002391
:104A0000FFE7FFE7FFE77A6F386F674670470028D8
:104A100001D00748010000B503F072FB002200231B
:104A200000BD02000B00002000217047000000D0F4
:104A3000FFFFFFFF002B00D0BFE0130C28D1002A9E
:104A4000E7D080B4114F39667A66FFE7FFE730B4EC
:104A5000040C7B6F396F1B0423433B667A66FFE7C8
:104A6000FFE7FFE7C04684B27B6F3D6F1B04234323
:104A70003B667A66FFE7FFE7C04600232C042D0C57
:104A80007A6F386F00196941B0BC7047000000D0E0
:104A9000F0B594460025140E01D112020835140F0A
:104AA00001D112010435940F01D192000235D40FC7
:104AB00001D152000135D40B0134254F7C66254CC1
:104AC0003C660E0C93B2FFE7FFE7FFE73C6F6643DF
:104AD000360C7703BE467343DF0B5B04C01AB94143
:104AE000130C7343DB18C91ACE086643360CB64460
:104AF00093B273431F0F1B01C01AB941130C7343C8
:104B00001F0B1B05C01AB941860D8F023E43664339
:104B1000360C092D24DB520A7243801A7703460AA9
:104B20006643360C16235B1BDE40DF40BF1964462C
:104B30006643821B7046043506330100D940A84005
:104B4000C01900D30131A24206D20023F0BD0000FB
:104B5000000000D0FFFFFFFF121B0130F3D3F1E78D
:104B600009277F1BFE406446A2B27243801A00D21E
:104B70000139220C7243130C1204821A99410B0062
:104B80007046043513370100F940A840801900D35E
:104B90000131002B02D1A2420AD2F0BD013000D374
:104BA0000131121BFAD2013BF8D1A24200D2F0BD72
:104BB000013000D30131121BF7E7F0B51C0C00D017
:104BC00080E00CB400251C0A04D11B02160E3343EE
:104BD000120208351C0B04D11B01160F33431201BE
:104BE00004359C0B04D19B00960F33439200023591
:104BF000DC0B02D192185B4101351C00971864410F
:104C00000134464F7C66464C3C660E0CFFE7FFE7DE
:104C1000FFE7C0463C6F6643360C7703BE4697B24B
:104C20007743C01B00D20139C01B00D201399FB2AB
:104C30007743C91BC91B170C77437E04FF0B801BEE
:104C4000B941CE086643360C0C2D33DBB644120B4B
:104C50001F053A431B0B97B27743C01B00D20139A3
:104C60009FB27743C91B170C77433E043F0C801B50
:104C7000B941860D8F023E43664329277F1BFE40C4
:104C80000C3D7746AF40BF1930BCA2B2ABB2724305
:104C90007343801A9941220C7243130C1204801A38
:104CA000994102000B000137001BA941F9D2781E7F
:104CB0000021F0BD0C277F1BFE4077467F0BAF40E5
:104CC000FF19E0E700245D1C07D0144F7D663966AC
:104CD000FFE7FFE7FFE7FFE73C6F95B29EB2654352
:104CE0006643401BB141150C1E0C654366433604F8
:104CF0002F0C3E432D04401BB141994204D20200C7
:104D00000B0020000021F0BD01D19042F7D3801AA2
:104D1000994101349942F2D3F6E70000000000D037
:104D2000FFFFFFFF48404140484018B41B4B5B6801
:104D3000FC46019308BD04DFFF4F001018B4174B69
:104D40001B68FC46019308BD00DF09500010944623
:104D5000134A926F920809D2624618B40F4BDB686F
:104D6000FC46019308BD0CDFC15200100C4AF0B59F
:104D7000146E556E576F166F6246FFF7EEFF084AC6
:104D80001466556657671667F0BD18B4034B9B68E9
:104D9000FC46019308BD08DF65510010C4220020C5
:104DA000000000D0FFB550404240504059404B40B9
:104DB000594000E0FFB5154F4C00640D03D0BC42D4
:104DC00004D10C0314D80020090D09055C00640D02
:104DD00003D0BC4204D11C030AD800221B0D1B05C2
:104DE00001264B4009D44B4003D58B4200D182426F
:104DF000FFBD9942FCD19042FFBD0B43DB1803433A
:104E00001343F5D0C9434918FFBD0000FF07000058
:104E100000B5FFF7CFFF804100BDC04600B5FFF7EA
:104E2000C9FF01D9002000BD012000BD00B5FFF77A
:104E3000B9FF01D9002000BD012000BD00B5FFF77A
:104E4000B1FF804100BD012040054A00121804D87E
:104E50005A00121801D80020704701207047002026
:104E6000704700000021002805D17047C117484055
:104E7000401AFAD0C90713B5064B1B6898470CBCFB
:104E8000441CA2401005120B0349091B09051943D4
:104E9000114310BDC42300201F04000010B54C00B6
:104EA000620D8023D218DB00D21A5B057E2A10DD4A
:104EB0009E3A13DACC170903490819435242D140EC
:104EC000640001341532202A05DAD04008436043DB
:104ED00010BD002010BD0846604310BDC80FC018AB
:104EE000013810BD18B4044B5B6AFC46019308BD41
:104EF00024DF715400100000C422002070B5132379
:104F00001C78012C14D0012C14DC022C02DC1F4A6A
:104F10001F4B9A641F48FFF779FC1F4B186070BD48
:104F200099001A481A4A885001331F2BF8D9EAE72A
:104F30000023FAE71948FFF771FC05001848FFF74E
:104F40006DFC023803789B007F2B19DD802229003D
:104F50000F4800F007FC022CD7D1124B1A88B5235A
:104F60001B029A4209D1104B1A88104B9A4204D165
:104F70000F4B1A880F4B9A42C7D00020FEF786FBD2
:104F80000D4B0E4A32210E48FEF7E6FAC54F0010CF
:104F9000C42200204C330000C423002053440000EE
:104FA0005346000054380000D8380000494600003D
:104FB0009C38000059460000409B0010F89B0010F0
:104FC000949B001007B56046002800D100BE018800
:104FD0000A0A0230DF2AFAD1C9B2820804D3028851
:104FE00040880004104300E00068024A50500390DB
:104FF00007BD0000C42200200FB403BC0CBCF0B5F8
:105000000124E407634000E0F0B50C0DCF0F661EED
:105010003605891B640503D3C943404200D30131DF
:10502000640D03D0661CF60A07D0E41B00207F0045
:10503000791C89078912803C24031D0DDF0F6E1E29
:1050400036059B1B6D0503D3DB43524200D301336E
:105050006D0D03D06E1CF60A07D0ED1B00227F00F9
:105060007B1C9B079B12803D2D032F1B661B58D476
:10507000A446202E46DA20371400BC401D00BD4057
:10508000F24033412A4380185941CB0F05D0C94320
:10509000C043002264425041514162464D0D28D127
:1050A0000D0D07D100281FD0241940414941013A74
:1050B0000D0DF9D0640006D3013000D30131002C6E
:1050C00001D140084000013A0BD4941CE40A04D1F9
:1050D00012051144DB071944F0BDD907204B1943D1
:1050E00000E0D9070020F0BD0029DDD1002CDBD184
:1050F000F0BD0132C6074008CD0728434908002EFD
:10510000E1D0D9E73C2E29DA203E40371400BC40DC
:1051100000D00124F24014431A00BB401C43D317B3
:10512000ACE7AC46202F08DA20360400B4400D006E
:10513000B540F84039412843A5E73C2F0CDA203F21
:1051400040360400B44000D00124F8400443080075
:10515000B1400C43C117EAE710001900002494E79E
:105160000000F07FF0B50C0D661E3605891BE60ABF
:105170006405640D02D0651CED0A04D000200121F5
:105180000905803C2403A4461C0D671E3F05DB1B5C
:10519000E70A6405640D02D0651CED0A04D0002204
:1051A00001231B05803C24037740644497B484B2F8
:1051B00096B27443070C7E43150C6F4380B268436C
:1051C000361802D3012000043F183004350C0019B2
:1051D0007D41844688B29AB250430C0C62431F0C46
:1051E0007C438EB27E43921902D301263604A41961
:1051F0001604170C3618674101BC81B29AB25143AC
:10520000040C62431B0C5C4380B25843121802D357
:105210000120000424181004130C401863412D18B9
:105220005E410020474106BC88B293B258430C0C43
:105230006343120C544389B251435B1802D30121DA
:105240000904641819041A0C091862416D185641B2
:105250000020474118BCF902720D1143F0026A0D9B
:105260001043ED020A0D03D16D1940414941013B44
:10527000124E9B1B7600B3420ED26D0007D3013055
:10528000002671416646354301D1400840001B05A8
:10529000C918E4072144F0BD0BDA013306D101300F
:1052A00004D101314F0D01D04908F2E7E107002098
:1052B000F0BD013631050020EBE70000FF030000E0
:1052C000F0B51C0D671E3F05DB1BE70A6405640D86
:1052D00002D0661CF60A04D0002201231B05803C84
:1052E0002403D0252D060026F6432E661E096E6681
:1052F000CE0FF619B44649004F0D02D07E1CF60AB7
:1053000003D000200021403F3F033E1BB600B444C1
:10531000013F7F05C91B49082E6F013676089C02A4
:10532000950D25437543ED137543AD1301356D1090
:10533000F603761B0CB4CC02450D2C43A2B2B3B2DB
:105340005A43270C7B43350C6F43A4B26C431B19A3
:1053500002D3012424043F191C041D0CA4187D4110
:1053600024196D41009A91B2ACB26143170C7C4391
:105370002B0C5F4392B25A43A41802D301221204A9
:10538000BF182204230C52187B41019C6C431B194B
:10539000520ED9010A434401A01A81B2B2B251435C
:1053A00003145A43360C734387B27743D617D21986
:1053B00000277E4136049B191704160C7F185E41A6
:1053C0007316ED18F301002680337541A90F06D13D
:1053D0006400690AE8055B0A184309D22FE0042239
:1053E000944480337541A90AA8059B0A184326D323
:1053F000404149412404009A019B0D005543641B20
:105400004343E41A95B286B27543170C7E43030CEE
:105410005F4392B25A43B61802D301221204BF1856
:105420003204330C52197B4152429C41002C02D46D
:105430000022013051414008CA071043490802B018
:105440006246D7079210084BD218084B9A4203D2F3
:1054500012058918C919F0BD0020002A01DC3900A5
:10546000F0BD01331905F5E7FD030000FE0700005C
:10547000002200B5203200F004F8080000BD000052
:1054800000220B150AD410B5944600F031F814141C
:10549000013400DA0021CB17144C204700200021F2
:1054A00070476244343A0CD40C2A07DA0400914065
:1054B000904052422032D440214310BDD843D943BA
:1054C00010BD203207D40C46944052422032114184
:1054D000D040204310BD0800C917203203D45242E7
:1054E0002032104110BD1800190010BDA354001047
:1054F0000A0DCC0F531E1B05C91A520503D3C9430D
:10550000404200D30131520D03D0531CDB0A07D0B7
:10551000121B00206400611C89078912803A120363
:10552000014BD21A70470000FF0300005143434370
:10553000C9188C46110C83B24B4310B4040C614360
:1055400092B280B2504362431C041B0C001910BC81
:1055500059411304120CC0185141614470470000B6
:1055600048404140484000239C46114B5B68184727
:1055700000239C460E4B1B6818470E4A936F9B08EE
:1055800004D200239C460A4BDB681847F0B5146E22
:10559000556E576F166FFFF7F4FF064A146655668F
:1055A00057671667F0BD00239C46014B9B68184760
:1055B000C8230020000000D0491A002808D108465E
:1055C00070470000C10FC90700D54042002817D01E
:1055D000F44603B40B4B1B68984706BC81409E38C9
:1055E0004042803107D20B0607D04900490AC00566
:1055F0001043084360470130F8E7490A8902F5E79C
:1056000070470000C423002000239C46014B5B6AC6
:1056100018470000C823002070B513231D782A48BE
:10562000FFF7FCF80400012D11D0012D09DDA31EA8
:105630001B789B007F2B40DD80222100234800F057
:1056400091F82348FFF7E2F8224B186070BD54220E
:1056500001001E4800F086F81F4B1A881F4B9A4223
:105660001CD1A7239B011A881D4B9A4216D11D4BB2
:105670001A881D4B9A4211D11C4B1A8894239B0106
:105680009A420BD11A4B1A881A4B9A4206D11A4BDE
:105690001A681A4B9A4201D1152307E01848FDF702
:1056A000F5FF99001748094A885001331F2BF8D994
:1056B000144A064B1A62DA61B7E7134B134A4221C8
:1056C0001348FDF749FFC04653460000C823002099
:1056D0004C330000C4230020EE290000C40F00005A
:1056E000C20D0000962B0000C0B50000182B000072
:1056F000CC2A000010B50000FC2C000051ED87649E
:10570000C4840010155700100C9C0010A49C0010BD
:10571000409C001007B56046002800D100BE0188FB
:105720000A0A0230DF2AFAD1C9B2820804D30288F9
:1057300040880004104300E00068024A5050039083
:1057400007BD0000C823002001480421014B184771
:10575000700C00202D480010014B1B6818470000FA
:10576000700C0020014B5B6818470000700C002093
:1057700010B50300080011001B68984710BD000019
:10578000F8B507000D001600437D002B02D0002461
:1057900000200CE003681100280098472DE03B7DB5
:1057A00010E0022115483B689847601C0134B44260
:1057B00014DA002CF3DD2B19013B1B780D3B5A4208
:1057C0005341DBB22A5D0A2AF0D1002BEED1A04270
:1057D000E7DA211A28183B689847E2E7B04203DA73
:1057E000311A28183B689847002E06DDAD19013D97
:1057F0002B780D3B5A4253413B75F8BD3C9D001040
:1058000070B505000368002B16D00C4B1C6805E032
:10581000290004C92000FFF7B3FF2469002C09D038
:105820002368002BF9D0064B1B68002BF0D0A34255
:10583000F3D1EDE700232B6070BDC0467C1E002035
:10584000841E002070B505000C000B68802B05D06D
:1058500021684B1C23606418257170BD0800FFF798
:10586000CFFFF5E710B5FDF7ABF802000B1E0BDB21
:105870000D48002112184B41002B0BDB002B0DDBD8
:105880000A4802F065FC10BD094B0A4A3F210A484C
:10589000FDF762FE01225242084BEFE7044B054A36
:1058A0003F210548FDF758FE40420F00C80C00207C
:1058B00038900010249D001054900010FFFFFF7FCF
:1058C00010B5024802F014FC10BDC046C80C002000
:1058D000F0B5CE46474680B583B006000D00904631
:1058E0001C00FFF7BFFF81466B1C05D0002C08D0C1
:1058F000194F1A4B1C6807E0300002F0BFFB05008F
:10590000F4E7174FF5E72469002C17D02368002B24
:10591000F9D0144B1B68002B01D0A342F3D12A000D
:1059200031002000B8474346002BECD06B46D91D10
:105930000A230B7001222000B847E4E74B46002BF6
:1059400007D16B1E9D41E8B203B0C0BCB946B0465A
:10595000F0BDFFF7B5FFF4E7715700107C1E002083
:1059600081570010841E002010B582B004006B46E1
:10597000D81D0470002300220121FFF7A9FF200099
:1059800002B010BD094A01E010331A001368002B61
:1059900008D08342F8D1002907D10369136000239E
:1059A000036102E0002900D0106070477C1E0020D7
:1059B00010B5064B1C6801E098472469002C03D001
:1059C0006368002BF8D1F8E710BDC0467C1E0020AC
:1059D00070B5050002F052FB040000230122010013
:1059E0002800FFF775FFFFF7E3FF200070BD000000
:1059F00070B5A2B004000E00FFF734FF05000023CD
:105A000001933300220001A90848FEF7E7FE0400D5
:105A100001A8FFF7F5FEFFF7CBFF002D02D1200014
:105A200022B070BDFFF74CFFF9E7C04645580010A3
:105A30000FB400B583B004A901C90191FFF7D8FFE5
:105A400003B008BC04B0184710B500F0F9F8012005
:105A500010BD0000F0B583B005000E0000240FE07B
:105A60006B46D91D0D230B700020002816D19369B9
:105A70009B06FCD40B78136001300131F5E701344B
:105A8000B44219DA0D4B1A682F5D0D4BD3185942E9
:105A90004B415B000B495B5EBB42E1D06B46D91DBD
:105AA0000F7000200028EAD193699B06FCD40B7884
:105AB000136001300131F5E703B0F0BDF824002098
:105AC0000080FCBFF4240020F0B583B006000F0076
:105AD000002504E06B4607331B782B702500BD4280
