:020000041000EA
:1000000000B5324B212058609868022188439860DF
:10001000D860186158612E4B002199600221596106
:100020000121F02299502B49196001219960352056
:1000300000F044F80222904214D00621196600F024
:1000400034F8196E01211966002018661A6600F04E
:100050002CF8196E196E196E052000F02FF8012189
:100060000842F9D1002199601B49196000215960AB
:100070001A491B48016001219960EB211966A021F2
:10008000196600F012F800219960164914480160C1
:100090000121996001BC002800D000471248134993
:1000A000086003C880F30888084703B5996A0420EC
:1000B0000142FBD001200142F8D103BD02B5186610
:1000C0001866FFF7F2FF186E186E02BD00000240BE
:1000D000000000180000070000035F00212200005C
:1000E000F4000018222000A00001001008ED00E03C
:1000F00000000000000000000000000074B24E7A12
:1001000000200420F7010010C3010010C5010010F9
:10011000C1010010C1010010C1010010C101001097
:10012000C1010010C1010010C1010010C701001081
:10013000C1010010C1010010C9010010CB01001065
:10014000CD010010CD010010CD010010CD01001037
:10015000CD010010CD010010CD010010CD01001027
:10016000CD010010CD010010CD010010CD01001017
:10017000CD010010CD010010CD010010CD01001007
:10018000CD010010CD010010CD010010CD010010F7
:10019000CD010010CD010010CD010010CD010010E7
:1001A000CD010010CD010010CD010010CD010010D7
:1001B000CD010010CD010010CD010010CD010010C7
:1001C00000BE00BE00BE00BE00BE00BEEFF3058054
:1001D000103800BEF2EB887118CB001038CB00103D
:1001E0003402001090A31AE700201F49086006C8D7
:1001F00081F3088810471D48006800282FD10DA4FE
:100200000ECC002902D000F012F8F9E71849194A7B
:10021000002000E001C19142FCD1174988471749ED
:1002200088471749884700BEFDE701C901C29A42C5
:10023000FBD3704738CB0010C0000020100F002007
:1002400088D90010000004200000042088D9001084
:10025000001004200010042000000000704709482E
:1002600006F08EF80047000008ED00E0000000D026
:10027000300F0020C42800200951001099030010FD
:10028000C55000105756000006005250ABB36053E3
:1002900038C3001006005250861C030248C30010E9
:1002A000060052505422A29D5CC30010050052501B
:1002B000DE65F46888D90010F8B5C04610B5064C64
:1002C0002378002B07D1054B002B02D0044800E017
:1002D00000BF0123237010BD381000200000000073
:1002E00008A80010044B10B5002B03D003490448A4
:1002F00000E000BF10BDC046000000003C10002020
:1003000008A8001070B500F03EFE00F05BFD16205E
:1003100000F032FE002816D00025172000F02CFE39
:10032000002800D10125182000F026FE002800D169
:100330000125192000F020FE041E02D0002D04D05B
:100340000024200070BD0125E7E7FF20000400F035
:100350000FFDFA25AD00280004F0C0F8FF200006CC
:1003600000F006FD280004F0B9F8FF20000200F0BC
:10037000FFFC280004F0B2F8064800F0F9FC280061
:1003800004F0ACF8002000F0F3FC280004F0A6F81C
:10039000D7E7C04600A1A1A110B501F06FF801F0A8
:1003A000D1F8002010BD0000F0B5DE4657464E469D
:1003B0004546E0B591B080468946934603930520B3
:1003C00004F060FD5D4906F02FF806F01CFF824640
:1003D000002627E006216FE0002000023F040743CB
:1003E0002760574BE2681340AD021D43E560554A54
:1003F000A3681A4080235B021343A360524A134050
:10040000524A1343A36023004A463100404607F096
:1004100073FD43461A680123B3409A43134342468F
:1004200013600136032E00D981E03401039B9C4602
:1004300064441022002108A807F014F880235B020E
:100440000893F8235B0209938023DB020A93C023FD
:100450001B030A93102208A904A807F009F8059BBA
:1004600002933B4B029A13404A46D20113434A4639
:100470001932120313430593079A0292D200D2084D
:100480008021C9050A430792324A13400B43059362
:100490000CAD102204A9280006F0EAFF230007CDC6
:1004A00007C32A681A605B46F518280002F0CEFEE2
:1004B000294B98458ED00721280002F095FE012394
:1004C00000932A003100404607F0C4FC234BE26849
:1004D0001340EA031343E360214A13402B43802275
:1004E00052031343E3601F4A61680A4029060A4326
:1004F00062601D4A13406A0113438022D2041343F1
:10050000E360504606F0D8FE87B2002F00D163E7C3
:10051000380006F078FE011C504606F018FE8721D0
:10052000C90506F034FE06F0C7FEC0B255E711B0AB
:10053000F0BCBB46B246A946A046F0BD00093D004E
:10054000FF83FFFFFFFF0AFEFFFFF5C1000002105F
:100550007F00FEFFFFFFFF9F00002050FF7FF0FFA6
:10056000E0FF0FFCFFFFFFE01FFCFFE30201054B74
:100570009B18012252429A60002203490A541A73BE
:100580007047C046A816002048170020F0B5C646A0
:1005900000B50400954B1B5C002B20D143001B18B9
:1005A000DB00934A94466344802212021A600300DF
:1005B00008339B008F4A9B585B0C82008E49535036
:1005C000092B06D0A4008C4B0022E25080BCB84618
:1005D000F0BD864B01221A5400F0EAFEF2E7012B2F
:1005E0001BD0022BF2D10022012A00D985E0814BD9
:1005F000596820000830012383400B426ED18300EC
:100600007C495858A3009B189B007C4958500132E4
:10061000EAE72000FFF7AAFFD8E70022012A11D855
:10062000744B596820000830012383400B42F0D1FD
:10063000830070495858A3009B189B006F4958507D
:100640000132EBE76D4B25016D4EEA58AA515B195B
:100650005B687219536053788021CB1A9C46694BB2
:10066000600080460719FF006046F850D779CF1B1D
:1006700040460019C0001B189F60A85D081A58600A
:100680009079091AD9605179494219611279524217
:100690005A61564B02221A5500F08AFE0A2003F0D6
:1006A0001DFF002004E00023002B12D00130C0B257
:1006B00003280DD80023032BF5D81901504A5218EE
:1006C0009268824202D00133DBB2F4E70123EBE708
:1006D000002023014A4CE418A06077E74A4A135DE2
:1006E0000133DBB21355092B00D86FE72000FFF769
:1006F0003DFF454B00221A5568E740492201404B17
:100700005058D050891849689B1859605E7863002A
:100710001B19DB003B4A9B58F61803D4FF2E02DD61
:10072000FF2600E000262301354A9D5C63001B196B
:10073000DB00344AD3185B68ED1803D4FF2D02DDCB
:10074000FF2500E0002522012D4B9B18D87963007E
:100750001B19DB002B4AD3189B68C01803D4FF2851
:1007600002DDFF2000E000202201254B9B18997933
:1007700063001B19DB00234AD318DB68C91803D4B4
:10078000FF2902DDFF2100E0002122011C4B9B1804
:100790005A7963001B19DB001A4FFB181B69D2182A
:1007A00003D4FF2A02DDFF2200E000222701144BC0
:1007B000DB191B79984667003F19FF00114B9C46D7
:1007C00067447F694346DB1903D4FF2B02DDFF2317
:1007D00000E000230A4FBC4624013F197E706646A4
:1007E0003555F871B9717A713B71EFE64817002001
:1007F000D80020500000205050170020681600201C
:10080000A8160020E81600206C26002010B5002055
:10081000FFF7BCFE0120FFF7B9FE0220FFF7B6FE8E
:100820000320FFF7B3FE10BD10B5724A80235B01B1
:100830001343802212061A601A606F4A13680F2150
:100840008B431360002447E0322003F047FE620030
:100850001219D300694A94466344694A1A606200D7
:100860001219D300674A944663441B68002BF6DBD9
:10087000654B1B681F21194062001219D3005F4AA3
:1008800094466344196062001219D3005D4A94468D
:1008900063441B68002BF6DB574B5A68210010316C
:1008A00001238B401342F7D1231D9B00524A822122
:1008B000C905995062001219D300504A9446634406
:1008C000524A1A6062001219D3004E4A9446634499
:1008D0001B68002BF6DB0134032C00D982E04C4B63
:1008E0001B5D012BB0D0022B43D062001219D30044
:1008F000424A94466344424A1A6062001219D30085
:10090000404A944663441B68002BF6DB3E4B1B6851
:100910001F21194062001219D300384A94466344DB
:10092000196062001219D300364A944663441B686A
:10093000002BF6DB304B5A682100103101238B402D
:100940001342F7D1231D9B002B4A002199506200CE
:100950001219D300294A944663442C4A1A60620053
:100960001219D300274A944663441B68002BF6DB18
:10097000B1E7254B1B6806331F211940620012198D
:10098000D3001E4A94466344196062001219D300D2
:100990001C4A944663441B68002BF6DB164B5A68CE
:1009A0002100103101238B401342F7D1221D920008
:1009B00011498020C00550500F4A52681342FBD1A4
:1009C000221D92000C49C02080045050114A115D34
:1009D0000906094A52681342FBD1231D9B00064AAF
:1009E000995078E7044A13680F218B430B43136037
:1009F00010BDC046D000205000002050D80020502C
:100A000040E00000CC002050D413002047E000005C
:100A1000481700206017002010B50023032B09D8C9
:100A20001C01054A12199268824201D00133F5E790
:100A3000024AD15410BDC046A816002060170020FD
:100A400010B5064B0360FFF7EFFEFA2040000021CF
:100A500003F018FDFFF7DAFE10BDC046A81600200F
:100A600070B51049104807F0D9F906000F4B18600F
:100A700000250BE02B010E4CE41810220021200071
:100A800006F0F0FC01235B42A3600135032DF1D990
:100A9000B11D084B16220448FFF786FC642003F0C2
:100AA0001DFD70BD08A8001000002050D4130020C8
:100AB000A816002094130020002209E09300C158DA
:100AC000054B5B68DB03FBD4034B19610132D2B2E7
:100AD000032AF3D97047C0460000305070B58CB07F
:100AE000434D4449280007F099F9040007210A20E2
:100AF00002F07AFB012300930A220021280007F06C
:100B0000A9F91022002108A806F0ACFC80235B02A2
:100B10000893F8235B0209938023DB020A93C02326
:100B20001B030A93102208A904A806F0A1FCE21CEA
:100B3000059B0393304B03990B40E1010B431203D8
:100B400013430593079A0392D200D20880218905A6
:100B50000A430792294A13400593102204A908A8C2
:100B600006F086FC0B9B0393254A1A40A0239B01A9
:100B700013430B930A9B0393224A1A40224B1343BD
:100B80000A939B009B088022D20513430A930520F9
:100B900004F078F91D4905F047FC06F034FB061C0B
:100BA00006F08AFB85B2002D1FD0280006F02BFB33
:100BB000011C301C06F0CBFA8721C90506F0E7FAC4
:100BC00006F07AFBC0B200022D0405430895084DDB
:100BD00008AB22000021280007F08EF92B680122C3
:100BE000934313432B600CB070BD0020EBE7C0466D
:100BF0000000305044A800107F00FEFFFFFFFF9F61
:100C0000FF83FFFFFFFFF5C1000002300050C3006B
:100C100010B50248FFF750FF10BDC0466417002012
:100C2000F8B5DE4657464E464546E0B506000D008F
:100C3000141C807806F0E7FA8046F07806F0E3FAB4
:100C4000071C707806F0DFFA061CA87806F0DBFABD
:100C50008346E87806F0D7FA8246687806F0D3FA39
:100C600081464146584606F072FA211C06F08FFA7A
:100C7000414606F071FA8046391C504606F067FA84
:100C8000211C06F084FA391C06F066FA051C311C9A
:100C9000484606F05CFA211C06F079FA311C06F091
:100CA0005BFA06F009FBC4B22402404606F004FBDE
:100CB000C3B21B041C43281C06F0FEFA00062043A6
:100CC000F0BCBB46B246A946A046F8BDF8B51F4BDE
:100CD0001B78002B18D01E4A1E4B13CB13C21B6867
:100CE000136000231C4A1370184A137000221A4B19
:100CF0001D78152D1ED8280006F085FA174906F034
:100D000046FA061C00240DE00122F0E7A700144972
:100D1000C9190F48C019321CFFF782FF0D4BD8517B
:100D20000134E4B2032CF1D901350B4B1D70FFF7F0
:100D30006FFFF8BD002AFCD1064A094B13CB13C242
:100D40001B681360FFF764FFF3E7C046B428002078
:100D500074170020641700202C0D0020310C433D37
:100D600084170020014B01221A707047B42800201C
:100D700010B5002308E09A0006495050064950502B
:100D8000064950500133DBB2032BF4D9FFF740FF83
:100D900010BDC0467417002064170020841700207F
:100DA000002304E09900034A88500133DBB2032B8F
:100DB000F8D97047841700208900014B58507047BC
:100DC0008417002010B5FFF789FE10BD10B5054B44
:100DD0001968054A00F00EF8002800D110BDFFF791
:100DE00075FFFBE7280D00204416002010B5FFF723
:100DF00037FE10BD10605368834205D9C31A013B0A
:100E00008B4205D200207047834204D2C31AF7E711
:100E100050600120F7E70020F5E730B51860002AA0
:100E20000BD15C6884420BD9041B013C0025002DCA
:100E30000BD1A14209D9100030BD58600020FBE75A
:100E4000844205D2041B0025F1E758600120F3E736
:100E50001000F1E770B504000D00034805F090FAAA
:100E6000030029002000984755420000024B1860FB
:100E7000024B01221A70704764160020B52800202A
:100E800010B51C22014906F0F3FA10BD00D0121073
:100E9000F0B5164CA544164B1B78002B02D1154B10
:100EA0009D44F0BDEFF3108772B600240094124AFF
:100EB000002101A806F0D6FA104B19681C226846DA
:100EC00006F0D6FA802676010D4D3100280009F093
:100ED00063FC32006946280009F04EFC87F3108855
:100EE00002F024F8024B1C70D9E7C046FCEFFFFF6C
:100EF000B528002004100000FC0F0000641600203C
:100F000000D0120010B506F0B9FEC0B210BD00004E
:100F1000072805D88000034B9C4660440068704752
:100F20000020FCE70C800540072804D88000024B15
:100F30009C466044016070470C80054010B500205D
:100F4000FFF716FF00220021002004F07FF810BDFB
:100F500010B501680520FFF7E7FFFFF7EFFF10BDB1
:100F600010B504000520FFF7D3FF206010BD10B5B9
:100F700000210020FFF76EFFD0231B065B68C340F3
:100F800001201840704710B506F0CEFB0B2002F090
:100F90005DF9002201210B2002F03EF9D024240645
:100FA00080231B01A3620C2002F050F900220121D2
:100FB0000C2002F031F980235B01A36263681B05FA
:100FC00003D56368DB0400D510BD00210800FFF7DE
:100FD00041FF0000014B986A7047C0460040054041
:100FE0007047000010B5002300E00133032B07D841
:100FF0001A018A1894688442F7D101245473F4E7E3
:101000000022002304E0012090400343DBB20132C0
:10101000032A09D8100108188468002CF3DB407BF0
:1010200090400343DBB2F2E70F3B5A425341DBB23D
:10103000014A137010BDC046B3280020002304E00D
:101040001A018218002151730133032BF8D9024B86
:1010500000221A707047C046B3280020014B187850
:10106000C0B27047B32800200048704754A8001051
:1010700070B50400FFF7F2FF02000500074B0849B6
:101080002000FFF7CAFE041E01D1280070BD054BE9
:101090001868FFF7D3FF2500F7E7C0467826002041
:1010A000307500006810002010B5034B196840B27D
:1010B000FFF798FF10BDC0466810002010B5024B26
:1010C0001868FFF7BBFF10BD6810002010B5FA23A9
:1010D0009B00984209D80B4B0B4A1A600B4B01221C
:1010E0001A700B4B00221A7010BD084B19707D3816
:1010F000FF3805F099F9034B1860054B00221A7070
:10110000F2E7C046300D002010270000340D00200B
:10111000AF28002000B583B0002817D0114B1B78F2
:10112000022B0FD90F4B00221A70002301930133B9
:101130006A4613710B4B1B78537101A8FFF708FF28
:1011400003B000BD0133074A1370EEE7054B1B786F
:10115000002B03D1034B03221A70E6E7013B014A3F
:101160001370E2E7AE280020014B18787047C046A4
:10117000AE280020F8B5FA213C4A8901FFF73AFE73
:10118000002800D1F8BD0B20FFF7F6FE0600012570
:101190006840C4B20C20FFF7EFFE07004540EDB2F7
:1011A0000023032B09D81901314A1268521892689A
:1011B000002AE7DA0133DBB2F3E7002C0BD02D4B2A
:1011C0001B78002B07D12C4B1B78002B03D1294B0C
:1011D00001221A7005E0002E03D0264B1B78002B4D
:1011E0000DD1002D12D0254B1B78002B0ED1224B98
:1011F0001B78002B0AD1214B01221A700CE01D4BE9
:1012000000221A700020FFF785FFEAE7002F03D0C5
:101210001A4B1B78002B0FD1002C14D0002D12D0AC
:10122000154B1B78002B0ED1144A1370114A137002
:10123000114B01221A70A5E7104B00221A700120F1
:10124000FFF768FFE8E7002E9CD0002F9AD00A4BEA
:101250001B78002B96D0FFF787FF00F093FB00F080
:1012600057FB054B00221A708CE7C046541600202D
:1012700068100020B9280020BB280020BF280020CB
:1012800010B5204B1870022823D00FD800282CD07E
:10129000012816D11C4B1D4A1A601D4B1D4A1A60AD
:1012A000FA2001218000FFF711FF0FE0032808D189
:1012B000154B194A1A60FA2001218000FFF706FF3A
:1012C00004E00023104A1360114A136008F0D6FDB1
:1012D00010BD0D4B104A1A600D4B104A1A60FA20CF
:1012E00008214001FFF7F2FEF0E7074B0C4A1A60B5
:1012F000074B0C4A1A60FA2008214001FFF7E6FE6E
:10130000E4E7C046AE280020B81900209130001054
:10131000BC190020253000109529001079290010F3
:10132000292C0010BD2B001010B5034B1B68002B9F
:1013300000D0984710BDC046B819002010B5034B27
:101340001B68002B00D0984710BDC046BC19002078
:1013500070B50D00124A1349FFF74CFD00281DD14E
:1013600070BDFF2021000004FFF726FDFFF7FAFC07
:101370000134E4B2032CF3D80B4B1A5D2301EB18B4
:101380009B68DB43DB0F9A42F2D0074A1355002BD0
:10139000E7D021000548FFF70FFDE7E70024E9E764
:1013A0004C160020A08601004C17002000A1A1A12E
:1013B000034B1B78002B02D1014B01221A7070479E
:1013C000B728002070B50400264B1B78002B2FD1C6
:1013D000244B1A78244B1968244B2000FFF71DFD7D
:1013E000002809D0224B1A78224B1B789A4228D326
:1013F0001F4A1378013313701A4B00221A70200011
:10140000FFF736FE002805D0194B1A78194B1B78C8
:101410009A421AD201200021404207F0B7FC164D33
:101420002868FFF78BFF29682000FFF791FF70BD48
:101430001148FFF705FB0E4B00221A7001321A709B
:10144000C6E70D48FFF7FCFAD2E7094B00221A70F5
:10145000044B01321A70FFF731FE074B1868FFF793
:1014600063FFD7E7B7280020300D00205C1600206E
:10147000AF280020340D00206810002010B582B085
:10148000FFF781FD00F06AFEFFF79CFCFFF7AEFC62
:101490000023019301A8FFF763FD00F05DFA002827
:1014A0003FD0234B9B78002B1DD001AB1B78012B29
:1014B00027D01F4BDC78022C2FD0032C24D0012CFA
:1014C00026D01C48FFF76CFCFFF74CFC2000FFF710
:1014D000D7FE002829D1FF200004FFF761FCFFF7A9
:1014E00041FC02B010BDFEF70DFF002803D11248E9
:1014F000FFF756FCFEE70E4B01229A7000F008FA47
:10150000D3E701AB5C78D6E70C48FFF749FCDBE793
:10151000FF200006FFF744FCD6E70948FFF740FC30
:10152000D2E70548FFF73CFCFEE7FFF759FDD8E797
:10153000382200200000FFE60000FF4D00F115FFFB
:1015400000FF610010B5FFF745FD0400FFF7A0FCA8
:101550002000FFF73BFC2000FFF734FF2000FFF7DF
:1015600009FEF0E77047000010B5FFF7FDFD012808
:101570000AD043B2002B09D00238C0B2012801D8EA
:10158000034810BD0348FCE70348FAE70148F8E7C1
:10159000C0AB001008B20010E4AA001010B5FFF7AD
:1015A000E3FD022807D0032807D0012801D0044812
:1015B00010BD0448FCE70448FAE70448F8E7C046D1
:1015C00068B100103CAA001094AB0010D4AB00101E
:1015D0000020704770B504000D00FFF7C5FD00281E
:1015E00014D00238C0B2012819D82B78212B00D092
:1015F00070BD0020FFF758FD0120FFF755FD0220C8
:10160000FFF752FD0320FFF74FFDF1E72B78302B5A
:1016100001D0212BECD12000FFF746FDE8E72B7825
:10162000002BE5D12000FFF73FFDE1E7F0B583B0E7
:1016300001900F0015001C0008AB1E88FFF794FDF9
:1016400001283ED00ED8002817D1002F15D1002D2B
:1016500013D1217810292FD033002200019801F0F6
:1016600081F80AE00238C0B2012806D8002F04D160
:10167000002D02D12378112B01D003B0F0BD617889
:101680004B1E9941C9B20020FFF7C6F9A1784B1E45
:101690009941C9B20120FFF7BFF9E1784B1E99418A
:1016A000C9B20220FFF7B8F921794B1E9941C9B29E
:1016B0000320FFF7B1F9E0E7A11C019800F0F7FD66
:1016C000DBE7002FD9D1002DD7D12378002BD4D13F
:1016D0006378082BD1D1E378002B02D12379002B3A
:1016E00004D001210198FFF797F9C6E7002101987E
:1016F000FFF792F9C1E7000010B5FFF735FD0028AC
:1017000007D00238C0B2012801D8034810BD00201C
:10171000FCE70248FAE7C04628AB00101CB20010F4
:1017200010B5037801330370FFF71EFD012801D0C7
:10173000014810BD0148FCE700AC001024AA0010CD
:1017400070B5EE2824D0002825D080001E4BC55847
:10175000280008F0B9FFC0B21F2800D91F200023BD
:1017600027E05A1C194CA15C0902E25C0A434400C0
:101770001749625202330130112BF2D9154A144B2A
:1017800013CB13C211001A680A609B888B8019E082
:1017900000200023F0E70C4B196802220E4805F0E8
:1017A00067FE012007E05A1CEC5C5100094BCC524B
:1017B000D3B29842F7D801304000C0239B001843B1
:1017C000044B1880034870BDF80D002070A900106C
:1017D00054100020141300201613002010B590B0F0
:1017E00004000A4805F064FF002300933C22002116
:1017F00001A805F037FE40226946200008F0E0F914
:10180000684601F0B7FB10B010BDC04644A90010F7
:10181000F0B583B005001400012953D113785B069D
:101820009B0F012B45D0022B03D0002B01D00020B1
:1018300049E06378022B24D0072B03D0012B19D069
:10184000002040E0227963791B021343042B03D06C
:10185000052B08D0002036E024331C4A2100280044
:1018600007F0B8FB2FE08D33194A2100280007F05C
:10187000B1FB28E01F23174A2100280007F0AAFB2C
:1018800021E0227963791B021343072B01D000204A
:1018900019E06B469F1D104E02223100380005F002
:1018A000E7FD3B883200083A2100280007F092FB50
:1018B00009E05178094805F02BFF2100280007F0C6
:1018C0006DFB00E0012003B0F0BDC046CC0D002050
:1018D000380D002084A9001098A800105CA9001001
:1018E00070B500250FE0FFF70DFB084C641920715F
:1018F000FFF708FBA072FFF705FB2074FFF702FB60
:10190000A0750135EDB2052DEDD970BD382200204E
:1019100010B50248FFF7AAFA10BDC04638220020D1
:1019200030B589B001AC1C220021200005F09AFDE1
:1019300003232380074D2B0007CC07C307CC07C325
:1019400022681A60FFF7CCFFFEF7DCFCA87009B034
:1019500030BDC0463822002010B5084C2000FFF7EB
:101960008FFA2388032B01D1012010BD044805F014
:101970009FFEFFF7D5FFFFF7CBFFF5E738220020EA
:10198000F4A90010014BD8707047C04638220020DF
:101990000120704710B5842292000021014805F013
:1019A00061FD10BDDC1D002010B50020FFF7F2FF27
:1019B00010BD0000F0B583B005000E001700FFF762
:1019C000D3FB012838D13279D400A41AA4B2193437
:1019D000A4B2BC4234D80023032B10D85801C0183D
:1019E00080001A4F38184078002802D00133DBB24B
:1019F000F2E75F01FF18BF0014497F1800E00027DD
:101A0000002F1FD03378F118F35CC9187B1C0193A9
:101A1000BB1C00930323280006F000FF002813D00E
:101A2000B3783B70B978002907D03A00443240239C
:101A3000280006F04DFF00E00024200003B0F0BDB8
:101A40000024FAE70024F8E70024F6E7DC1D002074
:101A5000F0B5C64600B582B004000020032811D8B6
:101A6000420112189200284DAA1892788A4209D091
:101A7000420112189200AA1852788A4202D001300C
:101A8000C0B2EBE703283BD80500420112189200D0
:101A90001D4EB21852788A420CD0420112189200A0
:101AA000194EB21892788A4211D0012002B080BC3F
:101AB000B846F0BD154A002A24D041010918890012
:101AC000891904319AB2FFF785FD0120EEE747013D
:101AD0003E18B60040360C4A9046464404369BB247
:101AE0000093330000220021FFF7A0FD7F19BF0003
:101AF0004744B97840233200200006F0E9FED5E7DC
:101B00000020D3E70120D1E7DC1D0020D51500100F
:101B1000F8B5040006F0CCFD002803D10023002B0B
:101B200008D1F8BD06F0CCFD002801D10123F6E76D
:101B30000023F4E763011B199B000F4AD31899781F
:101B4000002006F001FF0028EBD10B4F65012E1994
:101B5000B600BE19B17806F093FE2A199200403201
:101B6000D2190432B1784023002006F0B1FEB178DA
:101B7000002006F099FED4E7DC1D0020F0B583B00C
:101B800007000191150006F09BFD00280ED17B0196
:101B9000DB199B00164AD3185E783100002006F04E
:101BA0006FFE041E05D1200003B0F0BD06F090FDCD
:101BB000EDE72B1C402D00D940239DB27C01E41998
:101BC000A4000B4BE41804342A000199200005F00E
:101BD0004FFC2B0022003100002006F079FE0400AB
:101BE0003100002006F060FE3800FFF791FFDAE7D1
:101BF000DC1D002010B503004001C0188000114B0F
:101C00001818447806F054FD002806D10023002B54
:101C100013D0002C09D1002010E006F051FD00285F
:101C200001D10123F3E70023F1E72100002006F0B2
:101C30008BFE002803D1013000E0002010BD002001
:101C4000FCE7C046DC1D002010B53C220021024804
:101C500005F008FC10BDC046D813002010B50020C8
:101C6000FFF7F2FF10BD0000F0B583B005000E00D5
:101C70001700FFF779FA032816D13379DC00E41A4C
:101C8000A4B21234A4B2BC424CD80023002B11D011
:101C90000027002F48D0317871184B78212B19D0AC
:101CA0000024200003B0F0BDFFF75EFA0228E4D064
:101CB0000024F6E71A01D21A92001D4882185278C1
:101CC000002A02D00133DBB2E0E71A01D11A890001
:101CD0004718DEE7B9630B78C91832797B1C01938A
:101CE000BB1C00930323280006F098FD00281DD09C
:101CF000B379012B13D001233B71B3783B70BA6BDE
:101D0000D179137A1B020B43FB80B9780029C8D024
:101D10003A0030320623280006F0DAFDC1E7F379F5
:101D2000FB70E8E70024BCE70024BAE70024B8E72A
:101D3000D813002070B582B005001D4C002000288B
:101D40000AD0002830D162788A4213D0A2788A4221
:101D50001AD0012002B070BD0401241AA400144A54
:101D60001419A2788A42ECD062788A42E9D0013014
:101D7000C0B2E4E70F4A002A18D0210008319AB215
:101D8000FFF728FC0120E5E7260030369BB20093E0
:101D9000330000220021FFF749FCA178062332001E
:101DA000280006F095FDD5E70020D3E70120D1E714
:101DB000D8130020D5150010F0B5C64600B582B086
:101DC0000600150012781F231340012B00D01FE1DD
:101DD00028790024002C0DD0FF24002C00D01CE119
:101DE0002700602318001040134239D101290BD07D
:101DF00001200EE123011B1B9B008E4FDB5D9842EF
:101E0000EBD00134E4B2E5E7EA786B78062B06D034
:101E1000062B00D005E1222A12D00020F9E0212A69
:101E2000F6D123011F1BBF00824BDF19BA6B002ABA
:101E300000D1F4E013782900300007F0CBF8E8E097
:101E40002000FFF759FC02003B01DF1BBF00794B6C
:101E5000DF19FB882900300007F0BCF80120D8E02A
:101E6000202800D0DFE06B780B2B00D9DDE09B0051
:101E7000714AD3589F46012901D00120C9E0EA7870
:101E8000A97823011B1B9B0008336A4FFF18A87910
:101E9000EB791B020343181C252B00D9252080B2A7
:101EA000002909D0012B16D97B1C9C4639700138BA
:101EB00080B20123984602E0BC4600239846009079
:101EC00063462000FFF784FB030043449BB2002BD2
:101ED00005D100209DE0BC4600239846EFE73A007C
:101EE0002900300007F076F8012092E0012903D0A4
:101EF000032915D001208CE0AA79EB791B0213434A
:101F0000062B01D9002084E02201121B92003032FE
:101F100048498A182900300007F05CF8012078E071
:101F2000EA78A97823011B1B9B0030334148C31872
:101F3000AE79E87900023043051C062800D9062551
:101F4000ADB2002904D0012802D91878884205D002
:101F500000952000FFF76AFB01205AE00133013DA4
:101F6000ADB2F5E7012901D0012052E0E978230163
:101F70001F1BBF002F4BDF197971304B002B04D092
:101F8000200000E000BF002843D02900300007F007
:101F900005F801203DE0012901D0012039E02201AE
:101FA000171BBF00234AD219053201232900300034
:101FB00007F010F801202CE0012901D0012028E0D1
:101FC0002201171BBF001B4AD2190432012329002A
:101FD000300006F0FFFF01201BE0012903D0032998
:101FE00007D0012015E02900300006F0D7FF0120BE
:101FF0000FE0A97823011F1BBF000E4BDF193971B9
:102000000F4B002B13D0200000E000BF012000E0A8
:10201000002002B080BCB846F0BD0020F9E70020E7
:10202000F7E70020F5E70020F3E70020F1E70120C3
:10203000EFE7C046D8130020F8AA00100000000007
:102040000000000010B50301181A8000104B18188A
:10205000447806F02DFB002806D10023002B13D076
:10206000002C09D1002010E006F02AFB002801D145
:102070000123F3E70023F1E72100002006F064FCD0
:10208000002803D1013000E0002010BD0020FCE753
:10209000D813002010B50020FFF7D4FF10BD0000BA
:1020A000F8B504000F0016001D0003011B1A9B0069
:1020B0001F4AD3185978002006F0E2FB002825D0EB
:1020C000002F24D02B1C242D00D924239DB2184A84
:1020D0002301191B890051180F721B1B9B00083329
:1020E000D01801302A00310005F0C2F90135ADB237
:1020F0000F4B2001021B920008329A18001B80002F
:10210000181841782B00002006F0E2FBF8BD2B1CCC
:10211000252D00D925239DB22001001B8000083009
:10212000034B18182A00310005F0A2F9E0E7C04679
:10213000D813002010B513000A0001000020FFF79B
:10214000AFFF10BD107003120F20184050700B012C
:1021500018435070091191707047000070B5124D0E
:10216000802424012A0021002000FFF7EBFFEA1C55
:1021700021002000FFF7E6FFAA1D21002000FFF745
:10218000E1FF2A00093221002000FFF7DBFF2A00CF
:102190000C3221002000FFF7D5FF2A000F3221006A
:1021A0002000FFF7CFFF70BD8828002010B5800108
:1021B000034BC0184022002105F054F910BDC04661
:1021C00094170020014B19547047C0469418002002
:1021D00083010248C01801737047C046941700205D
:1021E00083010248C01841737047C046941700200D
:1021F00010B5084A0021535E147880010649445402
:10220000033399B21BB21380FF2B01DDFF3911801C
:1022100010BDC046AC28002094170020830102485E
:10222000C0180123437070479417002083010648AB
:10223000C018032383734822C2730374013B4374A1
:10224000473A0276437670479417002070B5CEB2B5
:102250000D0A00230AE01C000E348101054A5218C1
:10226000165519000F3155540233DBB20D2BF2D93C
:1022700070BDC0469417002030B5C478032545577B
:10228000437808211940012293437E322240012BDA
:1022900001D9002907D0402A07D9002D01DB0120F0
:1022A00004E0002002E0012000E0002030BD10B575
:1022B00004000800FFF7E0FF01002000FEF7ACFB80
:1022C00010BD000030B50D4B82010121D1549B1887
:1022D00000225A7003329A7000210CE0CC1C43009B
:1022E0001B185A00064B9B185B181D798201034B83
:1022F0009B181D5501310529F0D930BD94170020D8
:102300003822002070B504000D00FFF74FFF812137
:102310002000FFF757FF012D10D029000B4805F0D2
:10232000F7F9A3010A4A9D54A201094BD218094B9F
:10233000195D4023200007F0DDF970BD064805F067
:10234000E7F92000FFF7BEFFEEE7C04630AC001013
:10235000941700209418002018AC001070B586B0B7
:1023600004006846204B020061CB61C261CB61C2B0
:1023700002291FD003292DD081212000FFF728FF3B
:102380001A4EA501731901229A7328000F30801983
:10239000610009194900164C09190431053205F08C
:1023A00067F82800153080191822694605F060F892
:1023B00006B070BD81212000FFF70AFF0B48A40181
:1023C000031902229A730F3420180E32094905F0BE
:1023D0004FF8EDE781212000FFF7FAFEA401034842
:1023E00004190323A373E3E7A8AE00109417002099
:1023F00038220020A0190020F8B505000C001600B6
:102400001F00FFF7D3FE21212800FFF7DBFE280085
:10241000FFF7EEFE2800FFF701FF21002800FFF77D
:10242000DFFE6D4805F074F9482C00D9A8E0A10042
:102430006A4B5B589F466A4805F03AF980212800AC
:10244000FFF7C6FE674805F063F90024B6E0F17AAD
:10245000654805F05DF980212800FFF7B9FEF1E736
:10246000624805F025F9F17A2800FFF777FFE9E7E0
:10247000F17A5F4805F04CF980212800FFF7A8FEAB
:10248000F27A5C4B5A55DDE75B4805F011F9822181
:102490002800FFF79DFE2800FFF7C8FED2E7F17A7B
:1024A000564805F035F980212800FFF791FEC9E76D
:1024B000317BF27AF37B524805F02AF9902128000B
:1024C000FFF786FEF37BF27A317B280000F026FAD4
:1024D000B8E7317BF27AF37B4A4805F019F980219D
:1024E0002800FFF775FE337B802BABD1F37A262BC8
:1024F000A8D10024192C0BD823001033F15C4248DA
:1025000005F006F90A2005F0B5F80134A4B2F1E7A8
:102510000020FFF7FDF995E73C4805F0C9F8832155
:102520002800FFF755FE64212800FFF78FFE89E79A
:10253000374805F0BDF880212800FFF749FE81E704
:10254000344805F0E5F880212800FFF741FEF27AD3
:102550000F231340072B0BD00F2B0DD0032B03D0D1
:102560002D4805F0A5F86DE72C4805F0A1F869E7BE
:102570002B4805F09DF865E72A4805F099F861E7D2
:102580002100294805F0C4F8002405E0315D274802
:1025900005F0BEF80134A4B2BC42F7D30A2005F01E
:1025A00069F880212800FFF713FE4BE7A101204BBB
:1025B000C9181E4805F0ACF80134E4B21F2CF5D957
:1025C0000A2005F057F8AA01194BD21840232121FF
:1025D000280007F08FF8F8BD4CAC001070AD00106B
:1025E00054AC001068AD001064AC001074AC001066
:1025F00084AC0010240E00209CAC0010B0AC001085
:10260000C4AC0010ECAC001014AD00101CAD0010F8
:102610002CAD001040AD0010C4A90010D0A90010CE
:10262000DCA90010E8A9001050AD001060AD00104A
:102630009417002070B5050014001E00102911D059
:10264000802913D0012903D00A4805F061F808E079
:10265000911CFFF72CFEA17A330022002800FFF71F
:10266000CBFE70BD911CFFF722FEFAE75178FFF711
:1026700049FEF6E794AE0010094B1B780A2B07D0F1
:102680000B2B09D0064B0A221A70054B187870479D
:10269000034B0B221A70F8E7014B0C221A70F4E777
:1026A000280E002070B504000D00274B1B5C002B8A
:1026B00004D1264B1B5C302B0ED070BD8201244B05
:1026C000D2184100234BCB5A2349095CFFF7B2FFD4
:1026D0001D4B00221A55F0E7FFF768FD302120005E
:1026E000FFF770FD2000FFF783FD2000FFF796FD48
:1026F0002B78A201194EB618B3706B78F370AB78D3
:102700003371EB7873712B790F210B40B3716879BA
:10271000AB791B0203431B11F371EB7933722B7AF4
:1027200019407172697AAB7A1B020B431B11B372A9
:10273000FFF7A2FFF0720A4B195D40233200200020
:1027400006F0D8FFB9E7C04698190020240E0020F3
:10275000981800201C0E00209C19002094170020BF
:102760009418002070B50C0011001A00064B0125CA
:102770001D54064B1C544400054BE2528001054B8E
:10278000C01804F075FE70BD981900209C19002037
:102790001C0E00209818002010B514001A008001AB
:1027A000401803494018210004F062FE10BDC046E5
:1027B00094170020502800D19FE003D960281ED034
:1027C000FF2013E0402800D999E0202808D32429CD
:1027D00000D198E00BD8012900D096E0222005E036
:1027E000002803D0102800D08BE000207047263945
:1027F000C9B2252901D8FF20F8E70020F6E7A9296A
:1028000079D88B00434AD3589F46FF20EEE7022039
:10281000ECE70120EAE72320E8E70020E6E7B9201B
:10282000E4E71A20E2E70120E0E70020DEE74020AD
:10283000DCE70020DAE74020D8E70020D6E7402098
:10284000D4E70120D2E70020D0E70120CEE7002026
:10285000CCE70120CAE70020C8E73B20C6E73420C8
:10286000C4E73B20C2E73420C0E73B20BEE734206A
:10287000BCE73D39284B585CB8E73D39264B585CDE
:10288000B4E71A20B2E71A20B0E71A20AEE75E20BC
:10289000ACE70120AAE75020A8E7FD20A6E700202A
:1028A000A4E70020A2E7C620A0E70F209EE70F20A4
:1028B0009CE730209AE7612098E7AE2096E79020C9
:1028C00094E7D92092E7D42090E714208EE7542093
:1028D0008CE741208AE7152088E7542086E7C72047
:1028E00084E7792082E79C2080E733207EE736204A
:1028F0007CE763207AE7002078E7002076E7FF2076
:1029000074E7FF2072E7682070E700206EE703207D
:102910006CE7C046C0AE001088280020F0B5C6465F
:1029200000B58AB080460E0017001D0008AA177077
:10293000517000249470D470137105230E21FFF799
:102940002BFF00941A22002101A804F08BFD07E060
:102950003919C9B23000FFF72DFF6B461855013405
:10296000A542F5DC2B006A4613214046FFF714FF11
:102970000AB080BCB846F0BD10B5054B1B78002BE3
:1029800000D010BDFFF786FB014B1870F9E7C04679
:10299000B2280020F0B5DE4657464E464546E0B523
:1029A00083B00190824B21221A700023009311E022
:1029B000FF24E9007F4A521894719A78920601D454
:1029C0001A7900E0FF22ED007A4B5D19EA71009B55
:1029D00001330093009B032B00D9A6E0009B1B0151
:1029E000019A944663449D68002DF0DBEA0051197A
:1029F00001316F4E745C142004437454DC78E40796
:102A0000E40F6C490126505CB04304435454DC7815
:102A1000A407E40F6400505C8046022084464746C9
:102A200087433C435454DC786407E40FA400575CAC
:102A3000B9460427B8464F46404687433C43545462
:102A4000DC782407E40FE400505C824608208146CD
:102A5000574687433C435454DC78E406E00F8246F3
:102A60008C1860780700B7433E00504606436670F6
:102A70009E787606F60FF600607807004846874392
:102A80003E4366709E78B606F60FB6006078070083
:102A9000404687433E4366709E78F606F60F760002
:102AA00060780700604687433E4366709E787607ED
:102AB000F60FB601505C844640208046604647468B
:102AC000B843064356549E78F607F00E8446565C8B
:102AD000102086436046064356549E78B607F60F8C
:102AE0007601505C84462020804660464746B843C5
:102AF000064356549E783607F60FF601505C804622
:102B00007F208446404667463840064356545A78EC
:102B1000A2701A78E270DA7922719A7962719A78E1
:102B2000520600D544E75C7943E7234B1B78002B22
:102B30001BD11F4B0422597811435970997A1143C4
:102B40009972D97C1143D974197F0A431A771A4BA9
:102B500001221A70FFF79EFA002822D103B0F0BCC0
:102B6000BB46B246A946A046F0BD114C114DA01C73
:102B70000822290004F07CFC20000B3029000831D9
:102B8000082204F075FC230014332A00103203CA13
:102B900003C320001D3029001831082204F068FC0E
:102BA000D8E7252202490020FFF7C4FAD6E7C0463D
:102BB000FC20002050210020B128002010B5040086
:102BC000037B002B02D18068002816DA237F002BBC
:102BD00002D1A069002815DA230020331B7B002BCB
:102BE00002D1A06A002812DA230030331B7B002BAD
:102BF00002D1A06B002811DA10BDC0B206F052FD60
:102C00002073E3E7C0B206F04DFD2077E4E7C0B2E1
:102C100006F048FD230020331873E5E7C0B206F044
:102C200041FD30342073E7E7F0B5DE4657464E46A7
:102C30004546E0B583B0019000239A46E2E00122C8
:102C4000AB005B195B005B19B249CB18D1019878D6
:102C50007F2202400A439A7023793C2B03D8A27842
:102C60009206D10F00E00121AA48AB005B195B007E
:102C70005B19C9011E5C7F2232400A431A546378F3
:102C80001B2B52D9181CE42B01D9E423181CC0B209
:102C90001C3804F0BDFA061C23781B2B47D9181CDE
:102CA000E42B01D9E423181CC0B21C3804F0B0FA9C
:102CB0008146E3791B2B3DD9181CE42B01D9E42371
:102CC000181CC0B21C3804F0A3FA8046A3791B2B51
:102CD00033D9181CE42B01D9E423181CC0B21C38CA
:102CE00004F096FA071C8C49301C04F050FA061CBC
:102CF0008949484604F04BFA81468749404604F02A
:102D000046FA80468449381C04F041FA071C002129
:102D1000301C04F06DFA002811D18049301C04F0F9
:102D20006DFA00280CD07D4E0AE00026B4E700239F
:102D30009946BEE700239846C8E70027D3E7002658
:102D40000021484604F054FA002808D17349484647
:102D500004F054FA002804D0704B994601E0002397
:102D600099460021404604F043FA002808D16B49F7
:102D7000404604F043FA002804D0684B984601E02E
:102D8000002398460021381C04F032FA002807D1AD
:102D90006249381C04F032FA002802D05F4F00E08C
:102DA0000027301C04F088FA83B2AE007619760052
:102DB0007619584A9619FF2293461040F0701B0A64
:102DC0003371484604F078FA83B25A461040707165
:102DD0001B0AB371404604F06FFA83B25A461040A2
:102DE000F0711B0A3372381C04F066FA83B25A463B
:102DF000104070721B0AB372237B002B7BD101231E
:102E00009C46E2445346032B7CD853461C01019B4D
:102E10009C466444A568002DF1DBA0784007C00FF4
:102E20003C4AAB005B195B005B19D1180126B04628
:102E30008E784746BE4330438870A0788007C00F25
:102E400080008E780337BB46BE4330438870A0783D
:102E5000C007060F88780437BC46B84330438870F3
:102E6000A0780007C00F40008E7837000226B743D5
:102E700038438870E0780007C70F3E009F5C4046EB
:102E800087433800370007439F54E0784007C00F5E
:102E900040009F5C0226B74338439854E078C0074F
:102EA000000F8046985C6746B843474638439854BD
:102EB000E0788007C00F80009F5C5E46B7433843D0
:102EC0009854E078C006C00F40004F78023EB743E8
:102ED00038434870A178C906C90F8901985C3E360D
:102EE000B0430143995463793C2B00D9A7E6A278FB
:102EF0005206D20FA4E63100E8B2FFF7D3FB00235D
:102F000023737CE703B0F0BCBB46B246A946A0469B
:102F1000F0BDC046702100200AD7A34100F07F45D4
:102F2000014B01221A707047B828002010B50E4BD3
:102F30001B78002B00D110BD0C4804F0B9FB0C4CE1
:102F400040220021200004F08DFAF123237040225A
:102F50002100002006F04AFE002006F065FE024B2C
:102F600000221A70E7E7C046B8280020E8B2001037
:102F70009C1D002010B50378AF2B07D0F12B14D087
:102F80000F2B00D010BDFDF7F2FFFBE70B49AF237D
:102F90000B7000234B7008338B704022002006F02A
:102FA00025FE002006F040FEECE7054804F080FB1B
:102FB000FFF7B6FFFEF7ACFCE4E7C0469C1D00201F
:102FC00000B3001010B504F01EF9114904F0BFF869
:102FD00004F07AF90F4A104B03F091FC03F048FD1E
:102FE0008721C90504F0D3F8041C0C4904F006F944
:102FF000002807D10A49201C04F0FAF8002802D062
:10300000074C00E0054C201C04F024F900B210BD70
:103010000000FE427B14AE47E17AF43F00FAFF461F
:1030200000FAFFC610B50400037B002B02D18068B4
:10303000002816DA237F002B02D1A069002815DAB8
:10304000230020331B7B002B02D1A06A002812DA58
:10305000230030331B7B002B02D1A06B002811DA38
:1030600010BDC0B2FEF7C6FD2073E3E7C0B2FEF7A5
:10307000C1FD2077E4E7C0B2FEF7BCFD230020339A
:103080001873E5E7C0B2FEF7B5FD30342073E7E70B
:10309000F8B5CE46474680B58046002716E0FF21AA
:1030A000B3009B199B004F4AD3181971AB789B064C
:1030B00001D4297900E0FF21B3009B199B00494A04
:1030C000D31859712B7B002B7CD10137032F00D9EA
:1030D00083E03D014544A9680029F6DBCBB299465F
:1030E000FF260E406878FFF76DFFB400A419A40016
:1030F0003C4B1C19E0802878FFF764FF2081E879B9
:10310000FFF760FF6081A879FFF75CFFA081AB78D3
:103110001B07DB0FA27801218A431343A370AB780E
:103120005B07DB0F5B00A178022291430B43A37086
:10313000AB78DB07590FA378042083430B43A370BC
:10314000AB789B07DB0FDB00A178043081430B4396
:10315000A370EB78DB06DB0F1B01A07810218843FE
:103160000343A370AB78DB06DB0F5B00E078904392
:103170000343E370EB78DB07DA0EE3788B4313430A
:10318000E370EB789B07DB0F5B01E27810318A4339
:103190001343E370EB785B07DB0F9B01E278203190
:1031A0008A431343E370EB781B07DB0FDB01E17805
:1031B0007F220A401343E370AB785B0600D56EE7CD
:1031C00069796DE7B10089198900511814224846C0
:1031D000FEF7D4FC00232B7377E7C0BCB946B0469A
:1031E000F8BDC0469C21002010B58300084A9446D3
:1031F00063441C6840226240C02414408022520173
:1032000013431C60C000034B9C466044416010BDEA
:1032100004C001400040014080000B4B9C466044CC
:1032200000290DD00823002A0CD004221343026881
:1032300053400C2213408022520110430360704718
:103240000023F0E70022F1E704C0014010B501239C
:103250008340D0221206936293610521FFF7C4FFD9
:1032600010BD0000034B1B6802201840431E98410C
:10327000C0B2704700C00640EFF3108072B6034B37
:103280001B68002BFBD0BFF35F8F70472C0100D071
:10329000BFF35F8F024B00221A6080F310887047E3
:1032A0002C0100D0F8B506000C001500FFF7E4FF74
:1032B000E308F718F15C07222240012393400B42F8
:1032C00005D1DBB20B433B70FFF7E2FFF8BD2100F5
:1032D000280001F095FFF0B583B0060001911400BD
:1032E0001F00FFF7C9FF00E00134BC420CD8E3081F
:1032F000F518F35C0721214001228A401A42F3D1DC
:10330000D2B21A432A7001E001246442FFF7C0FFE1
:10331000002C02DB200003B0F0BD019B002BF9D094
:10332000089801F06DFF0000002307E0054A9A1895
:103330009200BFF35F8F0021116001331F2BF5D97D
:103340007047C04640000034054A1078431CDBB289
:103350001370172B02D9130010221A707047C04641
:10336000290E002000B583B00100044B00931F23F9
:1033700018220348FFF7AFFF03B000BD1CB30010D5
:1033800024210020074B9B68103080001950BFF3A8
:103390005F8FBFF35F8F044B0021196082F31088A9
:1033A0007047C04600ED00E0240100D010B5091AB6
:1033B000081F0A4B9C466144094A914208D8C3073A
:1033C00006D440104005400D064B184380B210BD96
:1033D000054B064AA321064801F078FEFC070000D1
:1033E000FE0F000000E0FFFF38B30010A8B500108A
:1033F00068B3001010B5091A04394C08090B08D13C
:103400004905490D064A11430180064B2343438079
:1034100010BD054B054AAB21054801F057FEC046DB
:1034200000F0FFFF00F8FFFFC4B300107CB50010F0
:1034300068B3001001238340034A10681840431EFC
:103440009841C0B27047C04600E100E0002904D0B6
:10345000034B1860034B18607047034B1860FBE781
:1034600080E200E000E100E080E100E010B501232F
:1034700083401800FFF7EAFF10BD0000024B9B6875
:1034800010308000C058704700ED00E070B50400B7
:103490000D00EFF3108672B60C4B1B68002BFBD0AF
:1034A000BFF35F8F2000FFF7E9FF094B984201D07F
:1034B000A84205D1320029002000FFF763FF70BD4C
:1034C000044B054A8621054801F000FE240100D086
:1034D000CD010010D4B30010DCB5001068B30010AB
:1034E000F0B5DE4657464E464546E0B589B08146C2
:1034F00001911500EFF3108A72B6744B1B68002B14
:10350000FBD0BFF35F8F724B0027DF57002F40DBEC
:103510007C00E419A4006F4824180622A2566C4BC4
:103520001A706D4B9A684B4610339B00D3589846DF
:103530001E001B1A2F2B38D9684B98452FD105AE8A
:10354000674B33807B009B46D8198000614B9846BF
:10355000404402306349FFF729FF7080624BB3801B
:10356000FF23B371F571019B07935F44BF0047448C
:103570000ECE0EC701231C43A04652464146484684
:10358000FFF700FF09B0F0BCBB46B246A946A04613
:10359000F0BD564B564AD721564801F097FD564B81
:1035A000534ADE21534801F091FDC04340440C21B1
:1035B00002F03AFF002912D101239E43B3463300A3
:1035C0000026DA79AA4211D90621595600290CDBC6
:1035D0004A00521892001E003E4B9B18F1E7474BE1
:1035E000434AEA21434801F071FD1E00002E3AD003
:1035F00005AB434A1A80813A5A800623F356029358
:10360000002B17DA3F4805AB9B469880029A9A71C7
:10361000DD71019A0792301D2100FFF7C7FEB080CF
:10362000B7717B00DB199B002A4FFF185B4607CB65
:1036300007C7A2E77800C0198000264BC0180430E5
:10364000321DB388D90A1C2907D15B0559150231EF
:1036500049005118FFF7AAFED5E72B4B2B4AB121A1
:10366000244801F033FD05AE1D4B33807B000293EF
:10367000D8198000174A9046020042440392901CD9
:103680001849FFF793FE7080039A101D5946FFF703
:103690008DFEB0801E4B5A464146521A524153434A
:1036A0001B0DB371F571019A0792029B9C4667440A
:1036B000BF0047440ECE0EC7114B5A461380813BC4
:1036C000538001231C43A04657E7C046240100D085
:1036D000C02800202C0E002000ED00E0CD010010DD
:1036E00000A1FFFF5C0E002001BDFFFF0CB4001025
:1036F000C4B5001068B3001034B400105CB40010FE
:103700000148000001BD0000D0B40010B4B50010A5
:10371000AAAA0000F0B5CE46474680B583B00600A1
:103720000D00EFF3108872B6564B1B68002BFBD0D0
:10373000BFF35F8F544B9A6834001034A300D758FE
:10374000524B9F4207D0AF4200D198E00197504BB7
:10375000FB1A2F2B09D9424639003000FFF712FE21
:1037600003B0C0BCB946B046F0BD3000FFF762FE02
:10377000814600213000FFF779FEBFF35F8FEFF342
:103780000581002901D08C4211D10123019C9C4369
:103790000022A368AB4212D00622A256002A0DDBFB
:1037A00053009B189B002200394CE418F1E73621A6
:1037B000384B394AFF31394801F088FC2200AB42CE
:1037C00056D106256557002D38DB6B005B199A0032
:1037D0002F4B9B189A68A260DA79E27106229A56FA
:1037E000A2719B795BB2002B0FDA2D48A0806B0091
:1037F0005B199B00264AD3182A4A117899711570D3
:1038000049463000FFF732FEA5E7201D6B005B192B
:103810009B001F4A9B181A1D9B88D90A1C2907D197
:103820005B055B15023359005118FFF7BFFDDDE75B
:103830001D4B1E4AB121194801F048FC002912D144
:10384000002A0ED0FF239371194B9380154A1378E9
:10385000A371184B0E49641A644163431B0D137026
:10386000CEE70A4FF2E7201D1349FFF7C3FDC7E774
:103870006A21124B084AFF31084801F027FC034F28
:1038800069E7C046240100D000ED00E0CD01001042
:103890002C0E0020E8B4001094B5001068B300109E
:1038A00001BD0000C0280020D0B40010B4B5001045
:1038B00001BDFFFFAAAA0000660E00201CB5001083
:1038C00070B5012101432E4BCB1A2F2B28D8EFF3D3
:1038D0000583002B2BD0EFF3108C72B6294A1268A7
:1038E000002AFBD0BFF35F8F274A0400244D641BDE
:1038F00064416243120D54B2244A92689B00D2582C
:103900008A421BD00022032A32D853009B189B0006
:103910001B49CB189B795BB2A3421FD00132F2E75F
:10392000C7211B4B1B4A49001B4801F0CFFB9221CA
:103930001A4B184AFF31184801F0C8FB134A926825
:103940001749D150174B1A7882711C70BFF35F8FE3
:103950000C4B00221A608CF3108870BD0D005300D0
:10396000991889006918FF268E710F4A8A80E9E745
:10397000D1210E4B074A4900074801F0A7FBC0467A
:103980002C0E0020240100D0AAAA000000ED00E0C7
:1039900024B5001060B5001068B300104CB50010DD
:1039A000CD010010C028002001BDFFFF58B5001058
:1039B0000022044B02E0044902C30132072AFAD96B
:1039C0007047C04600E400E080808080024B9C4647
:1039D00061448900016070474000003410B5040064
:1039E000FFF7B2FC01002000FFF7F0FFFF23237177
:1039F000BFF35F8F10BD10B50400FFF7A5FC0100F9
:103A00002000FFF7E3FFFF23237100236371BFF35F
:103A10005F8F10BD034B9C46614489000160BFF37A
:103A20005F8F70474000003410B504000120FFF79D
:103A300099FC01002000FFF7EDFF10BD70B50500F7
:103A40000C00080000F0DAFE0949200000F01AFE20
:103A5000FFF77AFC074B9C466044800068602C7539
:103A6000D0231B061B786B75A400034BE55070BD7B
:103A7000813D0010400000345C2600200A4B1A688B
:103A8000EFF3108172B61368002BFCD0BFF35F8F89
:103A9000054B1B68BFF35F8F00221A6081F310880B
:103AA00040BF0020002170478428002010B5002965
:103AB00022D003681B7B99421ED8174B9C46614459
:103AC000090183689C4661440C684968002A19D042
:103AD00003681B7B9A4215D883680F48844662446A
:103AE00012019A1810685368020001208B4201D815
:103AF0000ED00020C0B210BD084B094A3C21094835
:103B000001F0E4FA054B064A3C21064801F0DEFAD2
:103B1000A242EFD8EDE7C046FFFFFF0FC4B7001089
:103B200044BA001070B7001010B500291ED0037BF6
:103B300099421BD84B005B18033B0468A4466344BE
:103B4000002919D0002A1DD0914221D0002A25D069
:103B5000047BA24222D80468500080180338201841
:103B60008170197800291FD11A7010BD104B114AAD
:103B70006821114801F0AAFA104B114A6F310E4822
:103B800001F0A4FA0F4B0E4A70210B4801F09EFA87
:103B90000D4B0B4A7121084801F098FA044B054A75
:103BA0006821054801F092FA41701A70DDE7C046BD
:103BB000E8B70010B0BA001004B800106CB80010DC
:103BC0008CBA001078B8001084B8001070B50600E8
:103BD0000D001400002914D0002A14D080687368E6
:103BE0009847002806D0220029003000FFF79CFFEC
:103BF000280007E02A0021003000FFF795FF200091
:103C000000E0100070BD0800FCE70000F0B583B0D4
:103C10000500009201930AAB1C780BAB1F78002CB7
:103C200026D003685A7B944207D10123002B19D177
:103C3000002C3BD1200003B0F0BD002C0CD01A7B2F
:103C4000944209D81A6863001B19033BD3189B7868
:103C5000002BEBD00123E9E73E4B3F4A68213F4868
:103C600001F034FA3E4B3F4A67213F4801F02EFAFB
:103C700003689C7B002CDBD012D01A7B94420FD8B7
:103C800062001219033A19688C466244517899739C
:103C9000002900D1D9730023937053701370C7E7C4
:103CA0002C4B2D4A68212D4801F010FA002C3AD0F7
:103CB0002B681B7B9C4236D82C4BE3181B01AA684F
:103CC00094466344009A1A60019A5A60089A9A606E
:103CD000099ADA602E68002C2BD030D0337B9C42BE
:103CE0002DD863001B19033B3268944663440022BD
:103CF0009A705A701A70717B22003000FFF766FFCD
:103D00007073844200D095E7287D009A019B00F0F3
:103D100001FD061E01D0002F17D00C9B002B00D1F7
:103D200088E71E7086E7124B124A3C210E4801F0CC
:103D3000CDF9114B114AA521084801F0C7F9054BEF
:103D4000054A6821054801F0C1F92868210000F002
:103D500019FFE2E7E8B70010B0BA001004B800108D
:103D60009CB80010BCBA001070B70010FFFFFF0F26
:103D7000C4B7001044BA00106CB70010A0BA00100D
:103D8000F0B5DE4657464E464546E0B58BB0099045
:103D9000002308938200B54BD658370052E0B44B4D
:103DA000B44A3F21B44801F091F9B44BB44A3C21E4
:103DB000B44801F08BF9002901D1002869D1002114
:103DC000404600F0D5FEA04219D12A686B680692E1
:103DD0000793AB689846EB689A464346002B14D08D
:103DE000002C18D03B681B7B9C4214D8631EFA68D9
:103DF000D35C08931B0218433861002015E0A24BE6
:103E0000A24A8E219F4801F061F9A14B9F4A92215D
:103E10009C4801F05BF9994B9E4A4121994801F079
:103E200055F900239A46984600207B68BFF35F8FC0
:103E300000221A6086F310884346002B32D10028F6
:103E400000D10CE100F0FEFB02000B1EA7DB0020FE
:103E50000021069007917868EFF3108672B601682A
:103E60000029FCD0BFF35F8F396888464C7B002C5B
:103E7000D7D09AD0097B8C4297D8874965182D01F5
:103E8000B9688C46654428686968801A9941002998
:103E900091DD2A686B68099800F03CFC00239A4683
:103EA0009846C2E7089B1B022343994651461800D7
:103EB000C04705000E007A68EFF3108B72B61368E6
:103EC00059424B41D9B2002BF9D1BFF35F8F002E7D
:103ED0001EDB002E46DD3B69002B47D04B456DD1E4
:103EE00000F0B0FB02000B1E6EDB52197341002B79
:103EF00070DB002B72DB00210491013103910294ED
:103F000051460191414600913800FFF77FFE4CE099
:103F10003B69002BDDD04B4514D1069A079B521B01
:103F2000B341002B14DB002B16DB0021049101317F
:103F30000391029451460191414600913800FFF7E8
:103F400065FE32E0554B514AA1214E4801F0BEF8C2
:103F500001225242524BE6E7454B464A3F21464832
:103F600001F0B4F8002E01D1002DB4D13B68002C33
:103F700050D05A7B944237D1012100294AD1DA7BB3
:103F8000002A4DD19A7B002A03D1DA7B002A5AD12C
:103F90009C73DC73002C5CD03B681B7B9C4258D824
:103FA000FA68013C135D0133135500233B617A68C5
:103FB000BFF35F8F13608BF3108843E7374B334AAF
:103FC000A421304801F082F8294B2A4A3F212A488F
:103FD00001F07CF801225242314B8AE7244B254AFA
:103FE0003F21254801F072F8002C0DD01A7B944235
:103FF0000AD862001219033A18688446624492781B
:10400000002ABAD00121B8E7264B274A6821274861
:1040100001F05CF8264B274AF621244801F056F8B7
:10402000002A0AD0197B8A4207D851008A18033A1D
:1040300019688C4662445470A4E71A4B1A4A6821E6
:104040001A4801F043F81C4B1A4AFB21174801F0AB
:104050003DF80A4B0F4A41210A4801F037F80BB0EE
:10406000F0BCBB46B246A946A046F0BD5C26002087
:1040700068B6001010BA001084B60010C4B7001063
:1040800044BA001070B70010C4B8001028BA00106D
:10409000DCB8001068BA0010FFFFFF0FE8B800108E
:1040A000FFFFFF7FE8B70010B0BA001004B800109F
:1040B00024B900107CBA001048B9001010B50C4BA0
:1040C0005B68002B04D00A210A48FFF77FFC10BD73
:1040D000074C2300084A1021206800F059FC0320F7
:1040E00000F0A4FA03212000FFF7A8FCEBE7C0468C
:1040F000740E002084280020AD3A001010B5064B45
:104100005B68002B01D0044810BD044B044A5E21BB
:10411000044800F0DBFFC046740E00205CB90010BC
:1041200050BA001070B70010F0B5DE4657464E4644
:104130004546E0B58BB0804616001F00149B9A469A
:10414000159B994616AB1B789B461F2302AA9446E3
:10415000634400221A702BE0002809D042461268FE
:10416000127B904204D8421E4146C9688A5C41E0F5
:10417000404B414A4121414800F0A8FF07984CE0DC
:10418000361BAF41002F07DB002F11DA3C4B3D4AB5
:104190003F213D4800F09AFF012676423B4FF3E76E
:1041A000374B384A3F21384800F090FF002F4FDB53
:1041B00043465A68EFF3108472B6136859424B4174
:1041C000D9B20791002BF8D1BFF35F8F1F3302AA3A
:1041D0009446634404930023039302934B46019354
:1041E0005346009332003B004046FFF70FFD031E8D
:1041F000B2D1020041464968BFF35F8F00250D60D0
:1042000084F31088002B29D01F2302A98C46634415
:104210001B78002BB2D112021043002B20D05B463A
:10422000002B1DD04946D04704000D0003000B436E
:104230001DD00029A4DB00F005FA06000F1EAFDB3D
:1042400036196F41002FB1DA012676420F4FADE7E4
:104250000B4B0C4A3F210C4800F038FF0120404234
:104260000BB0F0BCBB46B246A946A046F0BD0798CD
:10427000F6E7C046C4B7001068BA001070B7001067
:1042800068B6001010BA001084B60010FFFFFF7F60
:10429000F8B50400002900D162E04268EFF3108510
:1042A00072B6136858424341D8B2002BF9D1BFF31C
:1042B0005F8FCBB22268567BB3421BD1012000280E
:1042C00048D0206988422BD0090AC9B2002B2ED0D1
:1042D0002068007B83422AD8581EE668305C8842FA
:1042E0002BD000206368BFF35F8F00221A6085F334
:1042F0001088F8BD002B0DD0167BB3420AD85E00A3
:10430000F618033E1768BC466644B678002ED6D031
:104310000120D4E7134B144A6821144800F0D6FE5C
:104320002C21134B134AFF31134800F0CFFE134BDF
:10433000134A4121104800F0C9FE1900100000F096
:1043400021FC0028CED199210E4B0A4A49000A4887
:1043500000F0BCFE23698B42C4D100232361C1E776
:104360000020C6E7E8B70010B0BA001004B800108B
:1043700080B90010F8B9001070B70010C4B7001071
:1043800068BA0010A4B90010F0B587B006000F009D
:10439000EFF30583002B1FD106246442E517A4190F
:1043A0007D418D4202D803D1844201D900240025E9
:1043B000002D14DB0494059500F044F902000B1E57
:1043C00013DBA41A9D41002D17DC14D030003900F6
:1043D00000F044F907B0F0BD234800F011FF234B73
:1043E000234A3F21234800F071FE204B204A3F2101
:1043F000204800F06BFE002CE8D0FFF77FFE002382
:10440000029301931C4B0093049A059BFFF78CFECB
:10441000002818DADAE7002300E00023002BD5D1CA
:10442000164B1A68EFF3108172B61368002BFCD09C
:10443000BFF35F8F114B1B68BFF35F8F00221A60C1
:1044400081F3108820BF0499059A0D4B5B6A9A424C
:10445000E3D80B48806A884203D29A42DBD001231A
:10446000DCE70123DAE7C046A8B9001068B60010FF
:1044700010BA001084B600107D3A00108428002085
:104480000040054070B504000D0000F0DBF80200AC
:104490000B1E0ADB200029008018594100290ADB85
:1044A00000290CDBFFF770FF70BD084B084A3F2165
:1044B000084800F00BFE012040420749F0E7034B9B
:1044C000034A3F21034800F001FEC04668B60010D1
:1044D00010BA001084B60010FFFFFF7F10B5FA225B
:1044E00092000023002102F015FEFFF7CBFF10BD64
:1044F00070B584B005000C00EFF30583002B1ED1CE
:10450000FFF7FCFD002302930193224B00932A0046
:104510002300FFF709FE061E23DD20BFFFF7EEFD97
:104520003100FFF7B5FE1C4B5B6A9C422DD81A4A3E
:10453000926AAA422CD29C4225D0012026E0164B3A
:104540005B6A994209D8144A926A824207D2994218
:1045500001D001201AE0002018E0002016E0012020
:1045600014E00D4B5B6A9C4209D80B4A926AAA423E
:1045700007D29C4201D0012008E0002006E0002084
:1045800004E0012002E0002000E0002004B070BD43
:104590000120FBE77D3A00100040054070B5EFF3C5
:1045A00005801038EFF3108C72B61A4B1B68002B85
:1045B000FBD0BFF35F8F01221300834016494B638A
:1045C00016490B60164909780C00C440224214D0E9
:1045D000114A546A8200134D5259944206D3820004
:1045E000114C125999430E4B197007E00A4A031DEA
:1045F0009B0099589950002200E00022BFF35F8F82
:10460000044B002119608CF31088002A00D09047D9
:1046100070BDC046280100D0004005403C700540F8
:10462000C22800209C280020EC1F002010B50100AB
:10463000024A0348FEF736FE10BDC046D4BA001049
:10464000BE280020044B5B6A034A906A1900536A33
:104650009942F9D17047C04600400540084B5B6A5B
:1046600001E0074B5B6A8B42FBD301E0044B5B6AC2
:104670008B4203D1024B9B6A8342F7D37047C046FB
:104680000040054070B504000D00EFF3108672B6CF
:104690001B4B1B68002BFBD0BFF35F8F002D1CD082
:1046A0002000FEF7EBFE174B83420BD019002000D1
:1046B000FEF7ECFE01212000FEF7D8FE0123A34007
:1046C000114A1360A400114BE550BFF35F8F0C4BF0
:1046D00000221A6086F3108870BDA2000B4B0021E7
:1046E000D1500122A2400A490B7893430B7005492F
:1046F0002000FFF70FF800212000FEF7B7FEE4E7E7
:10470000280100D09D45001038600540EC1F0020B6
:10471000C2280020F0B5DE4600B584B004001500C4
:1047200001921E000293FFF78DFF03958E4202D87F
:104730004ED185424CD9EFF3108B72B6274B1B68D4
:10474000002BFBD0BFF35F8F254A17780125A540CA
:10475000EBB23B431370234B5D63221D9200019922
:10476000D150A2002049029850501B6A2B4212D10E
:104770001C4B1B6C2B4208D00020BFF35F8F174BE4
:1047800000221A608BF3108823E0184B184AC521C9
:10479000184800F09BFCFFF755FF8E4214D802D159
:1047A000039B834210D80E4B1B78BB420ED00D4B9F
:1047B0001D625D631F2004400123A3400E4A136065
:1047C000074B1F701E38D8E70020D6E70120D4E73A
:1047D000012004B080BCBB46F0BDC046280100D01B
:1047E000C2280020004005409C280020F8BA001094
:1047F0007CBB00101CBB001080E200E0EFF3108CCB
:1048000072B60B4B1B68002BFBD0BFF35F8F0123ED
:104810008340084A136208490A789A430A70BFF332
:104820005F8F034B00221A608CF310887047C046DC
:10483000280100D000400540C228002010B5002902
:104840001ED0037B99421BD84B005B18033B0468C6
:10485000A4466344002919D0002A1DD0914221D0DA
:10486000002A25D0047BA24222D804685000801878
:10487000033820188170197800291FD11A7010BDD3
:10488000104B114A6821114800F020FC104B114ACE
:104890006F310E4800F01AFC0F4B0E4A70210B4886
:1048A00000F014FC0D4B0B4A7121084800F00EFC7F
:1048B000044B054A6821054800F008FC41701A7055
:1048C000DDE7C046E8B70010A0BC001004B8001037
:1048D0006CB800108CBC001078B8001084B80010C0
:1048E00070B506000D001400002914D0002A14D061
:1048F000806873689847002806D02200290030009D
:10490000FFF79CFF280007E02A0021003000FFF796
:1049100095FF200000E0100070BD0800FCE70000DB
:1049200010B50023437301338373037BC3730123E7
:10493000027B9A4214D9002B0CD0027B934209D8F7
:104940005A00D218033A01688C4662440133DBB244
:104950005370EDE70B4B0C4A68210C4800F0B6FB96
:10496000002A09D0924207D8016853009A18033AE6
:104970008A180023537010BD024B034A6821034874
:1049800000F0A4FBE8B70010A0BC001004B80010B1
:1049900010B5017342608360FFF7C2FF10BD0000D5
:1049A00070B50400081E00D170BD002934D0237BEF
:1049B000994231D84B005B18033B2268944663440C
:1049C0005A78002AF0D02DD0237B9A422AD853005F
:1049D0009B18033B21688C4663445D780021597025
:1049E000002825D0237B984222D843001B18033B84
:1049F00021688C4663440021597001002000FFF7B4
:104A00006FFF060029002000FFF7CAFF02003100F7
:104A10002000FFF765FFC7E7084B094A68210948EE
:104A200000F054FB054B064A6821064800F04EFB97
:104A3000024B034A6821034800F048FBE8B7001026
:104A4000A0BC001004B8001070B505000C001600E2
:104A500000292FD034D0037B994231D84B005B180A
:104A6000033B0268944663445A78002A2ED19A7810
:104A7000002A31D11978FFF793FF0300002E0AD0E6
:104A8000EA7B002A2ED1AA7B002A03D1EA7B002AE6
:104A90003BD1AC73EC73002B3DD1002C4FD02B7B62
:104AA0009C424CD82B6861000C19033C1C19002354
:104AB000637070BD254B264A3821264800F006FB5E
:104AC000254B264A6821264800F000FB254B204A4A
:104AD0003A21204800F0FAFA234B1D4A3B211D4899
:104AE00000F0F4FA002A0AD0297B8A4207D8510044
:104AF0008A18033A29688C4662445470C3E7164BFF
:104B0000164A6821164800F0E1FA184B104A422173
:104B1000104800F0DBFA002B0BD02A7B934208D818
:104B200043001B18033B2A689446634400229A7092
:104B3000B3E7094B094A6821094800F0C7FA064B58
:104B4000064A6821064800F0C1FAC04698BB00102A
:104B500078BC0010A0BB0010E8B70010A0BC00108B
:104B600004B80010F4BB00101CBC001048B90010C1
:104B700070B504000A00457B2900FFF765FF6073EC
:104B8000280070BD70B50400002967D0437B8B42BC
:104B90000ED0002911D0037B99420ED84B005B1830
:104BA000033B0268D0188378002B0CD1002056E01C
:104BB0000121FFF7DDFF012051E0294B294A68213F
:104BC000294800F083FA002B20D0227B93421DD885
:104BD0005A00D318033B2268D2182568EB5C8B423D
:104BE0001AD0002B1BD0227B934218D85A00D3181E
:104BF000033B2268D21853788B4216D0002BF0D199
:104C00001A4B1B4A6B211B4800F060FA144B154AE3
:104C10006821154800F05AFA4378137007E0104BEA
:104C2000104A6821104800F051FA4378537000236D
:104C30008370437001222000FFF706FF0200617BB2
:104C4000814205D02000FFF74BFE6073012006E093
:104C5000094B074A7121074800F038FA002070BD5F
:104C6000E8B70010A0BC001004B8001058B5001040
:104C700060BC0010A0BB001040BC0010F8B5DE46C0
:104C800057464E464546E0B505000F0092460A9A43
:104C9000934250D31A0E91461E020A9A0023300006
:104CA000494601F0FFFB80466C006419A400304BBC
:104CB0009C4664446368834200D260602B1FDBB271
:104CC0009B46012B3DD9C0239B0123438022120127
:104CD0001A60AB00274A9958002907D0506901F0A3
:104CE000A3FB431C5800C0180338FDD253465A0199
:104CF00023685A40E0231A4080235B0123431A6053
:104D00005A46012A28D980239B012343802212017D
:104D10001A6043466360424600233000494601F072
:104D2000C1FBAD00134B58510120F0BCBB46B2464D
:104D3000A946A046F8BD104B104A3321104800F098
:104D4000C5F9012FBFD1C0239B01234303221A6061
:104D5000A368DB07FCD5C9E72168794003220A4034
:104D60001A60A2680123BB401342FAD0CBE7C046C9
:104D70000080004028210020ACBC001020BD0010A5
:104D8000C0BC001030B583B00C2000F011F9FEF764
:104D900069FA00280DD0002304E099002D4A2E481E
:104DA00088500133092BF8D92A4B2C4A5A6203B098
:104DB00030BD2B4B00229A6700F06CF9294B012281
:104DC0001A60274B5B6C012BFBD1274B03221A6027
:104DD000234B9B6B012BFBD1013300930433234AFC
:104DE0000121234800F054F805230093214A0121B2
:104DF000214800F04DF8214B0093002202210420AD
:104E0000FFF73CFF1E4D00952B00002201210520DD
:104E1000FFF734FF104C00942300002200210720EC
:104E2000FFF72CFF00942300002200210820FFF749
:104E300025FF0A4B00932300002200210920FFF7E1
:104E40001DFF00952B00002200210620FFF716FF12
:104E5000ADE7C04628210020006CDC021BB7000033
:104E6000008000403CB0004030B00040002F685946
:104E700000800240008C864700C00240001BB70043
:104E8000405973078000014BC0587047282100200B
:104E9000F0B5C64600B504000E0017001D003748E7
:104EA00001F0C2FA8046364BFA18364B9A4239D88E
:104EB0000100380001F0B8FA0200103A98235B00B4
:104EC0009A4235D86B1E062B38D8069B013B062B21
:104ED00034D83F09474537D32D04069B1A031543A1
:104EE0002368002B36DB284B9C4244D080225201A1
:104EF000264B1A60264B1A60264B9B68110099437B
:104F0000FAD12660A060231DC02292011A432123FA
:104F100013602368002BFCDAE5600823136080BC73
:104F2000B846F0BD1C4B1D4A11211D4800F0CEF8BB
:104F30001C4B1A4A19211A4800F0C8F81A4B174A94
:104F40001C21174800F0C2F8184B144A23211448BA
:104F500000F0BCF822683F231340B342C3D1A368DA
:104F60001B051B0D8342BED1E368EE22D202134023
:104F7000AB42B8D1D3E780229201B9E7001BB7005A
:104F800080E84BD380F8A93200C0024000E0004026
:104F900000F0004000C0004030BD001070BE0010A6
:104FA00090BD0010ECBD001008BE001054BE0010F3
:104FB00080239B000343014AD36270470080054071
:104FC000024B1A68024B5A607047C04654260020B4
:104FD0000080054010B50200164B8020C005186007
:104FE000154B1648186000290AD0154BE021C9045A
:104FF0001960002A09D1124B802212061A6010BDD6
:105000000C4BE021C9041960F3E753019B1A980087
:10501000801800010B4B186080235B04984202D378
:10502000084B094A1A60FFF7CBFF054B8022D205D7
:105030001A60E4E700B0054008200140FCFF0100D1
:1050400000A0054054260020FFFFFF0010B503001C
:1050500010000C4A8024E4051460002B0DD00122BE
:105060001343094A094CD461094C5C4014625162F3
:1050700093620021FFF7AEFF10BD034B0022DA61FF
:10508000F7E7C04600B0054000800540D3C007B038
:105090002D3FF84F074BAA2212011A602132FF322E
:1050A000DA60054B054A1A60024B5B68002BFBDA9D
:1050B0007047C046004002400060024000B0FA0065
:1050C00000BEFDE710B5FFF7FBFF000010B582B092
:1050D0000C001900002A0CD0084B002A0BD00192BA
:1050E000009323000200064802F012FB0120FFF7A4
:1050F000E7FF044BF1E7034AF1E7C0467CBE00102E
:105100008CBE0010E8AC001070B52B4B2B4A1A6017
:105110002B4B2C4A1A602C4B9A682A4B9343FAD19A
:105120002A4C01E008CC9847294B9C42FAD3FFF760
:1051300029FE234B274A1A60234B9B68DB43DB0184
:10514000FAD1254B40229A675A671A67DA66234CD0
:1051500009E0234B234A87212348FFF7B7FF2000AC
:10516000FEF73CFC0834214B9C4209D22368002BFB
:10517000F5D0012BEDD12000FEF73DFC0834F2E71D
:105180001B4CA1681B4DC022280002F071F9A560DC
:10519000EFF30583002B00D000BEFEF7C5F8FEF745
:1051A00007FCFEF78BFF144C01E008CC9847134B2B
:1051B0009C42FAD370BDC04600E00040BFCDFBFE6C
:1051C00000F00040FE7F3C0000C00040F80E0020D0
:1051D000080F0020FFFFFF0100F00140E80E002053
:1051E000BCBE00104CBF0010DCBE0010F80E00204A
:1051F00000ED00E000000020080F0020100F00204C
:105200000FB400B583B0084802F052FA049B002B9B
:1052100007D005A90191180002F05AFA034802F0DC
:1052200047FA0120FFF74CFF3CBF001010AD001003
:10523000704710B5002802D00B684968984710BD28
:105240000100002007E083001B185B00501C086071
:105250001078C01830380A681378303BDBB2092B5D
:10526000F1D97047F0B5DE4657464E464546E0B5A3
:1052700083B093461F000C9B9A460D9C0E9B99464B
:105280000F9B9B0703D0B8460F00060022E0019257
:10529000A34688464E46B9460700B44207D2551C7D
:1052A0004B4641462020B84701342A00F5E73D002F
:1052B0004F465C46019B9B46B1464646B846370082
:1052C0002E0007E0013C551C5346185D434639004B
:1052D000B0472A00002CF5D135003E0047460F9B11
:1052E0009B0707D4100003B0F0BCBB46B246A946EA
:1052F000A046F0BDB0464E46B9462F005D46531B52
:10530000B342EFD2541C4B4641462020B8472200FE
:10531000F5E7F0B5CE46474680B585B09446984649
:105320000C9D0D9C0EAB1B789946109A119B129EFA
:10533000B7071CD4002B0CD0F7070AD54F46002F17
:1053400002D10C37374204D0013B02E030272F5501
:105350000134944201D21F2CF8D9F70707D59C429B
:1053600005D21F2C03D830272F550134F5E7F70657
:1053700015D5770505D4002C03D0944224D09C4247
:1053800022D00F9A102A2BD00F9A102A30D00F9AC1
:10539000022A35D01F2C02D830222A5501341F2C66
:1053A00005D84A46002A31D02D222A5501340396C9
:1053B00002930194009543466246FFF753FF05B000
:1053C000C0BCB946B046F0BD621E012C06D00F9F8E
:1053D000102F01D01400D4E7023CD2E71400D0E72C
:1053E000B206D1D41F2CCFD878222A550134D1E768
:1053F000B206CCD51F2CCAD858222A550134C9E789
:105400001F2CC7D860322A550134C3E7720703D571
:105410002B222A550134CAE73207C8D520222A5543
:105420000134C4E7F0B5DE4657464E464546E0B582
:1054300093B081468A46089209931CAB10CB1B7827
:105440009B461E9D219B9846002C03D1102342466B
:105450009A4390468023DB0046461E4042461A424D
:1054600012D0002C22D000260EE03033D9B2771CA7
:105470000AAB99552900200000F0D6FFAC4216D3A4
:105480001F2F14D83E0004002900200000F0CCFF9C
:10549000CBB2092BE9D94246920605D54121C9185C
:1054A000C9B20A39C9B2E2E76121F8E727004346E9
:1054B0000693209B05931F9B049303955B460293E1
:1054C00001970AAB0093099B089A51464846FFF79B
:1054D00020FF13B0F0BCBB46B246A946A046F0BDC3
:1054E000F0B5DE4657464E464546E0B595B00890C5
:1054F00009910A920B931E9E1F9C20AB1B789B4622
:10550000229B9946239D269B9A463300234303D131
:10551000103352469A4392468023DB0057461F4081
:1055200052461A4219D0330023432DD0002714E0ED
:105530003033DAB27B1C98460CABDA554A462B0066
:105540003000210000F0AEFFA5421FD819D043461D
:105550001F2B1BD8474606000C004A462B00300084
:10556000210000F09FFFD3B2092BE1D952469206E9
:1055700005D54122D218D2B20A3AD2B2DAE7612274
:10558000F8E7B145E3D901E0002398465346069376
:10559000259B0593249B04934B4603935B46029300
:1055A000434601930CAB00930B9B0A9A0999089808
:1055B000FFF7AFFE15B0F0BCBB46B246A946A04609
:1055C000F0BD0000F0B5DE4657464E464546E0B514
:1055D00091B083468A460C9298461A9C08941B9D6B
:1055E000099522002B002000290001F0E6F900288F
:1055F00000D0E5E001225242D74B2000290001F003
:10560000D7F9002800D0DBE001225242D34B200022
:10561000290001F0B7F9002800D0D1E000220023D2
:10562000089E3000099D290001F0ACF9002800D047
:10563000DDE008980999069007918023DB001E9A07
:105640001A400D921E9A1A4201D106231C93069805
:10565000079904000D000A000600024300D1D1E0C2
:10566000080D4005400DBE4CA44660440A03120BD1
:10567000BC4B13431F0001F0B3F9BB4ABB4B01F015
:105680003EF9BB4ABB4B01F013F904000D000022A8
:10569000B94B3000390001F002F9B84AB84B01F0BB
:1056A0002EF902000B002000290001F001F901F0A1
:1056B000AFF9814601F094F904000D00B14AB24BF4
:1056C00001F01DF90022B14B01F0F2F801F0A0F950
:1056D0000600AF4AAF4B2000290001F010F904008A
:1056E0000D00300001F07CF9AB4AAC4B01F007F93A
:1056F00002000B002000290001F0D1F804000D0089
:1057000002000B0001F0FBF80A900B91A44BF31878
:1057100000261F0522002B002000290001F0C8F8F8
:105720000E900F9122002B0000208021C90501F06E
:10573000B6F804000D0000229A4B0A980B9901F06C
:10574000C0F80022984B01F0B3F802000B000A9851
:105750000B9901F0B6F80022944B01F0A9F8020071
:105760000B000A980B9901F0ACF802000B00200026
:10577000290001F09DF802000B000E980F9901F02E
:10578000A0F80022774B01F093F832003B0001F0C3
:10579000B6F806000F0004000D00069A079B01F002
:1057A00007F9002830D001235B429C46E1440022E7
:1057B0007D4B3000390001F084F804000D0023E037
:1057C0001E9B04931D9B03931C9B0293089A099BA9
:1057D0000092019343460C9A5146584600F0FCF85B
:1057E00011B0F0BCBB46B246A946A046F0BD0023AE
:1057F000002406930794069680231B069C46654466
:1058000007951AE7002399464B466333C62B1ED8EB
:1058100004261E9B1B0526D52B0023430FD0644A6C
:10582000644B0698079901F0BBF8002879D0002254
:10583000614B0698079901F0A5F8002871D01C9BD0
:105840004B4506DD4A46981A431E1C9303E0052685
:10585000DFE700231C938023DB001E9A1A431E926D
:105860000026002399461D9B9E4264D29F1B022363
:105870001E9A1A400A921E9A134202D0002E00D09D
:1058800000274B46002B07D022002B0006980799D3
:1058900001F017F806900791002200230898099953
:1058A00001F070F8002848D1444B1E9A134004932D
:1058B00003971C9B0293069B079C0093019443460D
:1058C0000C9A5146584600F087F8002E00D187E721
:1058D0001E9B9B063DD54525441C43460200514670
:1058E0002800D8474B46DA179B18534005220592EB
:1058F000013E0496002203920A3202924A46D00FD9
:10590000019000934346220051465846FFF78AFD16
:105910000A9B002B00D163E702005F460C9E1D9D91
:1059200054E01C9B002B9ED00D9B002B9BD01C9BFE
:10593000013B1C9397E7002799E7069C079D2200EF
:10594000290080200006844661440B0006920793DC
:10595000AAE76525C0E7C046FFFFEF7FFFFFEFFF27
:1059600001FCFFFF0000F03FFB799F501344D33F41
:10597000B3C8608B288AC63F0000F83F61436F635D
:10598000A787D23F71A379094F930A400000E03FF7
:105990001655B5BBB16B0240EF39FAFE422EE63F19
:1059A000FF03000000002C400000244000001840CD
:1059B0002D431CEBE2361A3F80842E41FFF7FFFF98
:1059C000541C434651462020B8472200931BAB424B
:1059D000F6D3100004E7C046F0B5DE4657464E4603
:1059E0004546E0B595B00690079193469946209FAD
:1059F0001E9A1F9B1000190000F0DFFF002831D114
:105A000001225242BF4B1E981F9900F0BBFF002895
:105A100037D101225242BC4B1E981F9900F0C8FF9B
:105A200000283DD10022B94B1E981F9900F0C0FFFD
:105A3000002850D10022B64B1E981F9900F0A2FFFB
:105A4000002848D1002200231E981F9900F09AFFD9
:105A5000002850D100239846229B5B0500D4B6E075
:105A6000002458E0229B0393219B0293032301937C
:105A7000A84B00934B465A4607990698FFF7F2FB4E
:105A80000EE1229B0393219B029304230193A24BDB
:105A900000934B465A4607990698FFF7E3FBFFE051
:105AA0000423229A1A4022990B4210D09B4B002AC1
:105AB0000FD004222299039121990291019200931F
:105AC0004B465A4607990698FFF7CCFBE8E0944B03
:105AD000EDE70322EEE7229B0493219B03930297B9
