:020000041000EA
:1000000000B5324B212058609868022188439860DF
:10001000D860186158612E4B002199600221596106
:100020000121F02299502B49196001219960352056
:1000300000F044F80222904214D00621196600F024
:1000400034F8196E01211966002018661A6600F04E
:100050002CF8196E196E196E052000F02FF8012189
:100060000842F9D1002199601B49196000215960AB
:100070001A491B48016001219960EB211966A021F2
:10008000196600F012F800219960164914480160C1
:100090000121996001BC002800D000471248134993
:1000A000086003C880F30888084703B5996A0420EC
:1000B0000142FBD001200142F8D103BD02B5186610
:1000C0001866FFF7F2FF186E186E02BD00000240BE
:1000D000000000180000070000035F00212200005C
:1000E000F4000018222000A00001001008ED00E03C
:1000F00000000000000000000000000074B24E7A12
:1001000000200420F7010010C3010010C5010010F9
:10011000C1010010C1010010C1010010C101001097
:10012000C1010010C1010010C1010010C701001081
:10013000C1010010C1010010C9010010CB01001065
:10014000CD010010CD010010CD010010CD01001037
:10015000CD010010CD010010CD010010CD01001027
:10016000CD010010CD010010CD010010CD01001017
:10017000CD010010CD010010CD010010CD01001007
:10018000CD010010CD010010CD010010CD010010F7
:10019000CD010010CD010010CD010010CD010010E7
:1001A000CD010010CD010010CD010010CD010010D7
:1001B000CD010010CD010010CD010010CD010010C7
:1001C00000BE00BE00BE00BE00BE00BEEFF3058054
:1001D000103800BEF2EB887118B200103CB200106B
:1001E0003402001090A31AE700201F49086006C8D7
:1001F00081F3088810471D48006800282FD10DA4FE
:100200000ECC002902D000F012F8F9E71849194A7B
:10021000002000E001C19142FCD1174988471749ED
:1002200088471749884700BEFDE701C901C29A42C5
:10023000FBD370473CB20010C0000020F80C002037
:1002400074BE0010000004200000042074BE0010E2
:10025000001004200010042000000000704709482E
:1002600004F0AEFD0047000008ED00E0000000D003
:10027000F80C002054240020493B001055030010C6
:10028000053B00105756000006005250ABB36053B8
:1002900018AB001006005250861C030228AB001059
:1002A000060052505422A29D3CAB00100500525053
:1002B000DE65F46874BE0010F8B5C04610B5064C93
:1002C0002378002B07D1054B002B02D0044800E017
:1002D00000BF0123237010BD000E002000000000AD
:1002E000088F0010044B10B5002B03D003490448BD
:1002F00000E000BF10BDC04600000000040E00205A
:10030000088F001070B504000D00034804F058FD7C
:1003100003002900200098475542000010B50B202B
:1003200001F01CFD002201210B2001F0FDFCD02476
:10033000240680231B01A3620C2001F00FFD002284
:1003400001210C2001F0F0FC80235B01A36200F08E
:1003500001F910BD10B5FFF7E1FFD0231B065B6864
:100360001B0503D400210800FFF7CCFF002000F09C
:10037000B9F905F043FEFF20000200F0DFF800F0BD
:10038000D7F8FA20800002F033FE002000F050FD84
:1003900002E0200000F0CEFC094B9C6A200000F037
:1003A00073F901200021404206F086FED0231B068F
:1003B0005B681B05EDD400210800FFF7A3FFC046D2
:1003C0000040054000220AE0930006495958064BB8
:1003D0005B68DB03FBD4044B19610132D2B2032A00
:1003E000F2D970473414002000003050F8B5DE46D2
:1003F00057464E464546E0B506000D00141C807871
:1004000005F0B4FB8046F07805F0B0FB071C70786F
:1004100005F0ACFB061CA87805F0A8FB8346E8783D
:1004200005F0A4FB8246687805F0A0FB81464146B2
:10043000584605F072FB211C05F08FFB414605F084
:1004400071FB8046391C504605F067FB211C05F006
:1004500084FB391C05F066FB051C311C484605F081
:100460005CFB211C05F079FB311C05F05BFB05F002
:10047000A5FBC4B22402404605F0A0FBC3B21B0496
:100480001C43281C05F09AFB00062043F0BCBB4629
:10049000B246A946A046F8BDF8B51F4B1B78002B05
:1004A00018D01E4A1E4B13CB13C21B6813600023C7
:1004B0001C4A1370184A137000221A4B1D78152D10
:1004C0001ED8280005F052FB174905F046FB061C14
:1004D00000240DE00122F0E7A7001449C9190F48D4
:1004E000C019321CFFF782FF0D4BD8510134E4B222
:1004F000032CF1D901350B4B1D70FFF763FFF8BDDD
:10050000002AFCD1064A094B13CB13C21B681360A7
:10051000FFF758FFF3E7C0464B24002044140020A7
:1005200034140020B80B0020310C433D541400203B
:10053000014B01221A7070474B240020002304E075
:100540009900034A88500133DBB2032BF8D9704776
:100550005414002070B58CB0434D4449280008F075
:100560005BFB040007210A2001F0C6FB0123009376
:100570000A220021280008F06BFB1022002108A8A5
:1005800005F0C4FB80235B020893F8235B02099308
:100590008023DB020A93C0231B030A93102208A9BD
:1005A00004A805F0B9FBE21C059B0393304B0399AB
:1005B0000B40E1010B43120313430593079A039287
:1005C000D200D208802189050A430792294A1340A4
:1005D0000593102204A908A805F09EFB0B9B03932A
:1005E000254A1A40A0239B0113430B930A9B0393B4
:1005F000224A1A40224B13430A939B009B088022F5
:10060000D20513430A93052003F0C6F91D4904F0EF
:100610002BFC05F0ABFA061C05F0D0FA85B2002DD4
:100620001FD0280005F0A2FA011C301C05F075FA55
:100630008721C90505F091FA05F0C0FAC0B20002A1
:100640002D0405430895084D08AB22000021280021
:1006500008F050FB2B680122934313432B600CB02E
:1006600070BD0020EBE7C04600003050088F00103E
:100670007F00FEFFFFFFFF9FFF83FFFFFFFFF5C12E
:10068000000002300050C30010B50E4B18600E4B36
:100690001B68984208D2C31A013B0C4A934207D800
:1006A0000023002B0AD110BD984205D9C31AF4E7E4
:1006B000054B18600123F4E70023F2E7FFF7ECFE97
:1006C000F1E7C04640240020E82100201941000045
:1006D00000487047188F0010014B18607047C046E3
:1006E0008C16002010B5041E09D0012811D00E4B25
:1006F00000221A600D4B1C7007F0D0FD10BD0C4895
:10070000FFF7EAFF084B0B4A1A600B4B0B4A1A60C3
:10071000F0E70748FFF7E0FF034B094A1A60064B72
:10072000084A1A60E6E7C04688160020B90B002088
:10073000B01D00008918001090160020C57A001026
:10074000DD1B0010D1100010054B1B78012B03D0CE
:10075000032B03D1034870470348FCE70348FAE73B
:10076000B90B0020E89A00106491001094970010D3
:10077000054B1B78012B03D0032B03D10348704793
:100780000348FCE70348FAE7B90B00209C9A0010E5
:10079000BC900010F496001000207047014B01221D
:1007A0001A7070474E24002070B51D0004AC2388D9
:1007B000094C2478012C09D0002907D1002A05D141
:1007C0002978102903D02A0000F054FF70BDA91C1D
:1007D00000F00EFDFAE7C046B90B00200048704754
:1007E000A8970010044B1B78012B01D003487047D9
:1007F000037801330370F9E7B90B0020A4900010CF
:1008000070B58200114BD558002808D0280008F098
:10081000E3FAC0B21F2800D91F2000230CE019689A
:1008200002220B4805F078FA012007E05A1CEC5C24
:100830005100084BCC52D3B29842F7D80130400057
:10084000C0239B0003430348038070BDC00B0020FE
:10085000C6100020C410002010B590B004000A4853
:1008600005F090FB002300933C22002101A805F035
:100870004DFA40226946200007F0B2FB684601F0BD
:10088000E3F810B010BDC04608900010F0B5DE4689
:1008900057464E464546E0B591B080468946934658
:1008A0000393052003F078F85D4904F0DDFA05F0C4
:1008B0005DF98246002627E006216FE00020000255
:1008C0003F0407432760574BE2681340AD021D43C6
:1008D000E560554AA3681A4080235B021343A36076
:1008E000524A1340524A1343A36023004A46310040
:1008F000404608F0FFF943461A680123B3409A4383
:100900001343424613600136032E00D981E03401BF
:10091000039B9C4664441022002108A805F0F6F9C8
:1009200080235B020893F8235B0209938023DB0298
:100930000A93C0231B030A93102208A904A805F0F8
:10094000EBF9059B02933B4B029A13404A46D201B6
:1009500013434A461532120313430593079A029232
:10096000D200D2088021C9050A430792324A1340B7
:100970000B4305930CAD102204A9280005F0CCF917
:10098000230007CD07C32A681A605B46F5182800C4
:1009900001F0E4F9294B98458ED00721280001F099
:1009A000ABF9012300932A003100404608F050F9CA
:1009B000234BE2681340EA031343E360214A1340E8
:1009C0002B43802252031343E3601F4A61680A40AD
:1009D00029060A4362601D4A13406A0113438022BC
:1009E000D2041343E360504605F0E8F887B2002FC5
:1009F00000D163E7380005F0B9F8011C504605F056
:100A00008CF88721C90505F0A8F805F0D7F8C0B221
:100A100055E711B0F0BCBB46B246A946A046F0BDB2
:100A200000093D00FF83FFFFFFFF0AFEFFFFF5C146
:100A3000000002107F00FEFFFFFFFF9F000020501C
:100A4000FF7FF0FFE0FF0FFCFFFFFFE01FFCFFE375
:100A500010B52F4B1B5C002B21D143001B18DB0072
:100A60002C4A94466344802212021A6043001B18E9
:100A7000DB00294A944663441B68002BF6DB030025
:100A800008339B00254A9B585B0C82002449535035
:100A9000092B00D010BD1E4B01221A54FAE7012B7E
:100AA00016D0022BF6D10022012A26D81B4B5968FA
:100AB000040008340123A3400B421AD1A3001749B4
:100AC0005C5883009B189B0016495C500132EBE791
:100AD00043001B18DB00144A9446634480225201F1
:100AE0001343802212061A601A60094B02221A541C
:100AF000D0E7074B00221A54CCE70A4A01010B4BFE
:100B0000C0008C58C4505218526818184260C1E78F
:100B100018140020D8002050CC0020500000205095
:100B20001C140020B8130020D0002050F81300201F
:100B300010B50020FFF78CFF0120FFF789FF02208E
:100B4000FFF786FF0320FFF783FF10BD10B5704A43
:100B500080235B011343802212061A601A606D4ADB
:100B600013680F218B431360002344E05900C91818
:100B7000CA0069498C466244684911605900C91825
:100B8000CA0067498C4662441268002AF6DB654A4F
:100B900012681F2010405900C918CA005E498C46CF
:100BA000624410605900C918CA005D498C4662440D
:100BB0001268002AF6DB574A5168180010300122EB
:100BC00082400A42F7D11A1D920052498220C00584
:100BD00050505900C918CA004F498C4662445249C6
:100BE00011605900C918CA004D498C466244126808
:100BF000002AF6DB0133032B00D982E04B4AD25C9A
:100C0000012AB3D0022A43D05900C918CA00424968
:100C10008C466244414911605900C918CA004049D4
:100C20008C4662441268002AF6DB3E4A12681F2096
:100C300010405900C918CA0037498C4662441060F8
:100C40005900C918CA0036498C4662441268002A05
:100C5000F6DB304A516818001030012282400A4207
:100C6000F7D11A1D92002B49002050505900C91885
:100C7000CA0029498C4662442B4911605900C918A1
:100C8000CA0027498C4662441268002AF6DBB1E7A5
:100C9000244A126806321F2010405900C918CA00A1
:100CA0001D498C46624410605900C918CA001C498D
:100CB0008C4662441268002AF6DB164A5168180016
:100CC0001030012282400A42F7D1191D89001148D3
:100CD0008024E4050C500F4949680A42FBD1191DD4
:100CE00089000C48C024A4040C501149C85C0006BB
:100CF000084949680A42FBD11A1D92000549505023
:100D000078E7044A13680F218B430B43136010BD2F
:100D1000D000205000002050D800205040E00000BB
:100D2000CC0020508411002047E00000181400205F
:100D30003014002010B5384B1860384B1B689842AF
:100D40002FD2C31A013B364A93422ED80023002BE0
:100D50004FD0FFF7FBFEFA204000002102F01CF903
:100D6000FFF7E6FE2F4B9B78DB0624D52E4B0122A6
:100D70001A705A702D4B1B78002B23D12B4B5B78AC
:100D8000002B24D1294B9B78002B26D1274BDB78D5
:100D9000002B28D1254B00221A705A709A70DA70F5
:100DA00010BD984205D9C31ACDE71C4B186001232A
:100DB000CDE70023CBE71C4B00221A705A709A70C3
:100DC000DA70D7E71749002000F05EFDD6E7154935
:100DD0000831012000F058FDD4E7124910310220FB
:100DE00000F052FDD2E70F491831032000F04CFD0E
:100DF000D0E7002006F066FE0C4C2070012006F0C3
:100E000061FE6070022006F05DFEA070032006F017
:100E100059FEE070C4E7C04644240020EC210020C5
:100E2000571B0000F8130020301400202C14002061
:100E300010B5094C0949200007F0EEFE0100084BEF
:100E400018600631074B16222000FFF71FFD6420B3
:100E500002F0CEF810BDC0460000205020900010D7
:100E60008411002044110020014B01221A707047A8
:100E70004F240020014B01221A7070474C2400209F
:100E80000120704710B5882252000021014804F06B
:100E90003DFF10BDB01A002010B50020FFF7F2FF93
:100EA00010BD0000F8B5CE46474680B580460D001F
:100EB0004B79FF2B2ED10B79DF00FF1ABFB2193708
:100EC000BBB2994693422CD80C780C19002609E045
:100ED0003B01DB19DB001649CB185A700136F6B21C
:100EE0002378E4182B79B34216D9AF786378052BB1
:100EF000F6D12100404605F00DFE002814D0A2785E
:100F0000D309012BE4D03B01DB19DB000849CB18E6
:100F10009A70E3E7002399464846C0BCB946B046FC
:100F2000F8BD00239946F7E700239946F4E7C04649
:100F3000B01A0020F0B5C64600B582B0040000200B
:100F4000012809D802011218D200224D525D9142A7
:100F500003D00130C0B2F3E7FF20050002011218F0
:100F6000D2001C4EB21852788A420CD002011218DC
:100F7000D200184EB21892788A4211D0012002B0E5
:100F800080BCB846F0BD144A002A21D001010918DE
:100F9000C900083189199AB2FFF700FC0120EEE779
:100FA00007013E18F60048360A4A904646449BB26E
:100FB0000093330000220021FFF7F6FB7F19FF00AA
:100FC0004744B97840233200200005F017FED6E7E9
:100FD0000120D4E7B01A00209D070010F8B50400E6
:100FE00005F0E6FC002803D10023002B08D1F8BD52
:100FF00005F0E6FC002801D10123F6E70023F4E721
:1010000023011B19DB000F4AD3189978002005F043
:1010100031FE0028EBD10B4E25012F19FF00F719E7
:10102000B97805F0C3FD2A19D20048329219B9786F
:101030004023002005F0E2FDB978002005F0CAFD4C
:10104000D5E7C046B01A0020F0B5CE4600B582B054
:1010500004000191150005F0B3FC00280ED1230116
:101060001B19DB00194AD3185978002005F09EFDA2
:10107000002806D102B080BCB946F0BD05F0A8FC3E
:10108000EDE72B1C402D00D940239BB29946270148
:101090003D19ED0008350D4EAD191A0001992800D3
:1010A00004F03AFE3919C900711849784B462A00F4
:1010B000002005F0A3FD3F19FF00F7197978002003
:1010C00005F088FD2000FFF789FFD3E7B01A002064
:1010D00010B503000001C018C000114B1818447867
:1010E00005F066FC002806D10023002B13D0002C4D
:1010F00009D1002010E005F063FC002801D1012394
:10110000F3E70023F1E72100002005F0B3FD0028FC
:1011100003D1013000E0002010BD0020FCE7C046F4
:10112000B01A002010B58001034BC01840220021E6
:1011300004F0ECFD10BDC04664140020014B1954AE
:101140007047C0466415002083010248C01801732F
:101150007047C0466414002083010248C0184173E0
:101160007047C0466414002010B5084A0021535E41
:101170001478800106494454033399B21BB213809A
:10118000FF2B01DDFF39118010BDC046482400202F
:101190006414002083010248C01801234370704783
:1011A0006414002083010648C01803238373482277
:1011B000C2730374013B4374473A02764376704727
:1011C0006414002070B5CEB20D0A00230AE01C00A2
:1011D0000E348101054A5218165519000F31555425
:1011E0000233DBB20D2BF2D970BDC046641400206F
:1011F0007047000010B502000A48930101211954FC
:10120000C11800244C7003348C700333181851003B
:1012100089184900044BC9180331062204F07CFDEB
:1012200010BDC04664140020CC1D002070B5040021
:101230000D00FFF777FF81212000FFF77FFF012DD1
:1012400010D029000B4804F0CDFEA3010A4A9D549A
:10125000A201094BD218094B195D4023200006F06A
:1012600059FC70BD064804F0BDFE2000FFF7C2FF28
:10127000EEE7C04690910010641400206415002031
:101280007891001070B586B004006846204B0200CB
:1012900061CB61C261CB61C202291FD003292DD06D
:1012A00081212000FFF750FF1A4EA501731901227A
:1012B0009A7328000F308019610009194900164CF3
:1012C00009190331053204F027FD28001530801973
:1012D0001822694604F020FD06B070BD812120006F
:1012E000FFF732FF0B48A401031902229A730F344F
:1012F00020180E32094904F00FFDEDE7812120008E
:10130000FFF722FFA401034804190323A373E3E7B3
:101310000894001064140020CC1D002070160020DA
:10132000F8B505000C0016001F00FFF7FBFE212199
:101330002800FFF703FF2800FFF716FF2800FFF73C
:1013400029FF21002800FFF707FF6D4804F04AFE3F
:10135000482C00D9A8E0A1006A4B5B589F466A4818
:1013600004F010FE80212800FFF7EEFE674804F02D
:1013700039FE0024B6E0F17A654804F033FE80219E
:101380002800FFF7E1FEF1E7624804F0FBFDF17A87
:101390002800FFF777FFE9E7F17A5F4804F022FEC3
:1013A00080212800FFF7D0FEF27A5C4B5A55DDE72A
:1013B0005B4804F0E7FD82212800FFF7C5FE280006
:1013C000FFF7F0FED2E7F17A564804F00BFE8021D9
:1013D0002800FFF7B9FEC9E7317BF27AF37B524868
:1013E00004F000FE90212800FFF7AEFEF37BF27AB6
:1013F000317B280000F01AFAB8E7317BF27AF37BF0
:101400004A4804F0EFFD80212800FFF79DFE337B62
:10141000802BABD1F37A262BA8D10024192C0BD822
:1014200023001033F15C424804F0DCFD0A2004F094
:1014300075FD0134A4B2F1E70020FFF71BFD95E72D
:101440003C4804F09FFD83212800FFF77DFE6421C6
:101450002800FFF7B7FE89E7374804F093FD8021A5
:101460002800FFF771FE81E7344804F0BBFD8021BE
:101470002800FFF769FEF27A0F231340072B0BD0E9
:101480000F2B0DD0032B03D02D4804F07BFD6DE70F
:101490002C4804F077FD69E72B4804F073FD65E7FD
:1014A0002A4804F06FFD61E72100294804F09AFD05
:1014B000002405E0315D274804F094FD0134A4B216
:1014C000BC42F7D30A2004F029FD80212800FFF751
:1014D0003BFE4BE7A101204BC9181E4804F082FDDA
:1014E0000134E4B21F2CF5D90A2004F017FDAA013B
:1014F000194BD21840232121280006F00BFBF8BD20
:10150000AC910010D0920010B4910010C89200105D
:10151000C4910010D4910010E4910010EC0B002055
:10152000FC91001010920010249200104C920010B8
:10153000749200107C9200108C920010A092001007
:1015400074900010809000108C9000109890001003
:10155000B0920010C09200106414002010B5102941
:101560000AD0802909D0012903D0064804F03AFDA9
:1015700002E0917AFFF7D4FE10BD5178FFF756FED6
:10158000FAE7C046F4930010094B1B780A2B07D0EA
:101590000B2B09D0064B0A221A70054B187870479E
:1015A000034B0B221A70F8E7014B0C221A70F4E778
:1015B000F00B002070B504000D00274B1B5C002BC6
:1015C00004D1264B1B5C302B0ED070BD4200244B47
:1015D000D35A8201234952182349095CFFF7BEFF01
:1015E0001D4B00221A55F0E7FFF79CFD302120002B
:1015F000FFF7A4FD2000FFF7B7FD2000FFF7CAFDAD
:101600002B78A201194EB618B3706B78F370AB78D3
:101610003371EB7873712B790F210B40B3716879BB
:10162000AB791B0203431B11F371EB7933722B7AF5
:1016300019407172697AAB7A1B020B431B11B372AA
:10164000FFF7A2FFF0720A4B195D40233200200021
:1016500006F060FAB9E7C04668160020EC0B0020DF
:10166000E40B0020681500206C1600206414002094
:101670006415002070B50C0011001A00064B0125FE
:101680001D54064B1C544400054BE2528001054B8F
:10169000C01804F041FB70BD681600206C160020D5
:1016A000E40B00206815002010B514001A0080011A
:1016B000401803494018210004F02EFB10BDC0461D
:1016C00064140020502800D19FE003D960281ED068
:1016D000FF2013E0402800D999E0202808D32429CE
:1016E00000D198E00BD8012900D096E0222005E037
:1016F000002803D0102800D08BE000207047263946
:10170000C9B2252901D8FF20F8E70020F6E7A9296A
:1017100079D88B00434AD3589F46FF20EEE702203A
:10172000ECE70120EAE72320E8E70020E6E7B9201C
:10173000E4E71A20E2E70120E0E70020DEE74020AE
:10174000DCE70020DAE74020D8E70020D6E7402099
:10175000D4E70120D2E70020D0E70120CEE7002027
:10176000CCE70120CAE70020C8E73B20C6E73420C9
:10177000C4E73B20C2E73420C0E73B20BEE734206B
:10178000BCE73D39284B585CB8E73D39264B585CDF
:10179000B4E71A20B2E71A20B0E71A20AEE75E20BD
:1017A000ACE70120AAE75020A8E7FD20A6E700202B
:1017B000A4E70020A2E7C620A0E70F209EE70F20A5
:1017C0009CE730209AE7612098E7AE2096E79020CA
:1017D00094E7D92092E7D42090E714208EE7542094
:1017E0008CE741208AE7152088E7542086E7C72048
:1017F00084E7792082E79C2080E733207EE736204B
:101800007CE763207AE7002078E7002076E7FF2076
:1018100074E7FF2072E7682070E700206EE703207E
:101820006CE7C046209400101C240020F0B5C6468A
:1018300000B58AB080460E0017001D0008AA177078
:10184000517000249470D470137105230E21FFF79A
:101850002BFF00941A22002101A804F057FA07E098
:101860003919C9B23000FFF72DFF6B461855013406
:10187000A542F5DC2B006A4613214046FFF714FF12
:101880000AB080BCB846F0BDF8B5DE4657464E46B5
:101890004546E0B582460A008D786D07ED0F464C4F
:1018A000830053445B005344E118012080468E7846
:1018B000864335438D709578AD07ED0FAD008E787A
:1018C0000427BE4335438D709578ED072E0F8D7834
:1018D00007308446854335438D7095782D07ED0F8D
:1018E0006D0088780226B04305438D70D5782D07AA
:1018F000E80F8346185D4546A8435D4605431D55E0
:10190000D5786D07ED0F6D00185DB04305431D558B
:10191000D578ED07280F80461D5D6046854340461B
:1019200005431D55D578AD07ED0FAD00185DB843E3
:1019300005431D55D578ED06ED0F6D004F78B74383
:101940003D434D709578ED06ED0FAD011E5D4027CE
:10195000BE4335431D5556792825B542B6417642DA
:10196000F60188783F37384006438E701679B542C5
:10197000AD416D42ED011E5D37403D431D5553782D
:101980001B01CB701B0A0B7113781B014B711B0AD7
:101990008B71D3791B01CB711B0A0B7293791B01DD
:1019A0004B721B0A8B725046FFF704FEF0BCBB461D
:1019B000B246A946A046F8BD041D0020F0B583B08C
:1019C00005001400012934D113785B069B0F012B0D
:1019D00026D0022B30D15378012B03D0022B07D015
:1019E000002027E01523154A210005F089FC21E09D
:1019F000117953791B020B43072B01D0002019E00A
:101A00006B469F1D0E4E02223100380004F084F90F
:101A10003B883200083A2100280005F071FC09E0FB
:101A20005178084804F0DEFA2100280005F04CFC4B
:101A300000E0012003B0F0BD0020FBE7DC960010C1
:101A40005C8F0010C896001010B503780F2B07D8D4
:101A5000002B2FD00F2B2DD89B00474AD3589F46E1
:101A6000AF2B09D8A12B25D35F33DAB20E2A21D8A8
:101A70009300424AD3589F46F12B1BD1404804F0B3
:101A800081FAFFF7F1F9FFF7F5F913E03D4803F0AC
:101A900097F903000021080098473B49AF230B70DA
:101AA00000234B708B704022002006F0AFFA00201C
:101AB00006F0CAFA10BD354804F064FA324903232F
:101AC0000B704022002006F0A1FA002006F0BCFABC
:101AD000F0E72F4804F056FA2B49A3230B7040225D
:101AE000002006F093FA002006F0AEFAE2E729485B
:101AF00004F048FADEE7284804F044FAFEF718FD3F
:101B0000D8E7264804F03EFA1F4C4022002120006E
:101B100004F0FCF8A123237040222100002006F0ED
:101B200075FA002006F090FAC4E71D4804F02AFA7E
:101B3000C0E71C4804F026FA1349A2230B700023C7
:101B40004B708B70CB700B714022002006F05EFA58
:101B5000002006F079FAADE7134804F013FAA9E77C
:101B6000124804F00FFAA5E7114804F00BFAA1E7B8
:101B7000104804F007FA9DE7209A0010609A0010C0
:101B8000049A001055420000701A0020749800104A
:101B90009C980010C4980010E89800100899001054
:101BA000289900104C9900107C9900109C99001005
:101BB000BC990010DC9900107F380002054B984258
:101BC00004DC054B984202DA180000E0014800B23C
:101BD0007047C046FD7F00000380FFFF70B5060020
:101BE0000D004878FFF7E8FFB400A419A400414BAA
:101BF0001C19E0802878FFF7DFFF2081E879FFF7E4
:101C0000DBFF6081A879FFF7D7FFA081AB781B07C6
:101C1000DB0FA27801218A431343A370AB785B07E3
:101C2000DB0F5B00A178022291430B43A370AB78DA
:101C3000DB07590FA378042083430B43A370AB78D1
:101C40009B07DB0FDB00A178043081430B43A370BB
:101C5000EB78DB06DB0F1B01A078102188430343E0
:101C6000A370AB78DB06DB0F5B00E07890430343A7
:101C7000E370EB78DB07DA0EE3788B431343E37012
:101C8000EB789B07DB0F5B01E27810318A4313434B
:101C9000E370EB785B07DB0F9B01E27820318A432E
:101CA0001343E370EB781B07DB0FDB01E1787F2246
:101CB0000A401343E3706B792D2B16D9FF21B30033
:101CC0009B199B000B4AD31819712B792D2B0ED918
:101CD000FF210848B3009A1992008218517111002F
:101CE00014223000FFF7B0F970BD0021E7E70021B2
:101CF000EFE7C046301D002010B58300084A944627
:101D000063441C6840226240C02414408022520177
:101D100013431C60C000034B9C466044416010BDEF
:101D200004C001400040014080000B4B9C466044D1
:101D300000290DD00823002A0CD004221343026886
:101D400053400C221340802252011043036070471D
:101D50000023F0E70022F1E704C0014010B50123A1
:101D60008340D0221206936293610521FFF7C4FFDE
:101D700010BD0000034B1B6802201840431E984111
:101D8000C0B2704700C00640EFF3108072B6034B3C
:101D90001B68002BFBD0BFF35F8F70472C0100D076
:101DA000BFF35F8F024B00221A6080F310887047E8
:101DB0002C0100D0F8B506000C001500FFF7E4FF79
:101DC000E308F718F15C07222240012393400B42FD
:101DD00005D1DBB20B433B70FFF7E2FFF8BD2100FA
:101DE000280001F02DFFF0B583B00600019114002A
:101DF0001F00FFF7C9FF00E00134BC420CD8E30824
:101E0000F518F35C0721214001228A401A42F3D1E0
:101E1000D2B21A432A7001E001246442FFF7C0FFE6
:101E2000002C02DB200003B0F0BD019B002BF9D099
:101E3000089801F005FF0000002307E0054A9A1802
:101E40009200BFF35F8F0021116001331F2BF5D982
:101E50007047C04640000034054A1078431CDBB28E
:101E60001370172B02D9130010221A707047C04646
:101E7000F10B002000B583B00100044B00931F2339
:101E800018220348FFF7AFFF03B000BDFC9A001013
:101E9000D81C0020074B9B68103080001950BFF3FE
:101EA0005F8FBFF35F8F044B0021196082F31088AE
:101EB0007047C04600ED00E0240100D010B5091ABB
:101EC000081F0A4B9C466144094A914208D8C3073F
:101ED00006D440104005400D064B184380B210BD9B
:101EE000054B064AA321064801F010FEFC0700003E
:101EF000FE0F000000E0FFFF189B0010889D0010FF
:101F0000489B001010B5091A04394C08090B08D178
:101F10004905490D064A11430180064B234343807E
:101F200010BD054B054AAB21054801F0EFFDC04649
:101F300000F0FFFF00F8FFFFA49B00105C9D001065
:101F4000489B001001238340034A10681840431E39
:101F50009841C0B27047C04600E100E0002904D0BB
:101F6000034B1860034B18607047034B1860FBE786
:101F700080E200E000E100E080E100E010B5012334
:101F800083401800FFF7EAFF10BD0000024B9B687A
:101F900010308000C058704700ED00E070B50400BC
:101FA0000D00EFF3108672B60C4B1B68002BFBD0B4
:101FB000BFF35F8F2000FFF7E9FF094B984201D084
:101FC000A84205D1320029002000FFF763FF70BD51
:101FD000044B054A8621054801F098FD240100D0F4
:101FE000CD010010B49B0010BC9D0010489B001058
:101FF000F0B5DE4657464E464546E0B589B08146C7
:1020000001911500EFF3108A72B6744B1B68002B18
:10201000FBD0BFF35F8F724B0027DF57002F40DBF1
:102020007C00E419A4006F4824180622A2566C4BC9
:102030001A706D4B9A684B4610339B00D3589846E4
:102040001E001B1A2F2B38D9684B98452FD105AE8F
:10205000674B33807B009B46D8198000614B9846C4
:10206000404402306349FFF729FF7080624BB38020
:10207000FF23B371F571019B07935F44BF00474491
:102080000ECE0EC701231C43A04652464146484689
:10209000FFF700FF09B0F0BCBB46B246A946A04618
:1020A000F0BD564B564AD721564801F02FFD564BEE
:1020B000534ADE21534801F029FDC04340440C211E
:1020C00002F0D2FE002912D101239E43B346330011
:1020D0000026DA79AA4211D90621595600290CDBCB
:1020E0004A00521892001E003E4B9B18F1E7474BE6
:1020F000434AEA21434801F009FD1E00002E3AD070
:1021000005AB434A1A80813A5A800623F35602935C
:10211000002B17DA3F4805AB9B469880029A9A71CC
:10212000DD71019A0792301D2100FFF7C7FEB080D4
:10213000B7717B00DB199B002A4FFF185B4607CB6A
:1021400007C7A2E77800C0198000264BC0180430EA
:10215000321DB388D90A1C2907D15B0559150231F4
:1021600049005118FFF7AAFED5E72B4B2B4AB121A6
:10217000244801F0CBFC05AE1D4B33807B0002935D
:10218000D8198000174A9046020042440392901CDE
:102190001849FFF793FE7080039A101D5946FFF708
:1021A0008DFEB0801E4B5A464146521A524153434F
:1021B0001B0DB371F571019A0792029B9C4667440F
:1021C000BF0047440ECE0EC7114B5A461380813BC9
:1021D000538001231C43A04657E7C046240100D08A
:1021E00052240020F40B002000ED00E0CD0100108F
:1021F00000A1FFFF240C002001BDFFFFEC9B00109D
:10220000A49D0010489B0010149C00103C9C0010E2
:102210000148000001BD0000B09C0010949D00101A
:10222000AAAA0000F0B5CE46474680B583B00600A6
:102230000D00EFF3108872B6564B1B68002BFBD0D5
:10224000BFF35F8F544B9A6834001034A300D75803
:10225000524B9F4207D0AF4200D198E00197504BBC
:10226000FB1A2F2B09D9424639003000FFF712FE26
:1022700003B0C0BCB946B046F0BD3000FFF762FE07
:10228000814600213000FFF779FEBFF35F8FEFF347
:102290000581002901D08C4211D10123019C9C436E
:1022A0000022A368AB4212D00622A256002A0DDB00
:1022B00053009B189B002200394CE418F1E73621AB
:1022C000384B394AFF31394801F020FC2200AB423B
:1022D00056D106256557002D38DB6B005B199A0037
:1022E0002F4B9B189A68A260DA79E27106229A56FF
:1022F000A2719B795BB2002B0FDA2D48A0806B0096
:102300005B199B00264AD3182A4A117899711570D7
:1023100049463000FFF732FEA5E7201D6B005B1930
:102320009B001F4A9B181A1D9B88D90A1C2907D19C
:102330005B055B15023359005118FFF7BFFDDDE760
:102340001D4B1E4AB121194801F0E0FB002912D1B2
:10235000002A0ED0FF239371194B9380154A1378EE
:10236000A371184B0E49641A644163431B0D13702B
:10237000CEE70A4FF2E7201D1349FFF7C3FDC7E779
:102380006A21124B084AFF31084801F0BFFB034F96
:1023900069E7C046240100D000ED00E0CD01001047
:1023A000F40B0020C89C0010749D0010489B001086
:1023B00001BD000052240020B09C0010949D00102C
:1023C00001BDFFFFAAAA00002E0C0020FC9C0010FB
:1023D00070B5012101432E4BCB1A2F2B28D8EFF3D8
:1023E0000583002B2BD0EFF3108C72B6294A1268AC
:1023F000002AFBD0BFF35F8F274A0400244D641BE3
:1024000064416243120D54B2244A92689B00D25830
:102410008A421BD00022032A32D853009B189B000B
:102420001B49CB189B795BB2A3421FD00132F2E764
:10243000C7211B4B1B4A49001B4801F067FB922137
:102440001A4B184AFF31184801F060FB134A926892
:102450001749D150174B1A7882711C70BFF35F8FE8
:102460000C4B00221A608CF3108870BD0D005300D5
:10247000991889006918FF268E710F4A8A80E9E74A
:10248000D1210E4B074A4900074801F03FFBC046E7
:10249000F40B0020240100D0AAAA000000ED00E007
:1024A000049D0010409D0010489B00102C9D0010C2
:1024B000CD0100105224002001BDFFFF389D001007
:1024C0000022044B02E0044902C30132072AFAD970
:1024D0007047C04600E400E080808080024B9C464C
:1024E00061448900016070474000003410B5040069
:1024F000FFF7B2FC01002000FFF7F0FFFF2323717C
:10250000BFF35F8F10BD10B50400FFF7A5FC0100FD
:102510002000FFF7E3FFFF23237100236371BFF364
:102520005F8F10BD034B9C46614489000160BFF37F
:102530005F8F70474000003410B504000120FFF7A2
:1025400099FC01002000FFF7EDFF10BD70B50500FC
:102550000C00080000F0DCFE0949200000F01CFE21
:10256000FFF77AFC074B9C466044800068602C753E
:10257000D0231B061B786B75A400034BE55070BD80
:102580009128001040000034F42100200A4B1A6802
:10259000EFF3108172B61368002BFCD0BFF35F8F8E
:1025A000054B1B68BFF35F8F00221A6081F3108810
:1025B00040BF0020002170471024002010B50029E2
:1025C00022D003681B7B99421ED8174B9C4661445E
:1025D000090183689C4661440C684968002A19D047
:1025E00003681B7B9A4215D883680F48844662446F
:1025F00012019A1810685368020001208B4201D81A
:102600000ED00020C0B210BD084B094A3C21094839
:1026100001F07CFA054B064A3C21064801F076FAA7
:10262000A242EFD8EDE7C046FFFFFF0FA49F0010C6
:1026300024A20010509F001010B500291ED0037B6B
:1026400099421BD84B005B18033B0468A4466344C3
:10265000002919D0002A1DD0914221D0002A25D06E
:10266000047BA24222D80468500080180338201846
:102670008170197800291FD11A7010BD104B114AB2
:102680006821114801F042FA104B114A6F310E488F
:1026900001F03CFA0F4B0E4A70210B4801F036FA5C
:1026A0000D4B0B4A7121084801F030FA044B054AE2
:1026B0006821054801F02AFA41701A70DDE7C0462A
:1026C000C89F001090A20010E49F00104CA00010C2
:1026D0006CA2001058A0001064A0001070B5060095
:1026E0000D001400002914D0002A14D080687368EB
:1026F0009847002806D0220029003000FFF79CFFF1
:10270000280007E02A0021003000FFF795FF200095
:1027100000E0100070BD0800FCE70000F0B583B0D9
:102720000500009201930AAB1C780BAB1F78002CBC
:1027300026D003685A7B944207D10123002B19D17C
:10274000002C3BD1200003B0F0BD002C0CD01A7B34
:10275000944209D81A6863001B19033BD3189B786D
:10276000002BEBD00123E9E73E4B3F4A68213F486D
:1027700001F0CCF93E4B3F4A67213F4801F0C6F9D2
:1027800003689C7B002CDBD012D01A7B94420FD8BC
:1027900062001219033A19688C46624451789973A1
:1027A000002900D1D9730023937053701370C7E7C9
:1027B0002C4B2D4A68212D4801F0A8F9002C3AD065
:1027C0002B681B7B9C4236D82C4BE3181B01AA6854
:1027D00094466344009A1A60019A5A60089A9A6073
:1027E000099ADA602E68002C2BD030D0337B9C42C3
:1027F0002DD863001B19033B3268944663440022C2
:102800009A705A701A70717B22003000FFF766FFD1
:102810007073844200D095E7287D009A019B00F0F8
:1028200003FD061E01D0002F17D00C9B002B00D1FA
:1028300088E71E7086E7124B124A3C210E4801F0D1
:1028400065F9114B114AA521084801F05FF9054BC4
:10285000054A6821054801F059F92868210000F06F
:102860001BFFE2E7C89F001090A20010E49F001039
:102870007CA000109CA20010509F0010FFFFFF0FD3
:10288000A49F001024A200104C9F001080A20010F2
:10289000F0B5DE4657464E464546E0B58BB009904A
:1028A000002308938200B54BD658370052E0B44B52
:1028B000B44A3F21B44801F029F9B44BB44A3C2151
:1028C000B44801F023F9002901D1002869D1002181
:1028D000404600F0D7FEA04219D12A686B680692E4
:1028E0000793AB689846EB689A464346002B14D092
:1028F000002C18D03B681B7B9C4214D8631EFA68DE
:10290000D35C08931B0218433861002015E0A24BEA
:10291000A24A8E219F4801F0F9F8A14B9F4A9221CB
:102920009C4801F0F3F8994B9E4A4121994801F0E7
:10293000EDF800239A46984600207B68BFF35F8F2E
:1029400000221A6086F310884346002B32D10028FB
:1029500000D10CE100F000FC02000B1EA7DB002000
:102960000021069007917868EFF3108672B601682F
:102970000029FCD0BFF35F8F396888464C7B002C60
:10298000D7D09AD0097B8C4297D8874965182D01FA
:10299000B9688C46654428686968801A994100299D
:1029A00091DD2A686B68099800F03EFC00239A4686
:1029B0009846C2E7089B1B022343994651461800DC
:1029C000C04705000E007A68EFF3108B72B61368EB
:1029D00059424B41D9B2002BF9D1BFF35F8F002E82
:1029E0001EDB002E46DD3B69002B47D04B456DD1E9
:1029F00000F0B2FB02000B1E6EDB52197341002B7C
:102A000070DB002B72DB00210491013103910294F1
:102A100051460191414600913800FFF77FFE4CE09E
:102A20003B69002BDDD04B4514D1069A079B521B06
:102A3000B341002B14DB002B16DB00210491013184
:102A40000391029451460191414600913800FFF7ED
:102A500065FE32E0554B514AA1214E4801F056F82F
:102A600001225242524BE6E7454B464A3F21464837
:102A700001F04CF8002E01D1002DB4D13B68002CA0
:102A800050D05A7B944237D1012100294AD1DA7BB8
:102A9000002A4DD19A7B002A03D1DA7B002A5AD131
:102AA0009C73DC73002C5CD03B681B7B9C4258D829
:102AB000FA68013C135D0133135500233B617A68CA
:102AC000BFF35F8F13608BF3108843E7374B334AB4
:102AD000A421304801F01AF8294B2A4A3F212A48FC
:102AE00001F014F801225242314B8AE7244B254A67
:102AF0003F21254801F00AF8002C0DD01A7B9442A2
:102B00000AD862001219033A18688446624492781F
:102B1000002ABAD00121B8E7264B274A6821274866
:102B200000F0F4FF264B274AF621244800F0EEFF80
:102B3000002A0AD0197B8A4207D851008A18033A22
:102B400019688C4662445470A4E71A4B1A4A6821EB
:102B50001A4800F0DBFF1C4B1A4AFB21174800F013
:102B6000D5FF0A4B0F4A41210A4800F0CFFF0BB0B6
:102B7000F0BCBB46B246A946A046F0BDF4210020F9
:102B8000489E0010F0A10010649E0010A49F001049
:102B900024A20010509F0010A4A0001008A2001052
:102BA000BCA0001048A20010FFFFFF0FC8A000103B
:102BB000FFFFFF7FC89F001090A20010E49F00104D
:102BC00004A100105CA2001028A1001010B50C4B4D
:102BD0005B68002B04D00A210A48FFF77FFC10BD78
:102BE000074C2300084A1021206800F05BFC0320FA
:102BF00000F0A6FA03212000FFF7A8FCEBE7C0468F
:102C00003C0C002010240020BD25001010B5064B00
:102C10005B68002B01D0044810BD044B044A5E21C0
:102C2000044800F073FFC0463C0C00203CA100109B
:102C300030A20010509F0010F0B5DE4657464E46B9
:102C40004546E0B58BB0804616001F00149B9A469F
:102C5000159B994616AB1B789B461F2302AA9446E8
:102C6000634400221A702BE0002809D04246126803
:102C7000127B904204D8421E4146C9688A5C41E0FA
:102C8000404B414A4121414800F040FF07984CE049
:102C9000361BAF41002F07DB002F11DA3C4B3D4ABA
:102CA0003F213D4800F032FF012676423B4FF3E7DB
:102CB000374B384A3F21384800F028FF002F4FDBC0
:102CC00043465A68EFF3108472B6136859424B4179
:102CD000D9B20791002BF8D1BFF35F8F1F3302AA3F
:102CE0009446634404930023039302934B46019359
:102CF0005346009332003B004046FFF70FFD031E92
:102D0000B2D1020041464968BFF35F8F00250D60D4
:102D100084F31088002B29D01F2302A98C4663441A
:102D20001B78002BB2D112021043002B20D05B463F
:102D3000002B1DD04946D04704000D0003000B4373
:102D40001DD00029A4DB00F007FA06000F1EAFDB40
:102D500036196F41002FB1DA012676420F4FADE7E9
:102D60000B4B0C4A3F210C4800F0D0FE01204042A2
:102D70000BB0F0BCBB46B246A946A046F0BD0798D2
:102D8000F6E7C046A49F001048A20010509F001014
:102D9000489E0010F0A10010649E0010FFFFFF7F0E
:102DA000F8B50400002900D162E04268EFF3108515
:102DB00072B6136858424341D8B2002BF9D1BFF321
:102DC0005F8FCBB22268567BB3421BD10120002813
:102DD00048D0206988422BD0090AC9B2002B2ED0D6
:102DE0002068007B83422AD8581EE668305C8842FF
:102DF0002BD000206368BFF35F8F00221A6085F339
:102E00001088F8BD002B0DD0167BB3420AD85E00A7
:102E1000F618033E1768BC466644B678002ED6D036
:102E20000120D4E7134B144A6821144800F06EFEC9
:102E30002C21134B134AFF31134800F067FE134B4C
:102E4000134A4121104800F061FE1900100000F003
:102E500023FC0028CED199210E4B0A4A49000A488A
:102E600000F054FE23698B42C4D100232361C1E7E3
:102E70000020C6E7C89F001090A20010E49F001039
:102E800060A10010D8A10010509F0010A49F001056
:102E900048A2001084A10010407D7047F0B587B0B3
:102EA00006000F00EFF30583002B1FD106246442B8
:102EB000E517A4197D418D4202D803D1844201D97E
:102EC00000240025002D14DB0494059500F044F93E
:102ED00002000B1E13DBA41A9D41002D17DC14D039
:102EE0003000390000F044F907B0F0BD234800F08D
:102EF000A7FE234B234A3F21234800F007FE204B27
:102F0000204A3F21204800F001FE002CE8D0FFF7C6
:102F10007DFE0023029301931C4B0093049A059BB2
:102F2000FFF78AFE002818DADAE7002300E0002322
:102F3000002BD5D1164B1A68EFF3108172B61368C7
:102F4000002BFCD0BFF35F8F114B1B68BFF35F8F6B
:102F500000221A6081F3108820BF0499059A0D4B56
:102F60005B6A9A42E3D80B48806A884203D29A424D
:102F7000DBD00123DCE70123DAE7C04688A100109B
:102F8000489E0010F0A10010649E00108D250010D6
:102F9000102400200040054070B504000D0000F032
:102FA000DBF802000B1E0ADB2000290080185941C3
:102FB00000290ADB00290CDBFFF770FF70BD084B0E
:102FC000084A3F21084800F0A1FD0120404207497E
:102FD000F0E7034B034A3F21034800F097FDC0464A
:102FE000489E0010F0A10010649E0010FFFFFF7FBC
:102FF00010B5FA2292000023002102F071FDFFF7C4
:10300000CBFF10BD70B584B005000C00EFF3058355
:10301000002B1ED1FFF7FAFD002302930193224BF0
:1030200000932A002300FFF707FE061E23DD20BFC2
:10303000FFF7ECFD3100FFF7B3FE1C4B5B6A9C42CF
:103040002DD81A4A926AAA422CD29C4225D001203D
:1030500026E0164B5B6A994209D8144A926A82426A
:1030600007D2994201D001201AE0002018E0002088
:1030700016E0012014E00D4B5B6A9C4209D80B4A14
:10308000926AAA4207D29C4201D0012008E00020A7
:1030900006E0002004E0012002E0002000E0002023
:1030A00004B070BD0120FBE78D25001000400540F5
:1030B00070B5EFF305801038EFF3108C72B61A4B31
:1030C0001B68002BFBD0BFF35F8F012213008340EE
:1030D00016494B6316490B60164909780C00C44029
:1030E000224214D0114A546A8200134D525994421C
:1030F00006D38200114C125999430E4B197007E008
:103100000A4A031D9B0099589950002200E00022B2
:10311000BFF35F8F044B002119608CF31088002AE5
:1031200000D0904770BDC046280100D00040054047
:103130003C7005405324002030240020C01B002098
:1031400010B50100024A0348FEF734FE10BDC04628
:10315000B4A2001051240020044B5B6A034A906A19
:103160001900536A9942F9D17047C04600400540A2
:10317000084B5B6A01E0074B5B6A8B42FBD301E0C3
:10318000044B5B6A8B4203D1024B9B6A8342F7D3A9
:103190007047C0460040054070B504000D00EFF3D5
:1031A000108672B61B4B1B68002BFBD0BFF35F8FE2
:1031B000002D1CD02000FEF7E9FE174B83420BD0F8
:1031C00019002000FEF7EAFE01212000FEF7D6FEDE
:1031D0000123A340114A1360A400114BE550BFF333
:1031E0005F8F0C4B00221A6086F3108870BDA2001E
:1031F0000B4B0021D1500122A2400A490B78934386
:103200000B7005492000FFF70DF800212000FEF7A4
:10321000B5FEE4E7280100D0B13000103860054069
:10322000C01B002053240020F0B5DE4600B584B05A
:103230000400150001921E000293FFF78DFF039515
:103240008E4202D84ED185424CD9EFF3108B72B624
:10325000274B1B68002BFBD0BFF35F8F254A1778E5
:103260000125A540EBB23B431370234B5D63221D48
:1032700092000199D150A2002049029850501B6A37
:103280002B4212D11C4B1B6C2B4208D00020BFF3E9
:103290005F8F174B00221A608BF3108823E0184BC6
:1032A000184AC521184800F031FCFFF755FF8E423F
:1032B00014D802D1039B834210D80E4B1B78BB421B
:1032C0000ED00D4B1D625D631F2004400123A340FF
:1032D0000E4A1360074B1F701E38D8E70020D6E750
:1032E0000120D4E7012004B080BCBB46F0BDC0463D
:1032F000280100D053240020004005403024002045
:10330000D8A200105CA30010FCA2001080E200E034
:10331000EFF3108C72B60B4B1B68002BFBD0BFF386
:103320005F8F01238340084A136208490A789A4351
:103330000A70BFF35F8F034B00221A608CF3108872
:103340007047C046280100D00040054053240020AB
:1033500010B500291ED0037B99421BD84B005B1887
:10336000033B0468A4466344002919D0002A1DD0F9
:10337000914221D0002A25D0047BA24222D80468A1
:1033800050008018033820188170197800291FD147
:103390001A7010BD104B114A6821114800F0B6FB9D
:1033A000104B114A6F310E4800F0B0FB0F4B0E4A24
:1033B00070210B4800F0AAFB0D4B0B4A7121084805
:1033C00000F0A4FB044B054A6821054800F09EFB71
:1033D00041701A70DDE7C046C89F001080A400103D
:1033E000E49F00104CA000106CA4001058A0001026
:1033F00064A0001070B506000D001400002914D060
:10340000002A14D0806873689847002806D02200EC
:1034100029003000FFF79CFF280007E02A00210068
:103420003000FFF795FF200000E0100070BD08009D
:10343000FCE7000010B50023437301338373037B63
:10344000C3730123027B9A4214D9002B0CD0027B58
:10345000934209D85A00D218033A01688C46624454
:103460000133DBB25370EDE70B4B0C4A68210C487B
:1034700000F04CFB002A09D0924207D801685300A3
:103480009A18033A8A180023537010BD024B034A5E
:103490006821034800F03AFBC89F001080A4001088
:1034A000E49F001010B5017342608360FFF7C2FF14
:1034B00010BD000070B50400081E00D170BD0029C9
:1034C00034D0237B994231D84B005B18033B2268F0
:1034D000944663445A78002AF0D02DD0237B9A4238
:1034E0002AD853009B18033B21688C4663445D78BF
:1034F00000215970002825D0237B984222D8430010
:103500001B18033B21688C4663440021597001005D
:103510002000FFF76FFF060029002000FFF7CAFF19
:10352000020031002000FFF765FFC7E7084B094A9A
:103530006821094800F0EAFA054B064A6821064866
:1035400000F0E4FA024B034A6821034800F0DEFA77
:10355000C89F001080A40010E49F001070B5050003
:103560000C00160000292FD034D0037B994231D8AB
:103570004B005B18033B0268944663445A78002A68
:103580002ED19A78002A31D11978FFF793FF0300E2
:10359000002E0AD0EA7B002A2ED1AA7B002A03D172
:1035A000EA7B002A3BD1AC73EC73002B3DD1002C9D
:1035B0004FD02B7B9C424CD82B6861000C19033CEC
:1035C0001C190023637070BD254B264A38212648FC
:1035D00000F09CFA254B264A6821264800F096FA0E
:1035E000254B204A3A21204800F090FA234B1D4AEF
:1035F0003B211D4800F08AFA002A0AD0297B8A4222
:1036000007D851008A18033A29688C4662445470DE
:10361000C3E7164B164A6821164800F077FA184B94
:10362000104A4221104800F071FA002B0BD02A7B7F
:10363000934208D843001B18033B2A68944663440E
:1036400000229A70B3E7094B094A6821094800F043
:103650005DFA064B064A6821064800F057FAC04654
:1036600078A3001058A4001080A30010C89F001079
:1036700080A40010E49F0010D4A30010FCA300104D
:1036800028A1001070B504000A00457B2900FFF74F
:1036900065FF6073280070BD70B50400002967D015
:1036A000437B8B420ED0002911D0037B99420ED868
:1036B0004B005B18033B0268D0188378002B0CD1B9
:1036C000002056E00121FFF7DDFF012051E0294BEA
:1036D000294A6821294800F019FA002B20D0227BC2
:1036E00093421DD85A00D318033B2268D21825688C
:1036F000EB5C8B421AD0002B1BD0227B934218D854
:103700005A00D318033B2268D21853788B4216D044
:10371000002BF0D11A4B1B4A6B211B4800F0F6F925
:10372000144B154A6821154800F0F0F943781370DE
:1037300007E0104B104A6821104800F0E7F9437881
:10374000537000238370437001222000FFF706FFAF
:103750000200617B814205D02000FFF74BFE6073C1
:10376000012006E0094B074A7121074800F0CEF915
:10377000002070BDC89F001080A40010E49F0010BE
:10378000389D001040A4001080A3001020A4001059
:10379000F8B5DE4657464E464546E0B505000F00F3
:1037A00092460A9A934250D31A0E91461E020A9AE2
:1037B00000233000494601F095FB80466C006419F7
:1037C000A400304B9C4664446368834200D260602E
:1037D0002B1FDBB29B46012B3DD9C0239B0123430A
:1037E000802212011A60AB00274A9958002907D09D
:1037F000506901F039FB431C5800C0180338FDD252
:1038000053465A0123685A40E0231A4080235B0143
:1038100023431A605A46012A28D980239B01234357
:10382000802212011A604346636042460023300042
:10383000494601F057FBAD00134B58510120F0BC35
:10384000BB46B246A946A046F8BD104B104A3321EC
:10385000104800F05BF9012FBFD1C0239B01234327
:1038600003221A60A368DB07FCD5C9E72168794009
:1038700003220A401A60A2680123BB401342FAD017
:10388000CBE7C04600800040DC1C00208CA4001068
:1038900000A50010A0A4001030B583B00C2000F0EB
:1038A00011F9FEF767FA00280DD0002304E0990013
:1038B0002D4A2E4888500133092BF8D92A4B2C4A1F
:1038C0005A6203B030BD2B4B00229A6700F002F918
:1038D000294B01221A60274B5B6C012BFBD1274B34
:1038E00003221A60234B9B6B012BFBD10133009306
:1038F0000433234A0121234800F054F805230093A0
:10390000214A0121214800F04DF8214B009300226B
:1039100002210420FFF73CFF1E4D00952B000022E2
:1039200001210520FFF734FF104C009423000022F2
:1039300000210720FFF72CFF009423000022002124
:103940000820FFF725FF0A4B0093230000220021E7
:103950000920FFF71DFF00952B0000220021062003
:10396000FFF716FFADE7C046DC1C0020006CDC0250
:103970001BB70000008000403CB0004030B0004069
:10398000002F685900800240008C864700C002402A
:10399000001BB700405973078000014BC0587047A7
:1039A000DC1C0020F0B5C64600B504000E00170070
:1039B0001D00374801F058FA8046364BFA18364B4E
:1039C0009A4239D80100380001F04EFA0200103A4C
:1039D00098235B009A4235D86B1E062B38D8069B7D
:1039E000013B062B34D83F09474537D32D04069BAE
:1039F0001A0315432368002B36DB284B9C4244D026
:103A000080225201264B1A60264B1A60264B9B6877
:103A100011009943FAD12660A060231DC0229201B3
:103A20001A43212313602368002BFCDAE560082386
:103A3000136080BCB846F0BD1C4B1D4A11211D48C7
:103A400000F064F81C4B1A4A19211A4800F05EF87D
:103A50001A4B174A1C21174800F058F8184B144A03
:103A60002321144800F052F822683F231340B34248
:103A7000C3D1A3681B051B0D8342BED1E368EE22B0
:103A8000D2021340AB42B8D1D3E780229201B9E70A
:103A9000001BB70080E84BD380F8A93200C0024079
:103AA00000E0004000F0004000C0004010A5001001
:103AB00050A6001070A50010CCA50010E8A50010BD
:103AC00034A6001080239B000343014AD362704751
:103AD00000800540074BAA2212011A602132FF32F2
:103AE000DA60054B054A1A60024B5B68002BFBDA73
:103AF0007047C046004002400060024000B0FA003B
:103B000000BEFDE710B5FFF7FBFF000010B582B067
:103B10000C001900002A0CD0084B002A0BD001928F
:103B2000009323000200064802F05CFA0120FFF730
:103B3000E7FF044BF1E7034AF1E7C0465CA600103B
:103B40006CA600104892001070B52B4B2B4A1A60DF
:103B50002B4B2C4A1A602C4B9A682A4B9343FAD170
:103B60002A4C01E008CC9847294B9C42FAD3FFF736
:103B700093FE234B274A1A60234B9B68DB43DB01F0
:103B8000FAD1254B40229A675A671A67DA66234CA6
:103B900009E0234B234A87212348FFF7B7FF200082
:103BA000FEF7A4FC0834214B9C4209D22368002B69
:103BB000F5D0012BEDD12000FEF7A5FC0834F2E78B
:103BC0001B4CA1681B4DC022280002F0A5F8A5607F
:103BD000EFF30583002B00D000BEFEF72DF9FEF7B2
:103BE0006FFCFEF7F3FF144C01E008CC9847134B31
:103BF0009C42FAD370BDC04600E00040BFCDFBFE42
:103C000000F00040FE7F3C0000C00040E00C0020BF
:103C1000F00C0020FFFFFF0100F00140D00C00205D
:103C20009CA600102CA70010BCA60010E00C0020E1
:103C300000ED00E000000020F00C0020F80C002057
:103C40000FB400B583B0084802F09CF9049B002B28
:103C500007D005A90191180002F0A4F9034802F069
:103C600091F90120FFF74CFF1CA700107092001083
:103C7000704710B5002802D00B684968984710BDFE
:103C80000100002007E083001B185B00501C086047
:103C90001078C01830380A681378303BDBB2092B33
:103CA000F1D97047F0B5DE4657464E464546E0B579
:103CB00083B093461F000C9B9A460D9C0E9B994621
:103CC0000F9B9B0703D0B8460F00060022E001922D
:103CD000A34688464E46B9460700B44207D2551C53
:103CE0004B4641462020B84701342A00F5E73D0005
:103CF0004F465C46019B9B46B1464646B846370058
:103D00002E0007E0013C551C5346185D4346390020
:103D1000B0472A00002CF5D135003E0047460F9BE6
:103D20009B0707D4100003B0F0BCBB46B246A946BF
:103D3000A046F0BDB0464E46B9462F005D46531B27
:103D4000B342EFD2541C4B4641462020B8472200D4
:103D5000F5E7F0B5CE46474680B585B0944698461F
:103D60000C9D0D9C0EAB1B789946109A119B129ED0
:103D7000B7071CD4002B0CD0F7070AD54F46002FED
:103D800002D10C37374204D0013B02E030272F55D7
:103D90000134944201D21F2CF8D9F70707D59C4271
:103DA00005D21F2C03D830272F550134F5E7F7062D
:103DB00015D5770505D4002C03D0944224D09C421D
:103DC00022D00F9A102A2BD00F9A102A30D00F9A97
:103DD000022A35D01F2C02D830222A5501341F2C3C
:103DE00005D84A46002A31D02D222A55013403969F
:103DF00002930194009543466246FFF753FF05B0D6
:103E0000C0BCB946B046F0BD621E012C06D00F9F63
:103E1000102F01D01400D4E7023CD2E71400D0E701
:103E2000B206D1D41F2CCFD878222A550134D1E73D
:103E3000B206CCD51F2CCAD858222A550134C9E75E
:103E40001F2CC7D860322A550134C3E7720703D547
:103E50002B222A550134CAE73207C8D520222A5519
:103E60000134C4E7F0B5DE4657464E464546E0B558
:103E700093B081468A46089209931CAB10CB1B78FD
:103E80009B461E9D219B9846002C03D11023424641
:103E90009A4390468023DB0046461E4042461A4223
:103EA00012D0002C22D000260EE03033D9B2771C7D
:103EB0000AAB99552900200000F0D6FFAC4216D37A
:103EC0001F2F14D83E0004002900200000F0CCFF72
:103ED000CBB2092BE9D94246920605D54121C91832
:103EE000C9B20A39C9B2E2E76121F8E727004346BF
:103EF0000693209B05931F9B049303955B460293B7
:103F000001970AAB0093099B089A51464846FFF770
:103F100020FF13B0F0BCBB46B246A946A046F0BD98
:103F2000F0B5DE4657464E464546E0B595B008909A
:103F300009910A920B931E9E1F9C20AB1B789B46F7
:103F4000229B9946239D269B9A463300234303D107
:103F5000103352469A4392468023DB0057461F4057
:103F600052461A4219D0330023432DD0002714E0C3
:103F70003033DAB27B1C98460CABDA554A462B003C
:103F80003000210000F0AEFFA5421FD819D04346F3
:103F90001F2B1BD8474606000C004A462B0030005A
:103FA000210000F09FFFD3B2092BE1D952469206BF
:103FB00005D54122D218D2B20A3AD2B2DAE761224A
:103FC000F8E7B145E3D901E000239846534606934C
:103FD000259B0593249B04934B4603935B460293D6
:103FE000434601930CAB00930B9B0A9A09990898DE
:103FF000FFF7AFFE15B0F0BCBB46B246A946A046DF
:10400000F0BD0000F0B5DE4657464E464546E0B5E9
:1040100091B083468A460C9298461A9C08941B9D40
:10402000099522002B002000290001F0E6F9002864
:1040300000D0E5E001225242D74B2000290001F0D8
:10404000D7F9002800D0DBE001225242D34B2000F8
:10405000290001F0B7F9002800D0D1E000220023A8
:10406000089E3000099D290001F0ACF9002800D01D
:10407000DDE008980999069007918023DB001E9ADD
:104080001A400D921E9A1A4201D106231C930698DB
:10409000079904000D000A000600024300D1D1E098
:1040A000080D4005400DBE4CA44660440A03120BA7
:1040B000BC4B13431F0001F0B3F9BB4ABB4B01F0EB
:1040C0003EF9BB4ABB4B01F013F904000D0000227E
:1040D000B94B3000390001F002F9B84AB84B01F091
:1040E0002EF902000B002000290001F001F901F077
:1040F000AFF9814601F094F904000D00B14AB24BCA
:1041000001F01DF90022B14B01F0F2F801F0A0F925
:104110000600AF4AAF4B2000290001F010F904005F
:104120000D00300001F07CF9AB4AAC4B01F007F90F
:1041300002000B002000290001F0D1F804000D005E
:1041400002000B0001F0FBF80A900B91A44BF3184E
:1041500000261F0522002B002000290001F0C8F8CE
:104160000E900F9122002B0000208021C90501F044
:10417000B6F804000D0000229A4B0A980B9901F042
:10418000C0F80022984B01F0B3F802000B000A9827
:104190000B9901F0B6F80022944B01F0A9F8020047
:1041A0000B000A980B9901F0ACF802000B002000FC
:1041B000290001F09DF802000B000E980F9901F004
:1041C000A0F80022774B01F093F832003B0001F099
:1041D000B6F806000F0004000D00069A079B01F0D8
:1041E00007F9002830D001235B429C46E1440022BD
:1041F0007D4B3000390001F084F804000D0023E00D
:104200001E9B04931D9B03931C9B0293089A099B7E
:104210000092019343460C9A5146584600F0FCF830
:1042200011B0F0BCBB46B246A946A046F0BD002383
:10423000002406930794069680231B069C4665443B
:1042400007951AE7002399464B466333C62B1ED8C1
:1042500004261E9B1B0526D52B0023430FD0644A42
:10426000644B0698079901F0BBF8002879D000222A
:10427000614B0698079901F0A5F8002871D01C9BA6
:104280004B4506DD4A46981A431E1C9303E005265B
:10429000DFE700231C938023DB001E9A1A431E9243
:1042A0000026002399461D9B9E4264D29F1B022339
:1042B0001E9A1A400A921E9A134202D0002E00D073
:1042C00000274B46002B07D022002B0006980799A9
:1042D00001F017F806900791002200230898099929
:1042E00001F070F8002848D1444B1E9A1340049303
:1042F00003971C9B0293069B079C009301944346E3
:104300000C9A5146584600F087F8002E00D187E7F6
:104310001E9B9B063DD54525441C43460200514645
:104320002800D8474B46DA179B18534005220592C0
:10433000013E0496002203920A3202924A46D00FAE
:10434000019000934346220051465846FFF78AFDEC
:104350000A9B002B00D163E702005F460C9E1D9D67
:1043600054E01C9B002B9ED00D9B002B9BD01C9BD4
:10437000013B1C9397E7002799E7069C079D2200C5
:10438000290080200006844661440B0006920793B2
:10439000AAE76525C0E7C046FFFFEF7FFFFFEFFFFD
:1043A00001FCFFFF0000F03FFB799F501344D33F17
:1043B000B3C8608B288AC63F0000F83F61436F6333
:1043C000A787D23F71A379094F930A400000E03FCD
:1043D0001655B5BBB16B0240EF39FAFE422EE63FEF
:1043E000FF03000000002C400000244000001840A3
:1043F0002D431CEBE2361A3F80842E41FFF7FFFF6E
:10440000541C434651462020B8472200931BAB4220
:10441000F6D3100004E7C046F0B5DE4657464E46D8
:104420004546E0B595B00690079193469946209F82
:104430001E9A1F9B1000190000F0DFFF002831D1E9
:1044400001225242BF4B1E981F9900F0BBFF00286B
:1044500037D101225242BC4B1E981F9900F0C8FF71
:1044600000283DD10022B94B1E981F9900F0C0FFD3
:10447000002850D10022B64B1E981F9900F0A2FFD1
:10448000002848D1002200231E981F9900F09AFFAF
:10449000002850D100239846229B5B0500D4B6E04B
:1044A000002458E0229B0393219B02930323019352
:1044B000A84B00934B465A4607990698FFF7F2FB24
:1044C0000EE1229B0393219B029304230193A24BB1
:1044D00000934B465A4607990698FFF7E3FBFFE027
:1044E0000423229A1A4022990B4210D09B4B002A97
:1044F0000FD00422229903912199029101920093F5
:104500004B465A4607990698FFF7CCFBE8E0944BD8
:10451000EDE70322EEE7229B0493219B039302978E
:104520001E9B1F9C009301944B465A460799069880
:10453000FFF768FDD4E01E9A1F9B0020002100F0C9
:10454000CEFE1E901F9101239846A5E70CAB3022AA
:104550001A55013F01341F2C01D8092FF6D81E9897
:104560001F9900F075FF050000F05AFF02000B00D4
:104570001E981F9900F0B3FEFA007A4B9B181A6838
:104580005B680A920B9300F0DAFE0890099100F044
:1045900083FF060000F040FF02000B000898099915
:1045A00000F09DFE0890099100226F4B00F020FF63
:1045B00000282ED00136300000F02EFF02000B0044
:1045C0000A980B9900F004FF002801D0013500265D
:1045D000002F2CD1280000F023FF02000B001E98B2
:1045E0001F9900F07CFE06000F0000225E4B00F0D9
:1045F000E9FE002846D100225B4B3000390000F074
:10460000F7FE00283ED1EB073CD501353AE00627FE
:1046100046E70022544B0898099900F0D3FE002881
:10462000D6D1002E01D0F307D2D50136D0E7AA4665
:104630001F2C11D8013F0A21300000F015FC651C29
:1046400030310CAB19550A21300000F00DFC092E59
:104650000ED906002C00EBE755461F2C0CD87B1E0C
:10466000002F09D00CAA302111551F000134F4E7A6
:104670002B0055461C00F0E71F2C03D80CAB2E2254
:104680001A5501341F2C10D80A21280000F0C4FB51
:10469000661C30310CAB19550A21280000F0BCFB18
:1046A000051E01D03400EDE734000323229A1340A5
:1046B000012B1CD01F2C06D84346002B32D00CAB4C
:1046C0002D221A550134229B0393219B02930194BE
:1046D0000CAB00934B465A4607990698FFF7E2FA4F
:1046E00015B0F0BCBB46B246A946A046F0BD219B22
:1046F000002B13D04346002B02D10C3313420FD0B2
:10470000219B013B2193190003E00CAB30221A5589
:1047100001348C42CED21F2CF7D9CBE72199F8E790
:104720002199F6E7229B5B0704D50CAB2B221A5587
:104730000134C8E7229B1B07C5D50CAB20221A55B4
:104740000134C0E7FFFFEFFFFFFFEF7F65CDCD41F5
:1047500065CDCDC148A700104CA7001040A70010A0
:104760003CA7001038A900100000E03FF0B5DE467D
:1047700057464E464546E0B593B082468B46904636
:104780001193002900D1EBE200275546119B1878C0
:10479000002800D1E7E2252809D07C1C43463A00D6
:1047A0005946A847119B013311932700EEE70133C7
:1047B00011930024119A11780B00203BD8B21028D5
:1047C00003D88300D048C3589F460B00303BDBB270
:1047D000092B2CD92A292FD000230A93119B1A7850
:1047E0002E2A39D000239A46119A1378683BD9B201
:1047F000122976D88B00C549CB589F4601231C430C
:1048000001321192D6E702231C4301321192D1E703
:1048100004231C4301321192CCE708231C430132CC
:104820001192C7E710231C4301321192C2E711A86D
:10483000FFF726FA0A90D1E71C9B1A1D1C921868F4
:10484000002804DB0A90119B01331193C6E7022371
:104850001C4343420A93F6E78022D20014435A1CB9
:1048600011925A781300303BDBB2092B04D92A2A63
:1048700007D000239A46B7E711A8FFF701FA82464E
:10488000B2E71C9B1A1D1C921868002804DB8246A4
:10489000119B01331193A7E70020F8E780235B0009
:1048A0002343511C119152786C2A01D01C0018E04E
:1048B000C0239B001C430131119112E0802323434C
:1048C000511C11915278682A01D01C0009E0C023C4
:1048D0001C430131119104E080235B001C43013231
:1048E0001192119B18780300253BDAB2532A00D9A4
:1048F0002CE29300864AD3589F4680239B001C439A
:1049000001321192EDE780235B001C4301321192CA
:10491000E7E7782809D0582838D06F2838D062289F
:1049200038D010239C430A2600E01026582833D0A4
:10493000692803D0642801D00C229443630501D573
:104940000122944369282AD0642828D0A30500D5E1
:104950009FE0E30500D5B8E0630600D4CAE01C9AE6
:10496000111D1C911168FF220A4005940A9B0493B3
:1049700053460393029600230193009243463A0064
:1049800059462800FFF76EFA070027E01026CDE70A
:104990000826CBE70226C9E720221443C8E7A3056F
:1049A00020D4E30550D4630666D51C9A111D1C91D2
:1049B0001168FF220A40D317D118594005940A9B69
:1049C0000493534603930296D20F019200914346FB
:1049D0003A0059462800FFF745FA0700119B0133BA
:1049E0001193D3E61C9BDA1D07218A43110008317D
:1049F0001C91116853689C46DB170C930D930C9A1D
:104A00000D9B100048400E90624653400F930E9845
:104A10000F990C9A0D9B801A99410E900F91089452
:104A20000A9B079353460693049600230593634617
:104A3000DA0F02920090019143463A00594628004D
:104A4000FFF76EFA0700C9E71C9A111D1C91126846
:104A5000D317D118594005940A9B049353460393E6
:104A60000296D20F0192009143463A00594628001F
:104A7000FFF7F8F90700B1E7230605D51C9A111DC9
:104A80001C910023D25E96E71C9A111D1C9112689E
:104A900091E71C9BDA1D07218A43110008311C9104
:104AA00008940A9B079353460693049600230593A4
:104AB0000293136854680093019443463A005946A0
:104AC0002800FFF72DFA070088E71C9A111D1C919A
:104AD00005940A9B04935346039302960023019383
:104AE0001368009343463A0059462800FFF7BAF985
:104AF000070073E723060DD51C9A111D1C9112683F
:104B00001204120C31E7C04654A7001098A70010F9
:104B1000E4A700101C9A111D1C91126825E7462875
:104B20001AD01C9B0733072293431A0008321C92A9
:104B300004940A9A0392524602925C681B6800939E
:104B4000019443463A0059462800FFF765FC0700E8
:104B5000119B0133119319E620231C43E1E76728D9
:104B600001D0472802D180231B011C43452801D0D6
:104B7000472801D120231C431C9B07330722934362
:104B80001A0008321C9204940A9A03925246029226
:104B90005C681B680093019443463A00594628001C
:104BA000FFF730FA0700119B01331193EEE5022362
:104BB0001A002240924623421FD001241C9B1A1D3A
:104BC0001C927A1C9146187843463A005946A847E9
:104BD0005346002B16D1119B013311934F46D5E557
:104BE000561C434659462020B847230032005C1C1F
:104BF0009D42F5D83D001700E0E701233A002F0061
:104C00000A9DF4E74A46A9460A9D06E0571C43461A
:104C100059462020C84734003A00661CA542F5D802
:104C20004D469146D7E71C9B1A1D1C921B6899465E
:104C30005346002B00D1013B4E4601E001361300E4
:104C40003278002A02D05A1E002BF7D14B46F21AB6
:104C500010928023DB0026001E401C4203D05245E8
:104C600001D95346109302231A0022400B9223428B
:104C700005D03A0037004C46A946554620E03A0098
:104C8000109B5F46B3462E0006E0551C4346390094
:104C90002020B04723002A005C1C0A999942F4D8CE
:104CA00035005E46BB46109437004C46A946554633
:104CB00006E01D000134561C43465946C8473200E1
:104CC0002078002804D0002FF4D06B1E002DF0D1E6
:104CD00017004D460B9B002B03D1119B0133119301
:104CE00054E50A9F109B06E0561C43465946202077
:104CF000A847230032005C1C9F42F5D81700ECE760
:104D000021231C431C9B1A1D1C921B6800930594B5
:104D10000823049353460393102302930023019323
:104D200043463A0059462800FFF79CF80700119BBC
:104D3000013311932AE57C1C43463A00594625204D
:104D4000A847119B0133119327001FE57C1C4346A4
:104D50003A005946A847119B01331193270015E5E6
:104D60000A4B9A4610E5AA46474502D343465A1EC7
:104D700000E03A00434659460020D047380013B0BF
:104D8000F0BCBB46B246A946A046F0BD713C00103F
:104D900000B585B0029003910121009313004A42AF
:104DA00002A90248FFF7E2FC05B000BD733C001009
:104DB00001480421014B1847700C0020E14D001000
:104DC00010B5010018231B8814221088984710BDC5
:104DD00010B5010018231B8816221088984710BDB3
:104DE000F0B5C64600B507000E0000250123984621
:104DF00000E00135B5420AD2AC003C192068FFF74B
:104E0000DFFF20600028F4D100239846F1E74046F8
:104E100080BCB846F0BD0000124A936F9B0815D2C3
:104E20009066D166002905D0FFE7FFE7FFE7516FE5
:104E3000106F704704B580210906C2175140002841
:104E400000D0C84304F010F8002104BDF0B5146E82
:104E5000556E576F166FFFF7E3FF14665566576779
:104E60001667F0BD000000D0114A936F9B0813D263
:104E700010665166002905D0FFE7FFE7FFE7516F95
:104E8000106F704704B5002801D00020C04303F024
:104E9000EBFF002104BDC046F0B5146E556E576F90
:104EA000166FFFF7E5FF1466556657671667F0BD86
:104EB000000000D094464A4A926F9208624601D29E
:104EC00028E0C046F0B5464E346E756E776F366F8B
:104ED00000F020F89446424A1466556657671667F4
:104EE0006246F0BD94463E4A926F9208624601D2F5
:104EF00054E0C046F0B53A4E346E756E776F366F3B
:104F000000F04CF89446364A1466556657671667A3
:104F10006246F0BD002B24DB11D000293EDA00B53B
:104F2000C943404200D1013100F038F8C943404242
:104F300000D10131DB43524200D1013300BD002AD0
:104F4000EBD1002801D1002905D00020C90FC907E5
:104F500001D1C043410800B503F07EFF00220023C9
:104F600000BD00B500290ADBDB43524200D101330A
:104F700000F014F8C943404200D1013100BDC943DB
:104F8000404200D10131DB43524200D1013300F0F5
:104F900005F8DB43524200D1013300BD002923D183
:104FA000002B18D1002A0CD0BC460D4F38667A660B
:104FB00000210023FFE7FFE7FFE77A6F386F6746BE
:104FC0007047002801D00748010000B503F044FFF6
:104FD0000022002300BD02000B00002000217047CA
:104FE000000000D0FFFFFFFF002B00D0BFE0130C3C
:104FF00028D1002AE7D080B4114F39667A66FFE7DE
:10500000FFE730B4040C7B6F396F1B0423433B660E
:105010007A66FFE7FFE7FFE7C04684B27B6F3D6F2C
:105020001B0423433B667A66FFE7FFE7C046002385
:105030002C042D0C7A6F386F00196941B0BC704791
:10504000000000D0F0B594460025140E01D11202E4
:105050000835140F01D112010435940F01D19200CB
:105060000235D40F01D152000135D40B0134254F44
:105070007C66254C3C660E0C93B2FFE7FFE7FFE72A
:105080003C6F6643360C7703BE467343DF0B5B040D
:10509000C01AB941130C7343DB18C91ACE08664312
:1050A000360CB64493B273431F0F1B01C01AB941AB
:1050B000130C73431F0B1B05C01AB941860D8F02D9
:1050C0003E436643360C092D24DB520A7243801A94
:1050D0007703460A6643360C16235B1BDE40DF402F
:1050E000BF1964466643821B7046043506330100CF
:1050F000D940A840C01900D30131A24206D20023F2
:10510000F0BD0000000000D0FFFFFFFF121B0130C8
:10511000F3D3F1E709277F1BFE406446A2B2724336
:10512000801A00D20139220C7243130C1204821A25
:1051300099410B007046043513370100F940A8402F
:10514000801900D30131002B02D1A2420AD2F0BD56
:10515000013000D30131121BFAD2013BF8D1A24237
:1051600000D2F0BD013000D30131121BF7E7F0B5DA
:105170001C0C00D080E00CB400251C0A04D11B02DA
:10518000160E3343120208351C0B04D11B01160FF7
:105190003343120104359C0B04D19B00960F33431B
:1051A00092000235DC0B02D192185B4101351C00E4
:1051B000971864410134464F7C66464C3C660E0CA1
:1051C000FFE7FFE7FFE7C0463C6F6643360C770317
:1051D000BE4697B27743C01B00D20139C01B00D234
:1051E00001399FB27743C91BC91B170C77437E0453
:1051F000FF0B801BB941CE086643360C0C2D33DB08
:10520000B644120B1F053A431B0B97B27743C01BE2
:1052100000D201399FB27743C91B170C77433E0474
:105220003F0C801BB941860D8F023E436643292700
:105230007F1BFE400C3D7746AF40BF1930BCA2B289
:10524000ABB272437343801A9941220C7243130C20
:105250001204801A994102000B000137001BA9417A
:10526000F9D2781E0021F0BD0C277F1BFE40774647
:105270007F0BAF40FF19E0E700245D1C07D0144FFF
:105280007D663966FFE7FFE7FFE7FFE73C6F95B212
:105290009EB265436643401BB141150C1E0C65432D
:1052A000664336042F0C3E432D04401BB141994206
:1052B00004D202000B0020000021F0BD01D1904279
:1052C000F7D3801A994101349942F2D3F6E70000EE
:1052D000000000D0FFFFFFFF48404140484018B4A5
:1052E0001B4B5B68FC46019308BD04DFB3550010FF
:1052F00018B4174B1B68FC46019308BD00DFBD5571
:1053000000109446134A926F920809D2624618B46C
:105310000F4BDB68FC46019308BD0CDF755800108D
:105320000C4AF0B5146E556E576F166F6246FFF754
:10533000EEFF084A1466556657671667F0BD18B445
:10534000034B9B68FC46019308BD08DF195700100A
:105350000C220020000000D0FFB5504042405040D9
:1053600059404B40594000E0FFB5154F4C00640DCB
:1053700003D0BC4204D10C0314D80020090D090548
:105380005C00640D03D0BC4204D11C030AD8002287
:105390001B0D1B0501264B4009D44B4003D58B4206
:1053A00000D18242FFBD9942FCD19042FFBD0B4328
:1053B000DB1803431343F5D0C9434918FFBD000070
:1053C000FF07000000B5FFF7CFFF804100BDC046DA
:1053D00000B5FFF7C9FF01D9002000BD012000BDC5
:1053E00000B5FFF7B9FF01D9002000BD012000BDC5
:1053F00000B5FFF7B1FF804100BD012040054A0024
:10540000121804D85A00121801D800207047012041
:1054100070470020704700000021002805D1704728
:10542000C1174840401AFAD0C90713B5064B1B688C
:1054300098470CBC441CA2401005120B0349091BE1
:1054400009051943114310BD0C2300201F0400005F
:1054500010B54C00620D8023D218DB00D21A5B0518
:105460007E2A10DD9E3A13DACC1709034908194346
:105470005242D140640001341532202A05DAD0406E
:105480000843604310BD002010BD0846604310BDB6
:10549000C80FC018013810BD18B4044B5B6AFC4635
:1054A000019308BD24DF255A001000000C220020C3
:1054B00070B513231C78012C14D0012C14DC022CA1
:1054C00002DC1F4A1F4B9A641F48FFF779FC1F4BF1
:1054D000186070BD99001A481A4A885001331F2B72
:1054E000F8D9EAE70023FAE71948FFF771FC05004D
:1054F0001848FFF76DFC023803789B007F2B19DDFD
:10550000802229000F4800F007FC022CD7D1124B53
:105510001A88B5231B029A4209D1104B1A88104BE6
:105520009A4204D10F4B1A880F4B9A42C7D00020E1
:10553000FEF786FB0D4B0E4A32210E48FEF7E6FAC7
:10554000795500100C2200204C3300000C23002061
:10555000534400005346000054380000D83800007F
:10556000494600009C3800005946000088A90010F8
:1055700040AA0010DCA9001007B56046002800D141
:1055800000BE01880A0A0230DF2AFAD1C9B28208B5
:1055900004D3028840880004104300E00068024AF7
:1055A0005050039007BD00000C2200200FB403BC34
:1055B0000CBCF0B50124E407634000E0F0B50C0D2D
:1055C000CF0F661E3605891B640503D3C9434042CD
:1055D00000D30131640D03D0661CF60A07D0E41B2A
:1055E00000207F00791C89078912803C24031D0D4F
:1055F000DF0F6E1E36059B1B6D0503D3DB43524246
:1056000000D301336D0D03D06E1CF60A07D0ED1BDD
:1056100000227F007B1C9B079B12803D2D032F1BCC
:10562000661B58D4A446202E46DA20371400BC400E
:105630001D00BD40F24033412A4380185941CB0F31
:1056400005D0C943C04300226442504151416246E3
:105650004D0D28D10D0D07D100281FD02419404130
:105660004941013A0D0DF9D0640006D3013000D351
:105670000131002C01D140084000013A0BD4941CA8
:10568000E40A04D112051144DB071944F0BDD9071F
:10569000204B194300E0D9070020F0BD0029DDD1DF
:1056A000002CDBD1F0BD0132C6074008CD072843EE
:1056B0004908002EE1D0D9E73C2E29DA203E4037B8
:1056C0001400BC4000D00124F24014431A00BB4037
:1056D0001C43D317ACE7AC46202F08DA2036040071
:1056E000B4400D00B540F84039412843A5E73C2FB0
:1056F0000CDA203F40360400B44000D00124F840CA
:1057000004430800B1400C43C117EAE71000190038
:10571000002494E70000F07FF0B50C0D661E3605FE
:10572000891BE60A6405640D02D0651CED0A04D0ED
:10573000002001210905803C2403A4461C0D671E9E
:105740003F05DB1BE70A6405640D02D0651CED0A0A
:1057500004D0002201231B05803C240377406444CD
:1057600097B484B296B27443070C7E43150C6F4312
:1057700080B26843361802D3012000043F18300479
:10578000350C00197D41844688B29AB250430C0C06
:1057900062431F0C7C438EB27E43921902D30126D2
:1057A0003604A4191604170C3618674101BC81B2DF
:1057B0009AB25143040C62431B0C5C4380B25843C1
:1057C000121802D30120000424181004130C4018EE
:1057D00063412D185E410020474106BC88B293B258
:1057E00058430C0C6343120C544389B251435B1869
:1057F00002D301210904641819041A0C0918624122
:105800006D1856410020474118BCF902720D114332
:10581000F0026A0D1043ED020A0D03D16D194041EB
:105820004941013B124E9B1B7600B3420ED26D00E4
:1058300007D30130002671416646354301D1400847
:1058400040001B05C918E4072144F0BD0BDA013301
:1058500006D1013004D101314F0D01D04908F2E7E2
:10586000E1070020F0BD013631050020EBE7000024
:10587000FF030000F0B51C0D671E3F05DB1BE70AA8
:105880006405640D02D0661CF60A04D000220123D0
:105890001B05803C2403D0252D060026F6432E66EA
:1058A0001E096E66CE0FF619B44649004F0D02D0A0
:1058B0007E1CF60A03D000200021403F3F033E1B20
:1058C000B600B444013F7F05C91B49082E6F01365D
:1058D00076089C02950D25437543ED137543AD1372
:1058E00001356D10F603761B0CB4CC02450D2C432C
:1058F000A2B2B3B25A43270C7B43350C6F43A4B218
:105900006C431B1902D3012424043F191C041D0CF1
:10591000A4187D4124196D41009A91B2ACB2614343
:10592000170C7C432B0C5F4392B25A43A41802D34A
:1059300001221204BF182204230C52187B41019C3F
:105940006C431B19520ED9010A434401A01A81B2BB
:10595000B2B2514303145A43360C734387B27743B0
:10596000D617D21900277E4136049B191704160C4E
:105970007F185E417316ED18F301002680337541E0
:10598000A90F06D16400690AE8055B0A184309D229
:105990002FE00422944480337541A90AA8059B0A8C
:1059A000184326D3404149412404009A019B0D002D
:1059B0005543641B4343E41A95B286B27543170CF2
:1059C0007E43030C5F4392B25A43B61802D30122BE
:1059D0001204BF183204330C52197B4152429C41CD
:1059E000002C02D40022013051414008CA07104364
:1059F000490802B06246D7079210084BD218084BEC
:105A00009A4203D212058918C919F0BD0020002A54
:105A100001DC3900F0BD01331905F5E7FD03000095
:105A2000FE070000002200B5203200F004F8080054
:105A300000BD000000220B150AD410B5944600F0FA
:105A400031F81414013400DA0021CB17144C20472C
:105A50000020002170476244343A0CD40C2A07DA43
:105A600004009140904052422032D440214310BD66
:105A7000D843D94310BD203207D40C46944052423B
:105A800020321141D040204310BD0800C9172032F8
:105A900003D452422032104110BD1800190010BD2D
:105AA000575A00100A0DCC0F531E1B05C91A520578
:105AB00003D3C943404200D30131520D03D0531CDC
:105AC000DB0A07D0121B00206400611C89078912C1
:105AD000803A1203014BD21A70470000FF03000006
