:020000041000EA
:1000000000B5324B212058609868022188439860DF
:10001000D860186158612E4B002199600221596106
:100020000121F02299502B49196001219960352056
:1000300000F044F80222904214D00621196600F024
:1000400034F8196E01211966002018661A6600F04E
:100050002CF8196E196E196E052000F02FF8012189
:100060000842F9D1002199601B49196000215960AB
:100070001A491B48016001219960EB211966A021F2
:10008000196600F012F800219960164914480160C1
:100090000121996001BC002800D000471248134993
:1000A000086003C880F30888084703B5996A0420EC
:1000B0000142FBD001200142F8D103BD02B5186610
:1000C0001866FFF7F2FF186E186E02BD00000240BE
:1000D000000000180000070000035F00212200005C
:1000E000F4000018222000A00001001008ED00E03C
:1000F00000000000000000000000000074B24E7A12
:1001000000200420F7010010C3010010C5010010F9
:10011000C1010010C1010010C1010010C101001097
:10012000C1010010C1010010C1010010C701001081
:10013000C1010010C1010010C9010010CB01001065
:10014000CD010010CD010010CD010010CD01001037
:10015000CD010010CD010010CD010010CD01001027
:10016000CD010010CD010010CD010010CD01001017
:10017000CD010010CD010010CD010010CD01001007
:10018000CD010010CD010010CD010010CD010010F7
:10019000CD010010CD010010CD010010CD010010E7
:1001A000CD010010CD010010CD010010CD010010D7
:1001B000CD010010CD010010CD010010CD010010C7
:1001C00000BE00BE00BE00BE00BE00BEEFF3058054
:1001D000103800BEF2EB8871F8CA001018CB00107E
:1001E0003402001090A31AE700201F49086006C8D7
:1001F00081F3088810471D48006800282FD10DA4FE
:100200000ECC002902D000F012F8F9E71849194A7B
:10021000002000E001C19142FCD1174988471749ED
:1002200088471749884700BEFDE701C901C29A42C5
:10023000FBD3704718CB0010C0000020180F00201F
:1002400070D90010000004200000042070D90010B4
:10025000001004200010042000000000704709482E
:1002600006F094F80047000008ED00E0000000D020
:10027000380F0020C82800201551001099030010E5
:10028000D15000105756000006005250ABB36053D7
:1002900018C3001006005250861C030228C3001029
:1002A000060052505422A29D3CC30010050052503B
:1002B000DE65F46870D90010F8B5C04610B5064C7C
:1002C0002378002B07D1054B002B02D0044800E017
:1002D00000BF0123237010BD40100020000000006B
:1002E00018A80010044B10B5002B03D00349044894
:1002F00000E000BF10BDC046000000004410002018
:1003000018A8001070B500F064FE00F087FD1620FC
:1003100000F058FE002816D00025172000F052FEED
:10032000002800D10125182000F04CFE002800D143
:100330000125192000F046FE041E02D0002D04D035
:100340000024200070BD0125E7E7FF20000400F035
:100350003BFDFA25AD00280004F0C6F8FF2000069A
:1003600000F032FD280004F0BFF8FF20000200F08A
:100370002BFD280004F0B8F8064800F025FD280001
:1003800004F0B2F8002000F01FFD280004F0ACF8E3
:10039000D7E7C04600A1A1A110B501F06BF801F0AC
:1003A000CDF8002010BD0000F0B5DE4657464E46A1
:1003B0004546E0B591B080468946934603930520B3
:1003C00004F066FD5D4906F035F806F022FF82462E
:1003D000002627E006216FE0002000023F040743CB
:1003E0002760574BE2681340AD021D43E560554A54
:1003F000A3681A4080235B021343A360524A134050
:10040000524A1343A36023004A463100404607F096
:1004100079FD43461A680123B3409A431343424689
:1004200013600136032E00D981E03401039B9C4602
:1004300064441022002108A807F01AF880235B0208
:100440000893F8235B0209938023DB020A93C023FD
:100450001B030A93102208A904A807F00FF8059BB4
:1004600002933B4B029A13404A46D20113434A4639
:100470001932120313430593079A0292D200D2084D
:100480008021C9050A430792324A13400B43059362
:100490000CAD102204A9280006F0F0FF230007CDC0
:1004A00007C32A681A605B46F518280002F0D4FEDC
:1004B000294B98458ED00721280002F09BFE01238E
:1004C00000932A003100404607F0CAFC234BE26843
:1004D0001340EA031343E360214A13402B43802275
:1004E00052031343E3601F4A61680A4029060A4326
:1004F00062601D4A13406A0113438022D2041343F1
:10050000E360504606F0DEFE87B2002F00D163E7BD
:10051000380006F07EFE011C504606F01EFE8721C4
:10052000C90506F03AFE06F0CDFEC0B255E711B09F
:10053000F0BCBB46B246A946A046F0BD00093D004E
:10054000FF83FFFFFFFF0AFEFFFFF5C1000002105F
:100550007F00FEFFFFFFFF9F00002050FF7FF0FFA6
:10056000E0FF0FFCFFFFFFE01FFCFFE343001B1851
:100570009B00044AD318012252429A60024B002287
:100580001A547047A816002038170020F0B5D64638
:100590004F464646C0B50400A44B1B5C002B23D13C
:1005A00043001B18DB00A24A9446634480221202D7
:1005B0001A60030008339B009E4A9B585B0C820024
:1005C0009D49535009221A4205D09C4B013A1A709A
:1005D000964B073A1A54A400974B0022E250E0BC15
:1005E000BA46B146A846F0BD012B1BD0022BF6D16E
:1005F0000022012A00D987E08E4B5968200008307C
:10060000012383400B4270D183008A495858A300CC
:100610009B189B008A4958500132EAE72000FFF7F7
:10062000A5FFDCE70022012A11D8824B596820007F
:100630000830012383400B42F0D183007D49585894
:10064000A3009B189B007E4958500132EBE77C4B7E
:1006500020017C4D620011198900C6584E511B18AB
:10066000596813199B00EB1859605F788020C71BED
:1006700075498C461619F6007750DE79861B1119DC
:10068000C90061448E6012199200525D821A4A605C
:100690009A79801AC8605A7952420A611B795B4282
:1006A0004B61624B02221A55002004E00023002B0C
:1006B00014D00130C0B203280FD80023032BF5D883
:1006C0005A00D21892005F498A189268824202D07A
:1006D0000133DBB2F2E70123E9E7002063001C19D4
:1006E000A400584B1C19A06079E7584A135D0133E8
:1006F000DBB21355092B00D871E72000FFF736FF56
:10070000524B00221A556AE74D4925014D4A6300B4
:10071000181980006E5886504919486819198900BF
:100720005218506052781B19DB0047495B58D218A9
:1007300005D49046FF2A04DDFF23984601E00023FC
:10074000984663001A1992003E49575C1B19DB005A
:100750003D4AD3185B68FF1803D4FF2F02DDFF2743
:1007600000E00027630019198900364A5218D6792B
:100770001B19DB00344AD3189B68F61803D4FF2EEC
:1007800002DDFF2600E000266300191989002D4ACA
:10079000521895791B19DB002B4AD318DB68ED182A
:1007A00003D4FF2D02DDFF2500E0002563001919A9
:1007B0008900244A521851791B19DB00224AD318A8
:1007C0001B69C91805D48946FF2904DDFF23994612
:1007D00001E000239946630018198000194A121895
:1007E00012791B19DB001848C3185B69D21805D4AD
:1007F0009246FF2A04DDFF239A4601E000239A4631
:10080000104B9C46600003199B00634442465A709B
:10081000021992009046624641465754DE719D711E
:100820004A465A71180053460371D8E6381700201B
:10083000D80020500000205040170020BF28002082
:1008400068160020A8160020D81600207026002068
:1008500010B50020FFF79AFE0120FFF797FE022057
:10086000FFF794FE0320FFF791FE10BD10B5704A0C
:1008700080235B011343802212061A601A606D4ABE
:1008800013680F218B431360002344E05900C918FB
:10089000CA0069498C466244684911605900C91808
:1008A000CA0067498C4662441268002AF6DB654A32
:1008B00012681F2010405900C918CA005E498C46B2
:1008C000624410605900C918CA005D498C466244F0
:1008D0001268002AF6DB574A5168180010300122CE
:1008E00082400A42F7D11A1D920052498220C00567
:1008F00050505900C918CA004F498C4662445249A9
:1009000011605900C918CA004D498C4662441268EA
:10091000002AF6DB0133032B00D982E04B4AD25C7C
:10092000012AB3D0022A43D05900C918CA0042494B
:100930008C466244414911605900C918CA004049B7
:100940008C4662441268002AF6DB3E4A12681F2079
:1009500010405900C918CA0037498C4662441060DB
:100960005900C918CA0036498C4662441268002AE8
:10097000F6DB304A516818001030012282400A42EA
:10098000F7D11A1D92002B49002050505900C91868
:10099000CA0029498C4662442B4911605900C91884
:1009A000CA0027498C4662441268002AF6DBB1E788
:1009B000244A126806321F2010405900C918CA0084
:1009C0001D498C46624410605900C918CA001C4970
:1009D0008C4662441268002AF6DB164A51681800F9
:1009E0001030012282400A42F7D1191D89001148B6
:1009F0008024E4050C500F4949680A42FBD1191DB7
:100A000089000C48C024A4040C501149C85C00069D
:100A1000084949680A42FBD11A1D92000549505005
:100A200078E7044A13680F218B430B43136010BD12
:100A3000D000205000002050D800205040E000009E
:100A4000CC002050DC13002047E0000038170020C5
:100A50005017002010B50022032A0BD853009B1812
:100A60009B00054CE3189B68834201D00132F3E7F9
:100A7000024B995410BDC046A81600205017002004
:100A800010B50A4B03600A4B1B78002B03D0013BC7
:100A9000074A137010BDFFF7E9FEFA20400000215D
:100AA00003F0F6FCFFF7D4FEF4E7C046A8160020DA
:100AB000BF28002070B51149114807F0B5F90600AC
:100AC000104B186000240DE063001B199B000E4DB5
:100AD000ED180C220021280006F0CAFC01235B421D
:100AE000AB600134032CEFD9B11D084B162204482A
:100AF000FFF75AFC642003F0F7FC70BD18A8001043
:100B000000002050DC130020A81600209C130020B9
:100B1000002209E09300C158054B5B68DB03FBD45E
:100B2000034B19610132D2B2032AF3D97047C04690
:100B30000000305070B58CB0434D4449280007F098
:100B400073F9040007210A2002F054FB01230093EB
:100B50000A220021280007F083F91022002108A8AA
:100B600006F086FC80235B020893F8235B0209935E
:100B70008023DB020A93C0231B030A93102208A9D7
:100B800004A806F07BFCE21C059B0393304B039901
:100B90000B40E1010B43120313430593079A0392A1
:100BA000D200D208802189050A430792294A1340BE
:100BB0000593102204A908A806F060FC0B9B039380
:100BC000254A1A40A0239B0113430B930A9B0393CE
:100BD000224A1A40224B13430A939B009B0880220F
:100BE000D20513430A93052004F052F91D4905F07C
:100BF00021FC06F00EFB061C06F064FB85B2002DFE
:100C00001FD0280006F005FB011C301C06F0A5FAD9
:100C10008721C90506F0C1FA06F054FBC0B20002F4
:100C20002D0405430895084D08AB2200002128003B
:100C300007F068F92B680122934313432B600CB033
:100C400070BD0020EBE7C0460000305054A80010F3
:100C50007F00FEFFFFFFFF9FFF83FFFFFFFFF5C148
:100C6000000002300050C30010B50248FFF750FFEB
:100C700010BDC04654170020F8B5DE4657464E4614
:100C80004546E0B506000D00141C807806F0C1FA58
:100C90008046F07806F0BDFA071C707806F0B9FAC5
:100CA000061CA87806F0B5FA8346E87806F0B1FA93
:100CB0008246687806F0ADFA81464146584606F00D
:100CC0004CFA211C06F069FA414606F04BFA8046C0
:100CD000391C504606F041FA211C06F05EFA391C18
:100CE00006F040FA051C311C484606F036FA211C75
:100CF00006F053FA311C06F035FA06F0E3FAC4B2F6
:100D00002402404606F0DEFAC3B21B041C43281C32
:100D100006F0D8FA00062043F0BCBB46B246A9460E
:100D2000A046F8BDF8B51F4B1B78002B18D01E4A03
:100D30001E4B13CB13C21B68136000231C4A137095
:100D4000184A137000221A4B1D78152D1ED8280042
:100D500006F05FFA174906F020FA061C00240DE0A1
:100D60000122F0E7A7001449C9190F48C019321C25
:100D7000FFF782FF0D4BD8510134E4B2032CF1D9B7
:100D800001350B4B1D70FFF76FFFF8BD002AFCD13A
:100D9000064A094B13CB13C21B681360FFF764FFAD
:100DA000F3E7C046B0280020641700205417002045
:100DB0002C0D0020310C433D74170020014B012203
:100DC0001A707047B028002010B5002308E09A0080
:100DD0000649505006495050064950500133DBB285
:100DE000032BF4D9FFF740FF10BDC0466417002065
:100DF0005417002074170020002304E09900034AD0
:100E000088500133DBB2032BF8D9704774170020E8
:100E10008900014B585070477417002010B5FFF738
:100E200089FE10BD10B5054B1968054A00F00EF893
:100E3000002800D110BDFFF775FFFBE7280D00204B
:100E40004C16002010B5FFF735FE10BD106053683A
:100E5000834205D9C31A013B8B4205D2002070475B
:100E6000834204D2C31AF7E750600120F7E700205D
:100E7000F5E7000070B504000D00034805F086FAA0
:100E8000030029002000984755420000074B9B6C47
:100E9000074A1068984207D003D2181A044A136010
:100EA0007047044A101AF9E70020F9E700001150D2
:100EB00038220020FF070000024B1860024B01227D
:100EC0001A70704764160020B128002010B51C224B
:100ED000014906F0D3FA10BD00D01210F0B5164C3F
:100EE000A544164B1B78002B02D1154B9D44F0BD39
:100EF000EFF3108772B600240094124A002101A873
:100F000006F0B6FA104B19681C22684606F0B6FACD
:100F1000802676010D4D3100280009F045FC320095
:100F20006946280009F030FC87F3108801F0EEFFD5
:100F3000024B1C70D9E7C046FCEFFFFFB128002030
:100F400004100000FC0F00006416002000D0120006
:100F500010B506F099FEC0B210BD0000072805D8F4
:100F60008000034B9C466044006870470020FCE70B
:100F70000C800540072804D88000024B9C46604442
:100F8000016070470C80054010B50020FFF71CFF82
:100F900000220021002004F05FF810BD10B50168A8
:100FA0000520FFF7E7FFFFF7EFFF10BD10B50400C6
:100FB0000520FFF7D3FF206010BD10B500210020F1
:100FC000FFF758FFD0231B065B68C3400120184081
:100FD000704710B506F0AEFB0B2002F03DF9002281
:100FE00001210B2002F01EF9D024240680231B01CE
:100FF000A3620C2002F030F9002201210C2002F043
:1010000011F980235B01A36263681B0503D5636844
:10101000DB0400D510BD00210800FFF72BFF000006
:10102000014B986A7047C046004005407047000079
:101030000048704764A800100C4B18600C4B984295
:101040000BD00C4B98420CD0FA239B00984200D056
:101050007047094B01221A70FAE7074B04221A70F5
:10106000F6E7054B08221A70F2E7C046300D002063
:10107000461000008D200000AA28002000B583B093
:10108000002817D0114B1B78022B0FD90F4B0022D1
:101090001A700023019301336A4613710B4B1B78BE
:1010A000537101A8FFF77AFF03B000BD0133074A6F
:1010B0001370EEE7054B1B78002B03D1034B032283
:1010C0001A70E6E7013B014A1370E2E7AB28002003
:1010D000014B18787047C046AB280020F8B5FA21BC
:1010E0003D4A8901FFF7B2FE002800D1F8BD0B2070
:1010F000FFF768FF060001256840C4B20C20FFF727
:1011000061FF07004540EDB20023032B0BD85A00C6
:10111000D2189200314909688A189268002AE5DAE3
:101120000133DBB2F1E7002C0BD02D4B1B78002BE9
:1011300007D12C4B1B78002B03D1294B01221A70AD
:1011400005E0002E03D0264B1B78002B0DD1002D7F
:1011500012D0254B1B78002B0ED1224B1B78002B75
:101160000AD1214B01221A700CE01D4B00221A708B
:101170000020FFF783FFEAE7002F03D01A4B1B780C
:10118000002B0FD1002C14D0002D12D0154B1B7842
:10119000002B0ED1144A1370114A1370114B012207
:1011A0001A70A3E7104B00221A700120FFF766FFA8
:1011B000E8E7002E9AD0002F98D00A4B1B78002B1E
:1011C00000D193E7FFF784FF00F0B0FB00F074FB61
:1011D000044B00221A7089E754160020701000207A
:1011E000B9280020BB280020C028002010B5244BBF
:1011F000187002282AD011D8002834D001281DD117
:10120000204B214A1A60214B214A1A60214B224A65
:101210001A60FA208000FFF70FFF14E003280DD1B9
:10122000184B1E4A1A60194B1D4A1A60194B1D4A69
:101230001A60FA208000FFF7FFFE04E00023114A45
:101240001360124A136008F01FFE10BD0D4B134AC5
:101250001A600E4B124A1A600E4B124A1A6012485C
:10126000FFF7EAFEEFE7074B104A1A60074B104AF8
:101270001A60084B0F4A1A600B48FFF7DDFEE2E7E1
:10128000AB280020AC1900209D300010B0190020C0
:1012900015300010B4190020053000104929001045
:1012A0002D290010212900108D200000092C00108C
:1012B000812B0010752B001010B5034B1B68002B01
:1012C00000D0984710BDC046AC19002010B5034BA4
:1012D0001B68002B00D0984710BDC046B0190020F5
:1012E00010B5044B1B68002B01D0984710BD00209F
:1012F000FCE7C046B419002070B50D00134A14492C
:10130000FFF7A4FD00281FD170BDFF2021000004BD
:10131000FFF77EFDFFF752FD0134E4B2032CF3D852
:101320000C4B1A5D63001B199B00EB189B68DB4399
:10133000DB0F9A42F0D0074A1355002BE5D021006D
:101340000548FFF765FDE5E70024E7E75C160020A8
:10135000A08601003C17002000A1A1A110B5040047
:10136000FFF794FD03003A4A1078591E8B4103435E
:101370001370384B1B78002B08D1374B1968FA23B0
:101380009B00994221D1334B01221A70334B1B78B9
:10139000002B24D02E4B1B78002B29D02C4B002265
:1013A0001A702F4B1A782F4B1B689A4231D8172B83
:1013B00033D82C4A136801331360294A12789342B8
:1013C00016D3294B01221A7012E0284A2000FFF799
:1013D0003DFD0028DAD01F4B01221A70D6E71C4BC6
:1013E00000221A702248FFF74BFB1C4B01221A7097
:1013F000184B1B78002B17D101200021404207F029
:10140000CBFCFFF763FF1A4B19682000FFF774FF4E
:1014100010BD1748FFF734FBCBE7124B00221A60D0
:101420001348FFF72DFBC4E7FFF75AFF0028E3D06E
:101430000D4B1B78002BDFD000230A4A1360054AAE
:101440001370094A13700A4B1868FFF735FFD3E78A
:10145000C4280020B5280020300D0020C12800201D
:10146000AA280020A0190020AD280020E41F002099
:101470007010002010B582B0FFF7ABFD00F042FE07
:10148000FFF7CCFCFFF7DEFC0023019301A8FFF778
:101490008DFD00F035FA00283FD0234B9B78002BC0
:1014A0001DD001AB1B78012B27D01F4BDC78022C01
:1014B0002FD0032C24D0012C26D01C48FFF79CFCF5
:1014C000FFF77CFC2000FFF791FE002829D1FF20C8
:1014D0000004FFF791FCFFF771FC02B010BDFEF7AE
:1014E00011FF002803D11248FFF786FCFEE70E4BE0
:1014F00001229A7000F0E0F9D3E701AB5C78D6E7FF
:101500000C48FFF779FCDBE7FF200006FFF774FCCF
:10151000D6E70948FFF770FCD2E70548FFF76CFCF7
:10152000FEE7FFF783FDD8E73C2200200000FFE63E
:101530000000FF4D00F115FF00FF610010B5FFF73F
:101540006FFD0400FFF7CAFC2000FFF76BFC2000D2
:10155000FFF704FF2000FFF7C1FDF0E77047000030
:1015600010B5FFF7B5FD01280AD043B2002B09D012
:101570000238C0B2012801D8034810BD0348FCE777
:101580000348FAE70148F8E7D0AB0010ECB10010CF
:10159000F4AA001010B5FFF79BFD01280AD043B252
:1015A000002B09D00238C0B2012801D8034810BD71
:1015B0000348FCE70348FAE70148F8E7A4AB00104A
:1015C0004CB100104CAA00100020704710B5FFF776
:1015D0007FFD10BDF0B583B001900F0015001C0019
:1015E00008AB1E88FFF774FD01283ED00ED80028F6
:1015F00017D1002F15D1002D13D1217810292FD00C
:1016000033002200019801F081F80AE00238C0B2EC
:10161000012806D8002F04D1002D02D12378112BE8
:1016200001D003B0F0BD61784B1E9941C9B20020D2
:10163000FFF710FAA1784B1E9941C9B20120FFF7BC
:1016400009FAE1784B1E9941C9B20220FFF702FA6C
:1016500021794B1E9941C9B20320FFF7FBF9E0E75E
:10166000A11C019800F0F7FDDBE7002FD9D1002D78
:10167000D7D12378002BD4D16378082BD1D1E3784C
:10168000002B02D12379002B04D001210198FFF710
:10169000E1F9C6E700210198FFF7DCF9C1E7000096
:1016A00010B5FFF715FD002807D00238C0B2012899
:1016B00001D8034810BD0020FCE70248FAE7C04605
:1016C00038AB001000B2001010B50378013303707E
:1016D000FFF7FEFC012801D0014810BD0148FCE7DE
:1016E000E4AB001034AA001070B5EE2824D0002816
:1016F00025D080001E4BC558280008F0EBFFC0B273
:101700001F2800D91F20002327E05A1C194CA15C78
:101710000902E25C0A434400174962520233013075
:10172000112BF2D9154A144B13CB13C211001A68AE
:101730000A609B888B8019E000200023F0E70C4BA7
:10174000196802220E4805F099FE012007E05A1C94
:10175000EC5C5100094BCC52D3B29842F7D801301F
:101760004000C0239B001843044B1880034870BD01
:10177000F40D002080A900105C1000201C13002034
:101780001E13002010B590B004000A4805F096FF23
:10179000002300933C22002101A805F069FE4022AD
:1017A0006946200008F012FA684601F0D3FB10B039
:1017B00010BDC04654A90010F0B583B00500140058
:1017C000012953D113785B069B0F012B45D0022BC7
:1017D00003D0002B01D0002049E06378022B24D0F5
:1017E000072B03D0012B19D0002040E02279637928
:1017F0001B021343042B03D0052B08D0002036E036
:1018000024331C4A2100280007F0EAFB2FE08D3327
:10181000194A2100280007F0E3FB28E01F23174A9C
:101820002100280007F0DCFB21E0227963791B020C
:101830001343072B01D0002019E06B469F1D104E6B
:1018400002223100380005F019FE3B883200083AC8
:101850002100280007F0C4FB09E05178094805F091
:101860005DFF2100280007F09FFB00E0012003B08E
:10187000F0BDC046C80D0020340D002094A9001012
:10188000A8A800106CA9001070B500250FE0FFF7A4
:101890005FFB084C64192071FFF75AFBA072FFF739
:1018A00057FB2074FFF754FBA0750135EDB2052DF1
:1018B000EDD970BD3C22002010B50248FFF7FCFABC
:1018C00010BDC0463C22002030B589B001AC1C22BE
:1018D0000021200005F0CCFD03232380074D2B00C1
:1018E00007CC07C307CC07C322681A60FFF7CCFFF9
:1018F000FEF708FDA87009B030BDC0463C220020AC
:1019000010B5084C2000FFF7E1FA2388032B01D122
:10191000012010BD044805F0D1FEFFF7D5FFFFF709
:10192000CBFFF5E73C22002004AA0010014BD87041
:101930007047C0463C2200200120704710B5842229
:1019400092000021014805F093FD10BDD41D002038
:1019500010B50020FFF7F2FF10BD0000F0B583B016
:1019600005000E001700FFF7B3FB012838D13279CC
:10197000D400A41AA4B21934A4B2BC4234D80023AF
:10198000032B10D85801C01880001A4F381840781F
:10199000002802D00133DBB2F2E75F01FF18BF007D
:1019A00014497F1800E00027002F1FD03378F1186A
:1019B000F35CC9187B1C0193BB1C00930323280014
:1019C00006F032FF002813D0B3783B70B9780029B5
:1019D00007D03A0044324023280006F07FFF00E0A1
:1019E0000024200003B0F0BD0024FAE70024F8E74B
:1019F0000024F6E7D41D0020F0B5C64600B582B03D
:101A000004000020032811D8420112189200284D2A
:101A1000AA1892788A4209D0420112189200AA1894
:101A200052788A4202D00130C0B2EBE703283BD89B
:101A300005004201121892001D4EB21852788A42D7
:101A40000CD0420112189200194EB21892788A42B4
:101A500011D0012002B080BCB846F0BD154A002A62
:101A600024D0410109188900891904319AB2FFF77D
:101A7000ADFD0120EEE747013E18B60040360C4AA6
:101A80009046464404369BB2009333000022002166
:101A9000FFF7A0FD7F19BF004744B978402332000B
:101AA000200006F01BFFD5E70020D3E70120D1E797
:101AB000D41D0020CD150010F8B5040006F0FEFD81
:101AC000002803D10023002B08D1F8BD06F0FEFD4D
:101AD000002801D10123F6E70023F4E763011B1975
:101AE0009B000F4AD3189978002006F033FF002896
:101AF000EBD10B4F65012E19B600BE19B17806F077
:101B0000C5FE2A1992004032D2190432B17840231E
:101B1000002006F0E3FEB178002006F0CBFED4E70B
:101B2000D41D0020F0B583B007000191150006F028
:101B3000CDFD00280ED17B01DB199B00164AD3187E
:101B40005E783100002006F0A1FE041E05D12000C1
:101B500003B0F0BD06F0C2FDEDE72B1C402D00D90F
:101B600040239DB27C01E419A4000B4BE41804341B
:101B70002A000199200005F081FC2B002200310091
:101B8000002006F0ABFE04003100002006F092FEBB
:101B90003800FFF791FFDAE7D41D002010B50300ED
:101BA0004001C0188000114B1818447806F086FDDB
:101BB000002806D10023002B13D0002C09D10020CF
:101BC00010E006F083FD002801D10123F3E7002394
:101BD000F1E72100002006F0BDFE002803D101300E
:101BE00000E0002010BD0020FCE7C046D41D00200E
:101BF00010B53C220021024805F03AFC10BDC04659
:101C0000E013002010B50020FFF7F2FF10BD000028
:101C1000F0B583B005000E001700FFF759FA03284E
:101C200016D13379DC00E41AA4B21234A4B2BC4257
:101C30004CD80023002B11D00027002F48D031783A
:101C400071184B78212B19D00024200003B0F0BD6F
:101C5000FFF73EFA0228E4D00024F6E71A01D21A70
:101C600092001D4882185278002A02D00133DBB25C
:101C7000E0E71A01D11A89004718DEE7B9630B784B
:101C8000C91832797B1C0193BB1C009303232800E5
:101C900006F0CAFD00281DD0B379012B13D0012313
:101CA0003B71B3783B70BA6BD179137A1B020B434B
:101CB000FB80B9780029C8D03A00303206232800CA
:101CC00006F00CFEC1E7F379FB70E8E70024BCE7FF
:101CD0000024BAE70024B8E7E013002070B582B012
:101CE00005001D4C002000280AD0002830D1627861
:101CF0008A4213D0A2788A421AD0012002B070BD65
:101D00000401241AA400144A1419A2788A42ECD0BF
:101D100062788A42E9D00130C0B2E4E70F4A002A73
:101D200018D0210008319AB2FFF750FC0120E5E7F6
:101D3000260030369BB20093330000220021FFF7CB
:101D400049FCA17806233200280006F0C7FDD5E73C
:101D50000020D3E70120D1E7E0130020CD150010CB
:101D6000F0B5C64600B582B00600150012781F23F4
:101D70001340012B00D01FE128790024002C0DD046
:101D8000FF24002C00D01CE1270060231800104025
:101D9000134239D101290BD001200EE123011B1B75
:101DA0009B008E4FDB5D9842EBD00134E4B2E5E757
:101DB000EA786B78062B06D0062B00D005E1222AA4
:101DC00012D00020F9E0212AF6D123011F1BBF0009
:101DD000824BDF19BA6B002A00D1F4E01378290096
:101DE000300007F0FDF8E8E02000FFF759FC0200A2
:101DF0003B01DF1BBF00794BDF19FB882900300056
:101E000007F0EEF80120D8E0202800D0DFE06B7862
:101E10000B2B00D9DDE09B00714AD3589F46012966
:101E200001D00120C9E0EA78A97823011B1B9B009F
:101E300008336A4FFF18A879EB791B020343181C7B
:101E4000252B00D9252080B2002909D0012B16D9D5
:101E50007B1C9C463970013880B20123984602E011
:101E6000BC4600239846009063462000FFF7ACFB79
:101E7000030043449BB2002B05D100209DE0BC46EB
:101E800000239846EFE73A002900300007F0A8F851
:101E9000012092E0012903D0032915D001208CE014
:101EA000AA79EB791B021343062B01D9002084E0A9
:101EB0002201121B9200303248498A182900300052
:101EC00007F08EF8012078E0EA78A97823011B1B3F
:101ED0009B0030334148C318AE79E87900023043A3
:101EE000051C062800D90625ADB2002904D001281A
:101EF00002D91878884205D000952000FFF76AFBC8
:101F000001205AE00133013DADB2F5E7012901D0CE
:101F1000012052E0E97823011F1BBF002F4BDF197E
:101F20007971304B002B04D0200000E000BF002866
:101F300043D02900300007F037F801203DE00129A7
:101F400001D0012039E02201171BBF00234AD2191A
:101F5000053201232900300007F042F801202CE06F
:101F6000012901D0012028E02201171BBF001B4AD4
:101F7000D219043201232900300007F031F8012082
:101F80001BE0012903D0032907D0012015E0290017
:101F9000300007F009F801200FE0A97823011F1B8A
:101FA000BF000E4BDF1939710F4B002B13D02000EF
:101FB00000E000BF012000E0002002B080BCB84675
:101FC000F0BD0020F9E70020F7E70020F5E700204A
:101FD000F3E70020F1E70120EFE7C046E01300201F
:101FE00008AB0010000000000000000010B5030165
:101FF000181A8000104B1818447806F05FFB002870
:1020000006D10023002B13D0002C09D1002010E0B2
:1020100006F05CFB002801D10123F3E70023F1E780
:102020002100002006F096FC002803D1013000E0DA
:10203000002010BD0020FCE7E013002010B50020B8
:10204000FFF7D4FF10BD0000F8B504000F00160024
:102050001D0003011B1A9B001F4AD318597800204A
:1020600006F014FC002825D0002F24D02B1C242D92
:1020700000D924239DB2184A2301191B8900511845
:102080000F721B1B9B000833D01801302A0031004F
:1020900005F0F4F90135ADB20F4B2001021B92009F
:1020A00008329A18001B8000181841782B00002075
:1020B00006F014FCF8BD2B1C252D00D925239DB25C
:1020C0002001001B80000830034B18182A00310043
:1020D00005F0D4F9E0E7C046E013002010B5130086
:1020E0000A0001000020FFF7AFFF10BD10700312BF
:1020F0000F20184050700B01184350700911917057
:102100007047000070B5124D802424012A00210080
:102110002000FFF7EBFFEA1C21002000FFF7E6FF9D
:10212000AA1D21002000FFF7E1FF2A00093221004B
:102130002000FFF7DBFF2A000C3221002000FFF710
:10214000D5FF2A000F3221002000FFF7CFFF70BD1E
:102150008428002010B58001034BC01840220021C4
:1021600005F086F910BDC04684170020014B1954B4
:102170007047C0468418002083010248C0180173CC
:102180007047C0468417002083010248C01841737D
:102190007047C0468417002010B5084A0021535EDE
:1021A0001478800106494454033399B21BB213805A
:1021B000FF2B01DDFF39118010BDC046A82800208B
:1021C0008417002083010248C01801234370704720
:1021D0008417002083010648C01803238373482214
:1021E000C2730374013B4374473A027643767047E7
:1021F0008417002070B5CEB20D0A00230AE01C003F
:102200000E348101054A5218165519000F315554E4
:102210000233DBB20D2BF2D970BDC046841700200B
:1022200030B5C47803254557437808211940012269
:1022300093437E322240012B01D9002907D0402A46
:1022400007D9002D01DB012004E0002002E001207D
:1022500000E0002030BD10B504000800FFF7E0FFEB
:1022600001002000FEF7F6FB10BD000030B50D4B5D
:1022700082010121D1549B1800225A7003329A70B6
:1022800000210CE0CC1C43001B185A00064B9B1885
:102290005B181D798201034B9B181D5501310529DF
:1022A000F0D930BD841700203C22002070B5040016
:1022B0000D00FFF74FFF81212000FFF757FF012D91
:1022C00010D029000B4805F029FAA3010A4A9D54B1
:1022D000A201094BD218094B195D4023200007F0D9
:1022E0000FFA70BD064805F019FA2000FFF7BEFF8F
:1022F000EEE7C04614AC00108417002084180020BC
:10230000FCAB001070B586B004006846204B02009C
:1023100061CB61C261CB61C202291FD003292DD0DC
:1023200081212000FFF728FF1A4EA5017319012211
:102330009A7328000F308019610009194900164C62
:1023400009190431053205F099F828001530801973
:102350001822694605F092F806B070BD8121200070
:10236000FFF70AFF0B48A401031902229A730F34E6
:1023700020180E32094905F081F8EDE7812120008F
:10238000FFF7FAFEA401034804190323A373E3E74C
:102390008CAE0010841700203C22002090190020F1
:1023A000F8B505000C0016001F00FFF7D3FE212131
:1023B0002800FFF7DBFE2800FFF7EEFE2800FFF7FE
:1023C00001FF21002800FFF7DFFE6D4805F0A6F9A8
:1023D000482C00D9A8E0A1006A4B5B589F466A4888
:1023E00005F06CF980212800FFF7C6FE674805F06C
:1023F00095F90024B6E0F17A654805F08FF980215F
:102400002800FFF7B9FEF1E7624805F057F9F17AC5
:102410002800FFF777FFE9E7F17A5F4805F07EF9DA
:1024200080212800FFF7A8FEF27A5C4B5A55DDE7C1
:102430005B4805F043F982212800FFF79DFE280044
:10244000FFF7C8FED2E7F17A564805F067F9802118
:102450002800FFF791FEC9E7317BF27AF37B5248FF
:1024600005F05CF990212800FFF786FEF37BF27AF5
:10247000317B280000F026FAB8E7317BF27AF37B53
:102480004A4805F04BF980212800FFF775FE337BA1
:10249000802BABD1F37A262BA8D10024192C0BD892
:1024A00023001033F15C424805F038F90A2005F0AA
:1024B000E7F80134A4B2F1E70020FFF7FDF995E752
:1024C0003C4805F0FBF883212800FFF755FE642106
:1024D0002800FFF78FFE89E7374805F0EFF88021E5
:1024E0002800FFF749FE81E7344805F017F98021FD
:1024F0002800FFF741FEF27A0F231340072B0BD081
:102500000F2B0DD0032B03D02D4805F0D7F86DE726
:102510002C4805F0D3F869E72B4805F0CFF865E7BC
:102520002A4805F0CBF861E72100294805F0F6F8C4
:10253000002405E0315D274805F0F0F80134A4B22D
:10254000BC42F7D30A2005F09BF880212800FFF752
:1025500013FE4BE7A101204BC9181E4805F0DEF819
:102560000134E4B21F2CF5D90A2005F089F8AA013C
:10257000194BD21840232121280007F0C1F8F8BDDB
:1025800030AC001054AD001038AC00104CAD001051
:1025900048AC001058AC001068AC0010200E0020B1
:1025A00080AC001094AC0010A8AC0010D0AC0010AF
:1025B000F8AC001000AD001010AD001024AD0010FC
:1025C000D4A90010E0A90010ECA90010F8A900108F
:1025D00034AD001044AD00108417002070B5050024
:1025E00014001E00102911D0802913D0012903D016
:1025F0000A4805F093F808E0911CFFF72CFEA17A39
:10260000330022002800FFF7CBFE70BD911CFFF7BE
:1026100022FEFAE75178FFF749FEF6E778AE0010A0
:10262000094B1B780A2B07D00B2B09D0064B0A222B
:102630001A70054B18787047034B0B221A70F8E795
:10264000014B0C221A70F4E7240E002070B5040030
:102650000D00274B1B5C002B04D1264B1B5C302B41
:102660000ED070BD8201244BD2184100234BCB5AAF
:102670002349095CFFF7B2FF1D4B00221A55F0E712
:10268000FFF768FD30212000FFF770FD2000FFF705
:1026900083FD2000FFF796FD2B78A201194EB61896
:1026A000B3706B78F370AB783371EB7873712B790F
:1026B0000F210B40B3716879AB791B0203431B11E7
:1026C000F371EB7933722B7A19407172697AAB7AB4
:1026D0001B020B431B11B372FFF7A2FFF0720A4BF0
:1026E000195D40233200200007F00AF8B9E7C04620
:1026F00088190020200E002088180020180E0020C5
:102700008C190020841700208418002070B50C005C
:1027100011001A00064B01251D54064B1C544400A1
:10272000054BE2528001054BC01804F0A7FE70BDB6
:10273000881900208C190020180E0020881800200D
:1027400010B514001A0080014018034940182100F8
:1027500004F094FE10BDC04684170020502800D11C
:102760009FE003D960281ED0FF2013E0402800D945
:1027700099E0202808D3242900D198E00BD801291A
:1027800000D096E0222005E0002803D0102800D0D9
:102790008BE0002070472639C9B2252901D8FF20D7
:1027A000F8E70020F6E7A92979D88B00434AD358E7
:1027B0009F46FF20EEE70220ECE70120EAE7232016
:1027C000E8E70020E6E7B920E4E71A20E2E7012085
:1027D000E0E70020DEE74020DCE70020DAE74020E9
:1027E000D8E70020D6E74020D4E70120D2E7002038
:1027F000D0E70120CEE70020CCE70120CAE7002087
:10280000C8E73B20C6E73420C4E73B20C2E73420BA
:10281000C0E73B20BEE73420BCE73D39284B585C7D
:10282000B8E73D39264B585CB4E71A20B2E71A20C6
:10283000B0E71A20AEE75E20ACE70120AAE75020FF
:10284000A8E7FD20A6E70020A4E70020A2E7C62015
:10285000A0E70F209EE70F209CE730209AE7612039
:1028600098E7AE2096E7902094E7D92092E7D4200D
:1028700090E714208EE754208CE741208AE715204A
:1028800088E7542086E7C72084E7792082E79C20E8
:1028900080E733207EE736207CE763207AE700205C
:1028A00078E7002076E7FF2074E7FF2072E76820D2
:1028B00070E700206EE703206CE7C046A4AE00106E
:1028C00084280020F0B5C64600B58AB080460E00C8
:1028D00017001D0008AA1770517000249470D4705E
:1028E000137105230E21FFF72BFF00941A220021FC
:1028F00001A804F0BDFD07E03919C9B23000FFF7A7
:102900002DFF6B4618550134A542F5DC2B006A46B5
:1029100013214046FFF714FF0AB080BCB846F0BD53
:10292000014B18787047C046AF28002010B5054B02
:102930001B78002B00D010BDFFF780FB014B1870F7
:10294000F9E7C046AF280020F0B5DE4657464E46B0
:102950004546E0B583B00190824B21221A700023D6
:10296000009311E0FF25D4007F4909198D719978F2
:10297000890601D4197900E0FF21D2007A4B9A1818
:10298000D171009B01330093009B032B00D9A9E078
:10299000009A5300944663449B00019A9446634412
:1029A0009A68002AEDDBD1008C1801346D4E355D3C
:1029B000142005433555DD78ED07ED0F6A4C0126EF
:1029C000085DB04305430D55DD78AD07ED0F6D0093
:1029D000085D804602208446474687433D430D55A7
:1029E000DD786D07ED0FAD000F5DB9460427B846E1
:1029F0004F46404687433D430D55DD782D07ED0F8B
:102A0000ED00085D824608208146574687433D43D6
:102A10000D55DD78ED06E80F8246651868780700E9
:102A2000B7433E00504606436E709E787606F60F1A
:102A3000F60068780700484687433E436E709E78EC
:102A4000B606F60FB60068780700404687433E4357
:102A50006E709E78F606F60F76006878070060467E
:102A600087433E436E709E787607F60FB601085D89
:102A700084464020804660464746B84306430E558C
:102A80009E78F607F00E84460E5D10208643604661
:102A900006430E559E78B607F60F7601085D84460C
:102AA0002020804660464746B84306430E559E7830
:102AB0003607F60FF601085D80467F2084464046C3
:102AC0006746384006430E555978A9701978E97061
:102AD000D9792971997969719978490600D541E7C1
:102AE0005D7940E7214B1B78002B1FD11D4B042241
:102AF000597811435970997A11439972D97C1143CD
:102B0000D974197F0A431A77184B01221A702522AB
:102B100014490020FFF7E2FA154B00221A7003B0A7
:102B2000F0BCBB46B246A946A046F0BD0D4C0E4DCA
:102B3000A01C0822290004F0A1FC20000B30290071
:102B40000831082204F09AFC230014332A001032C2
:102B500003CA03C320001D3029001831082204F0E5
:102B60008DFCD4E7FC20002050210020AE2800205E
:102B7000AF280020014B18787047C046B3280020CA
:102B800010B51F4B1B78002B16D11E4B1B781B0753
:102B900013D51C4B1B785B0718D51A4B1B789B076A
:102BA0001DD5184B1B78DB0722D5164B1B780F3B26
:102BB0005A425341124A137010BD002006F078FDAE
:102BC000C300104A107818431070E2E7012006F0A5
:102BD0006FFD83000B4A107818431070DDE7022068
:102BE00006F066FD4300074A107818431070D8E7D6
:102BF000032006F05DFD034B1A7810431870D4E7EC
:102C0000B3280020B4280020F0B5DE4657464E46D3
:102C10004546E0B583B0019000230093E2E0012235
:102C2000AB005B195B005B19B049CB18D1019878F8
:102C30007F2202400A439A7023793C2B03D8A27862
:102C40009206D10F00E00121A848AB005B195B00A0
:102C50005B19C9011F5C7F223A400A431A5463780A
:102C60001B2B52D9181CE42B01D9E423181CC0B229
:102C70001C3804F0D3FA834623781B2B48D9181C40
:102C8000E42B01D9E423181CC0B21C3804F0C6FAA6
:102C90008246E3791B2B3ED9181CE42B01D9E4238F
:102CA000181CC0B21C3804F0B9FA8146A3791B2B5A
:102CB00034D9181CE42B01D9E423181CC0B21C38E9
:102CC00004F0ACFA071C8A49584604F066FA041C62
:102CD0008749504604F061FA82468549484604F027
:102CE0005CFA81468249381C04F057FA804600217C
:102CF000201C04F083FA002812D17E49201C04F025
:102D000083FA00280DD07B4C0BE000239B46B3E7F1
:102D100000239A46BDE700239946C7E70027D2E77C
:102D200000240021504604F069FA002808D17149B6
:102D3000504604F069FA002804D06E4B9A4601E030
:102D400000239A460021484604F058FA002808D18A
:102D50006849484604F058FA002804D0654B994663
:102D600001E0002399460021404604F047FA00287C
:102D700008D16049404604F047FA002804D05D4B72
:102D8000984601E000239846201C04F09BFA83B289
:102D9000AC00641964006419544A1419FF273840C0
:102DA000E0701B0A2371504604F08CFA83B238405D
:102DB00060711B0AA371484604F084FA83B238405C
:102DC000E0711B0A2372404604F07CFA83B238405B
:102DD00060721B0AA372E8B22100FFF737FC009B68
:102DE00001330093009B032B73D8009B5C009C462F
:102DF0006444A400019B9C466444A568002DEEDB5E
:102E0000A0784007C00F394AAB005B195B005B1923
:102E1000D1180127BA468F785646B7433843887091
:102E2000A0788007C00F80008F780336B046B74384
:102E300038438870A078C007070F88780436B146F9
:102E4000B04338438870A0780007C00F40008F78E7
:102E5000063EB446B74338438870E0780007C00F99
:102E60009F5C5646B74338439854E0784007C00FFC
:102E700040009F5C6646B74338439854E078C007EB
:102E8000070F985C4E46B04338439854E07880076B
:102E9000C00F80009F5C4646B74338439854E078A3
:102EA000C006C00F40004F786646B74338434870AD
:102EB000A178C906C90F8901985C4027B84301432E
:102EC000995463793C2B00D9A9E6A2785206D20F17
:102ED000A6E60023084A1370084A137003B0F0BC3A
:102EE000BB46B246A946A046F0BDC04670210020B0
:102EF0000AD7A34100F07F45B3280020B428002062
:102F0000014B01221A707047B628002010B50E4BF5
:102F10001B78002B00D110BD0C4804F0CFFB0C4CEB
:102F200040220021200004F0A3FAF1232370402264
:102F30002100002006F060FE002006F07BFE024B20
:102F400000221A70E7E7C046B6280020CCB2001075
:102F5000941D002010B50378AF2B07D0F12B14D0AF
:102F60000F2B00D010BDFEF728F8FBE70B49AF236D
:102F70000B7000234B700B338B704022002006F047
:102F80003BFE002006F056FEECE7054804F096FBF9
:102F9000FFF7B6FFFEF790FCE4E7C046941D002063
:102FA000E4B2001010B504F034F9114904F0D5F87A
:102FB00004F090F90F4A104B03F0A7FC03F05EFDFC
:102FC0008721C90504F0E9F8041C0C4904F01CF938
:102FD000002807D10A49201C04F010F9002802D06B
:102FE000074C00E0054C201C04F03AF900B210BD7B
:102FF0000000FE427B14AE47E17AF43F00FAFF4640
:1030000000FAFFC6024B1878431E9841C0B27047C1
:10301000B728002010B51F4B1B78002B16D11E4B74
:103020001B781B0713D51C4B1B785B0718D51A4B55
:103030001B789B071DD5184B1B78DB0722D5164B39
:103040001B780F3B5A425341124A137010BD0020A7
:10305000FEF7A4FDC300104A107818431070E2E791
:103060000120FEF79BFD83000B4A10781843107077
:10307000DDE70220FEF792FD4300074A107818436F
:103080001070D8E70320FEF789FD034B1A78104330
:103090001870D4E7B7280020B8280020F8B5CE462D
:1030A000474680B58046002718E0FF21B3009B19F2
:1030B0009B004D4AD3181971A3789B0601D421793E
:1030C00000E0FF214848B3009A199200821851711C
:1030D000110014224846FEF725FD0137032F7AD848
:1030E0007C00E419A4004444A1680029F5DBCBB2BC
:1030F0009946FF260E406078FFF754FFB500AD19E2
:10310000AD00394B5D19E8802078FFF74BFF28812F
:10311000E079FFF747FF6881A079FFF743FFA881B7
:10312000A3781B07DB0FAA7801218A431343AB70F6
:10313000A3785B07DB0F5B00A978022291430B4366
:10314000AB70A378DB07590FAB78042083430B43A4
:10315000AB70A3789B07DB0FDB00A97804308143B9
:103160000B43AB70E378DB06DB0F1B01A878102163
:1031700088430343AB70A378DB06DB0F5B00E87882
:1031800090430343EB70E378DB07DA0EEB788B4375
:103190001343EB70E3789B07DB0F5B01EA78103198
:1031A0008A431343EB70E3785B07DB0F9B01EA78FC
:1031B00020318A431343EB70E3781B07DB0FDB01FD
:1031C000E9787F220A401343EB70A3785B0600D5B1
:1031D0006BE761796AE70023044A1370044A1370AD
:1031E000C0BCB946B046F8BD9C210020B7280020DD
:1031F000B828002010B58300084A944663441C6830
:1032000040226240C02414408022520113431C60BB
:10321000C000034B9C466044416010BD04C00140A7
:103220000040014080000B4B9C46604400290DD0BB
:103230000823002A0CD004221343026853400C22B6
:103240001340802252011043036070470023F0E7CF
:103250000022F1E704C0014010B501238340D022D1
:103260001206936293610521FFF7C4FF10BD0000B1
:10327000034B1B6802201840431E9841C0B27047A0
:1032800000C00640EFF3108072B6034B1B68002BA2
:10329000FBD0BFF35F8F70472C0100D0BFF35F8F6F
:1032A000024B00221A6080F3108870472C0100D076
:1032B000F8B506000C001500FFF7E4FFE308F71867
:1032C000F15C07222240012393400B4205D1DBB27F
:1032D0000B433B70FFF7E2FFF8BD2100280001F02F
:1032E00095FFF0B583B00600019114001F00FFF7B1
:1032F000C9FF00E00134BC420CD8E308F518F35CC8
:103300000721214001228A401A42F3D1D2B21A4346
:103310002A7001E001246442FFF7C0FF002C02DBA9
:10332000200003B0F0BD019B002BF9D0089801F0FC
:103330006DFF0000002307E0054A9A189200BFF3D2
:103340005F8F0021116001331F2BF5D97047C046F4
:1033500040000034054A1078431CDBB21370172B71
:1033600002D9130010221A707047C046250E0020A3
:1033700000B583B00100044B00931F2318220348BB
:10338000FFF7AFFF03B000BD00B300102421002001
:10339000074B9B68103080001950BFF35F8FBFF35D
:1033A0005F8F044B0021196082F310887047C0467C
:1033B00000ED00E0240100D010B5091A081F0A4BE7
:1033C0009C466144094A914208D8C30706D440107C
:1033D0004005400D064B184380B210BD054B064A10
:1033E000A321064801F078FEFC070000FE0F000054
:1033F00000E0FFFF1CB300108CB500104CB30010B0
:1034000010B5091A04394C08090B08D14905490DB2
:10341000064A11430180064B2343438010BD054BF0
:10342000054AAB21054801F057FEC04600F0FFFFFA
:1034300000F8FFFFA8B3001060B500104CB30010F7
:1034400001238340034A10681840431E9841C0B2CC
:103450007047C04600E100E0002904D0034B18602B
:10346000034B18607047034B1860FBE780E200E0F5
:1034700000E100E080E100E010B501238340180086
:10348000FFF7EAFF10BD0000024B9B681030800080
:10349000C058704700ED00E070B504000D00EFF378
:1034A000108672B60C4B1B68002BFBD0BFF35F8FEE
:1034B0002000FFF7E9FF094B984201D0A84205D14F
:1034C000320029002000FFF763FF70BD044B054A5E
:1034D0008621054801F000FE240100D0CD01001036
:1034E000B8B30010C0B500104CB30010F0B5DE4604
:1034F00057464E464546E0B589B0814601911500D4
:10350000EFF3108A72B6744B1B68002BFBD0BFF32D
:103510005F8F724B0027DF57002F40DB7C00E419E0
:10352000A4006F4824180622A2566C4B1A706D4BEB
:103530009A684B4610339B00D35898461E001B1ABE
:103540002F2B38D9684B98452FD105AE674B338068
:103550007B009B46D8198000614B9846404402305E
:103560006349FFF729FF7080624BB380FF23B3717B
:10357000F571019B07935F44BF0047440ECE0EC711
:1035800001231C43A046524641464846FFF700FF30
:1035900009B0F0BCBB46B246A946A046F0BD564BAA
:1035A000564AD721564801F097FD564B534ADE2123
:1035B000534801F091FDC04340440C2102F03AFF12
:1035C000002912D101239E43B34633000026DA7945
:1035D000AA4211D90621595600290CDB4A0052187B
:1035E00092001E003E4B9B18F1E7474B434AEA21ED
:1035F000434801F071FD1E00002E3AD005AB434A4E
:103600001A80813A5A800623F3560293002B17DA68
:103610003F4805AB9B469880029A9A71DD71019AEA
:103620000792301D2100FFF7C7FEB080B7717B0005
:10363000DB199B002A4FFF185B4607CB07C7A2E7A1
:103640007800C0198000264BC0180430321DB388A2
:10365000D90A1C2907D15B055915023149005118B7
:10366000FFF7AAFED5E72B4B2B4AB121244801F0E6
:1036700033FD05AE1D4B33807B000293D8198000CB
:10368000174A9046020042440392901C1849FFF7E3
:1036900093FE7080039A101D5946FFF78DFEB0808F
:1036A0001E4B5A464146521A524153431B0DB371A9
:1036B000F571019A0792029B9C466744BF004744FC
:1036C0000ECE0EC7114B5A461380813B5380012307
:1036D0001C43A04657E7C046240100D0C228002062
:1036E000280E002000ED00E0CD01001000A1FFFF3A
:1036F000580E002001BDFFFFF0B30010A8B5001068
:103700004CB3001018B4001040B400100148000081
:1037100001BD0000B4B4001098B50010AAAA0000C2
:10372000F0B5CE46474680B583B006000D00EFF3F6
:10373000108872B6564B1B68002BFBD0BFF35F8F0F
:10374000544B9A6834001034A300D758524B9F4210
:1037500007D0AF4200D198E00197504BFB1A2F2BB6
:1037600009D9424639003000FFF712FE03B0C0BC51
:10377000B946B046F0BD3000FFF762FE8146002139
:103780003000FFF779FEBFF35F8FEFF3058100296B
:1037900001D08C4211D10123019C9C430022A368DB
:1037A000AB4212D00622A256002A0DDB53009B1812
:1037B0009B002200394CE418F1E73621384B394A96
:1037C000FF31394801F088FC2200AB4256D1062572
:1037D0006557002D38DB6B005B199A002F4B9B1847
:1037E0009A68A260DA79E27106229A56A2719B79F0
:1037F0005BB2002B0FDA2D48A0806B005B199B0099
:10380000264AD3182A4A1178997115704946300012
:10381000FFF732FEA5E7201D6B005B199B001F4AD6
:103820009B181A1D9B88D90A1C2907D15B055B15BB
:10383000023359005118FFF7BFFDDDE71D4B1E4A4B
:10384000B121194801F048FC002912D1002A0ED0FC
:10385000FF239371194B9380154A1378A371184B6A
:103860000E49641A644163431B0D1370CEE70A4F7F
:10387000F2E7201D1349FFF7C3FDC7E76A21124B8A
:10388000084AFF31084801F027FC034F69E7C046AA
:10389000240100D000ED00E0CD010010280E002032
:1038A000CCB4001078B500104CB3001001BD00007E
:1038B000C2280020B4B4001098B5001001BDFFFF6D
:1038C000AAAA0000620E002000B5001070B5012108
:1038D00001432E4BCB1A2F2B28D8EFF30583002B57
:1038E0002BD0EFF3108C72B6294A1268002AFBD055
:1038F000BFF35F8F274A0400244D641B6441624379
:10390000120D54B2244A92689B00D2588A421BD0AE
:103910000022032A32D853009B189B001B49CB1866
:103920009B795BB2A3421FD00132F2E7C7211B4B48
:103930001B4A49001B4801F0CFFB92211A4B184A41
:10394000FF31184801F0C8FB134A92681749D1505B
:10395000174B1A7882711C70BFF35F8F0C4B0022DB
:103960001A608CF3108870BD0D00530099188900FF
:103970006918FF268E710F4A8A80E9E7D1210E4B24
:10398000074A4900074801F0A7FBC046280E00205F
:10399000240100D0AAAA000000ED00E008B5001044
:1039A00044B500104CB3001030B50010CD0100102C
:1039B000C228002001BDFFFF3CB500100022044BCF
:1039C00002E0044902C30132072AFAD97047C0460F
:1039D00000E400E080808080024B9C4661448900C6
:1039E000016070474000003410B50400FFF7B2FCDE
:1039F00001002000FFF7F0FFFF232371BFF35F8F6B
:103A000010BD10B50400FFF7A5FC01002000FFF772
:103A1000E3FFFF23237100236371BFF35F8F10BDAA
:103A2000034B9C46614489000160BFF35F8F704780
:103A30004000003410B504000120FFF799FC01009C
:103A40002000FFF7EDFF10BD70B505000C00080069
:103A500000F0DAFE0949200000F01AFEFFF77AFCB8
:103A6000074B9C466044800068602C75D0231B0681
:103A70001B786B75A400034BE55070BD8D3D0010A5
:103A800040000034602600200A4B1A68EFF31081D2
:103A900072B61368002BFCD0BFF35F8F054B1B6819
:103AA000BFF35F8F00221A6081F3108840BF0020AF
:103AB000002170478028002010B5002922D003681B
:103AC0001B7B99421ED8174B9C46614409018368B1
:103AD0009C4661440C684968002A19D003681B7B26
:103AE0009A4215D883680F488446624412019A1896
:103AF00010685368020001208B4201D80ED00020CC
:103B0000C0B210BD084B094A3C21094801F0E4FA53
:103B1000054B064A3C21064801F0DEFAA242EFD8E6
:103B2000EDE7C046FFFFFF0FA8B7001028BA00104E
:103B300054B7001010B500291ED0037B99421BD842
:103B40004B005B18033B0468A4466344002919D06A
:103B5000002A1DD0914221D0002A25D0047BA24208
:103B600022D8046850008018033820188170197812
:103B700000291FD11A7010BD104B114A682111483D
:103B800001F0AAFA104B114A6F310E4801F0A4FA65
:103B90000F4B0E4A70210B4801F09EFA0D4B0B4A59
:103BA0007121084801F098FA044B054A682105483C
:103BB00001F092FA41701A70DDE7C046CCB70010F0
:103BC00094BA0010E8B7001050B8001070BA001096
:103BD0005CB8001068B8001070B506000D00140045
:103BE000002914D0002A14D08068736898470028F0
:103BF00006D0220029003000FFF79CFF280007E0D4
:103C00002A0021003000FFF795FF200000E010009F
:103C100070BD0800FCE70000F0B583B0050000921D
:103C200001930AAB1C780BAB1F78002C26D00368DD
:103C30005A7B944207D10123002B19D1002C3BD190
:103C4000200003B0F0BD002C0CD01A7B944209D8A0
:103C50001A6863001B19033BD3189B78002BEBD029
:103C60000123E9E73E4B3F4A68213F4801F034FA1F
:103C70003E4B3F4A67213F4801F02EFA03689C7B88
:103C8000002CDBD012D01A7B94420FD8620012199C
:103C9000033A19688C46624451789973002900D11F
:103CA000D9730023937053701370C7E72C4B2D4AC0
:103CB00068212D4801F010FA002C3AD02B681B7BAC
:103CC0009C4236D82C4BE3181B01AA6894466344E7
:103CD000009A1A60019A5A60089A9A60099ADA6002
:103CE0002E68002C2BD030D0337B9C422DD8630023
:103CF0001B19033B32689446634400229A705A7041
:103D00001A70717B22003000FFF766FF70738442E7
:103D100000D095E7287D009A019B00F001FD061E6A
:103D200001D0002F17D00C9B002B00D188E71E700C
:103D300086E7124B124A3C210E4801F0CDF9114B97
:103D4000114AA521084801F0C7F9054B054A682129
:103D5000054801F0C1F92868210000F019FFE2E7E9
:103D6000CCB7001094BA0010E8B7001080B800106B
:103D7000A0BA001054B70010FFFFFF0FA8B7001043
:103D800028BA001050B7001084BA0010F0B5DE4613
:103D900057464E464546E0B58BB009900023089340
:103DA0008200B54BD658370052E0B44BB44A3F219D
:103DB000B44801F091F9B44BB44A3C21B44801F045
:103DC0008BF9002901D1002869D10021404600F07B
:103DD000D5FEA04219D12A686B6806920793AB689A
:103DE0009846EB689A464346002B14D0002C18D016
:103DF0003B681B7B9C4214D8631EFA68D35C089313
:103E00001B0218433861002015E0A24BA24A8E2104
:103E10009F4801F061F9A14B9F4A92219C4801F013
:103E20005BF9994B9E4A4121994801F055F90023CD
:103E30009A46984600207B68BFF35F8F00221A6085
:103E400086F310884346002B32D1002800D10CE1C4
:103E500000F0FEFB02000B1EA7DB002000210690F5
:103E600007917868EFF3108672B601680029FCD0DC
:103E7000BFF35F8F396888464C7B002CD7D09AD02F
:103E8000097B8C4297D8874965182D01B9688C4603
:103E9000654428686968801A9941002991DD2A687B
:103EA0006B68099800F03CFC00239A469846C2E7EC
:103EB000089B1B022343994651461800C047050042
:103EC0000E007A68EFF3108B72B6136859424B41BB
:103ED000D9B2002BF9D1BFF35F8F002E1EDB002E6D
:103EE00046DD3B69002B47D04B456DD100F0B0FB60
:103EF00002000B1E6EDB52197341002B70DB002B8E
:103F000072DB002104910131039102945146019129
:103F1000414600913800FFF77FFE4CE03B69002BE3
:103F2000DDD04B4514D1069A079B521BB341002BA1
:103F300014DB002B16DB0021049101310391029464
:103F400051460191414600913800FFF765FE32E08D
:103F5000554B514AA1214E4801F0BEF80122524270
:103F6000524BE6E7454B464A3F21464801F0B4F83C
:103F7000002E01D1002DB4D13B68002C50D05A7BCB
:103F8000944237D1012100294AD1DA7B002A4DD150
:103F90009A7B002A03D1DA7B002A5AD19C73DC7306
:103FA000002C5CD03B681B7B9C4258D8FA68013CD3
:103FB000135D0133135500233B617A68BFF35F8FB4
:103FC00013608BF3108843E7374B334AA421304802
:103FD00001F082F8294B2A4A3F212A4801F07CF857
:103FE00001225242314B8AE7244B254A3F21254882
:103FF00001F072F8002C0DD01A7B94420AD86200AE
:104000001219033A1868844662449278002ABAD09A
:104010000121B8E7264B274A6821274801F05CF8C0
:10402000264B274AF621244801F056F8002A0AD0E8
:10403000197B8A4207D851008A18033A19688C46BE
:1040400062445470A4E71A4B1A4A68211A4801F0D6
:1040500043F81C4B1A4AFB21174801F03DF80A4B64
:104060000F4A41210A4801F037F80BB0F0BCBB46BB
:10407000B246A946A046F0BD602600204CB600100E
:10408000F4B9001068B60010A8B7001028BA0010E4
:1040900054B70010A8B800100CBA0010C0B8001037
:1040A0004CBA0010FFFFFF0FCCB80010FFFFFF7FDE
:1040B000CCB7001094BA0010E8B7001008B900108F
:1040C00060BA00102CB9001010B50C4B5B68002BC7
:1040D00004D00A210A48FFF77FFC10BD074C2300DB
:1040E000084A1021206800F059FC032000F0A4FACF
:1040F00003212000FFF7A8FCEBE7C046700E00206C
:1041000080280020B93A001010B5064B5B68002BE0
:1041100001D0044810BD044B044A5E21044800F05D
:10412000DBFFC046700E002040B9001034BA00100A
:1041300054B70010F0B5DE4657464E464546E0B54A
:104140008BB0804616001F00149B9A46159B99461B
:1041500016AB1B789B461F2302AA94466344002299
:104160001A702BE0002809D042461268127B904258
:1041700004D8421E4146C9688A5C41E0404B414A2E
:104180004121414800F0A8FF07984CE0361BAF41A1
:10419000002F07DB002F11DA3C4B3D4A3F213D4801
:1041A00000F09AFF012676423B4FF3E7374B384A3F
:1041B0003F21384800F090FF002F4FDB43465A68FC
:1041C000EFF3108472B6136859424B41D9B207918C
:1041D000002BF8D1BFF35F8F1F3302AA94466344CC
:1041E00004930023039302934B4601935346009399
:1041F00032003B004046FFF70FFD031EB2D1020024
:1042000041464968BFF35F8F00250D6084F3108835
:10421000002B29D01F2302A98C4663441B78002B56
:10422000B2D112021043002B20D05B46002B1DD0D0
:104230004946D04704000D0003000B431DD0002960
:10424000A4DB00F005FA06000F1EAFDB36196F4144
:10425000002FB1DA012676420F4FADE70B4B0C4A27
:104260003F210C4800F038FF012040420BB0F0BC69
:10427000BB46B246A946A046F0BD0798F6E7C04641
:10428000A8B700104CBA001054B700104CB600107C
:10429000F4B9001068B60010FFFFFF7FF8B5040006
:1042A000002900D162E04268EFF3108572B613680E
:1042B00058424341D8B2002BF9D1BFF35F8FCBB244
:1042C0002268567BB3421BD10120002848D02069C8
:1042D00088422BD0090AC9B2002B2ED02068007B5F
:1042E00083422AD8581EE668305C88422BD00020D2
:1042F0006368BFF35F8F00221A6085F31088F8BDF2
:10430000002B0DD0167BB3420AD85E00F618033E90
:104310001768BC466644B678002ED6D00120D4E794
:10432000134B144A6821144800F0D6FE2C21134B7D
:10433000134AFF31134800F0CFFE134B134A4121BB
:10434000104800F0C9FE1900100000F021FC002800
:10435000CED199210E4B0A4A49000A4800F0BCFE12
:1043600023698B42C4D100232361C1E70020C6E743
:10437000CCB7001094BA0010E8B7001064B9001070
:10438000DCB9001054B70010A8B700104CBA0010E8
:1043900088B90010F0B587B006000F00EFF3058371
:1043A000002B1FD106246442E517A4197D418D42DC
:1043B00002D803D1844201D900240025002D14DB4A
:1043C0000494059500F044F902000B1E13DBA41AB7
:1043D0009D41002D17DC14D03000390000F044F965
:1043E00007B0F0BD234800F011FF234B234A3F21C3
:1043F000234800F071FE204B204A3F21204800F066
:104400006BFE002CE8D0FFF77FFE002302930193A0
:104410001C4B0093049A059BFFF78CFE002818DACA
:10442000DAE7002300E00023002BD5D1164B1A68F1
:10443000EFF3108172B61368002BFCD0BFF35F8FCF
:10444000114B1B68BFF35F8F00221A6081F3108845
:1044500020BF0499059A0D4B5B6A9A42E3D80B483A
:10446000806A884203D29A42DBD00123DCE7012331
:10447000DAE7C0468CB900104CB60010F4B9001051
:1044800068B60010893A00108028002000400540DE
:1044900070B504000D0000F0DBF802000B1E0ADB13
:1044A000200029008018594100290ADB00290CDB73
:1044B000FFF770FF70BD084B084A3F21084800F025
:1044C0000BFE012040420749F0E7034B034A3F211E
:1044D000034800F001FEC0464CB60010F4B90010CD
:1044E00068B60010FFFFFF7F10B5FA22920000238C
:1044F000002102F015FEFFF7CBFF10BD70B584B0B0
:1045000005000C00EFF30583002B1ED1FFF7FCFD27
:10451000002302930193224B00932A002300FFF70C
:1045200009FE061E23DD20BFFFF7EEFD3100FFF779
:10453000B5FE1C4B5B6A9C422DD81A4A926AAA426D
:104540002CD29C4225D0012026E0164B5B6A994272
:1045500009D8144A926A824207D2994201D00120B6
:104560001AE0002018E0002016E0012014E00D4BB6
:104570005B6A9C4209D80B4A926AAA4207D29C42C3
:1045800001D0012008E0002006E0002004E0012026
:1045900002E0002000E0002004B070BD0120FBE735
:1045A000893A00100040054070B5EFF305801038DF
:1045B000EFF3108C72B61A4B1B68002BFBD0BFF3C5
:1045C0005F8F01221300834016494B6316490B602D
:1045D000164909780C00C440224214D0114A546A8A
:1045E0008200134D5259944206D38200114C125945
:1045F00099430E4B197007E00A4A031D9B00995816
:104600009950002200E00022BFF35F8F044B00218D
:1046100019608CF31088002A00D0904770BDC04606
:10462000280100D0004005403C700540C52800200E
:1046300098280020EC1F002010B50100024A034812
:10464000FEF736FE10BDC046B8BA0010BE280020E6
:10465000044B5B6A034A906A1900536A9942F9D184
:104660007047C04600400540084B5B6A01E0074BBD
:104670005B6A8B42FBD301E0044B5B6A8B4203D144
:10468000024B9B6A8342F7D37047C0460040054007
:1046900070B504000D00EFF3108672B61B4B1B685B
:1046A000002BFBD0BFF35F8F002D1CD02000FEF746
:1046B000EBFE174B83420BD019002000FEF7ECFEF7
:1046C00001212000FEF7D8FE0123A340114A136008
:1046D000A400114BE550BFF35F8F0C4B00221A6012
:1046E00086F3108870BDA2000B4B0021D15001222F
:1046F000A2400A490B7893430B7005492000FFF74D
:104700000FF800212000FEF7B7FEE4E7280100D0F3
:10471000A945001038600540EC1F0020C528002086
:10472000F0B5DE4600B584B00400150001921E000D
:104730000293FFF78DFF03958E4202D84ED185423A
:104740004CD9EFF3108B72B6274B1B68002BFBD0B4
:10475000BFF35F8F254A17780125A540EBB23B4395
:104760001370234B5D63221D92000199D150A2006A
:104770002049029850501B6A2B4212D11C4B1B6CD3
:104780002B4208D00020BFF35F8F174B00221A6026
:104790008BF3108823E0184B184AC521184800F005
:1047A0009BFCFFF755FF8E4214D802D1039B834236
:1047B00010D80E4B1B78BB420ED00D4B1D625D63B3
:1047C0001F2004400123A3400E4A1360074B1F70B3
:1047D0001E38D8E70020D6E70120D4E7012004B036
:1047E00080BCBB46F0BDC046280100D0C5280020D3
:1047F0000040054098280020DCBA001060BB001083
:1048000000BB001080E200E0EFF3108C72B60B4B9F
:104810001B68002BFBD0BFF35F8F01238340084A46
:10482000136208490A789A430A70BFF35F8F034BFB
:1048300000221A608CF310887047C046280100D00F
:1048400000400540C528002010B500291ED0037B7C
:1048500099421BD84B005B18033B0468A446634491
:10486000002919D0002A1DD0914221D0002A25D03C
:10487000047BA24222D80468500080180338201814
:104880008170197800291FD11A7010BD104B114A80
:104890006821114800F020FC104B114A6F310E487E
:1048A00000F01AFC0F4B0E4A70210B4800F014FC6C
:1048B0000D4B0B4A7121084800F00EFC044B054AD1
:1048C0006821054800F008FC41701A70DDE7C04619
:1048D000CCB7001084BC0010E8B7001050B800102E
:1048E00070BC00105CB8001068B8001070B506000D
:1048F0000D001400002914D0002A14D080687368B9
:104900009847002806D0220029003000FFF79CFFBE
:10491000280007E02A0021003000FFF795FF200063
:1049200000E0100070BD0800FCE7000010B5002397
:10493000437301338373037BC3730123027B9A4266
:1049400014D9002B0CD0027B934209D85A00D218FC
:10495000033A01688C4662440133DBB25370EDE7E1
:104960000B4B0C4A68210C4800F0B6FB002A09D01A
:10497000924207D8016853009A18033A8A18002314
:10498000537010BD024B034A6821034800F0A4FB9A
:10499000CCB7001084BC0010E8B7001010B501734C
:1049A00042608360FFF7C2FF10BD000070B50400D5
:1049B000081E00D170BD002934D0237B994231D824
:1049C0004B005B18033B2268944663445A78002AE4
:1049D000F0D02DD0237B9A422AD853009B18033B5A
:1049E00021688C4663445D7800215970002825D0E9
:1049F000237B984222D843001B18033B21688C4636
:104A000063440021597001002000FFF76FFF06008A
:104A100029002000FFF7CAFF020031002000FFF745
:104A200065FFC7E7084B094A6821094800F054FBB5
:104A3000054B064A6821064800F04EFB024B034A2C
:104A40006821034800F048FBCCB7001084BC00107C
:104A5000E8B7001070B505000C00160000292FD033
:104A600034D0037B994231D84B005B18033B02687A
:104A7000944663445A78002A2ED19A78002A31D17C
:104A80001978FFF793FF0300002E0AD0EA7B002A73
:104A90002ED1AA7B002A03D1EA7B002A3BD1AC733A
:104AA000EC73002B3DD1002C4FD02B7B9C424CD87B
:104AB0002B6861000C19033C1C190023637070BD46
:104AC000254B264A3821264800F006FB254B264A6E
:104AD0006821264800F000FB254B204A3A21204857
:104AE00000F0FAFA234B1D4A3B211D4800F0F4FA6E
:104AF000002A0AD0297B8A4207D851008A18033A33
:104B000029688C4662445470C3E7164B164A6821E4
:104B1000164800F0E1FA184B104A4221104800F004
:104B2000DBFA002B0BD02A7B934208D843001B18DA
:104B3000033B2A689446634400229A70B3E7094B0A
:104B4000094A6821094800F0C7FA064B064A68215D
:104B5000064800F0C1FAC0467CBB00105CBC0010E7
:104B600084BB0010CCB7001084BC0010E8B7001064
:104B7000D8BB001000BC00102CB9001070B50400A8
:104B80000A00457B2900FFF765FF6073280070BDB0
:104B900070B50400002967D0437B8B420ED00029FA
:104BA00011D0037B99420ED84B005B18033B02687F
:104BB000D0188378002B0CD1002056E00121FFF79C
:104BC000DDFF012051E0294B294A6821294800F0E6
:104BD00083FA002B20D0227B93421DD85A00D31891
:104BE000033B2268D2182568EB5C8B421AD0002B5D
:104BF0001BD0227B934218D85A00D318033B22685B
:104C0000D21853788B4216D0002BF0D11A4B1B4A86
:104C10006B211B4800F060FA144B154A68211548B7
:104C200000F05AFA4378137007E0104B104A6821DD
:104C3000104800F051FA437853700023837043709A
:104C400001222000FFF706FF0200617B814205D0B0
:104C50002000FFF74BFE6073012006E0094B074A76
:104C60007121074800F038FA002070BDCCB7001061
:104C700084BC0010E8B700103CB5001044BC001024
:104C800084BB001024BC0010F8B5DE4657464E46E3
:104C90004546E0B505000F0092460A9A934250D36C
:104CA0001A0E91461E020A9A00233000494601F06E
:104CB000FFFB80466C006419A400304B9C466444A2
:104CC0006368834200D260602B1FDBB29B46012BDE
:104CD0003DD9C0239B012343802212011A60AB00FF
:104CE000274A9958002907D0506901F0A3FB431CBB
:104CF0005800C0180338FDD253465A0123685A4061
:104D0000E0231A4080235B0123431A605A46012A9C
:104D100028D980239B012343802212011A60434635
:104D20006360424600233000494601F0C1FBAD00FC
:104D3000134B58510120F0BCBB46B246A946A046D1
:104D4000F8BD104B104A3321104800F0C5F9012F6F
:104D5000BFD1C0239B01234303221A60A368DB0752
:104D6000FCD5C9E72168794003220A401A60A2688D
:104D70000123BB401342FAD0CBE7C046008000407D
:104D80002821002090BC001004BD0010A4BC00101D
:104D900030B583B00C2000F011F9FEF769FA002855
:104DA0000DD0002304E099002D4A2E48885001338D
:104DB000092BF8D92A4B2C4A5A6203B030BD2B4B31
:104DC00000229A6700F06CF9294B01221A60274BE8
:104DD0005B6C012BFBD1274B03221A60234B9B6B8F
:104DE000012BFBD1013300930433234A01212348D3
:104DF00000F054F805230093214A0121214800F0D6
:104E00004DF8214B0093002202210420FFF73CFFC4
:104E10001E4D00952B00002201210520FFF734FFD5
:104E2000104C00942300002200210720FFF72CFFE4
:104E300000942300002200210820FFF725FF0A4BE1
:104E400000932300002200210920FFF71DFF009599
:104E50002B00002200210620FFF716FFADE7C04619
:104E600028210020006CDC021BB7000000800040FD
:104E70003CB0004030B00040002F68590080024034
:104E8000008C864700C00240001BB70040597307E2
:104E90008000014BC058704728210020F0B5C6465D
:104EA00000B504000E0017001D00374801F0C2FADB
:104EB0008046364BFA18364B9A4239D801003800F2
:104EC00001F0B8FA0200103A98235B009A4235D8F4
:104ED0006B1E062B38D8069B013B062B34D83F09A6
:104EE000474537D32D04069B1A0315432368002B2F
:104EF00036DB284B9C4244D080225201264B1A605C
:104F0000264B1A60264B9B6811009943FAD1266004
:104F1000A060231DC02292011A432123136023683D
:104F2000002BFCDAE5600823136080BCB846F0BDB6
:104F30001C4B1D4A11211D4800F0CEF81C4B1A4A8B
:104F400019211A4800F0C8F81A4B174A1C211748B3
:104F500000F0C2F8184B144A2321144800F0BCF8A2
:104F600022683F231340B342C3D1A3681B051B0D26
:104F70008342BED1E368EE22D2021340AB42B8D1E5
:104F8000D3E780229201B9E7001BB70080E84BD33A
:104F900080F8A93200C0024000E0004000F000406C
:104FA00000C0004014BD001054BE001074BD0010BD
:104FB000D0BD0010ECBD001038BE001080239B0057
:104FC0000343014AD362704700800540024B1A68D0
:104FD000024B5A607047C0465826002000800540AA
:104FE00010B50200164B8020C0051860154B1648FE
:104FF000186000290AD0154BE021C9041960002A65
:1050000009D1124B802212061A6010BD0C4BE02110
:10501000C9041960F3E753019B1A98008018000136
:105020000B4B186080235B04984202D3084B094A5B
:105030001A60FFF7CBFF054B8022D2051A60E4E728
:1050400000B0054008200140FCFF010000A0054021
:1050500058260020FFFFFF0010B5030010000C4A87
:105060008024E4051460002B0DD001221343094A6B
:10507000094CD461094C5C40146251629362002176
:10508000FFF7AEFF10BD034B0022DA61F7E7C04621
:1050900000B0054000800540D3C007B02D3FF84F59
:1050A000074BAA2212011A602132FF32DA60054B47
:1050B000054A1A60024B5B68002BFBDA7047C0465A
:1050C000004002400060024000B0FA0000BEFDE770
:1050D00010B5FFF7FBFF000010B582B00C001900FF
:1050E000002A0CD0084B002A0BD001920093230019
:1050F0000200064802F012FB0120FFF7E7FF044B15
:10510000F1E7034AF1E7C04660BE001070BE001030
:10511000CCAC001070B52B4B2B4A1A602B4B2C4A91
:105120001A602C4B9A682A4B9343FAD12A4C01E01F
:1051300008CC9847294B9C42FAD3FFF729FE234B12
:10514000274A1A60234B9B68DB43DB01FAD1254BCE
:1051500040229A675A671A67DA66234C09E0234BA4
:10516000234A87212348FFF7B7FF2000FEF73CFCC6
:105170000834214B9C4209D22368002BF5D0012B27
:10518000EDD12000FEF73DFC0834F2E71B4CA1688E
:105190001B4DC022280002F071F9A560EFF30583D2
:1051A000002B00D000BEFEF7C5F8FEF707FCFEF7A7
:1051B0008BFF144C01E008CC9847134B9C42FAD368
:1051C00070BDC04600E00040BFCDFBFE00F00040D7
:1051D000FE7F3C0000C00040000F0020100F0020A8
:1051E000FFFFFF0100F00140E80E0020A0BE00100C
:1051F00030BF0010C0BE0010000F002000ED00E026
:1052000000000020100F0020180F00200FB400B580
:1052100083B0084802F052FA049B002B07D005A97E
:105220000191180002F05AFA034802F047FA0120EF
:10523000FFF74CFF20BF0010F4AC0010704710B512
:10524000002802D00B684968984710BD0100002073
:1052500007E083001B185B00501C08601078C01822
:1052600030380A681378303BDBB2092BF1D970472C
:10527000F0B5DE4657464E464546E0B583B0934608
:105280001F000C9B9A460D9C0E9B99460F9B9B07FB
:1052900003D0B8460F00060022E00192A3468846DC
:1052A0004E46B9460700B44207D2551C4B4641460C
:1052B0002020B84701342A00F5E73D004F465C4600
:1052C000019B9B46B1464646B84637002E0007E094
:1052D000013C551C5346185D43463900B0472A002F
:1052E000002CF5D135003E0047460F9B9B0707D4A5
:1052F000100003B0F0BCBB46B246A946A046F0BDC4
:10530000B0464E46B9462F005D46531BB342EFD21E
:10531000541C4B4641462020B8472200F5E7F0B523
:10532000CE46474680B585B0944698460C9D0D9C68
:105330000EAB1B789946109A119B129EB7071CD48E
:10534000002B0CD0F7070AD54F46002F02D10C379F
:10535000374204D0013B02E030272F5501349442FC
:1053600001D21F2CF8D9F70707D59C4205D21F2C74
:1053700003D830272F550134F5E7F70615D5770503
:1053800005D4002C03D0944224D09C4222D00F9A02
:10539000102A2BD00F9A102A30D00F9A022A35D01B
:1053A0001F2C02D830222A5501341F2C05D84A461A
:1053B000002A31D02D222A550134039602930194FC
:1053C000009543466246FFF753FF05B0C0BCB9469F
:1053D000B046F0BD621E012C06D00F9F102F01D0E9
:1053E0001400D4E7023CD2E71400D0E7B206D1D4CF
:1053F0001F2CCFD878222A550134D1E7B206CCD55C
:105400001F2CCAD858222A550134C9E71F2CC7D8E7
:1054100060322A550134C3E7720703D52B222A557F
:105420000134CAE73207C8D520222A550134C4E71F
:10543000F0B5DE4657464E464546E0B593B0814648
:105440008A46089209931CAB10CB1B789B461E9D85
:10545000219B9846002C03D1102342469A43904644
:105460008023DB0046461E4042461A4212D0002CE2
:1054700022D000260EE03033D9B2771C0AAB995502
:105480002900200000F0D6FFAC4216D31F2F14D8FD
:105490003E0004002900200000F0CCFFCBB2092B15
:1054A000E9D94246920605D54121C918C9B20A393F
:1054B000C9B2E2E76121F8E7270043460693209B43
:1054C00005931F9B049303955B46029301970AABD8
:1054D0000093099B089A51464846FFF720FF13B0F6
:1054E000F0BCBB46B246A946A046F0BDF0B5DE46CC
:1054F00057464E464546E0B595B0089009910A9248
:105500000B931E9E1F9C20AB1B789B46229B9946AB
:10551000239D269B9A463300234303D110335246E2
:105520009A4392468023DB0057461F4052461A4258
:1055300019D0330023432DD0002714E03033DAB2E2
:105540007B1C98460CABDA554A462B0030002100F4
:1055500000F0AEFFA5421FD819D043461F2B1BD821
:10556000474606000C004A462B003000210000F0A0
:105570009FFFD3B2092BE1D95246920605D54122AD
:10558000D218D2B20A3AD2B2DAE76122F8E7B145CC
:10559000E3D901E00023984653460693259B0593E3
:1055A000249B04934B4603935B460293434601932B
:1055B0000CAB00930B9B0A9A09990898FFF7AFFE72
:1055C00015B0F0BCBB46B246A946A046F0BD0000EF
:1055D000F0B5DE4657464E464546E0B591B08346A7
:1055E0008A460C9298461A9C08941B9D09952200A5
:1055F0002B002000290001F0E6F9002800D0E5E0AA
:1056000001225242D74B2000290001F0D7F900288F
:1056100000D0DBE001225242D34B2000290001F0F0
:10562000B7F9002800D0D1E000220023089E300006
:10563000099D290001F0ACF9002800D0DDE00898B0
:105640000999069007918023DB001E9A1A400D925B
:105650001E9A1A4201D106231C930698079904004A
:105660000D000A000600024300D1D1E0080D4005FC
:10567000400DBE4CA44660440A03120BBC4B1343BE
:105680001F0001F0B3F9BB4ABB4B01F03EF9BB4A26
:10569000BB4B01F013F904000D000022B94B3000A0
:1056A000390001F002F9B84AB84B01F02EF90200B6
:1056B0000B002000290001F001F901F0AFF981464B
:1056C00001F094F904000D00B14AB24B01F01DF94C
:1056D0000022B14B01F0F2F801F0A0F90600AF4A48
:1056E000AF4B2000290001F010F904000D0030003C
:1056F00001F07CF9AB4AAC4B01F007F902000B005A
:105700002000290001F0D1F804000D0002000B0078
:1057100001F0FBF80A900B91A44BF31800261F052B
:1057200022002B002000290001F0C8F80E900F91F4
:1057300022002B0000208021C90501F0B6F80400EA
:105740000D0000229A4B0A980B9901F0C0F8002234
:10575000984B01F0B3F802000B000A980B9901F086
:10576000B6F80022944B01F0A9F802000B000A9849
:105770000B9901F0ACF802000B002000290001F0A9
:105780009DF802000B000E980F9901F0A0F800227E
:10579000774B01F093F832003B0001F0B6F80600B9
:1057A0000F0004000D00069A079B01F007F900287E
:1057B00030D001235B429C46E14400227D4B300007
:1057C000390001F084F804000D0023E01E9B0493CF
:1057D0001D9B03931C9B0293089A099B00920193C3
:1057E00043460C9A5146584600F0FCF811B0F0BC04
:1057F000BB46B246A946A046F0BD0023002406934E
:105800000794069680231B069C46654407951AE775
:10581000002399464B466333C62B1ED804261E9B95
:105820001B0526D52B0023430FD0644A644B0698F2
:10583000079901F0BBF8002879D00022614B069847
:10584000079901F0A5F8002871D01C9B4B4506DD97
:105850004A46981A431E1C9303E00526DFE70023FF
:105860001C938023DB001E9A1A431E9200260023FD
:1058700099461D9B9E4264D29F1B02231E9A1A408A
:105880000A921E9A134202D0002E00D000274B46E7
:10589000002B07D022002B000698079901F017F87B
:1058A00006900791002200230898099901F070F8EA
:1058B000002848D1444B1E9A1340049303971C9B25
:1058C0000293069B079C0093019443460C9A514611
:1058D000584600F087F8002E00D187E71E9B9B06F4
:1058E0003DD54525441C4346020051462800D84773
:1058F0004B46DA179B18534005220592013E049649
:10590000002203920A3202924A46D00F019000937D
:105910004346220051465846FFF78AFD0A9B002B5A
:1059200000D163E702005F460C9E1D9D54E01C9B66
:10593000002B9ED00D9B002B9BD01C9B013B1C93EE
:1059400097E7002799E7069C079D22002900802001
:105950000006844661440B0006920793AAE765257A
:10596000C0E7C046FFFFEF7FFFFFEFFF01FCFFFF37
:105970000000F03FFB799F501344D33FB3C8608BC6
:10598000288AC63F0000F83F61436F63A787D23F74
:1059900071A379094F930A400000E03F1655B5BB4B
:1059A000B16B0240EF39FAFE422EE63FFF030000E2
:1059B00000002C4000002440000018402D431CEB48
:1059C000E2361A3F80842E41FFF7FFFF541C434606
:1059D00051462020B8472200931BAB42F6D310005B
:1059E00004E7C046F0B5DE4657464E464546E0B5AC
:1059F00095B00690079193469946209F1E9A1F9B4B
:105A00001000190000F0DFFF002831D101225242BE
:105A1000BF4B1E981F9900F0BBFF002837D1012211
:105A20005242BC4B1E981F9900F0C8FF00283DD180
:105A30000022B94B1E981F9900F0C0FF002850D1DA
:105A40000022B64B1E981F9900F0A2FF002848D1F3
:105A5000002200231E981F9900F09AFF002850D1C1
:105A600000239846229B5B0500D4B6E0002458E052
:105A7000229B0393219B029303230193A84B009342
:105A80004B465A4607990698FFF7F2FB0EE1229B18
:105A90000393219B029304230193A24B00934B4653
:105AA0005A4607990698FFF7E3FBFFE00423229A82
:105AB0001A4022990B4210D09B4B002A0FD004228F
:105AC0002299039121990291019200934B465A46E3
:105AD00007990698FFF7CCFBE8E0944BEDE703222B
