:020000041000EA
:1000000000B5324B212058609868022188439860DF
:10001000D860186158612E4B002199600221596106
:100020000121F02299502B49196001219960352056
:1000300000F044F80222904214D00621196600F024
:1000400034F8196E01211966002018661A6600F04E
:100050002CF8196E196E196E052000F02FF8012189
:100060000842F9D1002199601B49196000215960AB
:100070001A491B48016001219960EB211966A021F2
:10008000196600F012F800219960164914480160C1
:100090000121996001BC002800D000471248134993
:1000A000086003C880F30888084703B5996A0420EC
:1000B0000142FBD001200142F8D103BD02B5186610
:1000C0001866FFF7F2FF186E186E02BD00000240BE
:1000D000000000180000070000035F00212200005C
:1000E000F4000018222000A00001001008ED00E03C
:1000F00000000000000000000000000074B24E7A12
:1001000000200420F7010010C3010010C5010010F9
:10011000C1010010C1010010C1010010C101001097
:10012000C1010010C1010010C1010010C701001081
:10013000C1010010C1010010C9010010CB01001065
:10014000CD010010CD010010CD010010CD01001037
:10015000CD010010CD010010CD010010CD01001027
:10016000CD010010CD010010CD010010CD01001017
:10017000CD010010CD010010CD010010CD01001007
:10018000CD010010CD010010CD010010CD010010F7
:10019000CD010010CD010010CD010010CD010010E7
:1001A000CD010010CD010010CD010010CD010010D7
:1001B000CD010010CD010010CD010010CD010010C7
:1001C00000BE00BE00BE00BE00BE00BEEFF3058054
:1001D000103800BEF2EB887144C9001068C90010E5
:1001E0003402001090A31AE700201F49086006C8D7
:1001F00081F3088810471D48006800282FD10DA4FE
:100200000ECC002902D000F012F8F9E71849194A7B
:10021000002000E001C19142FCD1174988471749ED
:1002200088471749884700BEFDE701C901C29A42C5
:10023000FBD3704768C90010C0000020280F0020C1
:10024000D0D700100000042000000420D0D70010F8
:10025000001004200010042000000000704709482E
:1002600005F024FD0047000008ED00E0000000D08C
:10027000480F0020D0280020354A00103D03001010
:10028000F14900105756000006005250ABB36053BE
:10029000A8C0001006005250861C0302B8C000100F
:1002A000060052505422A29DCCC0001005005250AE
:1002B000DE65F468D0D70010F8B5C04610B5064C1E
:1002C0002378002B07D1054B002B02D0044800E017
:1002D00000BF0123237010BD581000200000000053
:1002E00018A50010044B10B5002B03D00349044897
:1002F00000E000BF10BDC046000000005C10002000
:1003000018A5001010B50B2002F034FC00220121CA
:100310000B2002F015FCD024240680231B01A362CD
:100320000C2002F027FC002201210C2002F008FC26
:1003300080235B01A36200F055F910BD70B5FFF793
:10034000E1FFD0231B065B681B0504D4D0231B06EA
:100350005B68DB040FD501F0E1F8002812D100241E
:1003600001F088F8200000F0ABFA06F089FE00F0FA
:1003700009F900252EE0224805F098FC0300002131
:1003800008009847052000F0EBF9C3B2012B0BD011
:100390001C4B9C78022C13D0032C08D0012C0AD0C3
:1003A000194800F00DF9DBE70004040EF2E71748E6
:1003B00000F006F9D4E7FF20000600F001F9CFE7CE
:1003C000134800F0FDF8CBE7200000F0B9FF200053
:1003D00000F0DCF90F4B9C6A01F04CF8200000F0B3
:1003E0009BF901200021404207F0B0FE002DEBD127
:1003F00000F0DAFF642003F007FD0125EAE7C046BC
:1004000055420000342200200000FFE600D0FF2B00
:1004100000FF61000040054000220AE09300064909
:100420005958064B5B68DB03FBD4044B196101325E
:10043000D2B2032AF2D9704758170020000030507A
:10044000F8B5DE4657464E464546E0B506000D0077
:10045000141C807806F06DFB8046F07806F069FB8E
:10046000071C707806F065FB061CA87806F061FB97
:100470008346E87806F05DFB8246687806F059FB13
:1004800081464146584606F0F8FA211C06F015FB55
:10049000414606F0F7FA8046391C504606F0EDFA60
:1004A000211C06F00AFB391C06F0ECFA051C311C75
:1004B000484606F0E2FA211C06F0FFFA311C06F06D
:1004C000E1FA06F08FFBC4B22402404606F08AFB34
:1004D000C3B21B041C43281C06F084FB0006204307
:1004E000F0BCBB46B246A946A046F8BDF8B51F4BC6
:1004F0001B78002B18D01E4A1E4B13CB13C21B684F
:10050000136000231C4A1370184A137000221A4B00
:100510001D78152D1ED8280006F00BFB174906F094
:10052000CCFA061C00240DE00122F0E7A7001449D4
:10053000C9190F48C019321CFFF782FF0D4BD85163
:100540000134E4B2032CF1D901350B4B1D70FFF7D8
:1005500063FFF8BD002AFCD1064A094B13CB13C236
:100560001B681360FFF758FFF3E7C046C12800205F
:100570006817002058170020280D0020310C433D3B
:1005800078170020014B01221A707047C128002003
:1005900010B5002308E09A00064950500649505013
:1005A000064950500133DBB2032BF4D9FFF734FF77
:1005B00010BDC0466817002058170020781700208B
:1005C000002304E09900034A88500133DBB2032B77
:1005D000F8D97047781700208900014B58507047B0
:1005E0007817002070B58CB0434D4449280009F0BD
:1005F00009FE040007210A2002F08AFA0123009371
:100600000A220021280009F019FE1022002108A862
:1006100006F0BEFB80235B020893F8235B0209937C
:100620008023DB020A93C0231B030A93102208A92C
:1006300004A806F0B3FBE21C059B0393304B03991F
:100640000B40E1010B43120313430593079A0392F6
:10065000D200D208802189050A430792294A134013
:100660000593102204A908A806F098FB0B9B03939E
:10067000254A1A40A0239B0113430B930A9B039323
:10068000224A1A40224B13430A939B009B08802264
:10069000D20513430A93052004F08AF81D4905F09A
:1006A00059FB06F046FA061C06F09CFA85B2002DAE
:1006B0001FD0280006F03DFA011C301C06F0DDF9C1
:1006C0008721C90506F0F9F906F08CFAC0B20002DC
:1006D0002D0405430895084D08AB22000021280091
:1006E00009F0FEFD2B680122934313432B600CB0ED
:1006F00070BD0020EBE7C0460000305018A5001088
:100700007F00FEFFFFFFFF9FFF83FFFFFFFFF5C19D
:10071000000002300050C30010B50E4B18600E4BA5
:100720001B68984208D2C31A013B0C4A934207D86F
:100730000023002B0AD110BD984205D9C31AF4E753
:10074000054B18600123F4E70023F2E7FFF7CEFE24
:10075000F1E7C046B02800205026002019410000D3
:10076000072805D88000034B9C466044006870470A
:100770000020FCE70C800540072804D88000024BCD
:100780009C466044016070470C80054010B52A4BC0
:1007900018602A4B1B68984215D2C31A013BFA22F3
:1007A0009201934213D20023002B3CD0D0231B068E
:1007B0005B681B0511D4224B1B78002B0DD1204BFD
:1007C00001221A7012E0984205D9C31AE7E71B4BC1
:1007D00018600123E8E70023E6E7D0231B065B68E7
:1007E0001B0503D5164B1B78002B0CD1D0231B0601
:1007F0005B68DB040ED4134B1B78002B0AD1114B22
:1008000001221A700FE00E4B00221A70002000F037
:100810002FF8EBE7D0231B065B68DB0403D5094BFD
:100820001B78002B00D110BD064B00221A7001204E
:1008300000F01EF8F7E7C046B42800205426002038
:10084000C6280020CB2800200048704728A50010AB
:10085000014B18787047C046E80D002010B5002005
:10086000FFF796FE00220021002004F085F810BD5D
:1008700010B5002815D0114B1B78022B0DD90F4B4A
:1008800000221A700D4B1B781B0201211943052011
:10089000FFF772FFFFF7E2FF10BD0133074A137045
:1008A000F0E7064B1B78002B03D1044B03221A7090
:1008B000E8E7013B014A1370E4E7C046E80D002079
:1008C00010B50400022822D00DD8002829D0012814
:1008D00013D1194B194A1A60194B1A4A1A601A484F
:1008E00000F014FD0EE0032807D1134B174A1A60DD
:1008F000FA20400000F00AFD04E000230E4A1360D5
:100900000F4A1360124B1C7008F012FD10BD0A4B09
:100910000E4A1A600A4B0F4A1A600B4800F0F6FCA8
:10092000F0E7054B0C4A1A60054B0C4A1A60064862
:1009300000F0ECFCE6E7C046AC190020B929001035
:10094000B01900204D290010581B00008D24001004
:10095000E80D002071240010B92600104D2600106B
:1009600010B5034B1B68002B00D0984710BDC04644
:10097000AC19002010B5034B1B68002B00D0984722
:1009800010BDC046B0190020094B1B78032B05D8B9
:10099000022B07D2012B07D106487047052B05D142
:1009A0000548FAE70548F8E70548F6E70448F4E79C
:1009B000E80D0020F8A700107CB00010D4A80010AB
:1009C0001CAF00100B4B1B78032B0AD005D8012B52
:1009D00009D0022B09D108487047052B07D10748D9
:1009E000FAE70748F8E70748F6E70748F4E7064854
:1009F000F2E7C046E80D0020A8A8001030B00010B3
:100A0000E8A8001050A700107CAE0010002070472E
:100A1000014B01221A707047C428002070B51D00D8
:100A200004AB1B882B4C2478012C3AD00CD8002C1A
:100A300015D1002913D1002A11D1297810292CD0E1
:100A40002A0001F00BFC0AE0023CE4B2012C06D8BB
:100A5000002904D1002A02D12B78112B00D070BDBF
:100A600069784B1E9941C9B2002000F055FCA97865
:100A70004B1E9941C9B2012000F04EFCE9784B1E93
:100A80009941C9B2022000F047FC29794B1E9941D7
:100A9000C9B2032000F040FCE1E7A91C01F083F992
:100AA000DDE70029DBD1002AD9D12B78002BD6D164
:100AB0006B78082BD3D1EB78002B02D12B79002B4C
:100AC00003D0012100F028FCC9E7002100F024FC3C
:100AD000C5E7C046E80D0020064B1B78002B07D069
:100AE000023BDBB2012B01D8034870470020FCE732
:100AF0000248FAE7E80D00203CA8001030AF0010D3
:100B000010B5037801330370FFF7A2FE012801D06E
:100B1000014810BD0148FCE714A9001038A70010D7
:100B200070B5EE2824D0002825D080001E4BC55873
:100B3000280009F047FCC0B21F2800D91F2000235D
:100B400027E05A1C194CA15C0902E25C0A434400EC
:100B50001749625202330130112BF2D9154A144B56
:100B600013CB13C211001A680A609B888B8019E0AE
:100B700000200023F0E70C4B196802220E4806F013
:100B80000DF9012007E05A1CEC5C5100094BCC52D6
:100B9000D3B29842F7D801304000C0239B001843DD
:100BA000044B1880034870BDF40D002044A60010CB
:100BB00074100020301300203213002010B590B0C4
:100BC00004000A4806F020FA002300933C2200218A
:100BD00001A806F0DDF840226946200008F04AFA34
:100BE000684601F057FE10B010BDC04618A60010B0
:100BF000F0B583B005001400012953D113785B06CA
:100C00009B0F012B45D0022B03D0002B01D00020DD
:100C100049E06378022B24D0072B03D0012B19D095
:100C2000002040E0227963791B021343042B03D098
:100C3000052B08D0002036E024331C4A2100280070
:100C400007F0A8FB2FE08D33194A2100280007F098
:100C5000A1FB28E01523174A2100280007F09AFB82
:100C600021E0227963791B021343072B01D0002076
:100C700019E06B469F1D104E02223100380006F02D
:100C80008DF83B883200083A2100280007F082FBEB
:100C900009E05178094806F0E7F92100280007F03B
:100CA0005DFB00E0012003B0F0BDC046C00D002098
:100CB0002C0D002058A600106CA5001030A60010C6
:100CC000F0B5DE4657464E464546E0B591B0804603
:100CD000894693460393052003F06AFD5D4905F0BC
:100CE00039F805F026FF8246002627E006216FE04E
:100CF000002000023F0407432760574BE26813407F
:100D0000AD021D43E560554AA3681A4080235B028B
:100D10001343A360524A1340524A1343A360230073
:100D20004A463100404609F0DBFA43461A6801237F
:100D3000B3409A431343424613600136032E00D951
:100D400081E03401039B9C4664441022002108A8E2
:100D500006F01EF880235B020893F8235B020993D8
:100D60008023DB020A93C0231B030A93102208A9E5
:100D700004A806F013F8059B02933B4B029A13401C
:100D80004A46D20113434A461532120313430593D0
:100D9000079A0292D200D2088021C9050A4307921D
:100DA000324A13400B4305930CAD102204A92800CE
:100DB00005F0F4FF230007CD07C32A681A605B46DD
:100DC000F518280001F0D6FE294B98458ED0072152
:100DD000280001F09DFE012300932A0031004046C7
:100DE00009F02CFA234BE2681340EA031343E36053
:100DF000214A13402B43802252031343E3601F4ACE
:100E000061680A4029060A4362601D4A13406A016C
:100E100013438022D2041343E360504605F0E2FE00
:100E200087B2002F00D163E7380005F082FE011C75
:100E3000504605F022FE8721C90505F03EFE05F06B
:100E4000D1FEC0B255E711B0F0BCBB46B246A946D0
:100E5000A046F0BD00093D00FF83FFFFFFFF0AFE33
:100E6000FFFFF5C1000002107F00FEFFFFFFFF9FA4
:100E700000002050FF7FF0FFE0FF0FFCFFFFFFE0CE
:100E80001FFCFFE3F0B5C64600B5974B1B5C002B7B
:100E90001ED143001B18DB00944A94466344802211
:100EA00012021A60030008339B00914A9B585B0CA6
:100EB000820090495350092B06D080008D4B0022B0
:100EC000C25080BCB846F0BD874B01221A54F4E7EB
:100ED000012B21D0022BF4D10022012A00D989E074
:100EE000834B5968040008340123A3400B426FD19F
:100EF000A3007F495C5883009B189B007E495C508F
:100F00000132EAE702017D4B9B18012252429A60AE
:100F1000754B00221A54D4E70022012A11D8744BD1
:100F20005968040008340123A3400B42EAD1A3000E
:100F30006F495C5883009B189B006F495C500132DD
:100F4000EBE76D4B05016D4EEA58AA515B195B68E2
:100F50007219536053788021CB1A9C46684B440029
:100F6000A0462718FF006446FC50D779CF1B4446A3
:100F70002418E4001B199F60AC5D0C1B5C60947925
:100F8000091BD960517949421961127952425A615B
:100F9000554B02221A5400230124644201E001331C
:100FA000DBB2032B07D81901544A52189268A242A7
:100FB000F5D10134F3E70201504B9B189C60514B73
:100FC000195CFF200002FFF707FBFFF7DBFA78E769
:100FD00002014A4B9B18012252429A60424B002266
:100FE0001A54484B195CFF200004FFF7F5FAFFF78D
:100FF000C9FA66E740490201404B5458D450891859
:1010000049689B1859605E7843001B18DB003C4A16
:101010009B58F61803D4FF2E02DDFF2600E00026C1
:101020000301364A9D5C43001B18DB00344AD31889
:101030005B68ED1803D4FF2D02DDFF2500E00025DD
:1010400002012E4B9B18DC7943001B18DB002C4A55
:10105000D3189B68E41803D4FF2C02DDFF2400E0C2
:1010600000240201254B9B18997943001B18DB00D3
:10107000234AD318DB68C91803D4FF2902DDFF21F6
:1010800000E0002102011D4B9B185A7943001B18F8
:10109000DB001B4FFB181B69D21803D4FF2A02DDAB
:1010A000FF2200E000220701144BDB191B79984650
:1010B00047003F18FF00124B9C4667447F69434638
:1010C000DB1903D4FF2B02DDFF2300E000230B4FCD
:1010D000BC4600013F187E7066463554FC71B971FC
:1010E0007A713B71EDE6C04640170020D8002050D1
:1010F000000020504417002060160020A016002099
:10110000E016002070A6001010B50020FFF7BAFE10
:101110000120FFF7B7FE0220FFF7B4FE0320FFF720
:10112000B1FE10BD10B5704A80235B0113438022CD
:1011300012061A601A606D4A13680F218B43136000
:10114000002344E05900C918CA0069498C4662442A
:10115000684911605900C918CA0067498C46624441
:101160001268002AF6DB654A12681F2010405900F9
:10117000C918CA005E498C46624410605900C918FB
:10118000CA005D498C4662441268002AF6DB574A61
:10119000516818001030012282400A42F7D11A1D0E
:1011A000920052498220C00550505900C918CA0007
:1011B0004F498C466244524911605900C918CA000F
:1011C0004D498C4662441268002AF6DB0133032B3A
:1011D00000D982E04B4AD25C012AB3D0022A43D024
:1011E0005900C918CA0042498C46624441491160FD
:1011F0005900C918CA0040498C4662441268002A46
:10120000F6DB3E4A12681F2010405900C918CA0078
:1012100037498C46624410605900C918CA003649E3
:101220008C4662441268002AF6DB304A5168180086
:101230001030012282400A42F7D11A1D92002B4938
:10124000002050505900C918CA0029498C466244F0
:101250002B4911605900C918CA0027498C466244BD
:101260001268002AF6DBB1E7244A126806321F2012
:1012700010405900C918CA001D498C4662441060CC
:101280005900C918CA001C498C4662441268002AD9
:10129000F6DB164A516818001030012282400A42DB
:1012A000F7D1191D890011488024E4050C500F491D
:1012B00049680A42FBD1191D89000C48C024A404C6
:1012C0000C501149C85C0006084949680A42FBD124
:1012D0001A1D92000549505078E7044A13680F21FF
:1012E0008B430B43136010BDD000205000002050F2
:1012F000D800205040E00000CC002050F013002027
:1013000047E000004017002054170020014B1860F0
:101310007047C046EC0D002010B50023032B09D800
:101320001C01054A12199268824201D00133F5E787
:10133000024AD15410BDC046A01600205417002008
:1013400010B5154B1A68154B1860154B1B68984261
:1013500013D2C31A013B9A4213D90023002B16D093
:10136000FFF7E0FEFA204000002102F021FDFFF728
:10137000CBFE0C48FFF7F4FA10BD984205D9C31A0A
:10138000E9E7074B18600123E8E70023E6E7054893
:10139000FFF7F0FAF0E7C046EC0D0020B828002077
:1013A00058260020A016002070B51049104808F0FB
:1013B00029FF06000F4B186000250BE02B010E4C97
:1013C000E41810220021200005F0E2FC01235B421A
:1013D000A3600135032DF1D9B11D084B1622044835
:1013E000FFF76EFC642002F00FFD70BD74A60010C4
:1013F00000002050F0130020A0160020B0130020A1
:1014000070B50D4805F030FE00250FE008F05EFED7
:101410000A4C6419E07008F059FE607208F056FE3C
:10142000E07308F053FE60750135EDB2052DEDD97E
:101430000A2005F0B5FD70BDF8A60010342200208A
:1014400010B588B001AC1C220021200005F0A0FCE2
:101450000223238006490B00220013CA13C313CAB8
:1014600013C312681A60FFF7CBFF08B010BDC04667
:1014700034220020F0B51C4CA5441C4B1B78002BDB
:1014800002D11B4B9D44F0BDEFF3108772B60023D1
:101490000093184A002101A805F07AFC6C46164911
:1014A00023000A0023CA23C323CA23C312681A6075
:1014B00080267601114D3100280008F0EDFF320042
:1014C0002100280008F0D8FF87F310880C4B1B7808
:1014D000002B03D1054B00221A70D2E701F0C0F9AE
:1014E000074B00221A70F5E7FCEFFFFFC22800202F
:1014F00004100000FC0F00003422002000D0120075
:10150000C5280020014B01221A707047C528002011
:10151000014B01221A707047C228002070B50C4997
:101520000C480B00020031CA31C331CA31C3126802
:101530001A600B88022B01D1012070BD064805F00E
:1015400063FDFFF77DFFFFF7E3FF0020F5E7C046EF
:101550003422002000D0121008A70010012070478C
:1015600010B5842292000021014805F011FC10BD45
:10157000D01D002010B50020FFF7F2FF10BD0000C5
:10158000F0B583B005000E001700FFF761F90128E0
:1015900038D13279D400A41AA4B21934A4B2BC420E
:1015A00034D80023032B10D85801C01880001A4FDC
:1015B00038184078002802D00133DBB2F2E75F012F
:1015C000FF18BF0014497F1800E00027002F1FD02C
:1015D0003378F118F35CC9187B1C0193BB1C009392
:1015E0000323280006F0FAFA002813D0B3783B70E2
:1015F000B978002907D03A0044324023280006F089
:1016000047FB00E00024200003B0F0BD0024FAE70F
:101610000024F8E70024F6E7D01D0020F0B5C64608
:1016200000B582B004000020032811D8420112182E
:101630009200284DAA1892788A4209D042011218C5
:101640009200AA1852788A4202D00130C0B2EBE769
:1016500003283BD805004201121892001D4EB21813
:1016600052788A420CD0420112189200194EB218D8
:1016700092788A4211D0012002B080BCB846F0BDF9
:10168000154A002A24D0410109188900891904311A
:101690009AB2FFF7BDF90120EEE747013E18B60008
:1016A00040360C4A9046464404369BB200933300C1
:1016B00000220021FFF7B2F97F19BF004744B97833
:1016C00040233200200006F0E3FAD5E70020D3E7FC
:1016D0000120D1E7D01D0020110A0010F8B5060046
:1016E0000D00140006F0B6F900280CD173019B1907
:1016F0009B00144AD3185F783900002006F0A0FA46
:10170000002803D1F8BD06F0ADF9EFE7231C402C0B
:1017100000D940239CB270018619B60009483618DA
:10172000043622002900300005F038FB2300320087
:101730003900002006F0ACFA3900002006F094FAD7
:10174000E0E7C046D01D002010B503004001C018DE
:101750008000114B1818447806F074F9002806D15F
:101760000023002B13D0002C09D1002010E006F03C
:1017700071F9002801D10123F3E70023F1E72100EB
:10178000002006F0C1FA002803D1013000E000205B
:1017900010BD0020FCE7C046D01D002010B53C2243
:1017A0000021024805F0F4FA10BDC046F4130020F1
:1017B00010B50020FFF7F2FF10BD0000F0B583B0B8
:1017C00006000F001500FFF743F8C41E631E9C417E
:1017D000E4B2FFF73DF80238431E984120424CD155
:1017E0003B79DC00E41AA4B21234A4B2AC4248D86B
:1017F0000023002B09D00025002D44D0397879181A
:101800004B78212B11D0002438E01A01D21A920013
:101810001F4882185278002A02D00133DBB2E8E771
:101820001A01D11A89004518E6E7A9630B78C9188F
:101830003A796B1C0193AB1C00930323300006F034
:10184000CDF9002821D0BB79012B13D001232B71B6
:10185000BB782B70AA6BD179137A1B020B43EB80F8
:10186000A97800290AD02A0030320623300006F079
:101870000FFA03E0FB79EB70E8E70024200003B0E7
:10188000F0BD0024FAE70024F8E70024F6E7C0469C
:10189000F413002070B582B005001D4C0020002814
:1018A0000AD0002830D162788A4213D0A2788A42C6
:1018B0001AD0012002B070BD0401241AA400144AF9
:1018C0001419A2788A42ECD062788A42E9D00130B9
:1018D000C0B2E4E70F4A002A18D0210008319AB2BA
:1018E000FFF796F80120E5E7260030369BB200931B
:1018F000330000220021FFF791F8A178062332007F
:10190000280006F0C5F9D5E70020D3E70120D1E78C
:10191000F4130020110A0010F0B5C64600B582B0DD
:101920000600150012781F231340012B00D01FE181
:1019300028790024002C0DD0FF24002C00D01CE1BD
:101940002700602318001040134239D101290BD021
:1019500001200EE123011B1B9B008E4FDB5D984293
:10196000EBD00134E4B2E5E7EA786B78062B06D0D9
:10197000062B00D005E1222A12D00020F9E0212A0E
:10198000F6D123011F1BBF00824BDF19BA6B002A5F
:1019900000D1F4E013782900300006F0FBFCE8E009
:1019A0002000FFF799F802003B01DF1BBF00794BD5
:1019B000DF19FB882900300006F0ECFC0120D8E09C
:1019C000202800D0DFE06B780B2B00D9DDE09B00F6
:1019D000714AD3589F46012901D00120C9E0EA7815
:1019E000A97823011B1B9B0008336A4FFF18A879B5
:1019F000EB791B020343181C252B00D9252080B24C
:101A0000002909D0012B16D97B1C9C46397001385E
:101A100080B20123984602E0BC460023984600901D
:101A200063462000FEF7F2FF030043449BB2002B05
:101A300005D100209DE0BC4600239846EFE73A0020
:101A40002900300006F0A6FC012092E0012903D015
:101A5000032915D001208CE0AA79EB791B021343EE
:101A6000062B01D9002084E02201121B92003032A3
:101A700048498A182900300006F08CFC012078E0E3
:101A8000EA78A97823011B1B9B0030334148C31817
:101A9000AE79E87900023043051C062800D90625F6
:101AA000ADB2002904D0012802D91878884205D0A7
:101AB00000952000FEF7B2FF01205AE00133013DFE
:101AC000ADB2F5E7012901D0012052E0E978230108
:101AD0001F1BBF002F4BDF197971304B002B04D037
:101AE000200000E000BF002843D02900300006F0AD
:101AF00035FC01203DE0012901D0012039E022011F
:101B0000171BBF00234AD2190532012329003000D8
:101B100006F040FC01202CE0012901D0012028E042
:101B20002201171BBF001B4AD219043201232900CE
:101B3000300006F02FFC01201BE0012903D003290F
:101B400007D0012015E02900300006F007FC012035
:101B50000FE0A97823011F1BBF000E4BDF1939715D
:101B60000F4B002B13D0200000E000BF012000E04D
:101B7000002002B080BCB846F0BD0020F9E700208C
:101B8000F7E70020F5E70020F3E70020F1E7012068
:101B9000EFE7C046F41300200CA80010000000007E
:101BA0000000000010B50301181A8000104B18182F
:101BB000447805F047FF002806D10023002B13D0FE
:101BC000002C09D1002010E005F044FF002801D1CD
:101BD0000123F3E70023F1E72100002006F094F849
:101BE000002803D1013000E0002010BD0020FCE7F8
:101BF000F413002010B50020FFF7D4FF10BD000043
:101C0000F8B504000F0016001D0003011B1A9B000D
:101C10001F4AD3185978002006F012F8002825D062
:101C2000002F24D02B1C242D00D924239DB2184A28
:101C30002301191B890051180F721B1B9B000833CD
:101C4000D01801302A00310005F0A8F80135ADB2F6
:101C50000F4B2001021B920008329A18001B8000D3
:101C6000181841782B00002006F012F8F8BD2B1C44
:101C7000252D00D925239DB22001001B80000830AE
:101C8000034B18182A00310005F088F8E0E7C04639
:101C9000F413002010B513000A0001000020FFF724
:101CA000AFFF10BD10B58001034BC01840220021CA
:101CB00005F06EF810BDC04688170020014B19547E
:101CC0007047C0468818002083010248C01801737D
:101CD0007047C0468817002083010248C01841732E
:101CE0007047C0468817002010B5084A0021535E8F
:101CF0001478800106494454033399B21BB213800F
:101D0000FF2B01DDFF39118010BDC046BC2800202B
:101D10008817002083010248C018012343707047D0
:101D20008817002083010648C018032383734822C4
:101D3000C2730374013B4374473A0276437670479B
:101D40008817002070B5CEB20D0A00230AE01C00EF
:101D50000E348101054A5218165519000F31555499
:101D60000233DBB20D2BF2D970BDC04688170020BC
:101D700030B5C4780325455743780821194001221E
:101D800093437E322240012B01D9002907D0402AFB
:101D900007D9002D01DB012004E0002002E0012032
:101DA00000E0002030BD10B504000800FFF7E0FFA0
:101DB00001002000FFF7B0FA10BD000030B50D4B58
:101DC00082010121D1549B1800225A7003329A706B
:101DD00000210CE0CC1C43001B185A00064B9B183A
:101DE0005B18DD788201034B9B181D5501310529D5
:101DF000F0D930BD881700203422002070B50400CF
:101E00000D00FFF74FFF81212000FFF757FF012D45
:101E100010D029000B4805F027F9A3010A4A9D5468
:101E2000A201094BD218094B195D4023200006F08E
:101E3000BBFE70BD064805F017F92000FFF7BEFF96
:101E4000EEE7C04644A9001088170020881800203B
:101E50002CA9001070B586B004006846204B020023
:101E600061CB61C261CB61C202291FD003292DD091
:101E700081212000FFF728FF1A4EA50173190122C6
:101E80009A7328000F308019610009194900164C17
:101E900009190331053204F081FF2800153080193B
:101EA0001822694604F07AFF06B070BD8121200037
:101EB000FFF70AFF0B48A401031902229A730F349B
:101EC00020180E32094904F069FFEDE78121200056
:101ED000FFF7FAFEA401034804190323A373E3E701
:101EE000BCAB001088170020342200209419002079
:101EF000F8B505000C0016001F00FFF7D3FE2121E6
:101F00002800FFF7DBFE2800FFF7EEFE2800FFF7B2
:101F100001FF21002800FFF7DFFE6D4805F0A4F85F
:101F2000482C00D9A8E0A1006A4B5B589F466A483C
:101F300005F06AF880212800FFF7C6FE674805F023
:101F400093F80024B6E0F17A654805F08DF8802119
:101F50002800FFF7B9FEF1E7624805F055F8F17A7D
:101F60002800FFF777FFE9E7F17A5F4805F07CF892
:101F700080212800FFF7A8FEF27A5C4B5A55DDE776
:101F80005B4805F041F882212800FFF79DFE2800FC
:101F9000FFF7C8FED2E7F17A564805F065F88021D0
:101FA0002800FFF791FEC9E7317BF27AF37B5248B4
:101FB00005F05AF890212800FFF786FEF37BF27AAD
:101FC000317B280000F026FAB8E7317BF27AF37B08
:101FD0004A4805F049F880212800FFF775FE337B59
:101FE000802BABD1F37A262BA8D10024192C0BD847
:101FF00023001033F15C424805F036F80A2004F063
:10200000CFFF0134A4B2F1E70020FFF781FA95E792
:102010003C4804F0F9FF83212800FFF755FE6421B6
:102020002800FFF78FFE89E7374804F0EDFF802195
:102030002800FFF749FE81E7344805F015F88021B4
:102040002800FFF741FEF27A0F231340072B0BD035
:102050000F2B0DD0032B03D02D4804F0D5FF6DE7D7
:102060002C4804F0D1FF69E72B4804F0CDFF65E769
:102070002A4804F0C9FF61E72100294804F0F4FF71
:10208000002405E0315D274804F0EEFF0134A4B2DE
:10209000BC42F7D30A2004F083FF80212800FFF719
:1020A00013FE4BE7A101204BC9181E4804F0DCFFCA
:1020B0000134E4B21F2CF5D90A2004F071FFAA0103
:1020C000194BD21840232121280006F06DFDF8BDE0
:1020D00060A9001084AA001068A900107CAA001052
:1020E00078A9001088A9001098A90010200E0020DF
:1020F000B0A90010C4A90010D8A9001000AA0010AF
:1021000028AA001030AA001040AA001054AA0010FB
:10211000C8A60010D4A60010E0A60010ECA600107F
:1021200064AA001074AA00108817002070B505007A
:1021300014001E00102911D0802913D0012903D0CA
:102140000A4804F091FF08E0911CFFF72CFEA17AE9
:10215000330022002800FFF7CBFE70BD911CFFF773
:1021600022FEFAE75178FFF749FEF6E7A8AB001028
:10217000094B1B780A2B07D00B2B09D0064B0A22E0
:102180001A70054B18787047034B0B221A70F8E74A
:10219000014B0C221A70F4E7240E002070B50400E5
:1021A0000D00274B1B5C002B04D1264B1B5C302BF6
:1021B0000ED070BD8201244BD2184100234BCB5A64
:1021C0002349095CFFF7B2FF1D4B00221A55F0E7C7
:1021D000FFF768FD30212000FFF770FD2000FFF7BA
:1021E00083FD2000FFF796FD2B78A201194EB6184B
:1021F000B3706B78F370AB783371EB7873712B79C4
:102200000F210B40B3716879AB791B0203431B119B
:10221000F371EB7933722B7A19407172697AAB7A68
:102220001B020B431B11B372FFF7A2FFF0720A4BA4
:10223000195D40233200200006F0B6FCB9E7C04625
:102240008C190020200E00208C180020180E002071
:1022500090190020881700208818002070B50C0005
:1022600011001A00064B01251D54064B1C54440056
:10227000054BE2528001054BC01804F08FFD70BD84
:102280008C19002090190020180E00208C180020B6
:1022900010B514001A0080014018034940182100AD
:1022A00004F07CFD10BDC04688170020502800D1E6
:1022B0009FE003D960281ED0FF2013E0402800D9FA
:1022C00099E0202808D3242900D198E00BD80129CF
:1022D00000D096E0222005E0002803D0102800D08E
:1022E0008BE0002070472639C9B2252901D8FF208C
:1022F000F8E70020F6E7A92979D88B00434AD3589C
:102300009F46FF20EEE70220ECE70120EAE72320CA
:10231000E8E70020E6E7B920E4E71A20E2E7012039
:10232000E0E70020DEE74020DCE70020DAE740209D
:10233000D8E70020D6E74020D4E70120D2E70020EC
:10234000D0E70120CEE70020CCE70120CAE700203B
:10235000C8E73B20C6E73420C4E73B20C2E734206F
:10236000C0E73B20BEE73420BCE73D39284B585C32
:10237000B8E73D39264B585CB4E71A20B2E71A207B
:10238000B0E71A20AEE75E20ACE70120AAE75020B4
:10239000A8E7FD20A6E70020A4E70020A2E7C620CA
:1023A000A0E70F209EE70F209CE730209AE76120EE
:1023B00098E7AE2096E7902094E7D92092E7D420C2
:1023C00090E714208EE754208CE741208AE71520FF
:1023D00088E7542086E7C72084E7792082E79C209D
:1023E00080E733207EE736207CE763207AE7002011
:1023F00078E7002076E7FF2074E7FF2072E7682087
:1024000070E700206EE703206CE7C046D4AB0010F5
:102410008C280020F0B5C64600B58AB080460E0074
:1024200017001D0008AA1770517000249470D47012
:10243000137105230E21FFF72BFF00941A220021B0
:1024400001A804F0A5FC07E03919C9B23000FFF774
:102450002DFF6B4618550134A542F5DC2B006A466A
:1024600013214046FFF714FF0AB080BCB846F0BD08
:1024700010B5054B1B78002B00D010BDFFF7BAFB41
:10248000014B1870F9E7C046C0280020F8B5DE46B9
:1024900057464E464546E0B58346694B21221A70A1
:1024A000002600E00136032E00D987E033015B44AB
:1024B00099680029F6DBCA0051180131604D6C5C47
:1024C00014273C436C54DC78E407E40F5D49012099
:1024D0008146555C85432C435454DC78A407E40FB3
:1024E0006400555C0227BD432C435454DC786407D8
:1024F000E40FA400555C0330844685432C435454B8
:10250000DC782407E40FE400555C04308046854302
:102510002C435454DD78ED06ED0F8C1860784F464F
:10252000B843054365709D786D06ED0FED0060784A
:102530004746B843054365709D78AD06ED0FAD0085
:1025400060786746B843054365709D78ED06ED0FEA
:102550006D006078023FB843054365709D786D0754
:10256000ED0FAD01575C402087433D4355549D78A6
:10257000ED07EF0E555C303885433D4355549D784B
:10258000AD07ED0F6D01575C103087433D43555447
:102590009D782D07ED0FED01505C7F2707403D43EF
:1025A00055545A78A2701A78E270DA7922719A79C1
:1025B00062715A79A2711B79E37173E7224B1B7820
:1025C000002B1AD11E4B0422597811435970997A65
:1025D00011439972D97C1143D974197F0A431A7730
:1025E000194B01221A70FFF705FB002821D1F0BC1E
:1025F000BB46B246A946A046F8BD114C114DA01CE1
:102600000822290004F0CAFB20000B302900083101
:10261000082204F0C3FB230014332A00103203CA3B
:1026200003C320001D3029001831082204F0B6FB36
:10263000D9E7252202490020FFF72CFBD7E7C04647
:10264000F02000204C210020BF28002010B50400FD
:10265000037B002B02D18068002816DA237F002B31
:1026600002D1A069002815DA230020331B7B002B40
:1026700002D1A06A002812DA230030331B7B002B22
:1026800002D1A06B002811DA10BDC0B206F064FAC6
:102690002073E3E7C0B206F05FFA2077E4E7C0B248
:1026A00006F05AFA230020331873E5E7C0B206F0AB
:1026B00053FA30342073E7E7F0B5DE4657464E460E
:1026C0004546E0B583B00190002300933CE0012132
:1026D00093009B185B009B186048C318C8019F7843
:1026E0007F2139400143997023793C2B03D8A1788D
:1026F0008906C80F00E00120584F93009B185B002B
:102700009B18C001D95D8C467F2165462940014355
:10271000D95561780901FB18D970090A1971217816
:1027200009015971090A9971E1790901D971090AF7
:102730001972A17909015972090A9972237B002B38
:102740007AD1009B01330093009B032B7FD8009B21
:102750001C01019B9C466444A268002AF1DBA77817
:102760007F07FF0F3D4993009B185B009B18C8181B
:102770000125AA468678AE4337438770A778BF07FE
:10278000FF0FBF0086780335A846AE4337438770F6
:10279000A778FF073E0F87780435A946AF43374334
:1027A0008770A7783F07FF0F7F008578AB4602252B
:1027B000AC465D466646B5432F438770E7783F07D2
:1027C000FF0F5D5C5646B5432F435F54E7787F07A4
:1027D000FF0F7F005D5C6646B5432F435F54E7788B
:1027E000FF073D0FAA465F5C4D46AF4355462F435A
:1027F0005F54E778BF07FF0FBF005D5C4646B543F7
:102800002F435F54E778FF06FF0F7F004578664649
:10281000B5432F434770A078C006C00F80015F5CAE
:102820004025AF433843585463793C2B00D94EE7D9
:10283000A1784906C90F4BE791008918490089180A
:102840007918D0B2FFF7AAFC0023237379E703B00D
:10285000F0BCBB46B246A946A046F0BD6C210020A4
:1028600010B50A4804F0D0FB094C4022002120009A
:1028700004F08EFAF123237040222100002006F09C
:102880000FFC002006F02AFC10BDC046FCAF001073
:10289000901D002010B50378AF2B0BD0F12B17D073
:1028A0000F2B00D010BD0E4803F000FA03000021EA
:1028B000080098470B49AF230B7000234B708B70B7
:1028C0004022002006F0ECFB002006F007FCE9E7C0
:1028D000054804F099FBFEF715FEFEF719FEE1E747
:1028E00055420000901D002014B0001010B504F0F7
:1028F00020F9114904F0C1F804F07CF90F4A104B9B
:1029000003F093FC03F04AFD8721C90504F0D5F8D4
:10291000041C0C4904F008F9002807D10A49201CBE
:1029200004F0FCF8002802D0074C00E0054C201C05
:1029300004F026F900B210BD0000FE427B14AE4741
:10294000E17AF43F00FAFF4600FAFFC610B5040032
:10295000037B002B02D18068002816DA237F002B2E
:1029600002D1A069002815DA230020331B7B002B3D
:1029700002D1A06A002812DA230030331B7B002B1F
:1029800002D1A06B002811DA10BDC0B2FEF7DCFE48
:102990002073E3E7C0B2FEF7D7FE2077E4E7C0B2CA
:1029A000FEF7D2FE230020331873E5E7C0B2FEF72E
:1029B000CBFE30342073E7E7F8B5CE46474680B506
:1029C0008046002716E0FF21B3009B199B004F4A69
:1029D000D3181971AB789B0601D4297900E0FF2147
:1029E000B3009B199B00494AD31859712B7B002BCC
:1029F0007CD10137032F00D983E03D014544A9680C
:102A00000029F6DBCBB29946FF260E406878FFF727
:102A10006DFFB400A419A4003C4B1C19E080287879
:102A2000FFF764FF2081E879FFF760FF6081A879F4
:102A3000FFF75CFFA081AB781B07DB0FA2780121B9
:102A40008A431343A370AB785B07DB0F5B00A1786D
:102A5000022291430B43A370AB78DB07590FA37895
:102A6000042083430B43A370AB789B07DB0FDB0091
:102A7000A178043081430B43A370EB78DB06DB0FB6
:102A80001B01A078102188430343A370AB78DB06B9
:102A9000DB0F5B00E07890430343E370EB78DB07E8
:102AA000DA0EE3788B431343E370EB789B07DB0F7D
:102AB0005B01E27810318A431343E370EB785B07E4
:102AC000DB0F9B01E27820318A431343E370EB78FC
:102AD0001B07DB0FDB01E1787F220A401343E37021
:102AE000AB785B0600D56EE769796DE7B1008919AF
:102AF0008900511814224846FEF7F0FD00232B737D
:102B000077E7C0BCB946B046F8BDC0469821002062
:102B100010B58300084A944663441C684022624012
:102B2000C02414408022520113431C60C000034B98
:102B30009C466044416010BD04C00140004001401B
:102B400080000B4B9C46604400290DD00823002ACE
:102B50000CD004221343026853400C2213408022FD
:102B600052011043036070470023F0E70022F1E7B1
:102B700004C0014010B501238340D02212069362A5
:102B800093610521FFF7C4FF10BD0000034B1B68D4
:102B900002201840431E9841C0B2704700C0064052
:102BA000EFF3108072B6034B1B68002BFBD0BFF312
:102BB0005F8F70472C0100D0BFF35F8F024B002264
:102BC0001A6080F3108870472C0100D0F8B5060019
:102BD0000C001500FFF7E4FFE308F718F15C07228B
:102BE0002240012393400B4205D1DBB20B433B70E3
:102BF000FFF7E2FFF8BD2100280001F097FFF0B5D4
:102C000083B00600019114001F00FFF7C9FF00E028
:102C10000134BC420CD8E308F518F35C07212140CD
:102C200001228A401A42F3D1D2B21A432A7001E03B
:102C300001246442FFF7C0FF002C02DB200003B038
:102C4000F0BD019B002BF9D0089801F06FFF000048
:102C5000002307E0054A9A189200BFF35F8F002116
:102C6000116001331F2BF5D97047C0464000003476
:102C7000054A1078431CDBB21370172B02D91300DE
:102C800010221A707047C046250E002000B583B090
:102C90000100044B00931F2318220348FFF7AFFFE6
:102CA00003B000BD90B0001020210020074B9B68AE
:102CB000103080001950BFF35F8FBFF35F8F044B5C
:102CC0000021196082F310887047C04600ED00E0D3
:102CD000240100D010B5091A081F0A4B9C46614414
:102CE000094A914208D8C30706D440104005400D58
:102CF000064B184380B210BD054B064AA321064877
:102D000001F07AFEFC070000FE0F000000E0FFFF6C
:102D1000ACB000101CB30010DCB0001010B5091AE4
:102D200004394C08090B08D14905490D064A1143DD
:102D30000180064B2343438010BD054B054AAB2160
:102D4000054801F059FEC04600F0FFFF00F8FFFF04
:102D500038B10010F0B20010DCB000100123834045
:102D6000034A10681840431E9841C0B27047C046DD
:102D700000E100E0002904D0034B1860034B186009
:102D80007047034B1860FBE780E200E000E100E0E1
:102D900080E100E010B5012383401800FFF7EAFF4F
:102DA00010BD0000024B9B6810308000C058704777
:102DB00000ED00E070B504000D00EFF3108672B670
:102DC0000C4B1B68002BFBD0BFF35F8F2000FFF77D
:102DD000E9FF094B984201D0A84205D132002900F1
:102DE0002000FFF763FF70BD044B054A86210548AC
:102DF00001F002FE240100D0CD01001048B1001006
:102E000050B30010DCB00010F0B5DE4657464E4619
:102E10004546E0B589B0814601911500EFF3108A6F
:102E200072B6744B1B68002BFBD0BFF35F8F724BE5
:102E30000027DF57002F40DB7C00E419A4006F4817
:102E400024180622A2566C4B1A706D4B9A684B469A
:102E500010339B00D35898461E001B1A2F2B38D9CD
:102E6000684B98452FD105AE674B33807B009B465E
:102E7000D8198000614B9846404402306349FFF7FF
:102E800029FF7080624BB380FF23B371F571019B02
:102E900007935F44BF0047440ECE0EC701231C4377
:102EA000A046524641464846FFF700FF09B0F0BC35
:102EB000BB46B246A946A046F0BD564B564AD7215E
:102EC000564801F099FD564B534ADE21534801F014
:102ED00093FDC04340440C2102F03CFF002912D175
:102EE00001239E43B34633000026DA79AA4211D962
:102EF0000621595600290CDB4A00521892001E0088
:102F00003E4B9B18F1E7474B434AEA21434801F007
:102F100073FD1E00002E3AD005AB434A1A80813A59
:102F20005A800623F3560293002B17DA3F4805AB6D
:102F30009B469880029A9A71DD71019A0792301D22
:102F40002100FFF7C7FEB080B7717B00DB199B0043
:102F50002A4FFF185B4607CB07C7A2E77800C019C6
:102F60008000264BC0180430321DB388D90A1C29B2
:102F700007D15B055915023149005118FFF7AAFE28
:102F8000D5E72B4B2B4AB121244801F035FD05AE86
:102F90001D4B33807B000293D8198000174A90465E
:102FA000020042440392901C1849FFF793FE708080
:102FB000039A101D5946FFF78DFEB0801E4B5A46EE
:102FC0004146521A524153431B0DB371F571019A98
:102FD0000792029B9C466744BF0047440ECE0EC733
:102FE000114B5A461380813B538001231C43A0465A
:102FF00057E7C046240100D0CC280020280E00202E
:1030000000ED00E0CD01001000A1FFFF580E0020F0
:1030100001BDFFFF80B1001038B30010DCB000101C
:10302000A8B10010D0B100100148000001BD00009F
:1030300044B2001028B30010AAAA0000F0B5CE4692
:10304000474680B583B006000D00EFF3108872B6D6
:10305000564B1B68002BFBD0BFF35F8F544B9A6815
:1030600034001034A300D758524B9F4207D0AF42D0
:1030700000D198E00197504BFB1A2F2B09D94246FB
:1030800039003000FFF712FE03B0C0BCB946B046AD
:10309000F0BD3000FFF762FE814600213000FFF7EF
:1030A00079FEBFF35F8FEFF30581002901D08C42D9
:1030B00011D10123019C9C430022A368AB4212D092
:1030C0000622A256002A0DDB53009B189B0022000B
:1030D000394CE418F1E73621384B394AFF31394889
:1030E00001F08AFC2200AB4256D106256557002D1F
:1030F00038DB6B005B199A002F4B9B189A68A26013
:10310000DA79E27106229A56A2719B795BB2002BA2
:103110000FDA2D48A0806B005B199B00264AD3185C
:103120002A4A11789971157049463000FFF732FE2E
:10313000A5E7201D6B005B199B001F4A9B181A1DF9
:103140009B88D90A1C2907D15B055B1502335900FE
:103150005118FFF7BFFDDDE71D4B1E4AB12119488D
:1031600001F04AFC002912D1002A0ED0FF239371EE
:10317000194B9380154A1378A371184B0E49641AA2
:10318000644163431B0D1370CEE70A4FF2E7201D25
:103190001349FFF7C3FDC7E76A21124B084AFF3105
:1031A000084801F029FC034F69E7C046240100D01C
:1031B00000ED00E0CD010010280E00205CB20010F0
:1031C00008B30010DCB0001001BD0000CC280020C6
:1031D00044B2001028B3001001BDFFFFAAAA0000EE
:1031E000620E002090B2001070B5012101432E4BF9
:1031F000CB1A2F2B28D8EFF30583002B2BD0EFF31E
:10320000108C72B6294A1268002AFBD0BFF35F8F78
:10321000274A0400244D641B64416243120D54B2DA
:10322000244A92689B00D2588A421BD00022032A6B
:1032300032D853009B189B001B49CB189B795BB27B
:10324000A3421FD00132F2E7C7211B4B1B4A4900A2
:103250001B4801F0D1FB92211A4B184AFF31184844
:1032600001F0CAFB134A92681749D150174B1A78DC
:1032700082711C70BFF35F8F0C4B00221A608CF3BD
:10328000108870BD0D005300991889006918FF2639
:103290008E710F4A8A80E9E7D1210E4B074A490017
:1032A000074801F0A9FBC046280E0020240100D0E9
:1032B000AAAA000000ED00E098B20010D4B20010FD
:1032C000DCB00010C0B20010CD010010CC280020EE
:1032D00001BDFFFFCCB200100022044B02E0044904
:1032E00002C30132072AFAD97047C04600E400E061
:1032F00080808080024B9C46614489000160704759
:103300004000003410B50400FFF7B2FC01002000BB
:10331000FFF7F0FFFF232371BFF35F8F10BD10B5E0
:103320000400FFF7A5FC01002000FFF7E3FFFF23E7
:10333000237100236371BFF35F8F10BD034B9C4665
:10334000614489000160BFF35F8F70474000003423
:1033500010B504000120FFF799FC01002000FFF7E1
:10336000EDFF10BD70B505000C00080000F0DCFE9C
:103370000949200000F01CFEFFF77AFC074B9C4631
:103380006044800068602C75D0231B061B786B7529
:10339000A400034BE55070BDA93600104000003476
:1033A000642600200A4B1A68EFF3108172B6136886
:1033B000002BFCD0BFF35F8F054B1B68BFF35F8F03
:1033C00000221A6081F3108840BF0020002170475E
:1033D0008028002010B5002922D003681B7B994269
:1033E0001ED8174B9C466144090183689C46614482
:1033F0000C684968002A19D003681B7B9A4215D8CB
:1034000083680F488446624412019A181068536812
:10341000020001208B4201D80ED00020C0B210BDA6
:10342000084B094A3C21094801F0E6FA054B064AD7
:103430003C21064801F0E0FAA242EFD8EDE7C04691
:10344000FFFFFF0F38B50010B8B70010E4B400104C
:1034500010B500291ED0037B99421BD84B005B1886
:10346000033B0468A4466344002919D0002A1DD0F8
:10347000914221D0002A25D0047BA24222D80468A0
:1034800050008018033820188170197800291FD146
:103490001A7010BD104B114A6821114801F0ACFAA6
:1034A000104B114A6F310E4801F0A6FA0F4B0E4A2D
:1034B00070210B4801F0A0FA0D4B0B4A712108480E
:1034C00001F09AFA044B054A6821054801F094FA84
:1034D00041701A70DDE7C0465CB5001024B80010DA
:1034E00078B50010E0B5001000B80010ECB5001081
:1034F000F8B5001070B506000D001400002914D0B6
:10350000002A14D0806873689847002806D02200EB
:1035100029003000FFF79CFF280007E02A00210067
:103520003000FFF795FF200000E0100070BD08009C
:10353000FCE70000F0B583B00500009201930AABF0
:103540001C780BAB1F78002C26D003685A7B944262
:1035500007D10123002B19D1002C3BD1200003B04F
:10356000F0BD002C0CD01A7B944209D81A68630075
:103570001B19033BD3189B78002BEBD00123E9E701
:103580003E4B3F4A68213F4801F036FA3E4B3F4AE6
:1035900067213F4801F030FA03689C7B002CDBD0A8
:1035A00012D01A7B94420FD862001219033A19689C
:1035B0008C46624451789973002900D1D973002355
:1035C000937053701370C7E72C4B2D4A68212D4818
:1035D00001F012FA002C3AD02B681B7B9C4236D8A3
:1035E0002C4BE3181B01AA6894466344009A1A60A6
:1035F000019A5A60089A9A60099ADA602E68002C3B
:103600002BD030D0337B9C422DD863001B19033B59
:1036100032689446634400229A705A701A70717B23
:1036200022003000FFF766FF7073844200D095E7F8
:10363000287D009A019B00F003FD061E01D0002F9B
:1036400017D00C9B002B00D188E71E7086E7124B29
:10365000124A3C210E4801F0CFF9114B114AA52125
:10366000084801F0C9F9054B054A6821054801F0F1
:10367000C3F92868210000F01BFFE2E75CB50010E9
:1036800024B8001078B5001010B6001030B8001043
:10369000E4B40010FFFFFF0F38B50010B8B70010FA
:1036A000E0B4001014B80010F0B5DE4657464E46A0
:1036B0004546E0B58BB00990002308938200B54BD6
:1036C000D658370052E0B44BB44A3F21B44801F019
:1036D00093F9B44BB44A3C21B44801F08DF9002968
:1036E00001D1002869D10021404600F0D7FEA04258
:1036F00019D12A686B6806920793AB689846EB6805
:103700009A464346002B14D0002C18D03B681B7BF4
:103710009C4214D8631EFA68D35C08931B021843BA
:103720003861002015E0A24BA24A8E219F4801F08B
:1037300063F9A14B9F4A92219C4801F05DF9994B96
:103740009E4A4121994801F057F900239A4698462C
:1037500000207B68BFF35F8F00221A6086F3108819
:103760004346002B32D1002800D10CE100F000FCD0
:1037700002000B1EA7DB002000210690079178684D
:10378000EFF3108672B601680029FCD0BFF35F8F9B
:10379000396888464C7B002CD7D09AD0097B8C4264
:1037A00097D8874965182D01B9688C466544286803
:1037B0006968801A9941002991DD2A686B68099827
:1037C00000F03EFC00239A469846C2E7089B1B0285
:1037D0002343994651461800C04705000E007A68F9
:1037E000EFF3108B72B6136859424B41D9B2002BDC
:1037F000F9D1BFF35F8F002E1EDB002E46DD3B6943
:10380000002B47D04B456DD100F0B2FB02000B1EE0
:103810006EDB52197341002B70DB002B72DB002131
:103820000491013103910294514601914146009166
:103830003800FFF77FFE4CE03B69002BDDD04B45A5
:1038400014D1069A079B521BB341002B14DB002BAB
:1038500016DB00210491013103910294514601913C
:10386000414600913800FFF765FE32E0554B514A62
:10387000A1214E4801F0C0F801225242524BE6E726
:10388000454B464A3F21464801F0B6F8002E01D18B
:10389000002DB4D13B68002C50D05A7B944237D1D4
:1038A000012100294AD1DA7B002A4DD19A7B002AD6
:1038B00003D1DA7B002A5AD19C73DC73002C5CD0D4
:1038C0003B681B7B9C4258D8FA68013C135D01336E
:1038D000135500233B617A68BFF35F8F13608BF34E
:1038E000108843E7374B334AA421304801F084F86D
:1038F000294B2A4A3F212A4801F07EF801225242F0
:10390000314B8AE7244B254A3F21254801F074F8C2
:10391000002C0DD01A7B94420AD862001219033A87
:103920001868844662449278002ABAD00121B8E728
:10393000264B274A6821274801F05EF8264B274A84
:10394000F621244801F058F8002A0AD0197B8A424F
:1039500007D851008A18033A19688C46624454709B
:10396000A4E71A4B1A4A68211A4801F045F81C4B83
:103970001A4AFB21174801F03FF80A4B0F4A412130
:103980000A4801F039F80BB0F0BCBB46B246A94674
:10399000A046F0BD64260020DCB3001084B7001000
:1039A000F8B3001038B50010B8B70010E4B4001038
:1039B00038B600109CB7001050B60010DCB70010ED
:1039C000FFFFFF0F5CB60010FFFFFF7F5CB500102C
:1039D00024B8001078B5001098B60010F0B70010A9
:1039E000BCB6001010B50C4B5B68002B04D00A214C
:1039F0000A48FFF77FFC10BD074C2300084A10213E
:103A0000206800F05BFC032000F0A6FA03212000F0
:103A1000FFF7A8FCEBE7C046700E002080280020CE
:103A2000D533001010B5064B5B68002B01D004485D
:103A300010BD044B044A5E21044800F0DDFFC0467F
:103A4000700E0020D0B60010C4B70010E4B400100F
:103A5000F0B5DE4657464E464546E0B58BB080464B
:103A600016001F00149B9A46159B994616AB1B78AF
:103A70009B461F2302AA9446634400221A702BE03F
:103A8000002809D042461268127B904204D8421E98
:103A90004146C9688A5C41E0404B414A4121414866
:103AA00000F0AAFF07984CE0361BAF41002F07DB60
:103AB000002F11DA3C4B3D4A3F213D4800F09CFF6E
:103AC000012676423B4FF3E7374B384A3F213848CF
:103AD00000F092FF002F4FDB43465A68EFF310844B
:103AE00072B6136859424B41D9B20791002BF8D1F5
:103AF000BFF35F8F1F3302AA9446634404930023ED
:103B0000039302934B4601935346009332003B00CC
:103B10004046FFF70FFD031EB2D10200414649683F
:103B2000BFF35F8F00250D6084F31088002B29D030
:103B30001F2302A98C4663441B78002BB2D11202CA
:103B40001043002B20D05B46002B1DD04946D047A8
:103B500004000D0003000B431DD00029A4DB00F07E
:103B600007FA06000F1EAFDB36196F41002FB1DADE
:103B7000012676420F4FADE70B4B0C4A3F210C4814
:103B800000F03AFF012040420BB0F0BCBB46B24609
:103B9000A946A046F0BD0798F6E7C04638B5001024
:103BA000DCB70010E4B40010DCB3001084B70010E0
:103BB000F8B30010FFFFFF7FF8B50400002900D123
:103BC00062E04268EFF3108572B6136858424341D1
:103BD000D8B2002BF9D1BFF35F8FCBB22268567BEE
:103BE000B3421BD10120002848D0206988422BD045
:103BF000090AC9B2002B2ED02068007B83422AD844
:103C0000581EE668305C88422BD000206368BFF302
:103C10005F8F00221A6085F31088F8BD002B0DD04D
:103C2000167BB3420AD85E00F618033E1768BC46FE
:103C30006644B678002ED6D00120D4E7134B144A40
:103C40006821144800F0D8FE2C21134B134AFF3191
:103C5000134800F0D1FE134B134A4121104800F0E5
:103C6000CBFE1900100000F023FC0028CED19921D2
:103C70000E4B0A4A49000A4800F0BEFE23698B42F7
:103C8000C4D100232361C1E70020C6E75CB5001062
:103C900024B8001078B50010F4B600106CB700100E
:103CA000E4B4001038B50010DCB7001018B70010ED
:103CB000407D7047F0B587B006000F00EFF3058335
:103CC000002B1FD106246442E517A4197D418D42C3
:103CD00002D803D1844201D900240025002D14DB31
:103CE0000494059500F044F902000B1E13DBA41A9E
:103CF0009D41002D17DC14D03000390000F044F94C
:103D000007B0F0BD234800F011FF234B234A3F21A9
:103D1000234800F071FE204B204A3F21204800F04C
:103D20006BFE002CE8D0FFF77DFE00230293019389
:103D30001C4B0093049A059BFFF78AFE002818DAB3
:103D4000DAE7002300E00023002BD5D1164B1A68D8
:103D5000EFF3108172B61368002BFCD0BFF35F8FB6
:103D6000114B1B68BFF35F8F00221A6081F310882C
:103D700020BF0499059A0D4B5B6A9A42E3D80B4821
:103D8000806A884203D29A42DBD00123DCE7012318
:103D9000DAE7C0461CB70010DCB3001084B700108F
:103DA000F8B30010A5330010802800200040054023
:103DB00070B504000D0000F0DBF802000B1E0ADBFA
:103DC000200029008018594100290ADB00290CDB5A
:103DD000FFF770FF70BD084B084A3F21084800F00C
:103DE0000BFE012040420749F0E7034B034A3F2105
:103DF000034800F001FEC046DCB3001084B7001099
:103E0000F8B30010FFFFFF7F10B5FA2292000023E5
:103E1000002102F015FEFFF7CBFF10BD70B584B096
:103E200005000C00EFF30583002B1ED1FFF7FAFD10
:103E3000002302930193224B00932A002300FFF7F3
:103E400007FE061E23DD20BFFFF7ECFD3100FFF764
:103E5000B3FE1C4B5B6A9C422DD81A4A926AAA4256
:103E60002CD29C4225D0012026E0164B5B6A994259
:103E700009D8144A926A824207D2994201D001209D
:103E80001AE0002018E0002016E0012014E00D4B9D
:103E90005B6A9C4209D80B4A926AAA4207D29C42AA
:103EA00001D0012008E0002006E0002004E001200D
:103EB00002E0002000E0002004B070BD0120FBE71C
:103EC000A53300100040054070B5EFF305801038B1
:103ED000EFF3108C72B61A4B1B68002BFBD0BFF3AC
:103EE0005F8F01221300834016494B6316490B6014
:103EF000164909780C00C440224214D0114A546A71
:103F00008200134D5259944206D38200114C12592B
:103F100099430E4B197007E00A4A031D9B009958FC
:103F20009950002200E00022BFF35F8F044B002174
:103F300019608CF31088002A00D0904770BDC046ED
:103F4000280100D0004005403C700540CE280020EC
:103F5000A0280020E01F002010B50100024A0348FD
:103F6000FEF734FE10BDC04648B80010CA28002035
:103F7000044B5B6A034A906A1900536A9942F9D16B
:103F80007047C04600400540084B5B6A01E0074BA4
:103F90005B6A8B42FBD301E0044B5B6A8B4203D12B
:103FA000024B9B6A8342F7D37047C04600400540EE
:103FB00070B504000D00EFF3108672B61B4B1B6842
:103FC000002BFBD0BFF35F8F002D1CD02000FEF72D
:103FD000E9FE174B83420BD019002000FEF7EAFEE2
:103FE00001212000FEF7D6FE0123A340114A1360F1
:103FF000A400114BE550BFF35F8F0C4B00221A60F9
:1040000086F3108870BDA2000B4B0021D150012215
:10401000A2400A490B7893430B7005492000FFF733
:104020000DF800212000FEF7B5FEE4E7280100D0DE
:10403000C93E001038600540E01F0020CE28002057
:10404000F0B5DE4600B584B00400150001921E00F4
:104050000293FFF78DFF03958E4202D84ED1854221
:104060004CD9EFF3108B72B6274B1B68002BFBD09B
:10407000BFF35F8F254A17780125A540EBB23B437C
:104080001370234B5D63221D92000199D150A20051
:104090002049029850501B6A2B4212D11C4B1B6CBA
:1040A0002B4208D00020BFF35F8F174B00221A600D
:1040B0008BF3108823E0184B184AC521184800F0EC
:1040C0009BFCFFF755FF8E4214D802D1039B83421D
:1040D00010D80E4B1B78BB420ED00D4B1D625D639A
:1040E0001F2004400123A3400E4A1360074B1F709A
:1040F0001E38D8E70020D6E70120D4E7012004B01D
:1041000080BCBB46F0BDC046280100D0CE280020B0
:1041100000400540A02800206CB80010F0B8001046
:1041200090B8001080E200E0EFF3108C72B60B4BF9
:104130001B68002BFBD0BFF35F8F01238340084A2D
:10414000136208490A789A430A70BFF35F8F034BE2
:1041500000221A608CF310887047C046280100D0F6
:1041600000400540CE28002010B500291ED0037B5A
:1041700099421BD84B005B18033B0468A446634478
:10418000002919D0002A1DD0914221D0002A25D023
:10419000047BA24222D804685000801803382018FB
:1041A0008170197800291FD11A7010BD104B114A67
:1041B0006821114800F020FC104B114A6F310E4865
:1041C00000F01AFC0F4B0E4A70210B4800F014FC53
:1041D0000D4B0B4A7121084800F00EFC044B054AB8
:1041E0006821054800F008FC41701A70DDE7C04600
:1041F0005CB5001014BA001078B50010E0B50010DE
:1042000000BA0010ECB50010F8B5001070B506004B
:104210000D001400002914D0002A14D0806873689F
:104220009847002806D0220029003000FFF79CFFA5
:10423000280007E02A0021003000FFF795FF20004A
:1042400000E0100070BD0800FCE7000010B500237E
:10425000437301338373037BC3730123027B9A424D
:1042600014D9002B0CD0027B934209D85A00D218E3
:10427000033A01688C4662440133DBB25370EDE7C8
:104280000B4B0C4A68210C4800F0B6FB002A09D001
:10429000924207D8016853009A18033A8A180023FB
:1042A000537010BD024B034A6821034800F0A4FB81
:1042B0005CB5001014BA001078B5001010B5017389
:1042C00042608360FFF7C2FF10BD000070B50400BC
:1042D000081E00D170BD002934D0237B994231D80B
:1042E0004B005B18033B2268944663445A78002ACB
:1042F000F0D02DD0237B9A422AD853009B18033B41
:1043000021688C4663445D7800215970002825D0CF
:10431000237B984222D843001B18033B21688C461C
:1043200063440021597001002000FFF76FFF060071
:1043300029002000FFF7CAFF020031002000FFF72C
:1043400065FFC7E7084B094A6821094800F054FB9C
:10435000054B064A6821064800F04EFB024B034A13
:104360006821034800F048FB5CB5001014BA001047
:1043700078B5001070B505000C00160000292FD08C
:1043800034D0037B994231D84B005B18033B026861
:10439000944663445A78002A2ED19A78002A31D163
:1043A0001978FFF793FF0300002E0AD0EA7B002A5A
:1043B0002ED1AA7B002A03D1EA7B002A3BD1AC7321
:1043C000EC73002B3DD1002C4FD02B7B9C424CD862
:1043D0002B6861000C19033C1C190023637070BD2D
:1043E000254B264A3821264800F006FB254B264A55
:1043F0006821264800F000FB254B204A3A2120483E
:1044000000F0FAFA234B1D4A3B211D4800F0F4FA54
:10441000002A0AD0297B8A4207D851008A18033A19
:1044200029688C4662445470C3E7164B164A6821CB
:10443000164800F0E1FA184B104A4221104800F0EB
:10444000DBFA002B0BD02A7B934208D843001B18C1
:10445000033B2A689446634400229A70B3E7094BF1
:10446000094A6821094800F0C7FA064B064A682144
:10447000064800F0C1FAC0460CB90010ECB90010B3
:1044800014B900105CB5001014BA001078B5001013
:1044900068B9001090B90010BCB6001070B50400E7
:1044A0000A00457B2900FFF765FF6073280070BD97
:1044B00070B50400002967D0437B8B420ED00029E1
:1044C00011D0037B99420ED84B005B18033B026866
:1044D000D0188378002B0CD1002056E00121FFF783
:1044E000DDFF012051E0294B294A6821294800F0CD
:1044F00083FA002B20D0227B93421DD85A00D31878
:10450000033B2268D2182568EB5C8B421AD0002B43
:104510001BD0227B934218D85A00D318033B226841
:10452000D21853788B4216D0002BF0D11A4B1B4A6D
:104530006B211B4800F060FA144B154A682115489E
:1045400000F05AFA4378137007E0104B104A6821C4
:10455000104800F051FA4378537000238370437081
:1045600001222000FFF706FF0200617B814205D097
:104570002000FFF74BFE6073012006E0094B074A5D
:104580007121074800F038FA002070BD5CB50010BA
:1045900014BA001078B50010CCB20010D4B90010D5
:1045A00014B90010B4B90010F8B5DE4657464E46AF
:1045B0004546E0B505000F0092460A9A934250D353
:1045C0001A0E91461E020A9A00233000494601F055
:1045D000FFFB80466C006419A400304B9C46644489
:1045E0006368834200D260602B1FDBB29B46012BC5
:1045F0003DD9C0239B012343802212011A60AB00E6
:10460000274A9958002907D0506901F0A3FB431CA1
:104610005800C0180338FDD253465A0123685A4047
:10462000E0231A4080235B0123431A605A46012A83
:1046300028D980239B012343802212011A6043461C
:104640006360424600233000494601F0C1FBAD00E3
:10465000134B58510120F0BCBB46B246A946A046B8
:10466000F8BD104B104A3321104800F0C5F9012F56
:10467000BFD1C0239B01234303221A60A368DB0739
:10468000FCD5C9E72168794003220A401A60A26874
:104690000123BB401342FAD0CBE7C0460080004064
:1046A0002421002020BA001094BA001034BA00105F
:1046B00030B583B00C2000F011F9FEF767FA00283E
:1046C0000DD0002304E099002D4A2E488850013374
:1046D000092BF8D92A4B2C4A5A6203B030BD2B4B18
:1046E00000229A6700F06CF9294B01221A60274BCF
:1046F0005B6C012BFBD1274B03221A60234B9B6B76
:10470000012BFBD1013300930433234A01212348B9
:1047100000F054F805230093214A0121214800F0BC
:104720004DF8214B0093002202210420FFF73CFFAB
:104730001E4D00952B00002201210520FFF734FFBC
:10474000104C00942300002200210720FFF72CFFCB
:1047500000942300002200210820FFF725FF0A4BC8
:1047600000932300002200210920FFF71DFF009580
:104770002B00002200210620FFF716FFADE7C04600
:1047800024210020006CDC021BB7000000800040E8
:104790003CB0004030B00040002F6859008002401B
:1047A000008C864700C00240001BB70040597307C9
:1047B0008000014BC058704724210020F0B5C64648
:1047C00000B504000E0017001D00374801F0C2FAC2
:1047D0008046364BFA18364B9A4239D801003800D9
:1047E00001F0B8FA0200103A98235B009A4235D8DB
:1047F0006B1E062B38D8069B013B062B34D83F098D
:10480000474537D32D04069B1A0315432368002B15
:1048100036DB284B9C4244D080225201264B1A6042
:10482000264B1A60264B9B6811009943FAD12660EB
:10483000A060231DC02292011A4321231360236824
:10484000002BFCDAE5600823136080BCB846F0BD9D
:104850001C4B1D4A11211D4800F0CEF81C4B1A4A72
:1048600019211A4800F0C8F81A4B174A1C2117489A
:1048700000F0C2F8184B144A2321144800F0BCF889
:1048800022683F231340B342C3D1A3681B051B0D0D
:104890008342BED1E368EE22D2021340AB42B8D1CC
:1048A000D3E780229201B9E7001BB70080E84BD321
:1048B00080F8A93200C0024000E0004000F0004053
:1048C00000C00040A4BA0010E4BB001004BB0010FC
:1048D00060BB00107CBB0010C8BB001080239B0095
:1048E0000343014AD362704700800540024B1A68B7
:1048F000024B5A607047C0465C260020008005408D
:1049000010B50200164B8020C0051860154B1648E4
:10491000186000290AD0154BE021C9041960002A4B
:1049200009D1124B802212061A6010BD0C4BE021F7
:10493000C9041960F3E753019B1A9800801800011D
:104940000B4B186080235B04984202D3084B094A42
:104950001A60FFF7CBFF054B8022D2051A60E4E70F
:1049600000B0054008200140FCFF010000A0054008
:104970005C260020FFFFFF0010B5030010000C4A6A
:104980008024E4051460002B0DD001221343094A52
:10499000094CD461094C5C4014625162936200215D
:1049A000FFF7AEFF10BD034B0022DA61F7E7C04608
:1049B00000B0054000800540D3C007B02D3FF84F40
:1049C000074BAA2212011A602132FF32DA60054B2E
:1049D000054A1A60024B5B68002BFBDA7047C04641
:1049E000004002400060024000B0FA0000BEFDE757
:1049F00010B5FFF7FBFF000010B582B00C001900E6
:104A0000002A0CD0084B002A0BD0019200932300FF
:104A10000200064802F028FB0120FFF7E7FF044BE5
:104A2000F1E7034AF1E7C046F0BB001000BC0010FC
:104A3000FCA9001070B52B4B2B4A1A602B4B2C4A4B
:104A40001A602C4B9A682A4B9343FAD12A4C01E006
:104A500008CC9847294B9C42FAD3FFF729FE234BF9
:104A6000274A1A60234B9B68DB43DB01FAD1254BB5
:104A700040229A675A671A67DA66234C09E0234B8B
:104A8000234A87212348FFF7B7FF2000FEF73AFCAF
:104A90000834214B9C4209D22368002BF5D0012B0E
:104AA000EDD12000FEF73BFC0834F2E71B4CA16877
:104AB0001B4DC022280002F071F9A560EFF30583B9
:104AC000002B00D000BEFEF7C3F8FEF705FCFEF792
:104AD00089FF144C01E008CC9847134B9C42FAD351
:104AE00070BDC04600E00040BFCDFBFE00F00040BE
:104AF000FE7F3C0000C00040100F0020200F00206F
:104B0000FFFFFF0100F00140000F002030BC00104B
:104B1000C0BC001050BC0010100F002000ED00E0E1
:104B200000000020200F0020280F00200FB400B547
:104B300083B0084802F068FA049B002B07D005A94F
:104B40000191180002F070FA034802F05DFA0120AA
:104B5000FFF74CFFB0BC001024AA0010704710B53E
:104B6000002802D00B684968984710BD010000205A
:104B700007E083001B185B00501C08601078C01809
:104B800030380A681378303BDBB2092BF1D9704713
:104B9000F0B5DE4657464E464546E0B583B09346EF
:104BA0001F000C9B9A460D9C0E9B99460F9B9B07E2
:104BB00003D0B8460F00060022E00192A3468846C3
:104BC0004E46B9460700B44207D2551C4B464146F3
:104BD0002020B84701342A00F5E73D004F465C46E7
:104BE000019B9B46B1464646B84637002E0007E07B
:104BF000013C551C5346185D43463900B0472A0016
:104C0000002CF5D135003E0047460F9B9B0707D48B
:104C1000100003B0F0BCBB46B246A946A046F0BDAA
:104C2000B0464E46B9462F005D46531BB342EFD205
:104C3000541C4B4641462020B8472200F5E7F0B50A
:104C4000CE46474680B585B0944698460C9D0D9C4F
:104C50000EAB1B789946109A119B129EB7071CD475
:104C6000002B0CD0F7070AD54F46002F02D10C3786
:104C7000374204D0013B02E030272F5501349442E3
:104C800001D21F2CF8D9F70707D59C4205D21F2C5B
:104C900003D830272F550134F5E7F70615D57705EA
:104CA00005D4002C03D0944224D09C4222D00F9AE9
:104CB000102A2BD00F9A102A30D00F9A022A35D002
:104CC0001F2C02D830222A5501341F2C05D84A4601
:104CD000002A31D02D222A550134039602930194E3
:104CE000009543466246FFF753FF05B0C0BCB94686
:104CF000B046F0BD621E012C06D00F9F102F01D0D0
:104D00001400D4E7023CD2E71400D0E7B206D1D4B5
:104D10001F2CCFD878222A550134D1E7B206CCD542
:104D20001F2CCAD858222A550134C9E71F2CC7D8CE
:104D300060322A550134C3E7720703D52B222A5566
:104D40000134CAE73207C8D520222A550134C4E706
:104D5000F0B5DE4657464E464546E0B593B081462F
:104D60008A46089209931CAB10CB1B789B461E9D6C
:104D7000219B9846002C03D1102342469A4390462B
:104D80008023DB0046461E4042461A4212D0002CC9
:104D900022D000260EE03033D9B2771C0AAB9955E9
:104DA0002900200000F0D6FFAC4216D31F2F14D8E4
:104DB0003E0004002900200000F0CCFFCBB2092BFC
:104DC000E9D94246920605D54121C918C9B20A3926
:104DD000C9B2E2E76121F8E7270043460693209B2A
:104DE00005931F9B049303955B46029301970AABBF
:104DF0000093099B089A51464846FFF720FF13B0DD
:104E0000F0BCBB46B246A946A046F0BDF0B5DE46B2
:104E100057464E464546E0B595B0089009910A922E
:104E20000B931E9E1F9C20AB1B789B46229B994692
:104E3000239D269B9A463300234303D110335246C9
:104E40009A4392468023DB0057461F4052461A423F
:104E500019D0330023432DD0002714E03033DAB2C9
:104E60007B1C98460CABDA554A462B0030002100DB
:104E700000F0AEFFA5421FD819D043461F2B1BD808
:104E8000474606000C004A462B003000210000F087
:104E90009FFFD3B2092BE1D95246920605D5412294
:104EA000D218D2B20A3AD2B2DAE76122F8E7B145B3
:104EB000E3D901E00023984653460693259B0593CA
:104EC000249B04934B4603935B4602934346019312
:104ED0000CAB00930B9B0A9A09990898FFF7AFFE59
:104EE00015B0F0BCBB46B246A946A046F0BD0000D6
:104EF000F0B5DE4657464E464546E0B591B083468E
:104F00008A460C9298461A9C08941B9D099522008B
:104F10002B002000290001F0E6F9002800D0E5E090
:104F200001225242D74B2000290001F0D7F9002876
:104F300000D0DBE001225242D34B2000290001F0D7
:104F4000B7F9002800D0D1E000220023089E3000ED
:104F5000099D290001F0ACF9002800D0DDE0089897
:104F60000999069007918023DB001E9A1A400D9242
:104F70001E9A1A4201D106231C9306980799040031
:104F80000D000A000600024300D1D1E0080D4005E3
:104F9000400DBE4CA44660440A03120BBC4B1343A5
:104FA0001F0001F0B3F9BB4ABB4B01F03EF9BB4A0D
:104FB000BB4B01F013F904000D000022B94B300087
:104FC000390001F002F9B84AB84B01F02EF902009D
:104FD0000B002000290001F001F901F0AFF9814632
:104FE00001F094F904000D00B14AB24B01F01DF933
:104FF0000022B14B01F0F2F801F0A0F90600AF4A2F
:10500000AF4B2000290001F010F904000D00300022
:1050100001F07CF9AB4AAC4B01F007F902000B0040
:105020002000290001F0D1F804000D0002000B005F
:1050300001F0FBF80A900B91A44BF31800261F0512
:1050400022002B002000290001F0C8F80E900F91DB
:1050500022002B0000208021C90501F0B6F80400D1
:105060000D0000229A4B0A980B9901F0C0F800221B
:10507000984B01F0B3F802000B000A980B9901F06D
:10508000B6F80022944B01F0A9F802000B000A9830
:105090000B9901F0ACF802000B002000290001F090
:1050A0009DF802000B000E980F9901F0A0F8002265
:1050B000774B01F093F832003B0001F0B6F80600A0
:1050C0000F0004000D00069A079B01F007F9002865
:1050D00030D001235B429C46E14400227D4B3000EE
:1050E000390001F084F804000D0023E01E9B0493B6
:1050F0001D9B03931C9B0293089A099B00920193AA
:1051000043460C9A5146584600F0FCF811B0F0BCEA
:10511000BB46B246A946A046F0BD00230024069334
:105120000794069680231B069C46654407951AE75C
:10513000002399464B466333C62B1ED804261E9B7C
:105140001B0526D52B0023430FD0644A644B0698D9
:10515000079901F0BBF8002879D00022614B06982E
:10516000079901F0A5F8002871D01C9B4B4506DD7E
:105170004A46981A431E1C9303E00526DFE70023E6
:105180001C938023DB001E9A1A431E9200260023E4
:1051900099461D9B9E4264D29F1B02231E9A1A4071
:1051A0000A921E9A134202D0002E00D000274B46CE
:1051B000002B07D022002B000698079901F017F862
:1051C00006900791002200230898099901F070F8D1
:1051D000002848D1444B1E9A1340049303971C9B0C
:1051E0000293069B079C0093019443460C9A5146F8
:1051F000584600F087F8002E00D187E71E9B9B06DB
:105200003DD54525441C4346020051462800D84759
:105210004B46DA179B18534005220592013E04962F
:10522000002203920A3202924A46D00F0190009364
:105230004346220051465846FFF78AFD0A9B002B41
:1052400000D163E702005F460C9E1D9D54E01C9B4D
:10525000002B9ED00D9B002B9BD01C9B013B1C93D5
:1052600097E7002799E7069C079D220029008020E8
:105270000006844661440B0006920793AAE7652561
:10528000C0E7C046FFFFEF7FFFFFEFFF01FCFFFF1E
:105290000000F03FFB799F501344D33FB3C8608BAD
:1052A000288AC63F0000F83F61436F63A787D23F5B
:1052B00071A379094F930A400000E03F1655B5BB32
:1052C000B16B0240EF39FAFE422EE63FFF030000C9
:1052D00000002C4000002440000018402D431CEB2F
:1052E000E2361A3F80842E41FFF7FFFF541C4346ED
:1052F00051462020B8472200931BAB42F6D3100042
:1053000004E7C046F0B5DE4657464E464546E0B592
:1053100095B00690079193469946209F1E9A1F9B31
:105320001000190000F0DFFF002831D101225242A5
:10533000BF4B1E981F9900F0BBFF002837D10122F8
:105340005242BC4B1E981F9900F0C8FF00283DD167
:105350000022B94B1E981F9900F0C0FF002850D1C1
:105360000022B64B1E981F9900F0A2FF002848D1DA
:10537000002200231E981F9900F09AFF002850D1A8
:1053800000239846229B5B0500D4B6E0002458E039
:10539000229B0393219B029303230193A84B009329
:1053A0004B465A4607990698FFF7F2FB0EE1229BFF
:1053B0000393219B029304230193A24B00934B463A
:1053C0005A4607990698FFF7E3FBFFE00423229A69
:1053D0001A4022990B4210D09B4B002A0FD0042276
:1053E0002299039121990291019200934B465A46CA
:1053F00007990698FFF7CCFBE8E0944BEDE7032212
:10540000EEE7229B0493219B039302971E9B1F9C14
:10541000009301944B465A4607990698FFF768FD9A
:10542000D4E01E9A1F9B0020002100F0CEFE1E90AB
:105430001F9101239846A5E70CAB30221A55013F76
:1054400001341F2C01D8092FF6D81E981F9900F09F
:1054500075FF050000F05AFF02000B001E981F990F
:1054600000F0B3FEFA007A4B9B181A685B680A9248
:105470000B9300F0DAFE0890099100F083FF06001C
:1054800000F040FF02000B000898099900F09DFE13
:105490000890099100226F4B00F020FF00282ED0C9
:1054A0000136300000F02EFF02000B000A980B9925
:1054B00000F004FF002801D001350026002F2CD178
:1054C000280000F023FF02000B001E981F9900F037
:1054D0007CFE06000F0000225E4B00F0E9FE002873
:1054E00046D100225B4B3000390000F0F7FE002867
:1054F0003ED1EB073CD501353AE0062746E70022CE
:10550000544B0898099900F0D3FE0028D6D1002EFC
:1055100001D0F307D2D50136D0E7AA461F2C11D807
:10552000013F0A21300000F015FC651C30310CAB46
:1055300019550A21300000F00DFC092E0ED9060085
:105540002C00EBE755461F2C0CD87B1E002F09D0F2
:105550000CAA302111551F000134F4E72B005546E9
:105560001C00F0E71F2C03D80CAB2E221A55013477
:105570001F2C10D80A21280000F0C4FB661C303113
:105580000CAB19550A21280000F0BCFB051E01D008
:105590003400EDE734000323229A1340012B1CD082
:1055A0001F2C06D84346002B32D00CAB2D221A55A7
:1055B0000134229B0393219B029301940CAB009333
:1055C0004B465A4607990698FFF7E2FA15B0F0BC29
:1055D000BB46B246A946A046F0BD219B002B13D086
:1055E0004346002B02D10C3313420FD0219B013BC9
:1055F0002193190003E00CAB30221A5501348C4280
:10560000CED21F2CF7D9CBE72199F8E72199F6E7FD
:10561000229B5B0704D50CAB2B221A550134C8E73B
:10562000229B1B07C5D50CAB20221A550134C0E7BD
:10563000FFFFEFFFFFFFEF7F65CDCD4165CDCDC112
:10564000DCBC0010E0BC0010D4BC0010D0BC0010CA
:10565000C8BE00100000E03FF0B5DE4657464E469B
:105660004546E0B593B082468B469046119300299B
:1056700000D1EBE200275546119B1878002800D195
:10568000E7E2252809D07C1C43463A005946A84742
:10569000119B013311932700EEE70133119300248E
:1056A000119A11780B00203BD8B2102803D8830040
:1056B000D048C3589F460B00303BDBB2092B2CD996
:1056C0002A292FD000230A93119B1A782E2A39D029
:1056D00000239A46119A1378683BD9B2122976D8DA
:1056E0008B00C549CB589F4601231C4301321192C0
:1056F000D6E702231C4301321192D1E704231C4355
:1057000001321192CCE708231C4301321192C7E702
:1057100010231C4301321192C2E711A8FFF726FAA9
:105720000A90D1E71C9B1A1D1C921868002804DB04
:105730000A90119B01331193C6E702231C43434295
:105740000A93F6E78022D20014435A1C11925A7829
:105750001300303BDBB2092B04D92A2A07D00023DF
:105760009A46B7E711A8FFF701FA8246B2E71C9BF9
:105770001A1D1C921868002804DB8246119B013315
:105780001193A7E70020F8E780235B002343511C17
:10579000119152786C2A01D01C0018E0C0239B00A4
:1057A0001C430131119112E080232343511C1191BC
:1057B0005278682A01D01C0009E0C0231C43013143
:1057C000119104E080235B001C4301321192119B74
:1057D00018780300253BDAB2532A00D92CE2930053
:1057E000864AD3589F4680239B001C430132119266
:1057F000EDE780235B001C4301321192E7E7782834
:1058000009D0582838D06F2838D0622838D01023D3
:105810009C430A2600E01026582833D0692803D07C
:10582000642801D00C229443630501D501229443DE
:1058300069282AD0642828D0A30500D59FE0E30575
:1058400000D5B8E0630600D4CAE01C9A111D1C9173
:105850001168FF220A4005940A9B04935346039360
:10586000029600230193009243463A0059462800CD
:10587000FFF76EFA070027E01026CDE70826CBE7F2
:105880000226C9E720221443C8E7A30520D4E30574
:1058900050D4630666D51C9A111D1C911168FF2215
:1058A0000A40D317D118594005940A9B04935346D4
:1058B00003930296D20F0192009143463A00594653
:1058C0002800FFF745FA0700119B01331193D3E637
:1058D0001C9BDA1D07218A43110008311C911168B5
:1058E00053689C46DB170C930D930C9A0D9B10008C
:1058F00048400E90624653400F930E980F990C9AB1
:105900000D9B801A99410E900F9108940A9B079362
:10591000534606930496002305936346DA0F0292DA
:105920000090019143463A0059462800FFF76EFA6D
:105930000700C9E71C9A111D1C911268D317D118D2
:10594000594005940A9B0493534603930296D20F41
:105950000192009143463A0059462800FFF7F8F9B2
:105960000700B1E7230605D51C9A111D1C910023E1
:10597000D25E96E71C9A111D1C91126891E71C9B40
:10598000DA1D07218A43110008311C9108940A9BF3
:1059900007935346069304960023059302931368D6
:1059A00054680093019443463A0059462800FFF793
:1059B0002DFA070088E71C9A111D1C9105940A9B7B
:1059C00004935346039302960023019313680093B4
:1059D00043463A0059462800FFF7BAF9070073E733
:1059E00023060DD51C9A111D1C9112681204120C6D
:1059F00031E7C046E8BC00102CBD001078BD001097
:105A00001C9A111D1C91126825E746281AD01C9B70
:105A10000733072293431A0008321C9204940A9A0F
:105A20000392524602925C681B68009301944346BD
:105A30003A0059462800FFF765FC0700119B013327
:105A4000119319E620231C43E1E7672801D047287A
:105A500002D180231B011C43452801D0472801D1D6
:105A600020231C431C9B0733072293431A00083250
:105A70001C9204940A9A0392524602925C681B6834
:105A80000093019443463A0059462800FFF730FA44
:105A90000700119B01331193EEE502231A00224007
:105AA000924623421FD001241C9B1A1D1C927A1C73
:105AB0009146187843463A005946A8475346002B6A
:105AC00016D1119B013311934F46D5E5561C434621
:105AD00059462020B847230032005C1C9D42F5D86F
